{
  "transactions": [
    {
      "hash": "0xbce8c988adf69c68254ea5b4df9e7b57f6b539ecaa18806cdd721b736e170094",
      "transactionType": "CALL",
      "contractName": null,
      "contractAddress": "0xa2c07e4c38eac63d3335958a58d1fb2e4a70ba21",
      "function": "approveAdapter(address)",
      "arguments": [
        "0x49Cf40BEe86Ab8bD080eE7918eD1d2D26DCF4c8b"
      ],
      "transaction": {
        "from": "0xf39fd6e51aad88f6f4ce6ab8827279cfffb92266",
        "to": "0xa2c07e4c38eac63d3335958a58d1fb2e4a70ba21",
        "gas": "0x11dcf",
        "value": "0x0",
        "input": "0xc0e2ffc400000000000000000000000049cf40bee86ab8bd080ee7918ed1d2d26dcf4c8b",
        "nonce": "0x11f6",
        "chainId": "0x1"
      },
      "additionalContracts": [],
      "isFixedGasLimit": false
    },
    {
      "hash": "0xd762029aa1e90f043e2bdf4dc90eabef0f8a54a69695d8ab140e5205a14e36dd",
      "transactionType": "CALL",
      "contractName": null,
      "contractAddress": "0xa2c07e4c38eac63d3335958a58d1fb2e4a70ba21",
      "function": "approveAdapter(address)",
      "arguments": [
        "0x0d0F9C2E2097e7dC1443Bb47e3fF4b8D4c67AdE5"
      ],
      "transaction": {
        "from": "0xf39fd6e51aad88f6f4ce6ab8827279cfffb92266",
        "to": "0xa2c07e4c38eac63d3335958a58d1fb2e4a70ba21",
        "gas": "0x11dcf",
        "value": "0x0",
        "input": "0xc0e2ffc40000000000000000000000000d0f9c2e2097e7dc1443bb47e3ff4b8d4c67ade5",
        "nonce": "0x11f7",
        "chainId": "0x1"
      },
      "additionalContracts": [],
      "isFixedGasLimit": false
    },
    {
      "hash": "0x4c0d8869b26a5c4a28116805b5abcdc966aed53b2fbf2b7d7a68a808a22048c7",
      "transactionType": "CALL",
      "contractName": null,
      "contractAddress": "0xa2c07e4c38eac63d3335958a58d1fb2e4a70ba21",
      "function": "approveQuoteToken(address)",
      "arguments": [
        "0xA0b86991c6218b36c1d19D4a2e9Eb0cE3606eB48"
      ],
      "transaction": {
        "from": "0xf39fd6e51aad88f6f4ce6ab8827279cfffb92266",
        "to": "0xa2c07e4c38eac63d3335958a58d1fb2e4a70ba21",
        "gas": "0x12ee1",
        "value": "0x0",
        "input": "0xc614ee3b000000000000000000000000a0b86991c6218b36c1d19d4a2e9eb0ce3606eb48",
        "nonce": "0x11f8",
        "chainId": "0x1"
      },
      "additionalContracts": [],
      "isFixedGasLimit": false
    },
    {
      "hash": "0x5a495a0fdf46438a70857d10490ac1d7fdce5e22d9982ca72a65e9099bb875d8",
      "transactionType": "CALL",
      "contractName": null,
      "contractAddress": "0xa2c07e4c38eac63d3335958a58d1fb2e4a70ba21",
      "function": "approveQuoteToken(address)",
      "arguments": [
        "0xdAC17F958D2ee523a2206206994597C13D831ec7"
      ],
      "transaction": {
        "from": "0xf39fd6e51aad88f6f4ce6ab8827279cfffb92266",
        "to": "0xa2c07e4c38eac63d3335958a58d1fb2e4a70ba21",
        "gas": "0x12ee1",
        "value": "0x0",
        "input": "0xc614ee3b000000000000000000000000dac17f958d2ee523a2206206994597c13d831ec7",
        "nonce": "0x11f9",
        "chainId": "0x1"
      },
      "additionalContracts": [],
      "isFixedGasLimit": false
    },
    {
      "hash": "0xa83a05d27a5e950049f61f36002a83c012a4f14163208a6b225ed33a46cfccbb",
      "transactionType": "CALL",
      "contractName": null,
      "contractAddress": "0xa2c07e4c38eac63d3335958a58d1fb2e4a70ba21",
      "function": "approveQuoteToken(address)",
      "arguments": [
        "0x6B175474E89094C44Da98b954EedeAC495271d0F"
      ],
      "transaction": {
        "from": "0xf39fd6e51aad88f6f4ce6ab8827279cfffb92266",
        "to": "0xa2c07e4c38eac63d3335958a58d1fb2e4a70ba21",
        "gas": "0x12ee1",
        "value": "0x0",
        "input": "0xc614ee3b0000000000000000000000006b175474e89094c44da98b954eedeac495271d0f",
        "nonce": "0x11fa",
        "chainId": "0x1"
      },
      "additionalContracts": [],
      "isFixedGasLimit": false
    },
    {
      "hash": "0xdf24a31091efa7d9d268a587d7b4ea3350ef26c11b8256f6b84419a4dfc92e35",
      "transactionType": "CALL",
      "contractName": null,
      "contractAddress": "0xa2c07e4c38eac63d3335958a58d1fb2e4a70ba21",
      "function": "approveQuoteToken(address)",
      "arguments": [
        "0xC02aaA39b223FE8D0A0e5C4F27eAD9083C756Cc2"
      ],
      "transaction": {
        "from": "0xf39fd6e51aad88f6f4ce6ab8827279cfffb92266",
        "to": "0xa2c07e4c38eac63d3335958a58d1fb2e4a70ba21",
        "gas": "0x12ee1",
        "value": "0x0",
        "input": "0xc614ee3b000000000000000000000000c02aaa39b223fe8d0a0e5c4f27ead9083c756cc2",
        "nonce": "0x11fb",
        "chainId": "0x1"
      },
      "additionalContracts": [],
      "isFixedGasLimit": false
    },
    {
      "hash": "0xba9569ebf59891f406500702ee344d841abb78d5c171c2418aa117a52d05b650",
      "transactionType": "CALL",
      "contractName": null,
      "contractAddress": "0xa2c07e4c38eac63d3335958a58d1fb2e4a70ba21",
      "function": "approveQuoteToken(address)",
      "arguments": [
        "0x514910771AF9Ca656af840dff83E8264EcF986CA"
      ],
      "transaction": {
        "from": "0xf39fd6e51aad88f6f4ce6ab8827279cfffb92266",
        "to": "0xa2c07e4c38eac63d3335958a58d1fb2e4a70ba21",
        "gas": "0x12ee1",
        "value": "0x0",
        "input": "0xc614ee3b000000000000000000000000514910771af9ca656af840dff83e8264ecf986ca",
        "nonce": "0x11fc",
        "chainId": "0x1"
      },
      "additionalContracts": [],
      "isFixedGasLimit": false
    }
  ],
  "receipts": [
    {
      "status": "0x1",
      "cumulativeGasUsed": "0xceed",
      "logs": [
        {
          "address": "0xa2c07e4c38eac63d3335958a58d1fb2e4a70ba21",
          "topics": [
            "0x32e0703508c4ea098d1b9450c6834e4dcddff8b234d85df988e711ab1095f0d4",
            "0x00000000000000000000000049cf40bee86ab8bd080ee7918ed1d2d26dcf4c8b"
          ],
          "data": "0x0000000000000000000000000000000000000000000000000000000000000001",
          "blockHash": "0x9e4a66fb5696487ca79af6234ab43b9b23309a7ce70e042a574b0384878fea5b",
          "blockNumber": "0x172f88e",
          "blockTimestamp": "0x6976121f",
          "transactionHash": "0xbce8c988adf69c68254ea5b4df9e7b57f6b539ecaa18806cdd721b736e170094",
          "transactionIndex": "0x0",
          "logIndex": "0x0",
          "removed": false
        }
      ],
      "logsBloom": "0x00000000000000000000000000000000000000000000000000000000000002000080000200000000000000000000000000000000000000000000000000000000000000000000000000000000000000800000000000000000000000000000000000000000000000000000000000400000000000000000000000000000000000000000000000000000000000000000000000000000000000000000000000000000000000000000000000000100000000000000000004000000000000000000000000000000000000000000000000000000000000001000000000000000000000000000000000000000000000000000000000000000000000000000000020000000",
      "type": "0x2",
      "transactionHash": "0xbce8c988adf69c68254ea5b4df9e7b57f6b539ecaa18806cdd721b736e170094",
      "transactionIndex": "0x0",
      "blockHash": "0x9e4a66fb5696487ca79af6234ab43b9b23309a7ce70e042a574b0384878fea5b",
      "blockNumber": "0x172f88e",
      "gasUsed": "0xceed",
      "effectiveGasPrice": "0x8ab429",
      "blobGasPrice": "0x136b9a4d0bf3b0552d9",
      "from": "0xf39fd6e51aad88f6f4ce6ab8827279cfffb92266",
      "to": "0xa2c07e4c38eac63d3335958a58d1fb2e4a70ba21",
      "contractAddress": null
    },
    {
      "status": "0x1",
      "cumulativeGasUsed": "0xceed",
      "logs": [
        {
          "address": "0xa2c07e4c38eac63d3335958a58d1fb2e4a70ba21",
          "topics": [
            "0x32e0703508c4ea098d1b9450c6834e4dcddff8b234d85df988e711ab1095f0d4",
            "0x0000000000000000000000000d0f9c2e2097e7dc1443bb47e3ff4b8d4c67ade5"
          ],
          "data": "0x0000000000000000000000000000000000000000000000000000000000000001",
          "blockHash": "0x16c42894dfb815890201ae7e05ed726a16cca144be3e027223430456f8d67063",
          "blockNumber": "0x172f88f",
          "blockTimestamp": "0x6976121f",
          "transactionHash": "0xd762029aa1e90f043e2bdf4dc90eabef0f8a54a69695d8ab140e5205a14e36dd",
          "transactionIndex": "0x0",
          "logIndex": "0x0",
          "removed": false
        }
      ],
      "logsBloom": "0x40000000000000000000000000000000000000000000000000000000000002000080000200000000000000000000000000000000000000000000000000000000000000000000000000000000000000000000000000000000000000000000000000000000000000000000000000400000000000000000000000000000000000000000000400000000000000000000000000000000000000000000000000000000000000000000000000000100000000000000000004000000000000000000000000000000000000200000000000000000000000000000000000000000000000000000000000000000000000000000000000000000000000000000000000000000",
      "type": "0x2",
      "transactionHash": "0xd762029aa1e90f043e2bdf4dc90eabef0f8a54a69695d8ab140e5205a14e36dd",
      "transactionIndex": "0x0",
      "blockHash": "0x16c42894dfb815890201ae7e05ed726a16cca144be3e027223430456f8d67063",
      "blockNumber": "0x172f88f",
      "gasUsed": "0xceed",
      "effectiveGasPrice": "0x796625",
      "blobGasPrice": "0x114333ced2d63270fdc",
      "from": "0xf39fd6e51aad88f6f4ce6ab8827279cfffb92266",
      "to": "0xa2c07e4c38eac63d3335958a58d1fb2e4a70ba21",
      "contractAddress": null
    },
    {
      "status": "0x1",
      "cumulativeGasUsed": "0xcf19",
      "logs": [
        {
          "address": "0xa2c07e4c38eac63d3335958a58d1fb2e4a70ba21",
          "topics": [
            "0x59a8234668400022511cf16e138a5c22aaa48172d517061c02d974583218c2a5",
            "0x000000000000000000000000a0b86991c6218b36c1d19d4a2e9eb0ce3606eb48"
          ],
          "data": "0x0000000000000000000000000000000000000000000000000000000000000001",
          "blockHash": "0x59f0e7adaf703da843e2aae1584c37ec0b91d45c4ead02e641797f17027ebea9",
          "blockNumber": "0x172f890",
          "blockTimestamp": "0x6976121f",
          "transactionHash": "0x4c0d8869b26a5c4a28116805b5abcdc966aed53b2fbf2b7d7a68a808a22048c7",
          "transactionIndex": "0x0",
          "logIndex": "0x0",
          "removed": false
        }
      ],
      "logsBloom": "0x00000000000000000000000000000000000000000000000000000000000002000000000000000000000002000000000000000000000000000000000000000000000000000000000000000000000000000000000000000000000000000000000000000000000000000000000400400000000000000000000000000000000000000000000000000000000000000000000200000000000000000000000000000000000000000000000000000000000000000000000004000000000200000000000000000000000000000000000000000004000000000000000000000000000000000000000000000000000000000000000004000000000000000000000000000000",
      "type": "0x2",
      "transactionHash": "0x4c0d8869b26a5c4a28116805b5abcdc966aed53b2fbf2b7d7a68a808a22048c7",
      "transactionIndex": "0x0",
      "blockHash": "0x59f0e7adaf703da843e2aae1584c37ec0b91d45c4ead02e641797f17027ebea9",
      "blockNumber": "0x172f890",
      "gasUsed": "0xcf19",
      "effectiveGasPrice": "0x6a40e7",
      "blobGasPrice": "0xf582e09c6009fa5d57",
      "from": "0xf39fd6e51aad88f6f4ce6ab8827279cfffb92266",
      "to": "0xa2c07e4c38eac63d3335958a58d1fb2e4a70ba21",
      "contractAddress": null
    },
    {
      "status": "0x1",
      "cumulativeGasUsed": "0x19e32",
      "logs": [
        {
          "address": "0xa2c07e4c38eac63d3335958a58d1fb2e4a70ba21",
          "topics": [
            "0x59a8234668400022511cf16e138a5c22aaa48172d517061c02d974583218c2a5",
            "0x000000000000000000000000dac17f958d2ee523a2206206994597c13d831ec7"
          ],
          "data": "0x0000000000000000000000000000000000000000000000000000000000000001",
          "blockHash": "0x59f0e7adaf703da843e2aae1584c37ec0b91d45c4ead02e641797f17027ebea9",
          "blockNumber": "0x172f890",
          "blockTimestamp": "0x6976121f",
          "transactionHash": "0x5a495a0fdf46438a70857d10490ac1d7fdce5e22d9982ca72a65e9099bb875d8",
          "transactionIndex": "0x1",
          "logIndex": "0x1",
          "removed": false
        }
      ],
      "logsBloom": "0x00000000000000000000000000000000000000000000000000000000000002000000000000000000000000000000000000000000000000000000000000000000000000000000000000000000000000000000000000000000000000000000000000000000000000000000000400400000000000200000000000000000000000000000000000000000000000000000000000000000000000000000000000000000000000000000000000000000000000000000000004000000000200000000004000000000000000000000000000000004000000020000000000000000000000000000000000000000000000000000000000000000000000000000000000000000",
      "type": "0x2",
      "transactionHash": "0x5a495a0fdf46438a70857d10490ac1d7fdce5e22d9982ca72a65e9099bb875d8",
      "transactionIndex": "0x1",
      "blockHash": "0x59f0e7adaf703da843e2aae1584c37ec0b91d45c4ead02e641797f17027ebea9",
      "blockNumber": "0x172f890",
      "gasUsed": "0xcf19",
      "effectiveGasPrice": "0x6a40e7",
      "blobGasPrice": "0xf582e09c6009fa5d57",
      "from": "0xf39fd6e51aad88f6f4ce6ab8827279cfffb92266",
      "to": "0xa2c07e4c38eac63d3335958a58d1fb2e4a70ba21",
      "contractAddress": null
    },
    {
      "status": "0x1",
      "cumulativeGasUsed": "0x26d4b",
      "logs": [
        {
          "address": "0xa2c07e4c38eac63d3335958a58d1fb2e4a70ba21",
          "topics": [
            "0x59a8234668400022511cf16e138a5c22aaa48172d517061c02d974583218c2a5",
            "0x0000000000000000000000006b175474e89094c44da98b954eedeac495271d0f"
          ],
          "data": "0x0000000000000000000000000000000000000000000000000000000000000001",
          "blockHash": "0x59f0e7adaf703da843e2aae1584c37ec0b91d45c4ead02e641797f17027ebea9",
          "blockNumber": "0x172f890",
          "blockTimestamp": "0x6976121f",
          "transactionHash": "0xa83a05d27a5e950049f61f36002a83c012a4f14163208a6b225ed33a46cfccbb",
          "transactionIndex": "0x2",
          "logIndex": "0x2",
          "removed": false
        }
      ],
      "logsBloom": "0x00000000000000000000000000000000000000000000000000000000000002000000000000000000000000000000000000000000000000000000000000000000000000000000000000000000000000000000000000000000000000000000000000000000000000000000000400400000000000000000000000000000000000200000000000000000000000000000000000000000000000000000000400000000000000000000000000000000000000000000000004000000000200000000000000000000000000000000000000000004000000000000000000000000000000000000000000000000000000000000000000000000000000100000000000000000",
      "type": "0x2",
      "transactionHash": "0xa83a05d27a5e950049f61f36002a83c012a4f14163208a6b225ed33a46cfccbb",
      "transactionIndex": "0x2",
      "blockHash": "0x59f0e7adaf703da843e2aae1584c37ec0b91d45c4ead02e641797f17027ebea9",
      "blockNumber": "0x172f890",
      "gasUsed": "0xcf19",
      "effectiveGasPrice": "0x6a40e7",
      "blobGasPrice": "0xf582e09c6009fa5d57",
      "from": "0xf39fd6e51aad88f6f4ce6ab8827279cfffb92266",
      "to": "0xa2c07e4c38eac63d3335958a58d1fb2e4a70ba21",
      "contractAddress": null
    },
    {
      "status": "0x1",
      "cumulativeGasUsed": "0x33c64",
      "logs": [
        {
          "address": "0xa2c07e4c38eac63d3335958a58d1fb2e4a70ba21",
          "topics": [
            "0x59a8234668400022511cf16e138a5c22aaa48172d517061c02d974583218c2a5",
            "0x000000000000000000000000c02aaa39b223fe8d0a0e5c4f27ead9083c756cc2"
          ],
          "data": "0x0000000000000000000000000000000000000000000000000000000000000001",
          "blockHash": "0x59f0e7adaf703da843e2aae1584c37ec0b91d45c4ead02e641797f17027ebea9",
          "blockNumber": "0x172f890",
          "blockTimestamp": "0x6976121f",
          "transactionHash": "0xdf24a31091efa7d9d268a587d7b4ea3350ef26c11b8256f6b84419a4dfc92e35",
          "transactionIndex": "0x3",
          "logIndex": "0x3",
          "removed": false
        }
      ],
      "logsBloom": "0x00000000000000000000000000000000000000000000000000000000000002000000000000000000000000000000000000000000000000000000000000000000000000000000000000000000000000800000000000000000000000000000000000000000000000000000000400400000000000000000000000000000000000000000000000000000000000400000000000000000000000000000000000000000000000000000000000000000000000000000000004000000000200000000000000000000000000000000000000080004000000000000000000000000000000000000000000000000000000000000000000000000000000000000000000000000",
      "type": "0x2",
      "transactionHash": "0xdf24a31091efa7d9d268a587d7b4ea3350ef26c11b8256f6b84419a4dfc92e35",
      "transactionIndex": "0x3",
      "blockHash": "0x59f0e7adaf703da843e2aae1584c37ec0b91d45c4ead02e641797f17027ebea9",
      "blockNumber": "0x172f890",
      "gasUsed": "0xcf19",
      "effectiveGasPrice": "0x6a40e7",
      "blobGasPrice": "0xf582e09c6009fa5d57",
      "from": "0xf39fd6e51aad88f6f4ce6ab8827279cfffb92266",
      "to": "0xa2c07e4c38eac63d3335958a58d1fb2e4a70ba21",
      "contractAddress": null
    },
    {
      "status": "0x1",
      "cumulativeGasUsed": "0x40b7d",
      "logs": [
        {
          "address": "0xa2c07e4c38eac63d3335958a58d1fb2e4a70ba21",
          "topics": [
            "0x59a8234668400022511cf16e138a5c22aaa48172d517061c02d974583218c2a5",
            "0x000000000000000000000000514910771af9ca656af840dff83e8264ecf986ca"
          ],
          "data": "0x0000000000000000000000000000000000000000000000000000000000000001",
          "blockHash": "0x59f0e7adaf703da843e2aae1584c37ec0b91d45c4ead02e641797f17027ebea9",
          "blockNumber": "0x172f890",
          "blockTimestamp": "0x6976121f",
          "transactionHash": "0xba9569ebf59891f406500702ee344d841abb78d5c171c2418aa117a52d05b650",
          "transactionIndex": "0x4",
          "logIndex": "0x4",
          "removed": false
        }
      ],
      "logsBloom": "0x00000000000000000000000000000000000000000000000000000000000002000000000000000000000000000000000000000000000000000000000000000000000000000000000000000000000000000000020000000000000000000000000000000000000000000000000400400000000000000000000000000000000000000000000000000000000000000000000000000000000000000000000000000000000000000000000000000000000000000000000004000000000200000000002000000000000000000000000000000004000000000000000000000000000000040000000000000000000000000000000000000000000000000000000000000000",
      "type": "0x2",
      "transactionHash": "0xba9569ebf59891f406500702ee344d841abb78d5c171c2418aa117a52d05b650",
      "transactionIndex": "0x4",
      "blockHash": "0x59f0e7adaf703da843e2aae1584c37ec0b91d45c4ead02e641797f17027ebea9",
      "blockNumber": "0x172f890",
      "gasUsed": "0xcf19",
      "effectiveGasPrice": "0x6a40e7",
      "blobGasPrice": "0xf582e09c6009fa5d57",
      "from": "0xf39fd6e51aad88f6f4ce6ab8827279cfffb92266",
      "to": "0xa2c07e4c38eac63d3335958a58d1fb2e4a70ba21",
      "contractAddress": null
    }
  ],
  "libraries": [],
  "pending": [],
  "returns": {},
  "timestamp": 1769345581447,
  "chain": 1,
  "commit": "d45ebce"
}