{
  "transactions": [
    {
      "hash": "0x1d4dd54c13d135fb9f98c2e5811d3d76115e08b8132c8c4e71fbfef99d2aa01b",
      "transactionType": "CALL",
      "contractName": null,
      "contractAddress": "0x190b7e66447633d1b75204f19c4d953e0b836c1b",
      "function": "approveAdapter(address)",
      "arguments": [
        "0x49Cf40BEe86Ab8bD080eE7918eD1d2D26DCF4c8b"
      ],
      "transaction": {
        "from": "0xf39fd6e51aad88f6f4ce6ab8827279cfffb92266",
        "to": "0x190b7e66447633d1b75204f19c4d953e0b836c1b",
        "gas": "0x11dcf",
        "value": "0x0",
        "input": "0xc0e2ffc400000000000000000000000049cf40bee86ab8bd080ee7918ed1d2d26dcf4c8b",
        "nonce": "0x113a",
        "chainId": "0x1"
      },
      "additionalContracts": [],
      "isFixedGasLimit": false
    },
    {
      "hash": "0xc7650c1672836d0f28ae548088680d802826432dc428dfbca446d8938d9a5a96",
      "transactionType": "CALL",
      "contractName": null,
      "contractAddress": "0x190b7e66447633d1b75204f19c4d953e0b836c1b",
      "function": "approveAdapter(address)",
      "arguments": [
        "0x0d0F9C2E2097e7dC1443Bb47e3fF4b8D4c67AdE5"
      ],
      "transaction": {
        "from": "0xf39fd6e51aad88f6f4ce6ab8827279cfffb92266",
        "to": "0x190b7e66447633d1b75204f19c4d953e0b836c1b",
        "gas": "0x11dcf",
        "value": "0x0",
        "input": "0xc0e2ffc40000000000000000000000000d0f9c2e2097e7dc1443bb47e3ff4b8d4c67ade5",
        "nonce": "0x113b",
        "chainId": "0x1"
      },
      "additionalContracts": [],
      "isFixedGasLimit": false
    },
    {
      "hash": "0xc1cf89e39fb1b645e3dbe9ba382ce270dfb9a324e97538451cfae34aa7eb556d",
      "transactionType": "CALL",
      "contractName": null,
      "contractAddress": "0x190b7e66447633d1b75204f19c4d953e0b836c1b",
      "function": "approveQuoteToken(address)",
      "arguments": [
        "0xA0b86991c6218b36c1d19D4a2e9Eb0cE3606eB48"
      ],
      "transaction": {
        "from": "0xf39fd6e51aad88f6f4ce6ab8827279cfffb92266",
        "to": "0x190b7e66447633d1b75204f19c4d953e0b836c1b",
        "gas": "0x12ee1",
        "value": "0x0",
        "input": "0xc614ee3b000000000000000000000000a0b86991c6218b36c1d19d4a2e9eb0ce3606eb48",
        "nonce": "0x113c",
        "chainId": "0x1"
      },
      "additionalContracts": [],
      "isFixedGasLimit": false
    },
    {
      "hash": "0xff035272b729e54eeaee3e11df419ee1abd1bdd554c9291bc2f9b1a969b6af90",
      "transactionType": "CALL",
      "contractName": null,
      "contractAddress": "0x190b7e66447633d1b75204f19c4d953e0b836c1b",
      "function": "approveQuoteToken(address)",
      "arguments": [
        "0xdAC17F958D2ee523a2206206994597C13D831ec7"
      ],
      "transaction": {
        "from": "0xf39fd6e51aad88f6f4ce6ab8827279cfffb92266",
        "to": "0x190b7e66447633d1b75204f19c4d953e0b836c1b",
        "gas": "0x12ee1",
        "value": "0x0",
        "input": "0xc614ee3b000000000000000000000000dac17f958d2ee523a2206206994597c13d831ec7",
        "nonce": "0x113d",
        "chainId": "0x1"
      },
      "additionalContracts": [],
      "isFixedGasLimit": false
    },
    {
      "hash": "0x1ea4863463bf42b90a7f681be87752bd55785ad1e01a0f70437c7c3d01ad842e",
      "transactionType": "CALL",
      "contractName": null,
      "contractAddress": "0x190b7e66447633d1b75204f19c4d953e0b836c1b",
      "function": "approveQuoteToken(address)",
      "arguments": [
        "0x6B175474E89094C44Da98b954EedeAC495271d0F"
      ],
      "transaction": {
        "from": "0xf39fd6e51aad88f6f4ce6ab8827279cfffb92266",
        "to": "0x190b7e66447633d1b75204f19c4d953e0b836c1b",
        "gas": "0x12ee1",
        "value": "0x0",
        "input": "0xc614ee3b0000000000000000000000006b175474e89094c44da98b954eedeac495271d0f",
        "nonce": "0x113e",
        "chainId": "0x1"
      },
      "additionalContracts": [],
      "isFixedGasLimit": false
    },
    {
      "hash": "0x7112f4f7623e0ddb0831ec03793b594217a9f3d48e233ac945a02f8fee181395",
      "transactionType": "CALL",
      "contractName": null,
      "contractAddress": "0x190b7e66447633d1b75204f19c4d953e0b836c1b",
      "function": "approveQuoteToken(address)",
      "arguments": [
        "0xC02aaA39b223FE8D0A0e5C4F27eAD9083C756Cc2"
      ],
      "transaction": {
        "from": "0xf39fd6e51aad88f6f4ce6ab8827279cfffb92266",
        "to": "0x190b7e66447633d1b75204f19c4d953e0b836c1b",
        "gas": "0x12ee1",
        "value": "0x0",
        "input": "0xc614ee3b000000000000000000000000c02aaa39b223fe8d0a0e5c4f27ead9083c756cc2",
        "nonce": "0x113f",
        "chainId": "0x1"
      },
      "additionalContracts": [],
      "isFixedGasLimit": false
    }
  ],
  "receipts": [
    {
      "status": "0x1",
      "cumulativeGasUsed": "0xceed",
      "logs": [
        {
          "address": "0x190b7e66447633d1b75204f19c4d953e0b836c1b",
          "topics": [
            "0x32e0703508c4ea098d1b9450c6834e4dcddff8b234d85df988e711ab1095f0d4",
            "0x00000000000000000000000049cf40bee86ab8bd080ee7918ed1d2d26dcf4c8b"
          ],
          "data": "0x0000000000000000000000000000000000000000000000000000000000000001",
          "blockHash": "0x1dc666ee6fbc235f704b2824862994509e6cab2c4a66367a211980eb0dca7f30",
          "blockNumber": "0x1714ff7",
          "blockTimestamp": "0x6962154b",
          "transactionHash": "0x1d4dd54c13d135fb9f98c2e5811d3d76115e08b8132c8c4e71fbfef99d2aa01b",
          "transactionIndex": "0x0",
          "logIndex": "0x0",
          "removed": false
        }
      ],
      "logsBloom": "0x00000000000000000000000000000000000000000000000000000000000000100080000200000000000000000000000000000000000000000000000000000000000000000000000000000000000000800000000000000000000000000000000000000000000000000000000000000000000000000000000000000000000000000000000000000000000000002000000000000000000000000000000000000000000000000000000000000100000000000000000000000000000000000000000000000000000000000000000000000000000000001000000000000000000000000000000000000000000000010000000000000000000000000000000020000000",
      "type": "0x2",
      "transactionHash": "0x1d4dd54c13d135fb9f98c2e5811d3d76115e08b8132c8c4e71fbfef99d2aa01b",
      "transactionIndex": "0x0",
      "blockHash": "0x1dc666ee6fbc235f704b2824862994509e6cab2c4a66367a211980eb0dca7f30",
      "blockNumber": "0x1714ff7",
      "gasUsed": "0xceed",
      "effectiveGasPrice": "0xd775ab",
      "blobGasPrice": "0xd0bef1100140bba210",
      "from": "0xf39fd6e51aad88f6f4ce6ab8827279cfffb92266",
      "to": "0x190b7e66447633d1b75204f19c4d953e0b836c1b",
      "contractAddress": null
    },
    {
      "status": "0x1",
      "cumulativeGasUsed": "0xceed",
      "logs": [
        {
          "address": "0x190b7e66447633d1b75204f19c4d953e0b836c1b",
          "topics": [
            "0x32e0703508c4ea098d1b9450c6834e4dcddff8b234d85df988e711ab1095f0d4",
            "0x0000000000000000000000000d0f9c2e2097e7dc1443bb47e3ff4b8d4c67ade5"
          ],
          "data": "0x0000000000000000000000000000000000000000000000000000000000000001",
          "blockHash": "0x2ca64251178c2b559477f328cecc8c876222093de44208edcd50680c40798525",
          "blockNumber": "0x1714ff8",
          "blockTimestamp": "0x6962154b",
          "transactionHash": "0xc7650c1672836d0f28ae548088680d802826432dc428dfbca446d8938d9a5a96",
          "transactionIndex": "0x0",
          "logIndex": "0x0",
          "removed": false
        }
      ],
      "logsBloom": "0x40000000000000000000000000000000000000000000000000000000000000100080000200000000000000000000000000000000000000000000000000000000000000000000000000000000000000000000000000000000000000000000000000000000000000000000000000000000000000000000000000000000000000000000000400000000000000002000000000000000000000000000000000000000000000000000000000000100000000000000000000000000000000000000000000000000000000200000000000000000000000000000000000000000000000000000000000000000000000010000000000000000000000000000000000000000",
      "type": "0x2",
      "transactionHash": "0xc7650c1672836d0f28ae548088680d802826432dc428dfbca446d8938d9a5a96",
      "transactionIndex": "0x0",
      "blockHash": "0x2ca64251178c2b559477f328cecc8c876222093de44208edcd50680c40798525",
      "blockNumber": "0x1714ff8",
      "gasUsed": "0xceed",
      "effectiveGasPrice": "0xbc9329",
      "blobGasPrice": "0xb98d47e48cb4a97dd8",
      "from": "0xf39fd6e51aad88f6f4ce6ab8827279cfffb92266",
      "to": "0x190b7e66447633d1b75204f19c4d953e0b836c1b",
      "contractAddress": null
    },
    {
      "status": "0x1",
      "cumulativeGasUsed": "0xcf19",
      "logs": [
        {
          "address": "0x190b7e66447633d1b75204f19c4d953e0b836c1b",
          "topics": [
            "0x59a8234668400022511cf16e138a5c22aaa48172d517061c02d974583218c2a5",
            "0x000000000000000000000000a0b86991c6218b36c1d19d4a2e9eb0ce3606eb48"
          ],
          "data": "0x0000000000000000000000000000000000000000000000000000000000000001",
          "blockHash": "0xd1eb5144e31308ce40b557c595f0a9b0700c51235936396f27e0c35b2fb5ab6c",
          "blockNumber": "0x1714ff9",
          "blockTimestamp": "0x6962154b",
          "transactionHash": "0xc1cf89e39fb1b645e3dbe9ba382ce270dfb9a324e97538451cfae34aa7eb556d",
          "transactionIndex": "0x0",
          "logIndex": "0x0",
          "removed": false
        }
      ],
      "logsBloom": "0x00000000000000000000000000000000000000000000000000000000000000100000000000000000000002000000000000000000000000000000000000000000000000000000000000000000000000000000000000000000000000000000000000000000000000000000000400000000000000000000000000000000000000000000000000000000000000002000000200000000000000000000000000000000000000000000000000000000000000000000000000000000000200000000000000000000000000000000000000000004000000000000000000000000000000000000000000000000000000010000000004000000000000000000000000000000",
      "type": "0x2",
      "transactionHash": "0xc1cf89e39fb1b645e3dbe9ba382ce270dfb9a324e97538451cfae34aa7eb556d",
      "transactionIndex": "0x0",
      "blockHash": "0xd1eb5144e31308ce40b557c595f0a9b0700c51235936396f27e0c35b2fb5ab6c",
      "blockNumber": "0x1714ff9",
      "gasUsed": "0xcf19",
      "effectiveGasPrice": "0xa50b72",
      "blobGasPrice": "0xa4ef5c343cfaf2b750",
      "from": "0xf39fd6e51aad88f6f4ce6ab8827279cfffb92266",
      "to": "0x190b7e66447633d1b75204f19c4d953e0b836c1b",
      "contractAddress": null
    },
    {
      "status": "0x1",
      "cumulativeGasUsed": "0x19e32",
      "logs": [
        {
          "address": "0x190b7e66447633d1b75204f19c4d953e0b836c1b",
          "topics": [
            "0x59a8234668400022511cf16e138a5c22aaa48172d517061c02d974583218c2a5",
            "0x000000000000000000000000dac17f958d2ee523a2206206994597c13d831ec7"
          ],
          "data": "0x0000000000000000000000000000000000000000000000000000000000000001",
          "blockHash": "0xd1eb5144e31308ce40b557c595f0a9b0700c51235936396f27e0c35b2fb5ab6c",
          "blockNumber": "0x1714ff9",
          "blockTimestamp": "0x6962154b",
          "transactionHash": "0xff035272b729e54eeaee3e11df419ee1abd1bdd554c9291bc2f9b1a969b6af90",
          "transactionIndex": "0x1",
          "logIndex": "0x1",
          "removed": false
        }
      ],
      "logsBloom": "0x00000000000000000000000000000000000000000000000000000000000000100000000000000000000000000000000000000000000000000000000000000000000000000000000000000000000000000000000000000000000000000000000000000000000000000000000400000000000000200000000000000000000000000000000000000000000000002000000000000000000000000000000000000000000000000000000000000000000000000000000000000000000200000000004000000000000000000000000000000004000000020000000000000000000000000000000000000000000000010000000000000000000000000000000000000000",
      "type": "0x2",
      "transactionHash": "0xff035272b729e54eeaee3e11df419ee1abd1bdd554c9291bc2f9b1a969b6af90",
      "transactionIndex": "0x1",
      "blockHash": "0xd1eb5144e31308ce40b557c595f0a9b0700c51235936396f27e0c35b2fb5ab6c",
      "blockNumber": "0x1714ff9",
      "gasUsed": "0xcf19",
      "effectiveGasPrice": "0xa50b72",
      "blobGasPrice": "0xa4ef5c343cfaf2b750",
      "from": "0xf39fd6e51aad88f6f4ce6ab8827279cfffb92266",
      "to": "0x190b7e66447633d1b75204f19c4d953e0b836c1b",
      "contractAddress": null
    },
    {
      "status": "0x1",
      "cumulativeGasUsed": "0xcf19",
      "logs": [
        {
          "address": "0x190b7e66447633d1b75204f19c4d953e0b836c1b",
          "topics": [
            "0x59a8234668400022511cf16e138a5c22aaa48172d517061c02d974583218c2a5",
            "0x0000000000000000000000006b175474e89094c44da98b954eedeac495271d0f"
          ],
          "data": "0x0000000000000000000000000000000000000000000000000000000000000001",
          "blockHash": "0x9bded87d1f95981abb5d251ed24feec4211225523f75f414bc8f1518d9f6cd9b",
          "blockNumber": "0x1714ffa",
          "blockTimestamp": "0x6962154b",
          "transactionHash": "0x1ea4863463bf42b90a7f681be87752bd55785ad1e01a0f70437c7c3d01ad842e",
          "transactionIndex": "0x0",
          "logIndex": "0x0",
          "removed": false
        }
      ],
      "logsBloom": "0x00000000000000000000000000000000000000000000000000000000000000100000000000000000000000000000000000000000000000000000000000000000000000000000000000000000000000000000000000000000000000000000000000000000000000000000000400000000000000000000000000000000000000200000000000000000000000002000000000000000000000000000000400000000000000000000000000000000000000000000000000000000000200000000000000000000000000000000000000000004000000000000000000000000000000000000000000000000000000010000000000000000000000100000000000000000",
      "type": "0x2",
      "transactionHash": "0x1ea4863463bf42b90a7f681be87752bd55785ad1e01a0f70437c7c3d01ad842e",
      "transactionIndex": "0x0",
      "blockHash": "0x9bded87d1f95981abb5d251ed24feec4211225523f75f414bc8f1518d9f6cd9b",
      "blockNumber": "0x1714ffa",
      "gasUsed": "0xcf19",
      "effectiveGasPrice": "0x907cb5",
      "blobGasPrice": "0x929be00de3cb2f70d3",
      "from": "0xf39fd6e51aad88f6f4ce6ab8827279cfffb92266",
      "to": "0x190b7e66447633d1b75204f19c4d953e0b836c1b",
      "contractAddress": null
    },
    {
      "status": "0x1",
      "cumulativeGasUsed": "0x19e32",
      "logs": [
        {
          "address": "0x190b7e66447633d1b75204f19c4d953e0b836c1b",
          "topics": [
            "0x59a8234668400022511cf16e138a5c22aaa48172d517061c02d974583218c2a5",
            "0x000000000000000000000000c02aaa39b223fe8d0a0e5c4f27ead9083c756cc2"
          ],
          "data": "0x0000000000000000000000000000000000000000000000000000000000000001",
          "blockHash": "0x9bded87d1f95981abb5d251ed24feec4211225523f75f414bc8f1518d9f6cd9b",
          "blockNumber": "0x1714ffa",
          "blockTimestamp": "0x6962154b",
          "transactionHash": "0x7112f4f7623e0ddb0831ec03793b594217a9f3d48e233ac945a02f8fee181395",
          "transactionIndex": "0x1",
          "logIndex": "0x1",
          "removed": false
        }
      ],
      "logsBloom": "0x00000000000000000000000000000000000000000000000000000000000000100000000000000000000000000000000000000000000000000000000000000000000000000000000000000000000000800000000000000000000000000000000000000000000000000000000400000000000000000000000000000000000000000000000000000000000000402000000000000000000000000000000000000000000000000000000000000000000000000000000000000000000200000000000000000000000000000000000000080004000000000000000000000000000000000000000000000000000000010000000000000000000000000000000000000000",
      "type": "0x2",
      "transactionHash": "0x7112f4f7623e0ddb0831ec03793b594217a9f3d48e233ac945a02f8fee181395",
      "transactionIndex": "0x1",
      "blockHash": "0x9bded87d1f95981abb5d251ed24feec4211225523f75f414bc8f1518d9f6cd9b",
      "blockNumber": "0x1714ffa",
      "gasUsed": "0xcf19",
      "effectiveGasPrice": "0x907cb5",
      "blobGasPrice": "0x929be00de3cb2f70d3",
      "from": "0xf39fd6e51aad88f6f4ce6ab8827279cfffb92266",
      "to": "0x190b7e66447633d1b75204f19c4d953e0b836c1b",
      "contractAddress": null
    }
  ],
  "libraries": [],
  "pending": [],
  "returns": {},
  "timestamp": 1768035663247,
  "chain": 1,
  "commit": "09d5d96"
}