{
  "transactions": [
    {
      "hash": "0xa2b333dc080ef83eb42e8572f2868e945833576be6e821f33160b7af4c5523d3",
      "transactionType": "CALL",
      "contractName": null,
      "contractAddress": "0xf69d69eec78b08eaf48deac029bf233c4918331f",
      "function": "approveAdapter(address)",
      "arguments": [
        "0x49Cf40BEe86Ab8bD080eE7918eD1d2D26DCF4c8b"
      ],
      "transaction": {
        "from": "0xf39fd6e51aad88f6f4ce6ab8827279cfffb92266",
        "to": "0xf69d69eec78b08eaf48deac029bf233c4918331f",
        "gas": "0x11dcf",
        "value": "0x0",
        "input": "0xc0e2ffc400000000000000000000000049cf40bee86ab8bd080ee7918ed1d2d26dcf4c8b",
        "nonce": "0x1162",
        "chainId": "0x1"
      },
      "additionalContracts": [],
      "isFixedGasLimit": false
    },
    {
      "hash": "0xf7e0a758b0e9855f93513c923c0ecf0a854b38e6dd9618de84a463635e08c302",
      "transactionType": "CALL",
      "contractName": null,
      "contractAddress": "0xf69d69eec78b08eaf48deac029bf233c4918331f",
      "function": "approveAdapter(address)",
      "arguments": [
        "0x0d0F9C2E2097e7dC1443Bb47e3fF4b8D4c67AdE5"
      ],
      "transaction": {
        "from": "0xf39fd6e51aad88f6f4ce6ab8827279cfffb92266",
        "to": "0xf69d69eec78b08eaf48deac029bf233c4918331f",
        "gas": "0x11dcf",
        "value": "0x0",
        "input": "0xc0e2ffc40000000000000000000000000d0f9c2e2097e7dc1443bb47e3ff4b8d4c67ade5",
        "nonce": "0x1163",
        "chainId": "0x1"
      },
      "additionalContracts": [],
      "isFixedGasLimit": false
    },
    {
      "hash": "0x8ca52dc7ac8880d7a399d1cb215946aea1761d06bf3656b49724fdadde97a887",
      "transactionType": "CALL",
      "contractName": null,
      "contractAddress": "0xf69d69eec78b08eaf48deac029bf233c4918331f",
      "function": "approveQuoteToken(address)",
      "arguments": [
        "0xA0b86991c6218b36c1d19D4a2e9Eb0cE3606eB48"
      ],
      "transaction": {
        "from": "0xf39fd6e51aad88f6f4ce6ab8827279cfffb92266",
        "to": "0xf69d69eec78b08eaf48deac029bf233c4918331f",
        "gas": "0x12ee1",
        "value": "0x0",
        "input": "0xc614ee3b000000000000000000000000a0b86991c6218b36c1d19d4a2e9eb0ce3606eb48",
        "nonce": "0x1164",
        "chainId": "0x1"
      },
      "additionalContracts": [],
      "isFixedGasLimit": false
    },
    {
      "hash": "0xd6002e33c67e71f0c5c2da5d3d703de5905a9b33453373251db37d7f6b391a73",
      "transactionType": "CALL",
      "contractName": null,
      "contractAddress": "0xf69d69eec78b08eaf48deac029bf233c4918331f",
      "function": "approveQuoteToken(address)",
      "arguments": [
        "0xdAC17F958D2ee523a2206206994597C13D831ec7"
      ],
      "transaction": {
        "from": "0xf39fd6e51aad88f6f4ce6ab8827279cfffb92266",
        "to": "0xf69d69eec78b08eaf48deac029bf233c4918331f",
        "gas": "0x12ee1",
        "value": "0x0",
        "input": "0xc614ee3b000000000000000000000000dac17f958d2ee523a2206206994597c13d831ec7",
        "nonce": "0x1165",
        "chainId": "0x1"
      },
      "additionalContracts": [],
      "isFixedGasLimit": false
    },
    {
      "hash": "0x28051aff2134154509b608203f9325c3904eec0fb9417fa6e8385307a7aa7cda",
      "transactionType": "CALL",
      "contractName": null,
      "contractAddress": "0xf69d69eec78b08eaf48deac029bf233c4918331f",
      "function": "approveQuoteToken(address)",
      "arguments": [
        "0x6B175474E89094C44Da98b954EedeAC495271d0F"
      ],
      "transaction": {
        "from": "0xf39fd6e51aad88f6f4ce6ab8827279cfffb92266",
        "to": "0xf69d69eec78b08eaf48deac029bf233c4918331f",
        "gas": "0x12ee1",
        "value": "0x0",
        "input": "0xc614ee3b0000000000000000000000006b175474e89094c44da98b954eedeac495271d0f",
        "nonce": "0x1166",
        "chainId": "0x1"
      },
      "additionalContracts": [],
      "isFixedGasLimit": false
    },
    {
      "hash": "0x61f1cef90ae411da3bfa61fdab0c166ef0abe580eb4eb965c88132477236db2b",
      "transactionType": "CALL",
      "contractName": null,
      "contractAddress": "0xf69d69eec78b08eaf48deac029bf233c4918331f",
      "function": "approveQuoteToken(address)",
      "arguments": [
        "0xC02aaA39b223FE8D0A0e5C4F27eAD9083C756Cc2"
      ],
      "transaction": {
        "from": "0xf39fd6e51aad88f6f4ce6ab8827279cfffb92266",
        "to": "0xf69d69eec78b08eaf48deac029bf233c4918331f",
        "gas": "0x12ee1",
        "value": "0x0",
        "input": "0xc614ee3b000000000000000000000000c02aaa39b223fe8d0a0e5c4f27ead9083c756cc2",
        "nonce": "0x1167",
        "chainId": "0x1"
      },
      "additionalContracts": [],
      "isFixedGasLimit": false
    }
  ],
  "receipts": [
    {
      "status": "0x1",
      "cumulativeGasUsed": "0xceed",
      "logs": [
        {
          "address": "0xf69d69eec78b08eaf48deac029bf233c4918331f",
          "topics": [
            "0x32e0703508c4ea098d1b9450c6834e4dcddff8b234d85df988e711ab1095f0d4",
            "0x00000000000000000000000049cf40bee86ab8bd080ee7918ed1d2d26dcf4c8b"
          ],
          "data": "0x0000000000000000000000000000000000000000000000000000000000000001",
          "blockHash": "0xf948d325f413c964b06175e240a723743919eadfbc6ae10d6af3b495249a5f06",
          "blockNumber": "0x1718a35",
          "blockTimestamp": "0x6964d28c",
          "transactionHash": "0xa2b333dc080ef83eb42e8572f2868e945833576be6e821f33160b7af4c5523d3",
          "transactionIndex": "0x0",
          "logIndex": "0x0",
          "removed": false
        }
      ],
      "logsBloom": "0x00000000000000000000000000000000000000000000000000000000000001000080000200000000000000000000000000000000000000000000000000000000000000000000000000000000000000800000000000000000000000000000000000000000000000000000000000000000000000000000000000000000000000000000000000000000000408000000000000000000000000000000000000000000000000000000000000000100000000000000000000000000000000000000000000000000000000000000000000000000000000001000000000000000000000000000000000000000000000000000000000000000000000000000000020000000",
      "type": "0x2",
      "transactionHash": "0xa2b333dc080ef83eb42e8572f2868e945833576be6e821f33160b7af4c5523d3",
      "transactionIndex": "0x0",
      "blockHash": "0xf948d325f413c964b06175e240a723743919eadfbc6ae10d6af3b495249a5f06",
      "blockNumber": "0x1718a35",
      "gasUsed": "0xceed",
      "effectiveGasPrice": "0x1570a7c",
      "blobGasPrice": "0x467c9cbfea1d4e2386c",
      "from": "0xf39fd6e51aad88f6f4ce6ab8827279cfffb92266",
      "to": "0xf69d69eec78b08eaf48deac029bf233c4918331f",
      "contractAddress": null
    },
    {
      "status": "0x1",
      "cumulativeGasUsed": "0xceed",
      "logs": [
        {
          "address": "0xf69d69eec78b08eaf48deac029bf233c4918331f",
          "topics": [
            "0x32e0703508c4ea098d1b9450c6834e4dcddff8b234d85df988e711ab1095f0d4",
            "0x0000000000000000000000000d0f9c2e2097e7dc1443bb47e3ff4b8d4c67ade5"
          ],
          "data": "0x0000000000000000000000000000000000000000000000000000000000000001",
          "blockHash": "0x50f5cecb999497926e32cfaa921bc963766f00ceccd38565519712f1a1eb4a02",
          "blockNumber": "0x1718a36",
          "blockTimestamp": "0x6964d28c",
          "transactionHash": "0xf7e0a758b0e9855f93513c923c0ecf0a854b38e6dd9618de84a463635e08c302",
          "transactionIndex": "0x0",
          "logIndex": "0x0",
          "removed": false
        }
      ],
      "logsBloom": "0x40000000000000000000000000000000000000000000000000000000000001000080000200000000000000000000000000000000000000000000000000000000000000000000000000000000000000000000000000000000000000000000000000000000000000000000000000000000000000000000000000000000000000000000000400000000000408000000000000000000000000000000000000000000000000000000000000000100000000000000000000000000000000000000000000000000000000200000000000000000000000000000000000000000000000000000000000000000000000000000000000000000000000000000000000000000",
      "type": "0x2",
      "transactionHash": "0xf7e0a758b0e9855f93513c923c0ecf0a854b38e6dd9618de84a463635e08c302",
      "transactionIndex": "0x0",
      "blockHash": "0x50f5cecb999497926e32cfaa921bc963766f00ceccd38565519712f1a1eb4a02",
      "blockNumber": "0x1718a36",
      "gasUsed": "0xceed",
      "effectiveGasPrice": "0x12c3c95",
      "blobGasPrice": "0x3ea7a7b918eebec7090",
      "from": "0xf39fd6e51aad88f6f4ce6ab8827279cfffb92266",
      "to": "0xf69d69eec78b08eaf48deac029bf233c4918331f",
      "contractAddress": null
    },
    {
      "status": "0x1",
      "cumulativeGasUsed": "0xcf19",
      "logs": [
        {
          "address": "0xf69d69eec78b08eaf48deac029bf233c4918331f",
          "topics": [
            "0x59a8234668400022511cf16e138a5c22aaa48172d517061c02d974583218c2a5",
            "0x000000000000000000000000a0b86991c6218b36c1d19d4a2e9eb0ce3606eb48"
          ],
          "data": "0x0000000000000000000000000000000000000000000000000000000000000001",
          "blockHash": "0xeb5fc7e673b60c080615987abc88d19ea4c1a5b077c32334953bb84e78b58100",
          "blockNumber": "0x1718a37",
          "blockTimestamp": "0x6964d28c",
          "transactionHash": "0x8ca52dc7ac8880d7a399d1cb215946aea1761d06bf3656b49724fdadde97a887",
          "transactionIndex": "0x0",
          "logIndex": "0x0",
          "removed": false
        }
      ],
      "logsBloom": "0x00000000000000000000000000000000000000000000000000000000000001000000000000000000000002000000000000000000000000000000000000000000000000000000000000000000000000000000000000000000000000000000000000000000000000000000000400000000000000000000000000000000000000000000000000000000000408000000000200000000000000000000000000000000000000000000000000000000000000000000000000000000000200000000000000000000000000000000000000000004000000000000000000000000000000000000000000000000000000000000000004000000000000000000000000000000",
      "type": "0x2",
      "transactionHash": "0x8ca52dc7ac8880d7a399d1cb215946aea1761d06bf3656b49724fdadde97a887",
      "transactionIndex": "0x0",
      "blockHash": "0xeb5fc7e673b60c080615987abc88d19ea4c1a5b077c32334953bb84e78b58100",
      "blockNumber": "0x1718a37",
      "gasUsed": "0xcf19",
      "effectiveGasPrice": "0x106c600",
      "blobGasPrice": "0x37b17897e62898a58b3",
      "from": "0xf39fd6e51aad88f6f4ce6ab8827279cfffb92266",
      "to": "0xf69d69eec78b08eaf48deac029bf233c4918331f",
      "contractAddress": null
    },
    {
      "status": "0x1",
      "cumulativeGasUsed": "0xcf19",
      "logs": [
        {
          "address": "0xf69d69eec78b08eaf48deac029bf233c4918331f",
          "topics": [
            "0x59a8234668400022511cf16e138a5c22aaa48172d517061c02d974583218c2a5",
            "0x000000000000000000000000dac17f958d2ee523a2206206994597c13d831ec7"
          ],
          "data": "0x0000000000000000000000000000000000000000000000000000000000000001",
          "blockHash": "0x5c4b9425260c4f297b3d272918d1913562fc7448f9d08dd30098f2be45881cc5",
          "blockNumber": "0x1718a38",
          "blockTimestamp": "0x6964d28c",
          "transactionHash": "0xd6002e33c67e71f0c5c2da5d3d703de5905a9b33453373251db37d7f6b391a73",
          "transactionIndex": "0x0",
          "logIndex": "0x0",
          "removed": false
        }
      ],
      "logsBloom": "0x00000000000000000000000000000000000000000000000000000000000001000000000000000000000000000000000000000000000000000000000000000000000000000000000000000000000000000000000000000000000000000000000000000000000000000000000400000000000000200000000000000000000000000000000000000000000408000000000000000000000000000000000000000000000000000000000000000000000000000000000000000000000200000000004000000000000000000000000000000004000000020000000000000000000000000000000000000000000000000000000000000000000000000000000000000000",
      "type": "0x2",
      "transactionHash": "0xd6002e33c67e71f0c5c2da5d3d703de5905a9b33453373251db37d7f6b391a73",
      "transactionIndex": "0x0",
      "blockHash": "0x5c4b9425260c4f297b3d272918d1913562fc7448f9d08dd30098f2be45881cc5",
      "blockNumber": "0x1718a38",
      "gasUsed": "0xcf19",
      "effectiveGasPrice": "0xe5fc23",
      "blobGasPrice": "0x31814eb4d4fb9819380",
      "from": "0xf39fd6e51aad88f6f4ce6ab8827279cfffb92266",
      "to": "0xf69d69eec78b08eaf48deac029bf233c4918331f",
      "contractAddress": null
    },
    {
      "status": "0x1",
      "cumulativeGasUsed": "0xcf19",
      "logs": [
        {
          "address": "0xf69d69eec78b08eaf48deac029bf233c4918331f",
          "topics": [
            "0x59a8234668400022511cf16e138a5c22aaa48172d517061c02d974583218c2a5",
            "0x0000000000000000000000006b175474e89094c44da98b954eedeac495271d0f"
          ],
          "data": "0x0000000000000000000000000000000000000000000000000000000000000001",
          "blockHash": "0xe633f3157fdb9303dc61f1c8abe14eea0e01d3ced3e9f6abe10c56c02028854b",
          "blockNumber": "0x1718a39",
          "blockTimestamp": "0x6964d28c",
          "transactionHash": "0x28051aff2134154509b608203f9325c3904eec0fb9417fa6e8385307a7aa7cda",
          "transactionIndex": "0x0",
          "logIndex": "0x0",
          "removed": false
        }
      ],
      "logsBloom": "0x00000000000000000000000000000000000000000000000000000000000001000000000000000000000000000000000000000000000000000000000000000000000000000000000000000000000000000000000000000000000000000000000000000000000000000000000400000000000000000000000000000000000000200000000000000000000408000000000000000000000000000000000400000000000000000000000000000000000000000000000000000000000200000000000000000000000000000000000000000004000000000000000000000000000000000000000000000000000000000000000000000000000000100000000000000000",
      "type": "0x2",
      "transactionHash": "0x28051aff2134154509b608203f9325c3904eec0fb9417fa6e8385307a7aa7cda",
      "transactionIndex": "0x0",
      "blockHash": "0xe633f3157fdb9303dc61f1c8abe14eea0e01d3ced3e9f6abe10c56c02028854b",
      "blockNumber": "0x1718a39",
      "gasUsed": "0xcf19",
      "effectiveGasPrice": "0xc949a7",
      "blobGasPrice": "0x2c01297a983d3761094",
      "from": "0xf39fd6e51aad88f6f4ce6ab8827279cfffb92266",
      "to": "0xf69d69eec78b08eaf48deac029bf233c4918331f",
      "contractAddress": null
    },
    {
      "status": "0x1",
      "cumulativeGasUsed": "0x19e32",
      "logs": [
        {
          "address": "0xf69d69eec78b08eaf48deac029bf233c4918331f",
          "topics": [
            "0x59a8234668400022511cf16e138a5c22aaa48172d517061c02d974583218c2a5",
            "0x000000000000000000000000c02aaa39b223fe8d0a0e5c4f27ead9083c756cc2"
          ],
          "data": "0x0000000000000000000000000000000000000000000000000000000000000001",
          "blockHash": "0xe633f3157fdb9303dc61f1c8abe14eea0e01d3ced3e9f6abe10c56c02028854b",
          "blockNumber": "0x1718a39",
          "blockTimestamp": "0x6964d28c",
          "transactionHash": "0x61f1cef90ae411da3bfa61fdab0c166ef0abe580eb4eb965c88132477236db2b",
          "transactionIndex": "0x1",
          "logIndex": "0x1",
          "removed": false
        }
      ],
      "logsBloom": "0x00000000000000000000000000000000000000000000000000000000000001000000000000000000000000000000000000000000000000000000000000000000000000000000000000000000000000800000000000000000000000000000000000000000000000000000000400000000000000000000000000000000000000000000000000000000000408400000000000000000000000000000000000000000000000000000000000000000000000000000000000000000000200000000000000000000000000000000000000080004000000000000000000000000000000000000000000000000000000000000000000000000000000000000000000000000",
      "type": "0x2",
      "transactionHash": "0x61f1cef90ae411da3bfa61fdab0c166ef0abe580eb4eb965c88132477236db2b",
      "transactionIndex": "0x1",
      "blockHash": "0xe633f3157fdb9303dc61f1c8abe14eea0e01d3ced3e9f6abe10c56c02028854b",
      "blockNumber": "0x1718a39",
      "gasUsed": "0xcf19",
      "effectiveGasPrice": "0xc949a7",
      "blobGasPrice": "0x2c01297a983d3761094",
      "from": "0xf39fd6e51aad88f6f4ce6ab8827279cfffb92266",
      "to": "0xf69d69eec78b08eaf48deac029bf233c4918331f",
      "contractAddress": null
    }
  ],
  "libraries": [],
  "pending": [],
  "returns": {},
  "timestamp": 1768215190307,
  "chain": 1,
  "commit": "e585832"
}