{
  "transactions": [
    {
      "hash": "0xecca81c893356f7280fb729266d595b3156e6a53c4588ca05c3972553ccee8e2",
      "transactionType": "CALL",
      "contractName": null,
      "contractAddress": "0x2bf866da3a8eeb90b288e6d434d319624263a24b",
      "function": "approveAdapter(address)",
      "arguments": [
        "0x49Cf40BEe86Ab8bD080eE7918eD1d2D26DCF4c8b"
      ],
      "transaction": {
        "from": "0xf39fd6e51aad88f6f4ce6ab8827279cfffb92266",
        "to": "0x2bf866da3a8eeb90b288e6d434d319624263a24b",
        "gas": "0x11dcf",
        "value": "0x0",
        "input": "0xc0e2ffc400000000000000000000000049cf40bee86ab8bd080ee7918ed1d2d26dcf4c8b",
        "nonce": "0x11ad",
        "chainId": "0x1"
      },
      "additionalContracts": [],
      "isFixedGasLimit": false
    },
    {
      "hash": "0x8eb69606b3c35f41a2be096060c872f6e4fd8bbbb4f2946db0b6acd771199963",
      "transactionType": "CALL",
      "contractName": null,
      "contractAddress": "0x2bf866da3a8eeb90b288e6d434d319624263a24b",
      "function": "approveAdapter(address)",
      "arguments": [
        "0x0d0F9C2E2097e7dC1443Bb47e3fF4b8D4c67AdE5"
      ],
      "transaction": {
        "from": "0xf39fd6e51aad88f6f4ce6ab8827279cfffb92266",
        "to": "0x2bf866da3a8eeb90b288e6d434d319624263a24b",
        "gas": "0x11dcf",
        "value": "0x0",
        "input": "0xc0e2ffc40000000000000000000000000d0f9c2e2097e7dc1443bb47e3ff4b8d4c67ade5",
        "nonce": "0x11ae",
        "chainId": "0x1"
      },
      "additionalContracts": [],
      "isFixedGasLimit": false
    },
    {
      "hash": "0x7cf9515b37284651aa93cf4fc6370fb311b9e7f6880086e344325b8c4c986297",
      "transactionType": "CALL",
      "contractName": null,
      "contractAddress": "0x2bf866da3a8eeb90b288e6d434d319624263a24b",
      "function": "approveQuoteToken(address)",
      "arguments": [
        "0xA0b86991c6218b36c1d19D4a2e9Eb0cE3606eB48"
      ],
      "transaction": {
        "from": "0xf39fd6e51aad88f6f4ce6ab8827279cfffb92266",
        "to": "0x2bf866da3a8eeb90b288e6d434d319624263a24b",
        "gas": "0x12ee1",
        "value": "0x0",
        "input": "0xc614ee3b000000000000000000000000a0b86991c6218b36c1d19d4a2e9eb0ce3606eb48",
        "nonce": "0x11af",
        "chainId": "0x1"
      },
      "additionalContracts": [],
      "isFixedGasLimit": false
    },
    {
      "hash": "0xed2d1a98ac9b483e4b22bb2353de8853faef8a6d913cc7b8887d54e0588b50b2",
      "transactionType": "CALL",
      "contractName": null,
      "contractAddress": "0x2bf866da3a8eeb90b288e6d434d319624263a24b",
      "function": "approveQuoteToken(address)",
      "arguments": [
        "0xdAC17F958D2ee523a2206206994597C13D831ec7"
      ],
      "transaction": {
        "from": "0xf39fd6e51aad88f6f4ce6ab8827279cfffb92266",
        "to": "0x2bf866da3a8eeb90b288e6d434d319624263a24b",
        "gas": "0x12ee1",
        "value": "0x0",
        "input": "0xc614ee3b000000000000000000000000dac17f958d2ee523a2206206994597c13d831ec7",
        "nonce": "0x11b0",
        "chainId": "0x1"
      },
      "additionalContracts": [],
      "isFixedGasLimit": false
    },
    {
      "hash": "0x36c1c4e77d7948c3a39ca422a60ff2b68f84c4ea530b85a7347f609a18a70974",
      "transactionType": "CALL",
      "contractName": null,
      "contractAddress": "0x2bf866da3a8eeb90b288e6d434d319624263a24b",
      "function": "approveQuoteToken(address)",
      "arguments": [
        "0x6B175474E89094C44Da98b954EedeAC495271d0F"
      ],
      "transaction": {
        "from": "0xf39fd6e51aad88f6f4ce6ab8827279cfffb92266",
        "to": "0x2bf866da3a8eeb90b288e6d434d319624263a24b",
        "gas": "0x12ee1",
        "value": "0x0",
        "input": "0xc614ee3b0000000000000000000000006b175474e89094c44da98b954eedeac495271d0f",
        "nonce": "0x11b1",
        "chainId": "0x1"
      },
      "additionalContracts": [],
      "isFixedGasLimit": false
    },
    {
      "hash": "0xf77a68dfd55529bdf8b5657261078cdb300e35f61e3a563fe1ab11df6a467d79",
      "transactionType": "CALL",
      "contractName": null,
      "contractAddress": "0x2bf866da3a8eeb90b288e6d434d319624263a24b",
      "function": "approveQuoteToken(address)",
      "arguments": [
        "0xC02aaA39b223FE8D0A0e5C4F27eAD9083C756Cc2"
      ],
      "transaction": {
        "from": "0xf39fd6e51aad88f6f4ce6ab8827279cfffb92266",
        "to": "0x2bf866da3a8eeb90b288e6d434d319624263a24b",
        "gas": "0x12ee1",
        "value": "0x0",
        "input": "0xc614ee3b000000000000000000000000c02aaa39b223fe8d0a0e5c4f27ead9083c756cc2",
        "nonce": "0x11b2",
        "chainId": "0x1"
      },
      "additionalContracts": [],
      "isFixedGasLimit": false
    },
    {
      "hash": "0x62df468606006a0a04284eca24c1194e8fa2f6b83ab0564a29e5c237fe5ddc43",
      "transactionType": "CALL",
      "contractName": null,
      "contractAddress": "0x2bf866da3a8eeb90b288e6d434d319624263a24b",
      "function": "approveQuoteToken(address)",
      "arguments": [
        "0x514910771AF9Ca656af840dff83E8264EcF986CA"
      ],
      "transaction": {
        "from": "0xf39fd6e51aad88f6f4ce6ab8827279cfffb92266",
        "to": "0x2bf866da3a8eeb90b288e6d434d319624263a24b",
        "gas": "0x12ee1",
        "value": "0x0",
        "input": "0xc614ee3b000000000000000000000000514910771af9ca656af840dff83e8264ecf986ca",
        "nonce": "0x11b3",
        "chainId": "0x1"
      },
      "additionalContracts": [],
      "isFixedGasLimit": false
    }
  ],
  "receipts": [
    {
      "status": "0x1",
      "cumulativeGasUsed": "0xceed",
      "logs": [
        {
          "address": "0x2bf866da3a8eeb90b288e6d434d319624263a24b",
          "topics": [
            "0x32e0703508c4ea098d1b9450c6834e4dcddff8b234d85df988e711ab1095f0d4",
            "0x00000000000000000000000049cf40bee86ab8bd080ee7918ed1d2d26dcf4c8b"
          ],
          "data": "0x0000000000000000000000000000000000000000000000000000000000000001",
          "blockHash": "0x7d00b621cae089b0ab8492a35f5076ab4d9ae5b8bcedf6813447ce7b624edf06",
          "blockNumber": "0x1726d8a",
          "blockTimestamp": "0x696f863d",
          "transactionHash": "0xecca81c893356f7280fb729266d595b3156e6a53c4588ca05c3972553ccee8e2",
          "transactionIndex": "0x0",
          "logIndex": "0x0",
          "removed": false
        }
      ],
      "logsBloom": "0x00000000000000000000000000000000000000000000000000000000000000000080000200000000000000000000000000000000000000000000000010000000000000000000000000000000000000800000000000000000000000000002000000000000000000000000000000000000000000000000000000000000000000000000000000000000000000000000000000000000100000000000000000000000000000000000000000000100000000000000000000000000000000000000000000000000000000000000000000000000000000001000000000000000000000000000000000000000000000000000000000000000000000000000000020000000",
      "type": "0x2",
      "transactionHash": "0xecca81c893356f7280fb729266d595b3156e6a53c4588ca05c3972553ccee8e2",
      "transactionIndex": "0x0",
      "blockHash": "0x7d00b621cae089b0ab8492a35f5076ab4d9ae5b8bcedf6813447ce7b624edf06",
      "blockNumber": "0x1726d8a",
      "gasUsed": "0xceed",
      "effectiveGasPrice": "0x22e4219",
      "blobGasPrice": "0x172151a19ed9d15f43d8",
      "from": "0xf39fd6e51aad88f6f4ce6ab8827279cfffb92266",
      "to": "0x2bf866da3a8eeb90b288e6d434d319624263a24b",
      "contractAddress": null
    },
    {
      "status": "0x1",
      "cumulativeGasUsed": "0xceed",
      "logs": [
        {
          "address": "0x2bf866da3a8eeb90b288e6d434d319624263a24b",
          "topics": [
            "0x32e0703508c4ea098d1b9450c6834e4dcddff8b234d85df988e711ab1095f0d4",
            "0x0000000000000000000000000d0f9c2e2097e7dc1443bb47e3ff4b8d4c67ade5"
          ],
          "data": "0x0000000000000000000000000000000000000000000000000000000000000001",
          "blockHash": "0xac7dd10d3d90d3213039997957864c362e61f060b49a54ab57f4f019dfe9ca4f",
          "blockNumber": "0x1726d8b",
          "blockTimestamp": "0x696f863d",
          "transactionHash": "0x8eb69606b3c35f41a2be096060c872f6e4fd8bbbb4f2946db0b6acd771199963",
          "transactionIndex": "0x0",
          "logIndex": "0x0",
          "removed": false
        }
      ],
      "logsBloom": "0x40000000000000000000000000000000000000000000000000000000000000000080000200000000000000000000000000000000000000000000000010000000000000000000000000000000000000000000000000000000000000000002000000000000000000000000000000000000000000000000000000000000000000000000000400000000000000000000000000000000100000000000000000000000000000000000000000000100000000000000000000000000000000000000000000000000000000200000000000000000000000000000000000000000000000000000000000000000000000000000000000000000000000000000000000000000",
      "type": "0x2",
      "transactionHash": "0x8eb69606b3c35f41a2be096060c872f6e4fd8bbbb4f2946db0b6acd771199963",
      "transactionIndex": "0x0",
      "blockHash": "0xac7dd10d3d90d3213039997957864c362e61f060b49a54ab57f4f019dfe9ca4f",
      "blockNumber": "0x1726d8b",
      "gasUsed": "0xceed",
      "effectiveGasPrice": "0x1e89964",
      "blobGasPrice": "0x148f64fce4f0151bd8e8",
      "from": "0xf39fd6e51aad88f6f4ce6ab8827279cfffb92266",
      "to": "0x2bf866da3a8eeb90b288e6d434d319624263a24b",
      "contractAddress": null
    },
    {
      "status": "0x1",
      "cumulativeGasUsed": "0xcf19",
      "logs": [
        {
          "address": "0x2bf866da3a8eeb90b288e6d434d319624263a24b",
          "topics": [
            "0x59a8234668400022511cf16e138a5c22aaa48172d517061c02d974583218c2a5",
            "0x000000000000000000000000a0b86991c6218b36c1d19d4a2e9eb0ce3606eb48"
          ],
          "data": "0x0000000000000000000000000000000000000000000000000000000000000001",
          "blockHash": "0xd4852c5f51da87f78bb7621551091fdbc562315959c971eae9557f878919f2ba",
          "blockNumber": "0x1726d8c",
          "blockTimestamp": "0x696f863d",
          "transactionHash": "0x7cf9515b37284651aa93cf4fc6370fb311b9e7f6880086e344325b8c4c986297",
          "transactionIndex": "0x0",
          "logIndex": "0x0",
          "removed": false
        }
      ],
      "logsBloom": "0x00000000000000000000000000000000000000000000000000000000000000000000000000000000000002000000000000000000000000000000000010000000000000000000000000000000000000000000000000000000000000000002000000000000000000000000000400000000000000000000000000000000000000000000000000000000000000000000000200000000100000000000000000000000000000000000000000000000000000000000000000000000000200000000000000000000000000000000000000000004000000000000000000000000000000000000000000000000000000000000000004000000000000000000000000000000",
      "type": "0x2",
      "transactionHash": "0x7cf9515b37284651aa93cf4fc6370fb311b9e7f6880086e344325b8c4c986297",
      "transactionIndex": "0x0",
      "blockHash": "0xd4852c5f51da87f78bb7621551091fdbc562315959c971eae9557f878919f2ba",
      "blockNumber": "0x1726d8c",
      "gasUsed": "0xcf19",
      "effectiveGasPrice": "0x1aba1d6",
      "blobGasPrice": "0x124692a3ca41f431c25e",
      "from": "0xf39fd6e51aad88f6f4ce6ab8827279cfffb92266",
      "to": "0x2bf866da3a8eeb90b288e6d434d319624263a24b",
      "contractAddress": null
    },
    {
      "status": "0x1",
      "cumulativeGasUsed": "0x19e32",
      "logs": [
        {
          "address": "0x2bf866da3a8eeb90b288e6d434d319624263a24b",
          "topics": [
            "0x59a8234668400022511cf16e138a5c22aaa48172d517061c02d974583218c2a5",
            "0x000000000000000000000000dac17f958d2ee523a2206206994597c13d831ec7"
          ],
          "data": "0x0000000000000000000000000000000000000000000000000000000000000001",
          "blockHash": "0xd4852c5f51da87f78bb7621551091fdbc562315959c971eae9557f878919f2ba",
          "blockNumber": "0x1726d8c",
          "blockTimestamp": "0x696f863d",
          "transactionHash": "0xed2d1a98ac9b483e4b22bb2353de8853faef8a6d913cc7b8887d54e0588b50b2",
          "transactionIndex": "0x1",
          "logIndex": "0x1",
          "removed": false
        }
      ],
      "logsBloom": "0x00000000000000000000000000000000000000000000000000000000000000000000000000000000000000000000000000000000000000000000000010000000000000000000000000000000000000000000000000000000000000000002000000000000000000000000000400000000000000200000000000000000000000000000000000000000000000000000000000000000100000000000000000000000000000000000000000000000000000000000000000000000000200000000004000000000000000000000000000000004000000020000000000000000000000000000000000000000000000000000000000000000000000000000000000000000",
      "type": "0x2",
      "transactionHash": "0xed2d1a98ac9b483e4b22bb2353de8853faef8a6d913cc7b8887d54e0588b50b2",
      "transactionIndex": "0x1",
      "blockHash": "0xd4852c5f51da87f78bb7621551091fdbc562315959c971eae9557f878919f2ba",
      "blockNumber": "0x1726d8c",
      "gasUsed": "0xcf19",
      "effectiveGasPrice": "0x1aba1d6",
      "blobGasPrice": "0x124692a3ca41f431c25e",
      "from": "0xf39fd6e51aad88f6f4ce6ab8827279cfffb92266",
      "to": "0x2bf866da3a8eeb90b288e6d434d319624263a24b",
      "contractAddress": null
    },
    {
      "status": "0x1",
      "cumulativeGasUsed": "0xcf19",
      "logs": [
        {
          "address": "0x2bf866da3a8eeb90b288e6d434d319624263a24b",
          "topics": [
            "0x59a8234668400022511cf16e138a5c22aaa48172d517061c02d974583218c2a5",
            "0x0000000000000000000000006b175474e89094c44da98b954eedeac495271d0f"
          ],
          "data": "0x0000000000000000000000000000000000000000000000000000000000000001",
          "blockHash": "0xfe6a09979721ca1581b3d63cfda82b48ae0e6070684d5a4fa2ae5d17dcd1d174",
          "blockNumber": "0x1726d8d",
          "blockTimestamp": "0x696f863d",
          "transactionHash": "0x36c1c4e77d7948c3a39ca422a60ff2b68f84c4ea530b85a7347f609a18a70974",
          "transactionIndex": "0x0",
          "logIndex": "0x0",
          "removed": false
        }
      ],
      "logsBloom": "0x00000000000000000000000000000000000000000000000000000000000000000000000000000000000000000000000000000000000000000000000010000000000000000000000000000000000000000000000000000000000000000002000000000000000000000000000400000000000000000000000000000000000000200000000000000000000000000000000000000000100000000000000400000000000000000000000000000000000000000000000000000000000200000000000000000000000000000000000000000004000000000000000000000000000000000000000000000000000000000000000000000000000000100000000000000000",
      "type": "0x2",
      "transactionHash": "0x36c1c4e77d7948c3a39ca422a60ff2b68f84c4ea530b85a7347f609a18a70974",
      "transactionIndex": "0x0",
      "blockHash": "0xfe6a09979721ca1581b3d63cfda82b48ae0e6070684d5a4fa2ae5d17dcd1d174",
      "blockNumber": "0x1726d8d",
      "gasUsed": "0xcf19",
      "effectiveGasPrice": "0x1765dfc",
      "blobGasPrice": "0x103ebb38a5ffbce6c6e0",
      "from": "0xf39fd6e51aad88f6f4ce6ab8827279cfffb92266",
      "to": "0x2bf866da3a8eeb90b288e6d434d319624263a24b",
      "contractAddress": null
    },
    {
      "status": "0x1",
      "cumulativeGasUsed": "0x19e32",
      "logs": [
        {
          "address": "0x2bf866da3a8eeb90b288e6d434d319624263a24b",
          "topics": [
            "0x59a8234668400022511cf16e138a5c22aaa48172d517061c02d974583218c2a5",
            "0x000000000000000000000000c02aaa39b223fe8d0a0e5c4f27ead9083c756cc2"
          ],
          "data": "0x0000000000000000000000000000000000000000000000000000000000000001",
          "blockHash": "0xfe6a09979721ca1581b3d63cfda82b48ae0e6070684d5a4fa2ae5d17dcd1d174",
          "blockNumber": "0x1726d8d",
          "blockTimestamp": "0x696f863d",
          "transactionHash": "0xf77a68dfd55529bdf8b5657261078cdb300e35f61e3a563fe1ab11df6a467d79",
          "transactionIndex": "0x1",
          "logIndex": "0x1",
          "removed": false
        }
      ],
      "logsBloom": "0x00000000000000000000000000000000000000000000000000000000000000000000000000000000000000000000000000000000000000000000000010000000000000000000000000000000000000800000000000000000000000000002000000000000000000000000000400000000000000000000000000000000000000000000000000000000000000400000000000000000100000000000000000000000000000000000000000000000000000000000000000000000000200000000000000000000000000000000000000080004000000000000000000000000000000000000000000000000000000000000000000000000000000000000000000000000",
      "type": "0x2",
      "transactionHash": "0xf77a68dfd55529bdf8b5657261078cdb300e35f61e3a563fe1ab11df6a467d79",
      "transactionIndex": "0x1",
      "blockHash": "0xfe6a09979721ca1581b3d63cfda82b48ae0e6070684d5a4fa2ae5d17dcd1d174",
      "blockNumber": "0x1726d8d",
      "gasUsed": "0xcf19",
      "effectiveGasPrice": "0x1765dfc",
      "blobGasPrice": "0x103ebb38a5ffbce6c6e0",
      "from": "0xf39fd6e51aad88f6f4ce6ab8827279cfffb92266",
      "to": "0x2bf866da3a8eeb90b288e6d434d319624263a24b",
      "contractAddress": null
    },
    {
      "status": "0x1",
      "cumulativeGasUsed": "0x26d4b",
      "logs": [
        {
          "address": "0x2bf866da3a8eeb90b288e6d434d319624263a24b",
          "topics": [
            "0x59a8234668400022511cf16e138a5c22aaa48172d517061c02d974583218c2a5",
            "0x000000000000000000000000514910771af9ca656af840dff83e8264ecf986ca"
          ],
          "data": "0x0000000000000000000000000000000000000000000000000000000000000001",
          "blockHash": "0xfe6a09979721ca1581b3d63cfda82b48ae0e6070684d5a4fa2ae5d17dcd1d174",
          "blockNumber": "0x1726d8d",
          "blockTimestamp": "0x696f863d",
          "transactionHash": "0x62df468606006a0a04284eca24c1194e8fa2f6b83ab0564a29e5c237fe5ddc43",
          "transactionIndex": "0x2",
          "logIndex": "0x2",
          "removed": false
        }
      ],
      "logsBloom": "0x00000000000000000000000000000000000000000000000000000000000000000000000000000000000000000000000000000000000000000000000010000000000000000000000000000000000000000000020000000000000000000002000000000000000000000000000400000000000000000000000000000000000000000000000000000000000000000000000000000000100000000000000000000000000000000000000000000000000000000000000000000000000200000000002000000000000000000000000000000004000000000000000000000000000000040000000000000000000000000000000000000000000000000000000000000000",
      "type": "0x2",
      "transactionHash": "0x62df468606006a0a04284eca24c1194e8fa2f6b83ab0564a29e5c237fe5ddc43",
      "transactionIndex": "0x2",
      "blockHash": "0xfe6a09979721ca1581b3d63cfda82b48ae0e6070684d5a4fa2ae5d17dcd1d174",
      "blockNumber": "0x1726d8d",
      "gasUsed": "0xcf19",
      "effectiveGasPrice": "0x1765dfc",
      "blobGasPrice": "0x103ebb38a5ffbce6c6e0",
      "from": "0xf39fd6e51aad88f6f4ce6ab8827279cfffb92266",
      "to": "0x2bf866da3a8eeb90b288e6d434d319624263a24b",
      "contractAddress": null
    }
  ],
  "libraries": [],
  "pending": [],
  "returns": {},
  "timestamp": 1768916550688,
  "chain": 1,
  "commit": "a5b6bf0"
}