{
  "transactions": [
    {
      "hash": "0xf301209665c6db29b3ab97e049b94bb469eef5ecb60af7d171bb42e3f292c5d4",
      "transactionType": "CALL",
      "contractName": null,
      "contractAddress": "0xdaf5f4b3485b781b0416e724286a3d76d0be06b3",
      "function": "approveAdapter(address)",
      "arguments": [
        "0x49Cf40BEe86Ab8bD080eE7918eD1d2D26DCF4c8b"
      ],
      "transaction": {
        "from": "0xf39fd6e51aad88f6f4ce6ab8827279cfffb92266",
        "to": "0xdaf5f4b3485b781b0416e724286a3d76d0be06b3",
        "gas": "0x11dcf",
        "value": "0x0",
        "input": "0xc0e2ffc400000000000000000000000049cf40bee86ab8bd080ee7918ed1d2d26dcf4c8b",
        "nonce": "0x114a",
        "chainId": "0x1"
      },
      "additionalContracts": [],
      "isFixedGasLimit": false
    },
    {
      "hash": "0x833fb7f542c105f3a9084bcebc23a5faaee245252d7f5ad9989ca1206ccdb693",
      "transactionType": "CALL",
      "contractName": null,
      "contractAddress": "0xdaf5f4b3485b781b0416e724286a3d76d0be06b3",
      "function": "approveAdapter(address)",
      "arguments": [
        "0x0d0F9C2E2097e7dC1443Bb47e3fF4b8D4c67AdE5"
      ],
      "transaction": {
        "from": "0xf39fd6e51aad88f6f4ce6ab8827279cfffb92266",
        "to": "0xdaf5f4b3485b781b0416e724286a3d76d0be06b3",
        "gas": "0x11dcf",
        "value": "0x0",
        "input": "0xc0e2ffc40000000000000000000000000d0f9c2e2097e7dc1443bb47e3ff4b8d4c67ade5",
        "nonce": "0x114b",
        "chainId": "0x1"
      },
      "additionalContracts": [],
      "isFixedGasLimit": false
    },
    {
      "hash": "0xabee6b38ae37ae9ad339fcb0742773e2e4534f10ba1a5a87b7cb85546447b879",
      "transactionType": "CALL",
      "contractName": null,
      "contractAddress": "0xdaf5f4b3485b781b0416e724286a3d76d0be06b3",
      "function": "approveQuoteToken(address)",
      "arguments": [
        "0xA0b86991c6218b36c1d19D4a2e9Eb0cE3606eB48"
      ],
      "transaction": {
        "from": "0xf39fd6e51aad88f6f4ce6ab8827279cfffb92266",
        "to": "0xdaf5f4b3485b781b0416e724286a3d76d0be06b3",
        "gas": "0x12ee1",
        "value": "0x0",
        "input": "0xc614ee3b000000000000000000000000a0b86991c6218b36c1d19d4a2e9eb0ce3606eb48",
        "nonce": "0x114c",
        "chainId": "0x1"
      },
      "additionalContracts": [],
      "isFixedGasLimit": false
    },
    {
      "hash": "0xd8d3d92fe9f21c8d9f010624dfd9628beac2ded4a8bf556b1e3101c9d7ec5e8e",
      "transactionType": "CALL",
      "contractName": null,
      "contractAddress": "0xdaf5f4b3485b781b0416e724286a3d76d0be06b3",
      "function": "approveQuoteToken(address)",
      "arguments": [
        "0xdAC17F958D2ee523a2206206994597C13D831ec7"
      ],
      "transaction": {
        "from": "0xf39fd6e51aad88f6f4ce6ab8827279cfffb92266",
        "to": "0xdaf5f4b3485b781b0416e724286a3d76d0be06b3",
        "gas": "0x12ee1",
        "value": "0x0",
        "input": "0xc614ee3b000000000000000000000000dac17f958d2ee523a2206206994597c13d831ec7",
        "nonce": "0x114d",
        "chainId": "0x1"
      },
      "additionalContracts": [],
      "isFixedGasLimit": false
    },
    {
      "hash": "0x0cf638be03790fd0dd2108b684fdefb0bfd70a05a2259d475313c25c282319fc",
      "transactionType": "CALL",
      "contractName": null,
      "contractAddress": "0xdaf5f4b3485b781b0416e724286a3d76d0be06b3",
      "function": "approveQuoteToken(address)",
      "arguments": [
        "0x6B175474E89094C44Da98b954EedeAC495271d0F"
      ],
      "transaction": {
        "from": "0xf39fd6e51aad88f6f4ce6ab8827279cfffb92266",
        "to": "0xdaf5f4b3485b781b0416e724286a3d76d0be06b3",
        "gas": "0x12ee1",
        "value": "0x0",
        "input": "0xc614ee3b0000000000000000000000006b175474e89094c44da98b954eedeac495271d0f",
        "nonce": "0x114e",
        "chainId": "0x1"
      },
      "additionalContracts": [],
      "isFixedGasLimit": false
    },
    {
      "hash": "0x55e48896763da53f622895e452cfd196be3158f4b4d9d8838c9defc968ecf0d5",
      "transactionType": "CALL",
      "contractName": null,
      "contractAddress": "0xdaf5f4b3485b781b0416e724286a3d76d0be06b3",
      "function": "approveQuoteToken(address)",
      "arguments": [
        "0xC02aaA39b223FE8D0A0e5C4F27eAD9083C756Cc2"
      ],
      "transaction": {
        "from": "0xf39fd6e51aad88f6f4ce6ab8827279cfffb92266",
        "to": "0xdaf5f4b3485b781b0416e724286a3d76d0be06b3",
        "gas": "0x12ee1",
        "value": "0x0",
        "input": "0xc614ee3b000000000000000000000000c02aaa39b223fe8d0a0e5c4f27ead9083c756cc2",
        "nonce": "0x114f",
        "chainId": "0x1"
      },
      "additionalContracts": [],
      "isFixedGasLimit": false
    }
  ],
  "receipts": [
    {
      "status": "0x1",
      "cumulativeGasUsed": "0xceed",
      "logs": [
        {
          "address": "0xdaf5f4b3485b781b0416e724286a3d76d0be06b3",
          "topics": [
            "0x32e0703508c4ea098d1b9450c6834e4dcddff8b234d85df988e711ab1095f0d4",
            "0x00000000000000000000000049cf40bee86ab8bd080ee7918ed1d2d26dcf4c8b"
          ],
          "data": "0x0000000000000000000000000000000000000000000000000000000000000001",
          "blockHash": "0xc3a303b5d62182a8649f30c0bca8e85199e9c247747014374c9432c1dae0114e",
          "blockNumber": "0x1716217",
          "blockTimestamp": "0x6962eeeb",
          "transactionHash": "0xf301209665c6db29b3ab97e049b94bb469eef5ecb60af7d171bb42e3f292c5d4",
          "transactionIndex": "0x0",
          "logIndex": "0x0",
          "removed": false
        }
      ],
      "logsBloom": "0x00000000000000000000000000000000000000000000000000000000000000000088000200000000000000000000000000000000000000000000000000000000000000000000000000000001000000800000000000000000000000000000000000000000000000000000000000000000000000000000000000000000000000000000000000000100000000000000000000000000000000000000000000000000000000000000000000000100000000000000000000000000000000000000000000000000000000000000000000000000000000001000000000000000000000000000000000000000000000000000000000000000000000000000000020000000",
      "type": "0x2",
      "transactionHash": "0xf301209665c6db29b3ab97e049b94bb469eef5ecb60af7d171bb42e3f292c5d4",
      "transactionIndex": "0x0",
      "blockHash": "0xc3a303b5d62182a8649f30c0bca8e85199e9c247747014374c9432c1dae0114e",
      "blockNumber": "0x1716217",
      "gasUsed": "0xceed",
      "effectiveGasPrice": "0x87213c",
      "blobGasPrice": "0xadba0ab80f36dd6e0f",
      "from": "0xf39fd6e51aad88f6f4ce6ab8827279cfffb92266",
      "to": "0xdaf5f4b3485b781b0416e724286a3d76d0be06b3",
      "contractAddress": null
    },
    {
      "status": "0x1",
      "cumulativeGasUsed": "0xceed",
      "logs": [
        {
          "address": "0xdaf5f4b3485b781b0416e724286a3d76d0be06b3",
          "topics": [
            "0x32e0703508c4ea098d1b9450c6834e4dcddff8b234d85df988e711ab1095f0d4",
            "0x0000000000000000000000000d0f9c2e2097e7dc1443bb47e3ff4b8d4c67ade5"
          ],
          "data": "0x0000000000000000000000000000000000000000000000000000000000000001",
          "blockHash": "0xfc5db2262ade3c29b5bd8394fbe43cf72bcb5828d31ba5a39573c69816386711",
          "blockNumber": "0x1716218",
          "blockTimestamp": "0x6962eeeb",
          "transactionHash": "0x833fb7f542c105f3a9084bcebc23a5faaee245252d7f5ad9989ca1206ccdb693",
          "transactionIndex": "0x0",
          "logIndex": "0x0",
          "removed": false
        }
      ],
      "logsBloom": "0x40000000000000000000000000000000000000000000000000000000000000000088000200000000000000000000000000000000000000000000000000000000000000000000000000000001000000000000000000000000000000000000000000000000000000000000000000000000000000000000000000000000000000000000000400000100000000000000000000000000000000000000000000000000000000000000000000000100000000000000000000000000000000000000000000000000000000200000000000000000000000000000000000000000000000000000000000000000000000000000000000000000000000000000000000000000",
      "type": "0x2",
      "transactionHash": "0x833fb7f542c105f3a9084bcebc23a5faaee245252d7f5ad9989ca1206ccdb693",
      "transactionIndex": "0x0",
      "blockHash": "0xfc5db2262ade3c29b5bd8394fbe43cf72bcb5828d31ba5a39573c69816386711",
      "blockNumber": "0x1716218",
      "gasUsed": "0xceed",
      "effectiveGasPrice": "0x764d99",
      "blobGasPrice": "0x9a6c7b2baef88f1be6",
      "from": "0xf39fd6e51aad88f6f4ce6ab8827279cfffb92266",
      "to": "0xdaf5f4b3485b781b0416e724286a3d76d0be06b3",
      "contractAddress": null
    },
    {
      "status": "0x1",
      "cumulativeGasUsed": "0xcf19",
      "logs": [
        {
          "address": "0xdaf5f4b3485b781b0416e724286a3d76d0be06b3",
          "topics": [
            "0x59a8234668400022511cf16e138a5c22aaa48172d517061c02d974583218c2a5",
            "0x000000000000000000000000a0b86991c6218b36c1d19d4a2e9eb0ce3606eb48"
          ],
          "data": "0x0000000000000000000000000000000000000000000000000000000000000001",
          "blockHash": "0xc004b0556f293a374e8c30422f1279892bb7c6966670dc739154b0c7f0eeb8b6",
          "blockNumber": "0x1716219",
          "blockTimestamp": "0x6962eeeb",
          "transactionHash": "0xabee6b38ae37ae9ad339fcb0742773e2e4534f10ba1a5a87b7cb85546447b879",
          "transactionIndex": "0x0",
          "logIndex": "0x0",
          "removed": false
        }
      ],
      "logsBloom": "0x00000000000000000000000000000000000000000000000000000000000000000008000000000000000002000000000000000000000000000000000000000000000000000000000000000001000000000000000000000000000000000000000000000000000000000000000400000000000000000000000000000000000000000000000000000100000000000000000200000000000000000000000000000000000000000000000000000000000000000000000000000000000200000000000000000000000000000000000000000004000000000000000000000000000000000000000000000000000000000000000004000000000000000000000000000000",
      "type": "0x2",
      "transactionHash": "0xabee6b38ae37ae9ad339fcb0742773e2e4534f10ba1a5a87b7cb85546447b879",
      "transactionIndex": "0x0",
      "blockHash": "0xc004b0556f293a374e8c30422f1279892bb7c6966670dc739154b0c7f0eeb8b6",
      "blockNumber": "0x1716219",
      "gasUsed": "0xcf19",
      "effectiveGasPrice": "0x679376",
      "blobGasPrice": "0x8943fb96383759f12f",
      "from": "0xf39fd6e51aad88f6f4ce6ab8827279cfffb92266",
      "to": "0xdaf5f4b3485b781b0416e724286a3d76d0be06b3",
      "contractAddress": null
    },
    {
      "status": "0x1",
      "cumulativeGasUsed": "0x19e32",
      "logs": [
        {
          "address": "0xdaf5f4b3485b781b0416e724286a3d76d0be06b3",
          "topics": [
            "0x59a8234668400022511cf16e138a5c22aaa48172d517061c02d974583218c2a5",
            "0x000000000000000000000000dac17f958d2ee523a2206206994597c13d831ec7"
          ],
          "data": "0x0000000000000000000000000000000000000000000000000000000000000001",
          "blockHash": "0xc004b0556f293a374e8c30422f1279892bb7c6966670dc739154b0c7f0eeb8b6",
          "blockNumber": "0x1716219",
          "blockTimestamp": "0x6962eeeb",
          "transactionHash": "0xd8d3d92fe9f21c8d9f010624dfd9628beac2ded4a8bf556b1e3101c9d7ec5e8e",
          "transactionIndex": "0x1",
          "logIndex": "0x1",
          "removed": false
        }
      ],
      "logsBloom": "0x00000000000000000000000000000000000000000000000000000000000000000008000000000000000000000000000000000000000000000000000000000000000000000000000000000001000000000000000000000000000000000000000000000000000000000000000400000000000000200000000000000000000000000000000000000100000000000000000000000000000000000000000000000000000000000000000000000000000000000000000000000000000200000000004000000000000000000000000000000004000000020000000000000000000000000000000000000000000000000000000000000000000000000000000000000000",
      "type": "0x2",
      "transactionHash": "0xd8d3d92fe9f21c8d9f010624dfd9628beac2ded4a8bf556b1e3101c9d7ec5e8e",
      "transactionIndex": "0x1",
      "blockHash": "0xc004b0556f293a374e8c30422f1279892bb7c6966670dc739154b0c7f0eeb8b6",
      "blockNumber": "0x1716219",
      "gasUsed": "0xcf19",
      "effectiveGasPrice": "0x679376",
      "blobGasPrice": "0x8943fb96383759f12f",
      "from": "0xf39fd6e51aad88f6f4ce6ab8827279cfffb92266",
      "to": "0xdaf5f4b3485b781b0416e724286a3d76d0be06b3",
      "contractAddress": null
    },
    {
      "status": "0x1",
      "cumulativeGasUsed": "0x26d4b",
      "logs": [
        {
          "address": "0xdaf5f4b3485b781b0416e724286a3d76d0be06b3",
          "topics": [
            "0x59a8234668400022511cf16e138a5c22aaa48172d517061c02d974583218c2a5",
            "0x0000000000000000000000006b175474e89094c44da98b954eedeac495271d0f"
          ],
          "data": "0x0000000000000000000000000000000000000000000000000000000000000001",
          "blockHash": "0xc004b0556f293a374e8c30422f1279892bb7c6966670dc739154b0c7f0eeb8b6",
          "blockNumber": "0x1716219",
          "blockTimestamp": "0x6962eeeb",
          "transactionHash": "0x0cf638be03790fd0dd2108b684fdefb0bfd70a05a2259d475313c25c282319fc",
          "transactionIndex": "0x2",
          "logIndex": "0x2",
          "removed": false
        }
      ],
      "logsBloom": "0x00000000000000000000000000000000000000000000000000000000000000000008000000000000000000000000000000000000000000000000000000000000000000000000000000000001000000000000000000000000000000000000000000000000000000000000000400000000000000000000000000000000000000200000000000000100000000000000000000000000000000000000000400000000000000000000000000000000000000000000000000000000000200000000000000000000000000000000000000000004000000000000000000000000000000000000000000000000000000000000000000000000000000100000000000000000",
      "type": "0x2",
      "transactionHash": "0x0cf638be03790fd0dd2108b684fdefb0bfd70a05a2259d475313c25c282319fc",
      "transactionIndex": "0x2",
      "blockHash": "0xc004b0556f293a374e8c30422f1279892bb7c6966670dc739154b0c7f0eeb8b6",
      "blockNumber": "0x1716219",
      "gasUsed": "0xcf19",
      "effectiveGasPrice": "0x679376",
      "blobGasPrice": "0x8943fb96383759f12f",
      "from": "0xf39fd6e51aad88f6f4ce6ab8827279cfffb92266",
      "to": "0xdaf5f4b3485b781b0416e724286a3d76d0be06b3",
      "contractAddress": null
    },
    {
      "status": "0x1",
      "cumulativeGasUsed": "0x33c64",
      "logs": [
        {
          "address": "0xdaf5f4b3485b781b0416e724286a3d76d0be06b3",
          "topics": [
            "0x59a8234668400022511cf16e138a5c22aaa48172d517061c02d974583218c2a5",
            "0x000000000000000000000000c02aaa39b223fe8d0a0e5c4f27ead9083c756cc2"
          ],
          "data": "0x0000000000000000000000000000000000000000000000000000000000000001",
          "blockHash": "0xc004b0556f293a374e8c30422f1279892bb7c6966670dc739154b0c7f0eeb8b6",
          "blockNumber": "0x1716219",
          "blockTimestamp": "0x6962eeeb",
          "transactionHash": "0x55e48896763da53f622895e452cfd196be3158f4b4d9d8838c9defc968ecf0d5",
          "transactionIndex": "0x3",
          "logIndex": "0x3",
          "removed": false
        }
      ],
      "logsBloom": "0x00000000000000000000000000000000000000000000000000000000000000000008000000000000000000000000000000000000000000000000000000000000000000000000000000000001000000800000000000000000000000000000000000000000000000000000000400000000000000000000000000000000000000000000000000000100000000400000000000000000000000000000000000000000000000000000000000000000000000000000000000000000000200000000000000000000000000000000000000080004000000000000000000000000000000000000000000000000000000000000000000000000000000000000000000000000",
      "type": "0x2",
      "transactionHash": "0x55e48896763da53f622895e452cfd196be3158f4b4d9d8838c9defc968ecf0d5",
      "transactionIndex": "0x3",
      "blockHash": "0xc004b0556f293a374e8c30422f1279892bb7c6966670dc739154b0c7f0eeb8b6",
      "blockNumber": "0x1716219",
      "gasUsed": "0xcf19",
      "effectiveGasPrice": "0x679376",
      "blobGasPrice": "0x8943fb96383759f12f",
      "from": "0xf39fd6e51aad88f6f4ce6ab8827279cfffb92266",
      "to": "0xdaf5f4b3485b781b0416e724286a3d76d0be06b3",
      "contractAddress": null
    }
  ],
  "libraries": [],
  "pending": [],
  "returns": {},
  "timestamp": 1768091374226,
  "chain": 1,
  "commit": "6b66417"
}