{
  "transactions": [
    {
      "hash": "0x20dfb4c9363dcd0aa0d63318fc44b07c89983b6d0904e67b62571c4fdcf6a94a",
      "transactionType": "CALL",
      "contractName": null,
      "contractAddress": "0x2d929838d32ea33a0994d37f82965c2d284e3b4f",
      "function": "approveAdapter(address)",
      "arguments": [
        "0x49Cf40BEe86Ab8bD080eE7918eD1d2D26DCF4c8b"
      ],
      "transaction": {
        "from": "0xf39fd6e51aad88f6f4ce6ab8827279cfffb92266",
        "to": "0x2d929838d32ea33a0994d37f82965c2d284e3b4f",
        "gas": "0x11dcf",
        "value": "0x0",
        "input": "0xc0e2ffc400000000000000000000000049cf40bee86ab8bd080ee7918ed1d2d26dcf4c8b",
        "nonce": "0x1177",
        "chainId": "0x1"
      },
      "additionalContracts": [],
      "isFixedGasLimit": false
    },
    {
      "hash": "0xe3f812029255d8b839152f8a00f6170173f44e8b76059ed7fcbbdaadd80de0f6",
      "transactionType": "CALL",
      "contractName": null,
      "contractAddress": "0x2d929838d32ea33a0994d37f82965c2d284e3b4f",
      "function": "approveAdapter(address)",
      "arguments": [
        "0x0d0F9C2E2097e7dC1443Bb47e3fF4b8D4c67AdE5"
      ],
      "transaction": {
        "from": "0xf39fd6e51aad88f6f4ce6ab8827279cfffb92266",
        "to": "0x2d929838d32ea33a0994d37f82965c2d284e3b4f",
        "gas": "0x11dcf",
        "value": "0x0",
        "input": "0xc0e2ffc40000000000000000000000000d0f9c2e2097e7dc1443bb47e3ff4b8d4c67ade5",
        "nonce": "0x1178",
        "chainId": "0x1"
      },
      "additionalContracts": [],
      "isFixedGasLimit": false
    },
    {
      "hash": "0x2fe7072b18acd7d3fb02ebc0ae0532e18e9f54346b74b1f2c0b3c10ce7e731a5",
      "transactionType": "CALL",
      "contractName": null,
      "contractAddress": "0x2d929838d32ea33a0994d37f82965c2d284e3b4f",
      "function": "approveQuoteToken(address)",
      "arguments": [
        "0xA0b86991c6218b36c1d19D4a2e9Eb0cE3606eB48"
      ],
      "transaction": {
        "from": "0xf39fd6e51aad88f6f4ce6ab8827279cfffb92266",
        "to": "0x2d929838d32ea33a0994d37f82965c2d284e3b4f",
        "gas": "0x12ee1",
        "value": "0x0",
        "input": "0xc614ee3b000000000000000000000000a0b86991c6218b36c1d19d4a2e9eb0ce3606eb48",
        "nonce": "0x1179",
        "chainId": "0x1"
      },
      "additionalContracts": [],
      "isFixedGasLimit": false
    },
    {
      "hash": "0x90ed205ad891b9227c31b2efd53dc6e1c1cb082118271c5094be682ab6f2c2e3",
      "transactionType": "CALL",
      "contractName": null,
      "contractAddress": "0x2d929838d32ea33a0994d37f82965c2d284e3b4f",
      "function": "approveQuoteToken(address)",
      "arguments": [
        "0xdAC17F958D2ee523a2206206994597C13D831ec7"
      ],
      "transaction": {
        "from": "0xf39fd6e51aad88f6f4ce6ab8827279cfffb92266",
        "to": "0x2d929838d32ea33a0994d37f82965c2d284e3b4f",
        "gas": "0x12ee1",
        "value": "0x0",
        "input": "0xc614ee3b000000000000000000000000dac17f958d2ee523a2206206994597c13d831ec7",
        "nonce": "0x117a",
        "chainId": "0x1"
      },
      "additionalContracts": [],
      "isFixedGasLimit": false
    },
    {
      "hash": "0xa351aaeea0127215b4393094da340b0745cc0c75876327d40e91a04f96edbf57",
      "transactionType": "CALL",
      "contractName": null,
      "contractAddress": "0x2d929838d32ea33a0994d37f82965c2d284e3b4f",
      "function": "approveQuoteToken(address)",
      "arguments": [
        "0x6B175474E89094C44Da98b954EedeAC495271d0F"
      ],
      "transaction": {
        "from": "0xf39fd6e51aad88f6f4ce6ab8827279cfffb92266",
        "to": "0x2d929838d32ea33a0994d37f82965c2d284e3b4f",
        "gas": "0x12ee1",
        "value": "0x0",
        "input": "0xc614ee3b0000000000000000000000006b175474e89094c44da98b954eedeac495271d0f",
        "nonce": "0x117b",
        "chainId": "0x1"
      },
      "additionalContracts": [],
      "isFixedGasLimit": false
    },
    {
      "hash": "0x8490480fc2b02cba77e9ce3b55c86a6a581a1e37d36f5b892daf7393d2b8b11c",
      "transactionType": "CALL",
      "contractName": null,
      "contractAddress": "0x2d929838d32ea33a0994d37f82965c2d284e3b4f",
      "function": "approveQuoteToken(address)",
      "arguments": [
        "0xC02aaA39b223FE8D0A0e5C4F27eAD9083C756Cc2"
      ],
      "transaction": {
        "from": "0xf39fd6e51aad88f6f4ce6ab8827279cfffb92266",
        "to": "0x2d929838d32ea33a0994d37f82965c2d284e3b4f",
        "gas": "0x12ee1",
        "value": "0x0",
        "input": "0xc614ee3b000000000000000000000000c02aaa39b223fe8d0a0e5c4f27ead9083c756cc2",
        "nonce": "0x117c",
        "chainId": "0x1"
      },
      "additionalContracts": [],
      "isFixedGasLimit": false
    }
  ],
  "receipts": [
    {
      "status": "0x1",
      "cumulativeGasUsed": "0xceed",
      "logs": [
        {
          "address": "0x2d929838d32ea33a0994d37f82965c2d284e3b4f",
          "topics": [
            "0x32e0703508c4ea098d1b9450c6834e4dcddff8b234d85df988e711ab1095f0d4",
            "0x00000000000000000000000049cf40bee86ab8bd080ee7918ed1d2d26dcf4c8b"
          ],
          "data": "0x0000000000000000000000000000000000000000000000000000000000000001",
          "blockHash": "0x22265de386aaccb66d0fd3383329f9d13da20ad99a3cee9f9e53f56c454749c8",
          "blockNumber": "0x171d97a",
          "blockTimestamp": "0x69688f68",
          "transactionHash": "0x20dfb4c9363dcd0aa0d63318fc44b07c89983b6d0904e67b62571c4fdcf6a94a",
          "transactionIndex": "0x0",
          "logIndex": "0x0",
          "removed": false
        }
      ],
      "logsBloom": "0x00000000000000000000000000000000000000000000000000000000000000000080000200000000000000000000000000000000000000000000000000000000000000000000000000000000000000800000000000200000000000000000000000000000000000000000000000000000000000000000000000000000000000000000000000000000000000000000000000000000000000000000000000000000000000000000000000000100000000000000000000000000000000000000000000000000000000100000000000000000000000001000000000000100000000000000000000000000000000000000000000000000000000000000000020000000",
      "type": "0x2",
      "transactionHash": "0x20dfb4c9363dcd0aa0d63318fc44b07c89983b6d0904e67b62571c4fdcf6a94a",
      "transactionIndex": "0x0",
      "blockHash": "0x22265de386aaccb66d0fd3383329f9d13da20ad99a3cee9f9e53f56c454749c8",
      "blockNumber": "0x171d97a",
      "gasUsed": "0xceed",
      "effectiveGasPrice": "0x1f27703",
      "blobGasPrice": "0x1b7c799fae1f75251e62",
      "from": "0xf39fd6e51aad88f6f4ce6ab8827279cfffb92266",
      "to": "0x2d929838d32ea33a0994d37f82965c2d284e3b4f",
      "contractAddress": null
    },
    {
      "status": "0x1",
      "cumulativeGasUsed": "0xceed",
      "logs": [
        {
          "address": "0x2d929838d32ea33a0994d37f82965c2d284e3b4f",
          "topics": [
            "0x32e0703508c4ea098d1b9450c6834e4dcddff8b234d85df988e711ab1095f0d4",
            "0x0000000000000000000000000d0f9c2e2097e7dc1443bb47e3ff4b8d4c67ade5"
          ],
          "data": "0x0000000000000000000000000000000000000000000000000000000000000001",
          "blockHash": "0x60d03a739d4b6233d7dfa5c6350a205f5b8337128ca40f7869b23b569f1fea0d",
          "blockNumber": "0x171d97b",
          "blockTimestamp": "0x69688f68",
          "transactionHash": "0xe3f812029255d8b839152f8a00f6170173f44e8b76059ed7fcbbdaadd80de0f6",
          "transactionIndex": "0x0",
          "logIndex": "0x0",
          "removed": false
        }
      ],
      "logsBloom": "0x40000000000000000000000000000000000000000000000000000000000000000080000200000000000000000000000000000000000000000000000000000000000000000000000000000000000000000000000000200000000000000000000000000000000000000000000000000000000000000000000000000000000000000000000400000000000000000000000000000000000000000000000000000000000000000000000000000100000000000000000000000000000000000000000000000000000000300000000000000000000000000000000000000100000000000000000000000000000000000000000000000000000000000000000000000000",
      "type": "0x2",
      "transactionHash": "0xe3f812029255d8b839152f8a00f6170173f44e8b76059ed7fcbbdaadd80de0f6",
      "transactionIndex": "0x0",
      "blockHash": "0x60d03a739d4b6233d7dfa5c6350a205f5b8337128ca40f7869b23b569f1fea0d",
      "blockNumber": "0x171d97b",
      "gasUsed": "0xceed",
      "effectiveGasPrice": "0x1b4448b",
      "blobGasPrice": "0x186ea4fa3365a6adeb07",
      "from": "0xf39fd6e51aad88f6f4ce6ab8827279cfffb92266",
      "to": "0x2d929838d32ea33a0994d37f82965c2d284e3b4f",
      "contractAddress": null
    },
    {
      "status": "0x1",
      "cumulativeGasUsed": "0x19e06",
      "logs": [
        {
          "address": "0x2d929838d32ea33a0994d37f82965c2d284e3b4f",
          "topics": [
            "0x59a8234668400022511cf16e138a5c22aaa48172d517061c02d974583218c2a5",
            "0x000000000000000000000000a0b86991c6218b36c1d19d4a2e9eb0ce3606eb48"
          ],
          "data": "0x0000000000000000000000000000000000000000000000000000000000000001",
          "blockHash": "0x60d03a739d4b6233d7dfa5c6350a205f5b8337128ca40f7869b23b569f1fea0d",
          "blockNumber": "0x171d97b",
          "blockTimestamp": "0x69688f68",
          "transactionHash": "0x2fe7072b18acd7d3fb02ebc0ae0532e18e9f54346b74b1f2c0b3c10ce7e731a5",
          "transactionIndex": "0x1",
          "logIndex": "0x1",
          "removed": false
        }
      ],
      "logsBloom": "0x00000000000000000000000000000000000000000000000000000000000000000000000000000000000002000000000000000000000000000000000000000000000000000000000000000000000000000000000000200000000000000000000000000000000000000000000400000000000000000000000000000000000000000000000000000000000000000000000200000000000000000000000000000000000000000000000000000000000000000000000000000000000200000000000000000000000000100000000000000004000000000000000000000100000000000000000000000000000000000000000004000000000000000000000000000000",
      "type": "0x2",
      "transactionHash": "0x2fe7072b18acd7d3fb02ebc0ae0532e18e9f54346b74b1f2c0b3c10ce7e731a5",
      "transactionIndex": "0x1",
      "blockHash": "0x60d03a739d4b6233d7dfa5c6350a205f5b8337128ca40f7869b23b569f1fea0d",
      "blockNumber": "0x171d97b",
      "gasUsed": "0xcf19",
      "effectiveGasPrice": "0x1b4448b",
      "blobGasPrice": "0x186ea4fa3365a6adeb07",
      "from": "0xf39fd6e51aad88f6f4ce6ab8827279cfffb92266",
      "to": "0x2d929838d32ea33a0994d37f82965c2d284e3b4f",
      "contractAddress": null
    },
    {
      "status": "0x1",
      "cumulativeGasUsed": "0x26d1f",
      "logs": [
        {
          "address": "0x2d929838d32ea33a0994d37f82965c2d284e3b4f",
          "topics": [
            "0x59a8234668400022511cf16e138a5c22aaa48172d517061c02d974583218c2a5",
            "0x000000000000000000000000dac17f958d2ee523a2206206994597c13d831ec7"
          ],
          "data": "0x0000000000000000000000000000000000000000000000000000000000000001",
          "blockHash": "0x60d03a739d4b6233d7dfa5c6350a205f5b8337128ca40f7869b23b569f1fea0d",
          "blockNumber": "0x171d97b",
          "blockTimestamp": "0x69688f68",
          "transactionHash": "0x90ed205ad891b9227c31b2efd53dc6e1c1cb082118271c5094be682ab6f2c2e3",
          "transactionIndex": "0x2",
          "logIndex": "0x2",
          "removed": false
        }
      ],
      "logsBloom": "0x00000000000000000000000000000000000000000000000000000000000000000000000000000000000000000000000000000000000000000000000000000000000000000000000000000000000000000000000000200000000000000000000000000000000000000000000400000000000000200000000000000000000000000000000000000000000000000000000000000000000000000000000000000000000000000000000000000000000000000000000000000000000200000000004000000000000000100000000000000004000000020000000000000100000000000000000000000000000000000000000000000000000000000000000000000000",
      "type": "0x2",
      "transactionHash": "0x90ed205ad891b9227c31b2efd53dc6e1c1cb082118271c5094be682ab6f2c2e3",
      "transactionIndex": "0x2",
      "blockHash": "0x60d03a739d4b6233d7dfa5c6350a205f5b8337128ca40f7869b23b569f1fea0d",
      "blockNumber": "0x171d97b",
      "gasUsed": "0xcf19",
      "effectiveGasPrice": "0x1b4448b",
      "blobGasPrice": "0x186ea4fa3365a6adeb07",
      "from": "0xf39fd6e51aad88f6f4ce6ab8827279cfffb92266",
      "to": "0x2d929838d32ea33a0994d37f82965c2d284e3b4f",
      "contractAddress": null
    },
    {
      "status": "0x1",
      "cumulativeGasUsed": "0x33c38",
      "logs": [
        {
          "address": "0x2d929838d32ea33a0994d37f82965c2d284e3b4f",
          "topics": [
            "0x59a8234668400022511cf16e138a5c22aaa48172d517061c02d974583218c2a5",
            "0x0000000000000000000000006b175474e89094c44da98b954eedeac495271d0f"
          ],
          "data": "0x0000000000000000000000000000000000000000000000000000000000000001",
          "blockHash": "0x60d03a739d4b6233d7dfa5c6350a205f5b8337128ca40f7869b23b569f1fea0d",
          "blockNumber": "0x171d97b",
          "blockTimestamp": "0x69688f68",
          "transactionHash": "0xa351aaeea0127215b4393094da340b0745cc0c75876327d40e91a04f96edbf57",
          "transactionIndex": "0x3",
          "logIndex": "0x3",
          "removed": false
        }
      ],
      "logsBloom": "0x00000000000000000000000000000000000000000000000000000000000000000000000000000000000000000000000000000000000000000000000000000000000000000000000000000000000000000000000000200000000000000000000000000000000000000000000400000000000000000000000000000000000000200000000000000000000000000000000000000000000000000000000400000000000000000000000000000000000000000000000000000000000200000000000000000000000000100000000000000004000000000000000000000100000000000000000000000000000000000000000000000000000000100000000000000000",
      "type": "0x2",
      "transactionHash": "0xa351aaeea0127215b4393094da340b0745cc0c75876327d40e91a04f96edbf57",
      "transactionIndex": "0x3",
      "blockHash": "0x60d03a739d4b6233d7dfa5c6350a205f5b8337128ca40f7869b23b569f1fea0d",
      "blockNumber": "0x171d97b",
      "gasUsed": "0xcf19",
      "effectiveGasPrice": "0x1b4448b",
      "blobGasPrice": "0x186ea4fa3365a6adeb07",
      "from": "0xf39fd6e51aad88f6f4ce6ab8827279cfffb92266",
      "to": "0x2d929838d32ea33a0994d37f82965c2d284e3b4f",
      "contractAddress": null
    },
    {
      "status": "0x1",
      "cumulativeGasUsed": "0x40b51",
      "logs": [
        {
          "address": "0x2d929838d32ea33a0994d37f82965c2d284e3b4f",
          "topics": [
            "0x59a8234668400022511cf16e138a5c22aaa48172d517061c02d974583218c2a5",
            "0x000000000000000000000000c02aaa39b223fe8d0a0e5c4f27ead9083c756cc2"
          ],
          "data": "0x0000000000000000000000000000000000000000000000000000000000000001",
          "blockHash": "0x60d03a739d4b6233d7dfa5c6350a205f5b8337128ca40f7869b23b569f1fea0d",
          "blockNumber": "0x171d97b",
          "blockTimestamp": "0x69688f68",
          "transactionHash": "0x8490480fc2b02cba77e9ce3b55c86a6a581a1e37d36f5b892daf7393d2b8b11c",
          "transactionIndex": "0x4",
          "logIndex": "0x4",
          "removed": false
        }
      ],
      "logsBloom": "0x00000000000000000000000000000000000000000000000000000000000000000000000000000000000000000000000000000000000000000000000000000000000000000000000000000000000000800000000000200000000000000000000000000000000000000000000400000000000000000000000000000000000000000000000000000000000000400000000000000000000000000000000000000000000000000000000000000000000000000000000000000000000200000000000000000000000000100000000000080004000000000000000000000100000000000000000000000000000000000000000000000000000000000000000000000000",
      "type": "0x2",
      "transactionHash": "0x8490480fc2b02cba77e9ce3b55c86a6a581a1e37d36f5b892daf7393d2b8b11c",
      "transactionIndex": "0x4",
      "blockHash": "0x60d03a739d4b6233d7dfa5c6350a205f5b8337128ca40f7869b23b569f1fea0d",
      "blockNumber": "0x171d97b",
      "gasUsed": "0xcf19",
      "effectiveGasPrice": "0x1b4448b",
      "blobGasPrice": "0x186ea4fa3365a6adeb07",
      "from": "0xf39fd6e51aad88f6f4ce6ab8827279cfffb92266",
      "to": "0x2d929838d32ea33a0994d37f82965c2d284e3b4f",
      "contractAddress": null
    }
  ],
  "libraries": [],
  "pending": [],
  "returns": {},
  "timestamp": 1768460150528,
  "chain": 1,
  "commit": "e585832"
}