{
  "transactions": [
    {
      "hash": "0xc95e30c3aaadd57a60db3b6dba2becc3992b6d0fcca4cbe149b777fc4169d4ab",
      "transactionType": "CALL",
      "contractName": null,
      "contractAddress": "0x190b7e66447633d1b75204f19c4d953e0b836c1b",
      "function": "approveAdapter(address)",
      "arguments": [
        "0x49Cf40BEe86Ab8bD080eE7918eD1d2D26DCF4c8b"
      ],
      "transaction": {
        "from": "0xf39fd6e51aad88f6f4ce6ab8827279cfffb92266",
        "to": "0x190b7e66447633d1b75204f19c4d953e0b836c1b",
        "gas": "0x11dcf",
        "value": "0x0",
        "input": "0xc0e2ffc400000000000000000000000049cf40bee86ab8bd080ee7918ed1d2d26dcf4c8b",
        "nonce": "0x113a",
        "chainId": "0x1"
      },
      "additionalContracts": [],
      "isFixedGasLimit": false
    },
    {
      "hash": "0xc6589e45415948c408eaa4dadbec6dab3c205feb737a221a6c77674011da10c1",
      "transactionType": "CALL",
      "contractName": null,
      "contractAddress": "0x190b7e66447633d1b75204f19c4d953e0b836c1b",
      "function": "approveAdapter(address)",
      "arguments": [
        "0x0d0F9C2E2097e7dC1443Bb47e3fF4b8D4c67AdE5"
      ],
      "transaction": {
        "from": "0xf39fd6e51aad88f6f4ce6ab8827279cfffb92266",
        "to": "0x190b7e66447633d1b75204f19c4d953e0b836c1b",
        "gas": "0x11dcf",
        "value": "0x0",
        "input": "0xc0e2ffc40000000000000000000000000d0f9c2e2097e7dc1443bb47e3ff4b8d4c67ade5",
        "nonce": "0x113b",
        "chainId": "0x1"
      },
      "additionalContracts": [],
      "isFixedGasLimit": false
    },
    {
      "hash": "0xed70699fbfa451336c1d229055c6b4ddd91d11d9c4439384c511dfe0a34711f0",
      "transactionType": "CALL",
      "contractName": null,
      "contractAddress": "0x190b7e66447633d1b75204f19c4d953e0b836c1b",
      "function": "approveQuoteToken(address)",
      "arguments": [
        "0xA0b86991c6218b36c1d19D4a2e9Eb0cE3606eB48"
      ],
      "transaction": {
        "from": "0xf39fd6e51aad88f6f4ce6ab8827279cfffb92266",
        "to": "0x190b7e66447633d1b75204f19c4d953e0b836c1b",
        "gas": "0x12ee1",
        "value": "0x0",
        "input": "0xc614ee3b000000000000000000000000a0b86991c6218b36c1d19d4a2e9eb0ce3606eb48",
        "nonce": "0x113c",
        "chainId": "0x1"
      },
      "additionalContracts": [],
      "isFixedGasLimit": false
    },
    {
      "hash": "0x262d240174ca9214ef33678588ac647627739e5ef9d5d9df52651dd6555610fd",
      "transactionType": "CALL",
      "contractName": null,
      "contractAddress": "0x190b7e66447633d1b75204f19c4d953e0b836c1b",
      "function": "approveQuoteToken(address)",
      "arguments": [
        "0xdAC17F958D2ee523a2206206994597C13D831ec7"
      ],
      "transaction": {
        "from": "0xf39fd6e51aad88f6f4ce6ab8827279cfffb92266",
        "to": "0x190b7e66447633d1b75204f19c4d953e0b836c1b",
        "gas": "0x12ee1",
        "value": "0x0",
        "input": "0xc614ee3b000000000000000000000000dac17f958d2ee523a2206206994597c13d831ec7",
        "nonce": "0x113d",
        "chainId": "0x1"
      },
      "additionalContracts": [],
      "isFixedGasLimit": false
    },
    {
      "hash": "0xf5d6399e483d615417affa1e738bb46af7a1b7201f7e9153a98589195e6ab0ab",
      "transactionType": "CALL",
      "contractName": null,
      "contractAddress": "0x190b7e66447633d1b75204f19c4d953e0b836c1b",
      "function": "approveQuoteToken(address)",
      "arguments": [
        "0x6B175474E89094C44Da98b954EedeAC495271d0F"
      ],
      "transaction": {
        "from": "0xf39fd6e51aad88f6f4ce6ab8827279cfffb92266",
        "to": "0x190b7e66447633d1b75204f19c4d953e0b836c1b",
        "gas": "0x12ee1",
        "value": "0x0",
        "input": "0xc614ee3b0000000000000000000000006b175474e89094c44da98b954eedeac495271d0f",
        "nonce": "0x113e",
        "chainId": "0x1"
      },
      "additionalContracts": [],
      "isFixedGasLimit": false
    },
    {
      "hash": "0xa3101dfb8336703038d36742372c7a62c770d218e14948a43b85c06d94b8f6ed",
      "transactionType": "CALL",
      "contractName": null,
      "contractAddress": "0x190b7e66447633d1b75204f19c4d953e0b836c1b",
      "function": "approveQuoteToken(address)",
      "arguments": [
        "0xC02aaA39b223FE8D0A0e5C4F27eAD9083C756Cc2"
      ],
      "transaction": {
        "from": "0xf39fd6e51aad88f6f4ce6ab8827279cfffb92266",
        "to": "0x190b7e66447633d1b75204f19c4d953e0b836c1b",
        "gas": "0x12ee1",
        "value": "0x0",
        "input": "0xc614ee3b000000000000000000000000c02aaa39b223fe8d0a0e5c4f27ead9083c756cc2",
        "nonce": "0x113f",
        "chainId": "0x1"
      },
      "additionalContracts": [],
      "isFixedGasLimit": false
    }
  ],
  "receipts": [
    {
      "status": "0x1",
      "cumulativeGasUsed": "0xceed",
      "logs": [
        {
          "address": "0x190b7e66447633d1b75204f19c4d953e0b836c1b",
          "topics": [
            "0x32e0703508c4ea098d1b9450c6834e4dcddff8b234d85df988e711ab1095f0d4",
            "0x00000000000000000000000049cf40bee86ab8bd080ee7918ed1d2d26dcf4c8b"
          ],
          "data": "0x0000000000000000000000000000000000000000000000000000000000000001",
          "blockHash": "0xfb9d4c96ea8d686e6b4f4fb0c7e98ca63b690053b14810af8de97f1a9bdda709",
          "blockNumber": "0x17151aa",
          "blockTimestamp": "0x69622921",
          "transactionHash": "0xc95e30c3aaadd57a60db3b6dba2becc3992b6d0fcca4cbe149b777fc4169d4ab",
          "transactionIndex": "0x0",
          "logIndex": "0x0",
          "removed": false
        }
      ],
      "logsBloom": "0x00000000000000000000000000000000000000000000000000000000000000100080000200000000000000000000000000000000000000000000000000000000000000000000000000000000000000800000000000000000000000000000000000000000000000000000000000000000000000000000000000000000000000000000000000000000000000002000000000000000000000000000000000000000000000000000000000000100000000000000000000000000000000000000000000000000000000000000000000000000000000001000000000000000000000000000000000000000000000010000000000000000000000000000000020000000",
      "type": "0x2",
      "transactionHash": "0xc95e30c3aaadd57a60db3b6dba2becc3992b6d0fcca4cbe149b777fc4169d4ab",
      "transactionIndex": "0x0",
      "blockHash": "0xfb9d4c96ea8d686e6b4f4fb0c7e98ca63b690053b14810af8de97f1a9bdda709",
      "blockNumber": "0x17151aa",
      "gasUsed": "0xceed",
      "effectiveGasPrice": "0xc5498a",
      "blobGasPrice": "0xf43bbdce97e0f6d614",
      "from": "0xf39fd6e51aad88f6f4ce6ab8827279cfffb92266",
      "to": "0x190b7e66447633d1b75204f19c4d953e0b836c1b",
      "contractAddress": null
    },
    {
      "status": "0x1",
      "cumulativeGasUsed": "0xceed",
      "logs": [
        {
          "address": "0x190b7e66447633d1b75204f19c4d953e0b836c1b",
          "topics": [
            "0x32e0703508c4ea098d1b9450c6834e4dcddff8b234d85df988e711ab1095f0d4",
            "0x0000000000000000000000000d0f9c2e2097e7dc1443bb47e3ff4b8d4c67ade5"
          ],
          "data": "0x0000000000000000000000000000000000000000000000000000000000000001",
          "blockHash": "0x6a59cd0a58ac680924208494020648f371b567bd250af843e2d183bf21ca4fe1",
          "blockNumber": "0x17151ab",
          "blockTimestamp": "0x69622921",
          "transactionHash": "0xc6589e45415948c408eaa4dadbec6dab3c205feb737a221a6c77674011da10c1",
          "transactionIndex": "0x0",
          "logIndex": "0x0",
          "removed": false
        }
      ],
      "logsBloom": "0x40000000000000000000000000000000000000000000000000000000000000100080000200000000000000000000000000000000000000000000000000000000000000000000000000000000000000000000000000000000000000000000000000000000000000000000000000000000000000000000000000000000000000000000000400000000000000002000000000000000000000000000000000000000000000000000000000000100000000000000000000000000000000000000000000000000000000200000000000000000000000000000000000000000000000000000000000000000000000010000000000000000000000000000000000000000",
      "type": "0x2",
      "transactionHash": "0xc6589e45415948c408eaa4dadbec6dab3c205feb737a221a6c77674011da10c1",
      "transactionIndex": "0x0",
      "blockHash": "0x6a59cd0a58ac680924208494020648f371b567bd250af843e2d183bf21ca4fe1",
      "blockNumber": "0x17151ab",
      "gasUsed": "0xceed",
      "effectiveGasPrice": "0xad15ed",
      "blobGasPrice": "0xd918a8875a5735b8ba",
      "from": "0xf39fd6e51aad88f6f4ce6ab8827279cfffb92266",
      "to": "0x190b7e66447633d1b75204f19c4d953e0b836c1b",
      "contractAddress": null
    },
    {
      "status": "0x1",
      "cumulativeGasUsed": "0xcf19",
      "logs": [
        {
          "address": "0x190b7e66447633d1b75204f19c4d953e0b836c1b",
          "topics": [
            "0x59a8234668400022511cf16e138a5c22aaa48172d517061c02d974583218c2a5",
            "0x000000000000000000000000a0b86991c6218b36c1d19d4a2e9eb0ce3606eb48"
          ],
          "data": "0x0000000000000000000000000000000000000000000000000000000000000001",
          "blockHash": "0x8ec174204fff635d3046457db6e9f1495b026783a7e8b179d52f55af6326f1bc",
          "blockNumber": "0x17151ac",
          "blockTimestamp": "0x69622921",
          "transactionHash": "0xed70699fbfa451336c1d229055c6b4ddd91d11d9c4439384c511dfe0a34711f0",
          "transactionIndex": "0x0",
          "logIndex": "0x0",
          "removed": false
        }
      ],
      "logsBloom": "0x00000000000000000000000000000000000000000000000000000000000000100000000000000000000002000000000000000000000000000000000000000000000000000000000000000000000000000000000000000000000000000000000000000000000000000000000400000000000000000000000000000000000000000000000000000000000000002000000200000000000000000000000000000000000000000000000000000000000000000000000000000000000200000000000000000000000000000000000000000004000000000000000000000000000000000000000000000000000000010000000004000000000000000000000000000000",
      "type": "0x2",
      "transactionHash": "0xed70699fbfa451336c1d229055c6b4ddd91d11d9c4439384c511dfe0a34711f0",
      "transactionIndex": "0x0",
      "blockHash": "0x8ec174204fff635d3046457db6e9f1495b026783a7e8b179d52f55af6326f1bc",
      "blockNumber": "0x17151ac",
      "gasUsed": "0xcf19",
      "effectiveGasPrice": "0x97e766",
      "blobGasPrice": "0xc0f97930d1b53bded7",
      "from": "0xf39fd6e51aad88f6f4ce6ab8827279cfffb92266",
      "to": "0x190b7e66447633d1b75204f19c4d953e0b836c1b",
      "contractAddress": null
    },
    {
      "status": "0x1",
      "cumulativeGasUsed": "0x19e32",
      "logs": [
        {
          "address": "0x190b7e66447633d1b75204f19c4d953e0b836c1b",
          "topics": [
            "0x59a8234668400022511cf16e138a5c22aaa48172d517061c02d974583218c2a5",
            "0x000000000000000000000000dac17f958d2ee523a2206206994597c13d831ec7"
          ],
          "data": "0x0000000000000000000000000000000000000000000000000000000000000001",
          "blockHash": "0x8ec174204fff635d3046457db6e9f1495b026783a7e8b179d52f55af6326f1bc",
          "blockNumber": "0x17151ac",
          "blockTimestamp": "0x69622921",
          "transactionHash": "0x262d240174ca9214ef33678588ac647627739e5ef9d5d9df52651dd6555610fd",
          "transactionIndex": "0x1",
          "logIndex": "0x1",
          "removed": false
        }
      ],
      "logsBloom": "0x00000000000000000000000000000000000000000000000000000000000000100000000000000000000000000000000000000000000000000000000000000000000000000000000000000000000000000000000000000000000000000000000000000000000000000000000400000000000000200000000000000000000000000000000000000000000000002000000000000000000000000000000000000000000000000000000000000000000000000000000000000000000200000000004000000000000000000000000000000004000000020000000000000000000000000000000000000000000000010000000000000000000000000000000000000000",
      "type": "0x2",
      "transactionHash": "0x262d240174ca9214ef33678588ac647627739e5ef9d5d9df52651dd6555610fd",
      "transactionIndex": "0x1",
      "blockHash": "0x8ec174204fff635d3046457db6e9f1495b026783a7e8b179d52f55af6326f1bc",
      "blockNumber": "0x17151ac",
      "gasUsed": "0xcf19",
      "effectiveGasPrice": "0x97e766",
      "blobGasPrice": "0xc0f97930d1b53bded7",
      "from": "0xf39fd6e51aad88f6f4ce6ab8827279cfffb92266",
      "to": "0x190b7e66447633d1b75204f19c4d953e0b836c1b",
      "contractAddress": null
    },
    {
      "status": "0x1",
      "cumulativeGasUsed": "0x26d4b",
      "logs": [
        {
          "address": "0x190b7e66447633d1b75204f19c4d953e0b836c1b",
          "topics": [
            "0x59a8234668400022511cf16e138a5c22aaa48172d517061c02d974583218c2a5",
            "0x0000000000000000000000006b175474e89094c44da98b954eedeac495271d0f"
          ],
          "data": "0x0000000000000000000000000000000000000000000000000000000000000001",
          "blockHash": "0x8ec174204fff635d3046457db6e9f1495b026783a7e8b179d52f55af6326f1bc",
          "blockNumber": "0x17151ac",
          "blockTimestamp": "0x69622921",
          "transactionHash": "0xf5d6399e483d615417affa1e738bb46af7a1b7201f7e9153a98589195e6ab0ab",
          "transactionIndex": "0x2",
          "logIndex": "0x2",
          "removed": false
        }
      ],
      "logsBloom": "0x00000000000000000000000000000000000000000000000000000000000000100000000000000000000000000000000000000000000000000000000000000000000000000000000000000000000000000000000000000000000000000000000000000000000000000000000400000000000000000000000000000000000000200000000000000000000000002000000000000000000000000000000400000000000000000000000000000000000000000000000000000000000200000000000000000000000000000000000000000004000000000000000000000000000000000000000000000000000000010000000000000000000000100000000000000000",
      "type": "0x2",
      "transactionHash": "0xf5d6399e483d615417affa1e738bb46af7a1b7201f7e9153a98589195e6ab0ab",
      "transactionIndex": "0x2",
      "blockHash": "0x8ec174204fff635d3046457db6e9f1495b026783a7e8b179d52f55af6326f1bc",
      "blockNumber": "0x17151ac",
      "gasUsed": "0xcf19",
      "effectiveGasPrice": "0x97e766",
      "blobGasPrice": "0xc0f97930d1b53bded7",
      "from": "0xf39fd6e51aad88f6f4ce6ab8827279cfffb92266",
      "to": "0x190b7e66447633d1b75204f19c4d953e0b836c1b",
      "contractAddress": null
    },
    {
      "status": "0x1",
      "cumulativeGasUsed": "0x33c64",
      "logs": [
        {
          "address": "0x190b7e66447633d1b75204f19c4d953e0b836c1b",
          "topics": [
            "0x59a8234668400022511cf16e138a5c22aaa48172d517061c02d974583218c2a5",
            "0x000000000000000000000000c02aaa39b223fe8d0a0e5c4f27ead9083c756cc2"
          ],
          "data": "0x0000000000000000000000000000000000000000000000000000000000000001",
          "blockHash": "0x8ec174204fff635d3046457db6e9f1495b026783a7e8b179d52f55af6326f1bc",
          "blockNumber": "0x17151ac",
          "blockTimestamp": "0x69622921",
          "transactionHash": "0xa3101dfb8336703038d36742372c7a62c770d218e14948a43b85c06d94b8f6ed",
          "transactionIndex": "0x3",
          "logIndex": "0x3",
          "removed": false
        }
      ],
      "logsBloom": "0x00000000000000000000000000000000000000000000000000000000000000100000000000000000000000000000000000000000000000000000000000000000000000000000000000000000000000800000000000000000000000000000000000000000000000000000000400000000000000000000000000000000000000000000000000000000000000402000000000000000000000000000000000000000000000000000000000000000000000000000000000000000000200000000000000000000000000000000000000080004000000000000000000000000000000000000000000000000000000010000000000000000000000000000000000000000",
      "type": "0x2",
      "transactionHash": "0xa3101dfb8336703038d36742372c7a62c770d218e14948a43b85c06d94b8f6ed",
      "transactionIndex": "0x3",
      "blockHash": "0x8ec174204fff635d3046457db6e9f1495b026783a7e8b179d52f55af6326f1bc",
      "blockNumber": "0x17151ac",
      "gasUsed": "0xcf19",
      "effectiveGasPrice": "0x97e766",
      "blobGasPrice": "0xc0f97930d1b53bded7",
      "from": "0xf39fd6e51aad88f6f4ce6ab8827279cfffb92266",
      "to": "0x190b7e66447633d1b75204f19c4d953e0b836c1b",
      "contractAddress": null
    }
  ],
  "libraries": [],
  "pending": [],
  "returns": {},
  "timestamp": 1768040748842,
  "chain": 1,
  "commit": "037a3c7"
}