{
  "transactions": [
    {
      "hash": "0x1b9bb909dab7078281abb600431e4068b75c63d81cdc9b81f945d1aba6679b42",
      "transactionType": "CALL",
      "contractName": null,
      "contractAddress": "0x480ce59387443a9bf266a4657f0e2ae1e6a7b771",
      "function": "approveAdapter(address)",
      "arguments": [
        "0x49Cf40BEe86Ab8bD080eE7918eD1d2D26DCF4c8b"
      ],
      "transaction": {
        "from": "0xf39fd6e51aad88f6f4ce6ab8827279cfffb92266",
        "to": "0x480ce59387443a9bf266a4657f0e2ae1e6a7b771",
        "gas": "0x11dcf",
        "value": "0x0",
        "input": "0xc0e2ffc400000000000000000000000049cf40bee86ab8bd080ee7918ed1d2d26dcf4c8b",
        "nonce": "0x11e7",
        "chainId": "0x1"
      },
      "additionalContracts": [],
      "isFixedGasLimit": false
    },
    {
      "hash": "0x8fe80016c91f3947f9ddf640b2dc5f323cb0bd592c770ab4152dcd7101199db4",
      "transactionType": "CALL",
      "contractName": null,
      "contractAddress": "0x480ce59387443a9bf266a4657f0e2ae1e6a7b771",
      "function": "approveAdapter(address)",
      "arguments": [
        "0x0d0F9C2E2097e7dC1443Bb47e3fF4b8D4c67AdE5"
      ],
      "transaction": {
        "from": "0xf39fd6e51aad88f6f4ce6ab8827279cfffb92266",
        "to": "0x480ce59387443a9bf266a4657f0e2ae1e6a7b771",
        "gas": "0x11dcf",
        "value": "0x0",
        "input": "0xc0e2ffc40000000000000000000000000d0f9c2e2097e7dc1443bb47e3ff4b8d4c67ade5",
        "nonce": "0x11e8",
        "chainId": "0x1"
      },
      "additionalContracts": [],
      "isFixedGasLimit": false
    },
    {
      "hash": "0x907f572c765e4188e98b84355713cd4120c905031bda61f3fd3b801e3d4eb413",
      "transactionType": "CALL",
      "contractName": null,
      "contractAddress": "0x480ce59387443a9bf266a4657f0e2ae1e6a7b771",
      "function": "approveQuoteToken(address)",
      "arguments": [
        "0xA0b86991c6218b36c1d19D4a2e9Eb0cE3606eB48"
      ],
      "transaction": {
        "from": "0xf39fd6e51aad88f6f4ce6ab8827279cfffb92266",
        "to": "0x480ce59387443a9bf266a4657f0e2ae1e6a7b771",
        "gas": "0x12ee1",
        "value": "0x0",
        "input": "0xc614ee3b000000000000000000000000a0b86991c6218b36c1d19d4a2e9eb0ce3606eb48",
        "nonce": "0x11e9",
        "chainId": "0x1"
      },
      "additionalContracts": [],
      "isFixedGasLimit": false
    },
    {
      "hash": "0x35b9eb9849e61d5347fba227badb8c47521614755cb576b08beec28fdf6df439",
      "transactionType": "CALL",
      "contractName": null,
      "contractAddress": "0x480ce59387443a9bf266a4657f0e2ae1e6a7b771",
      "function": "approveQuoteToken(address)",
      "arguments": [
        "0xdAC17F958D2ee523a2206206994597C13D831ec7"
      ],
      "transaction": {
        "from": "0xf39fd6e51aad88f6f4ce6ab8827279cfffb92266",
        "to": "0x480ce59387443a9bf266a4657f0e2ae1e6a7b771",
        "gas": "0x12ee1",
        "value": "0x0",
        "input": "0xc614ee3b000000000000000000000000dac17f958d2ee523a2206206994597c13d831ec7",
        "nonce": "0x11ea",
        "chainId": "0x1"
      },
      "additionalContracts": [],
      "isFixedGasLimit": false
    },
    {
      "hash": "0xfabf128597aed24787b8c74818c08f1a9dececf75f039c86cab906c8e1df47fe",
      "transactionType": "CALL",
      "contractName": null,
      "contractAddress": "0x480ce59387443a9bf266a4657f0e2ae1e6a7b771",
      "function": "approveQuoteToken(address)",
      "arguments": [
        "0x6B175474E89094C44Da98b954EedeAC495271d0F"
      ],
      "transaction": {
        "from": "0xf39fd6e51aad88f6f4ce6ab8827279cfffb92266",
        "to": "0x480ce59387443a9bf266a4657f0e2ae1e6a7b771",
        "gas": "0x12ee1",
        "value": "0x0",
        "input": "0xc614ee3b0000000000000000000000006b175474e89094c44da98b954eedeac495271d0f",
        "nonce": "0x11eb",
        "chainId": "0x1"
      },
      "additionalContracts": [],
      "isFixedGasLimit": false
    },
    {
      "hash": "0x4edcb98eacc649940a3e6138a5fb35769596897f58a7a24d626991d91a9f0aee",
      "transactionType": "CALL",
      "contractName": null,
      "contractAddress": "0x480ce59387443a9bf266a4657f0e2ae1e6a7b771",
      "function": "approveQuoteToken(address)",
      "arguments": [
        "0xC02aaA39b223FE8D0A0e5C4F27eAD9083C756Cc2"
      ],
      "transaction": {
        "from": "0xf39fd6e51aad88f6f4ce6ab8827279cfffb92266",
        "to": "0x480ce59387443a9bf266a4657f0e2ae1e6a7b771",
        "gas": "0x12ee1",
        "value": "0x0",
        "input": "0xc614ee3b000000000000000000000000c02aaa39b223fe8d0a0e5c4f27ead9083c756cc2",
        "nonce": "0x11ec",
        "chainId": "0x1"
      },
      "additionalContracts": [],
      "isFixedGasLimit": false
    },
    {
      "hash": "0x3d8001228ae2a8aee20cbecec9aac8b49f237a472cb8faa10d9cbf54c7f11c47",
      "transactionType": "CALL",
      "contractName": null,
      "contractAddress": "0x480ce59387443a9bf266a4657f0e2ae1e6a7b771",
      "function": "approveQuoteToken(address)",
      "arguments": [
        "0x514910771AF9Ca656af840dff83E8264EcF986CA"
      ],
      "transaction": {
        "from": "0xf39fd6e51aad88f6f4ce6ab8827279cfffb92266",
        "to": "0x480ce59387443a9bf266a4657f0e2ae1e6a7b771",
        "gas": "0x12ee1",
        "value": "0x0",
        "input": "0xc614ee3b000000000000000000000000514910771af9ca656af840dff83e8264ecf986ca",
        "nonce": "0x11ed",
        "chainId": "0x1"
      },
      "additionalContracts": [],
      "isFixedGasLimit": false
    }
  ],
  "receipts": [
    {
      "status": "0x1",
      "cumulativeGasUsed": "0xceed",
      "logs": [
        {
          "address": "0x480ce59387443a9bf266a4657f0e2ae1e6a7b771",
          "topics": [
            "0x32e0703508c4ea098d1b9450c6834e4dcddff8b234d85df988e711ab1095f0d4",
            "0x00000000000000000000000049cf40bee86ab8bd080ee7918ed1d2d26dcf4c8b"
          ],
          "data": "0x0000000000000000000000000000000000000000000000000000000000000001",
          "blockHash": "0x80f45aad58fe5496008620b3eb608d827a8332a64946e9351df3217bd7eb97f1",
          "blockNumber": "0x172c704",
          "blockTimestamp": "0x6973bd45",
          "transactionHash": "0x1b9bb909dab7078281abb600431e4068b75c63d81cdc9b81f945d1aba6679b42",
          "transactionIndex": "0x0",
          "logIndex": "0x0",
          "removed": false
        }
      ],
      "logsBloom": "0x00000000000000000000000000400000000000000000000000000000000000000080000200000000000000000000000000000000000000000000000000000000000000020000000000000000000000800000000000000000000000000000000000000000000000000000000000000000000000000000000000000000000000000000000000000000000000000000000000000000000000000000000000000000000000000000000000000100000000000000000000000000000000000000000000000000000000000000000000001000000000001000000000000000000000000000000000000000000000000000000000000000000000000000000020000000",
      "type": "0x2",
      "transactionHash": "0x1b9bb909dab7078281abb600431e4068b75c63d81cdc9b81f945d1aba6679b42",
      "transactionIndex": "0x0",
      "blockHash": "0x80f45aad58fe5496008620b3eb608d827a8332a64946e9351df3217bd7eb97f1",
      "blockNumber": "0x172c704",
      "gasUsed": "0xceed",
      "effectiveGasPrice": "0x357a52b",
      "blobGasPrice": "0xb1dbc17e4cddb35832ef",
      "from": "0xf39fd6e51aad88f6f4ce6ab8827279cfffb92266",
      "to": "0x480ce59387443a9bf266a4657f0e2ae1e6a7b771",
      "contractAddress": null
    },
    {
      "status": "0x1",
      "cumulativeGasUsed": "0xceed",
      "logs": [
        {
          "address": "0x480ce59387443a9bf266a4657f0e2ae1e6a7b771",
          "topics": [
            "0x32e0703508c4ea098d1b9450c6834e4dcddff8b234d85df988e711ab1095f0d4",
            "0x0000000000000000000000000d0f9c2e2097e7dc1443bb47e3ff4b8d4c67ade5"
          ],
          "data": "0x0000000000000000000000000000000000000000000000000000000000000001",
          "blockHash": "0xb1758feadadc2f0a21fc23d8963363bd883e12592ce4c8baa945f19c3d4d1648",
          "blockNumber": "0x172c705",
          "blockTimestamp": "0x6973bd45",
          "transactionHash": "0x8fe80016c91f3947f9ddf640b2dc5f323cb0bd592c770ab4152dcd7101199db4",
          "transactionIndex": "0x0",
          "logIndex": "0x0",
          "removed": false
        }
      ],
      "logsBloom": "0x40000000000000000000000000400000000000000000000000000000000000000080000200000000000000000000000000000000000000000000000000000000000000020000000000000000000000000000000000000000000000000000000000000000000000000000000000000000000000000000000000000000000000000000000400000000000000000000000000000000000000000000000000000000000000000000000000000100000000000000000000000000000000000000000000000000000000200000000000001000000000000000000000000000000000000000000000000000000000000000000000000000000000000000000000000000",
      "type": "0x2",
      "transactionHash": "0x8fe80016c91f3947f9ddf640b2dc5f323cb0bd592c770ab4152dcd7101199db4",
      "transactionIndex": "0x0",
      "blockHash": "0xb1758feadadc2f0a21fc23d8963363bd883e12592ce4c8baa945f19c3d4d1648",
      "blockNumber": "0x172c705",
      "gasUsed": "0xceed",
      "effectiveGasPrice": "0x2ece104",
      "blobGasPrice": "0x9e18abdaf612e72713e4",
      "from": "0xf39fd6e51aad88f6f4ce6ab8827279cfffb92266",
      "to": "0x480ce59387443a9bf266a4657f0e2ae1e6a7b771",
      "contractAddress": null
    },
    {
      "status": "0x1",
      "cumulativeGasUsed": "0x19e06",
      "logs": [
        {
          "address": "0x480ce59387443a9bf266a4657f0e2ae1e6a7b771",
          "topics": [
            "0x59a8234668400022511cf16e138a5c22aaa48172d517061c02d974583218c2a5",
            "0x000000000000000000000000a0b86991c6218b36c1d19d4a2e9eb0ce3606eb48"
          ],
          "data": "0x0000000000000000000000000000000000000000000000000000000000000001",
          "blockHash": "0xb1758feadadc2f0a21fc23d8963363bd883e12592ce4c8baa945f19c3d4d1648",
          "blockNumber": "0x172c705",
          "blockTimestamp": "0x6973bd45",
          "transactionHash": "0x907f572c765e4188e98b84355713cd4120c905031bda61f3fd3b801e3d4eb413",
          "transactionIndex": "0x1",
          "logIndex": "0x1",
          "removed": false
        }
      ],
      "logsBloom": "0x00000000000000000000000000400000000000000000000000000000000000000000000000000000000002000000000000000000000000000000000000000000000000020000000000000000000000000000000000000000000000000000000000000000000000000000000400000000000000000000000000000000000000000000000000000000000000000000000200000000000000000000000000000000000000000000000000000000000000000000000000000000000200000000000000000000000000000000000000001004000000000000000000000000000000000000000000000000000000000000000004000000000000000000000000000000",
      "type": "0x2",
      "transactionHash": "0x907f572c765e4188e98b84355713cd4120c905031bda61f3fd3b801e3d4eb413",
      "transactionIndex": "0x1",
      "blockHash": "0xb1758feadadc2f0a21fc23d8963363bd883e12592ce4c8baa945f19c3d4d1648",
      "blockNumber": "0x172c705",
      "gasUsed": "0xcf19",
      "effectiveGasPrice": "0x2ece104",
      "blobGasPrice": "0x9e18abdaf612e72713e4",
      "from": "0xf39fd6e51aad88f6f4ce6ab8827279cfffb92266",
      "to": "0x480ce59387443a9bf266a4657f0e2ae1e6a7b771",
      "contractAddress": null
    },
    {
      "status": "0x1",
      "cumulativeGasUsed": "0xcf19",
      "logs": [
        {
          "address": "0x480ce59387443a9bf266a4657f0e2ae1e6a7b771",
          "topics": [
            "0x59a8234668400022511cf16e138a5c22aaa48172d517061c02d974583218c2a5",
            "0x000000000000000000000000dac17f958d2ee523a2206206994597c13d831ec7"
          ],
          "data": "0x0000000000000000000000000000000000000000000000000000000000000001",
          "blockHash": "0x9c60813ce5a9785d206b4dce816faf5be2478f6efd85d2d6c0b77c1d22d2c7c9",
          "blockNumber": "0x172c706",
          "blockTimestamp": "0x6973bd45",
          "transactionHash": "0x35b9eb9849e61d5347fba227badb8c47521614755cb576b08beec28fdf6df439",
          "transactionIndex": "0x0",
          "logIndex": "0x0",
          "removed": false
        }
      ],
      "logsBloom": "0x00000000000000000000000000400000000000000000000000000000000000000000000000000000000000000000000000000000000000000000000000000000000000020000000000000000000000000000000000000000000000000000000000000000000000000000000400000000000000200000000000000000000000000000000000000000000000000000000000000000000000000000000000000000000000000000000000000000000000000000000000000000000200000000004000000000000000000000000000001004000000020000000000000000000000000000000000000000000000000000000000000000000000000000000000000000",
      "type": "0x2",
      "transactionHash": "0x35b9eb9849e61d5347fba227badb8c47521614755cb576b08beec28fdf6df439",
      "transactionIndex": "0x0",
      "blockHash": "0x9c60813ce5a9785d206b4dce816faf5be2478f6efd85d2d6c0b77c1d22d2c7c9",
      "blockNumber": "0x172c706",
      "gasUsed": "0xcf19",
      "effectiveGasPrice": "0x28f99bc",
      "blobGasPrice": "0x8c87b5153b3fcaf32482",
      "from": "0xf39fd6e51aad88f6f4ce6ab8827279cfffb92266",
      "to": "0x480ce59387443a9bf266a4657f0e2ae1e6a7b771",
      "contractAddress": null
    },
    {
      "status": "0x1",
      "cumulativeGasUsed": "0x19e32",
      "logs": [
        {
          "address": "0x480ce59387443a9bf266a4657f0e2ae1e6a7b771",
          "topics": [
            "0x59a8234668400022511cf16e138a5c22aaa48172d517061c02d974583218c2a5",
            "0x0000000000000000000000006b175474e89094c44da98b954eedeac495271d0f"
          ],
          "data": "0x0000000000000000000000000000000000000000000000000000000000000001",
          "blockHash": "0x9c60813ce5a9785d206b4dce816faf5be2478f6efd85d2d6c0b77c1d22d2c7c9",
          "blockNumber": "0x172c706",
          "blockTimestamp": "0x6973bd45",
          "transactionHash": "0xfabf128597aed24787b8c74818c08f1a9dececf75f039c86cab906c8e1df47fe",
          "transactionIndex": "0x1",
          "logIndex": "0x1",
          "removed": false
        }
      ],
      "logsBloom": "0x00000000000000000000000000400000000000000000000000000000000000000000000000000000000000000000000000000000000000000000000000000000000000020000000000000000000000000000000000000000000000000000000000000000000000000000000400000000000000000000000000000000000000200000000000000000000000000000000000000000000000000000000400000000000000000000000000000000000000000000000000000000000200000000000000000000000000000000000000001004000000000000000000000000000000000000000000000000000000000000000000000000000000100000000000000000",
      "type": "0x2",
      "transactionHash": "0xfabf128597aed24787b8c74818c08f1a9dececf75f039c86cab906c8e1df47fe",
      "transactionIndex": "0x1",
      "blockHash": "0x9c60813ce5a9785d206b4dce816faf5be2478f6efd85d2d6c0b77c1d22d2c7c9",
      "blockNumber": "0x172c706",
      "gasUsed": "0xcf19",
      "effectiveGasPrice": "0x28f99bc",
      "blobGasPrice": "0x8c87b5153b3fcaf32482",
      "from": "0xf39fd6e51aad88f6f4ce6ab8827279cfffb92266",
      "to": "0x480ce59387443a9bf266a4657f0e2ae1e6a7b771",
      "contractAddress": null
    },
    {
      "status": "0x1",
      "cumulativeGasUsed": "0x26d4b",
      "logs": [
        {
          "address": "0x480ce59387443a9bf266a4657f0e2ae1e6a7b771",
          "topics": [
            "0x59a8234668400022511cf16e138a5c22aaa48172d517061c02d974583218c2a5",
            "0x000000000000000000000000c02aaa39b223fe8d0a0e5c4f27ead9083c756cc2"
          ],
          "data": "0x0000000000000000000000000000000000000000000000000000000000000001",
          "blockHash": "0x9c60813ce5a9785d206b4dce816faf5be2478f6efd85d2d6c0b77c1d22d2c7c9",
          "blockNumber": "0x172c706",
          "blockTimestamp": "0x6973bd45",
          "transactionHash": "0x4edcb98eacc649940a3e6138a5fb35769596897f58a7a24d626991d91a9f0aee",
          "transactionIndex": "0x2",
          "logIndex": "0x2",
          "removed": false
        }
      ],
      "logsBloom": "0x00000000000000000000000000400000000000000000000000000000000000000000000000000000000000000000000000000000000000000000000000000000000000020000000000000000000000800000000000000000000000000000000000000000000000000000000400000000000000000000000000000000000000000000000000000000000000400000000000000000000000000000000000000000000000000000000000000000000000000000000000000000000200000000000000000000000000000000000000081004000000000000000000000000000000000000000000000000000000000000000000000000000000000000000000000000",
      "type": "0x2",
      "transactionHash": "0x4edcb98eacc649940a3e6138a5fb35769596897f58a7a24d626991d91a9f0aee",
      "transactionIndex": "0x2",
      "blockHash": "0x9c60813ce5a9785d206b4dce816faf5be2478f6efd85d2d6c0b77c1d22d2c7c9",
      "blockNumber": "0x172c706",
      "gasUsed": "0xcf19",
      "effectiveGasPrice": "0x28f99bc",
      "blobGasPrice": "0x8c87b5153b3fcaf32482",
      "from": "0xf39fd6e51aad88f6f4ce6ab8827279cfffb92266",
      "to": "0x480ce59387443a9bf266a4657f0e2ae1e6a7b771",
      "contractAddress": null
    },
    {
      "status": "0x1",
      "cumulativeGasUsed": "0x33c64",
      "logs": [
        {
          "address": "0x480ce59387443a9bf266a4657f0e2ae1e6a7b771",
          "topics": [
            "0x59a8234668400022511cf16e138a5c22aaa48172d517061c02d974583218c2a5",
            "0x000000000000000000000000514910771af9ca656af840dff83e8264ecf986ca"
          ],
          "data": "0x0000000000000000000000000000000000000000000000000000000000000001",
          "blockHash": "0x9c60813ce5a9785d206b4dce816faf5be2478f6efd85d2d6c0b77c1d22d2c7c9",
          "blockNumber": "0x172c706",
          "blockTimestamp": "0x6973bd45",
          "transactionHash": "0x3d8001228ae2a8aee20cbecec9aac8b49f237a472cb8faa10d9cbf54c7f11c47",
          "transactionIndex": "0x3",
          "logIndex": "0x3",
          "removed": false
        }
      ],
      "logsBloom": "0x00000000000000000000000000400000000000000000000000000000000000000000000000000000000000000000000000000000000000000000000000000000000000020000000000000000000000000000020000000000000000000000000000000000000000000000000400000000000000000000000000000000000000000000000000000000000000000000000000000000000000000000000000000000000000000000000000000000000000000000000000000000000200000000002000000000000000000000000000001004000000000000000000000000000000040000000000000000000000000000000000000000000000000000000000000000",
      "type": "0x2",
      "transactionHash": "0x3d8001228ae2a8aee20cbecec9aac8b49f237a472cb8faa10d9cbf54c7f11c47",
      "transactionIndex": "0x3",
      "blockHash": "0x9c60813ce5a9785d206b4dce816faf5be2478f6efd85d2d6c0b77c1d22d2c7c9",
      "blockNumber": "0x172c706",
      "gasUsed": "0xcf19",
      "effectiveGasPrice": "0x28f99bc",
      "blobGasPrice": "0x8c87b5153b3fcaf32482",
      "from": "0xf39fd6e51aad88f6f4ce6ab8827279cfffb92266",
      "to": "0x480ce59387443a9bf266a4657f0e2ae1e6a7b771",
      "contractAddress": null
    }
  ],
  "libraries": [],
  "pending": [],
  "returns": {},
  "timestamp": 1769192781160,
  "chain": 1,
  "commit": "d45ebce"
}