{
  "transactions": [
    {
      "hash": "0x47d9580339598ffbeffc65f0476f03c62f5e9a001edb723eda231c86455531bf",
      "transactionType": "CALL",
      "contractName": null,
      "contractAddress": "0x2bf866da3a8eeb90b288e6d434d319624263a24b",
      "function": "approveAdapter(address)",
      "arguments": [
        "0x49Cf40BEe86Ab8bD080eE7918eD1d2D26DCF4c8b"
      ],
      "transaction": {
        "from": "0xf39fd6e51aad88f6f4ce6ab8827279cfffb92266",
        "to": "0x2bf866da3a8eeb90b288e6d434d319624263a24b",
        "gas": "0x11dcf",
        "value": "0x0",
        "input": "0xc0e2ffc400000000000000000000000049cf40bee86ab8bd080ee7918ed1d2d26dcf4c8b",
        "nonce": "0x11ad",
        "chainId": "0x1"
      },
      "additionalContracts": [],
      "isFixedGasLimit": false
    },
    {
      "hash": "0x0d3cd7ac050f5c884c64ef7a188e56f6711a6d7c7a1d46d5a2e2d83ea7d6ae44",
      "transactionType": "CALL",
      "contractName": null,
      "contractAddress": "0x2bf866da3a8eeb90b288e6d434d319624263a24b",
      "function": "approveAdapter(address)",
      "arguments": [
        "0x0d0F9C2E2097e7dC1443Bb47e3fF4b8D4c67AdE5"
      ],
      "transaction": {
        "from": "0xf39fd6e51aad88f6f4ce6ab8827279cfffb92266",
        "to": "0x2bf866da3a8eeb90b288e6d434d319624263a24b",
        "gas": "0x11dcf",
        "value": "0x0",
        "input": "0xc0e2ffc40000000000000000000000000d0f9c2e2097e7dc1443bb47e3ff4b8d4c67ade5",
        "nonce": "0x11ae",
        "chainId": "0x1"
      },
      "additionalContracts": [],
      "isFixedGasLimit": false
    },
    {
      "hash": "0x797dda391fcb3c65088c426ff119a93d9288e299a9bb727bf004b98835c96088",
      "transactionType": "CALL",
      "contractName": null,
      "contractAddress": "0x2bf866da3a8eeb90b288e6d434d319624263a24b",
      "function": "approveQuoteToken(address)",
      "arguments": [
        "0xA0b86991c6218b36c1d19D4a2e9Eb0cE3606eB48"
      ],
      "transaction": {
        "from": "0xf39fd6e51aad88f6f4ce6ab8827279cfffb92266",
        "to": "0x2bf866da3a8eeb90b288e6d434d319624263a24b",
        "gas": "0x12ee1",
        "value": "0x0",
        "input": "0xc614ee3b000000000000000000000000a0b86991c6218b36c1d19d4a2e9eb0ce3606eb48",
        "nonce": "0x11af",
        "chainId": "0x1"
      },
      "additionalContracts": [],
      "isFixedGasLimit": false
    },
    {
      "hash": "0x4e3a39c2e9ed6c5e40d0021a1ca52ebbad8364e4eaca25b5028494e18b6eb3d7",
      "transactionType": "CALL",
      "contractName": null,
      "contractAddress": "0x2bf866da3a8eeb90b288e6d434d319624263a24b",
      "function": "approveQuoteToken(address)",
      "arguments": [
        "0xdAC17F958D2ee523a2206206994597C13D831ec7"
      ],
      "transaction": {
        "from": "0xf39fd6e51aad88f6f4ce6ab8827279cfffb92266",
        "to": "0x2bf866da3a8eeb90b288e6d434d319624263a24b",
        "gas": "0x12ee1",
        "value": "0x0",
        "input": "0xc614ee3b000000000000000000000000dac17f958d2ee523a2206206994597c13d831ec7",
        "nonce": "0x11b0",
        "chainId": "0x1"
      },
      "additionalContracts": [],
      "isFixedGasLimit": false
    },
    {
      "hash": "0x8fb823fc20c81b269facb97e2cd97000a84b4a4fd6d5d892b377d7fc324216d2",
      "transactionType": "CALL",
      "contractName": null,
      "contractAddress": "0x2bf866da3a8eeb90b288e6d434d319624263a24b",
      "function": "approveQuoteToken(address)",
      "arguments": [
        "0x6B175474E89094C44Da98b954EedeAC495271d0F"
      ],
      "transaction": {
        "from": "0xf39fd6e51aad88f6f4ce6ab8827279cfffb92266",
        "to": "0x2bf866da3a8eeb90b288e6d434d319624263a24b",
        "gas": "0x12ee1",
        "value": "0x0",
        "input": "0xc614ee3b0000000000000000000000006b175474e89094c44da98b954eedeac495271d0f",
        "nonce": "0x11b1",
        "chainId": "0x1"
      },
      "additionalContracts": [],
      "isFixedGasLimit": false
    },
    {
      "hash": "0xe27edd66127df0d0c05d878e4ba84d8bfa000bb17d31ecb494f29b62d1ff3f2e",
      "transactionType": "CALL",
      "contractName": null,
      "contractAddress": "0x2bf866da3a8eeb90b288e6d434d319624263a24b",
      "function": "approveQuoteToken(address)",
      "arguments": [
        "0xC02aaA39b223FE8D0A0e5C4F27eAD9083C756Cc2"
      ],
      "transaction": {
        "from": "0xf39fd6e51aad88f6f4ce6ab8827279cfffb92266",
        "to": "0x2bf866da3a8eeb90b288e6d434d319624263a24b",
        "gas": "0x12ee1",
        "value": "0x0",
        "input": "0xc614ee3b000000000000000000000000c02aaa39b223fe8d0a0e5c4f27ead9083c756cc2",
        "nonce": "0x11b2",
        "chainId": "0x1"
      },
      "additionalContracts": [],
      "isFixedGasLimit": false
    },
    {
      "hash": "0x0b0cc3b7573e3d60aa8a9cb4a79b0b832b7f00761a641039a9f43264bdd8729e",
      "transactionType": "CALL",
      "contractName": null,
      "contractAddress": "0x2bf866da3a8eeb90b288e6d434d319624263a24b",
      "function": "approveQuoteToken(address)",
      "arguments": [
        "0x514910771AF9Ca656af840dff83E8264EcF986CA"
      ],
      "transaction": {
        "from": "0xf39fd6e51aad88f6f4ce6ab8827279cfffb92266",
        "to": "0x2bf866da3a8eeb90b288e6d434d319624263a24b",
        "gas": "0x12ee1",
        "value": "0x0",
        "input": "0xc614ee3b000000000000000000000000514910771af9ca656af840dff83e8264ecf986ca",
        "nonce": "0x11b3",
        "chainId": "0x1"
      },
      "additionalContracts": [],
      "isFixedGasLimit": false
    }
  ],
  "receipts": [
    {
      "status": "0x1",
      "cumulativeGasUsed": "0xceed",
      "logs": [
        {
          "address": "0x2bf866da3a8eeb90b288e6d434d319624263a24b",
          "topics": [
            "0x32e0703508c4ea098d1b9450c6834e4dcddff8b234d85df988e711ab1095f0d4",
            "0x00000000000000000000000049cf40bee86ab8bd080ee7918ed1d2d26dcf4c8b"
          ],
          "data": "0x0000000000000000000000000000000000000000000000000000000000000001",
          "blockHash": "0xd45246ff11197963ddfac6860e9a57fad5b33686c8c9458be65c0597d20f76cc",
          "blockNumber": "0x1726e46",
          "blockTimestamp": "0x696f8f09",
          "transactionHash": "0x47d9580339598ffbeffc65f0476f03c62f5e9a001edb723eda231c86455531bf",
          "transactionIndex": "0x0",
          "logIndex": "0x0",
          "removed": false
        }
      ],
      "logsBloom": "0x00000000000000000000000000000000000000000000000000000000000000000080000200000000000000000000000000000000000000000000000010000000000000000000000000000000000000800000000000000000000000000002000000000000000000000000000000000000000000000000000000000000000000000000000000000000000000000000000000000000100000000000000000000000000000000000000000000100000000000000000000000000000000000000000000000000000000000000000000000000000000001000000000000000000000000000000000000000000000000000000000000000000000000000000020000000",
      "type": "0x2",
      "transactionHash": "0x47d9580339598ffbeffc65f0476f03c62f5e9a001edb723eda231c86455531bf",
      "transactionIndex": "0x0",
      "blockHash": "0xd45246ff11197963ddfac6860e9a57fad5b33686c8c9458be65c0597d20f76cc",
      "blockNumber": "0x1726e46",
      "gasUsed": "0xceed",
      "effectiveGasPrice": "0x4f9dad0",
      "blobGasPrice": "0x547fb6b489ff816afc32",
      "from": "0xf39fd6e51aad88f6f4ce6ab8827279cfffb92266",
      "to": "0x2bf866da3a8eeb90b288e6d434d319624263a24b",
      "contractAddress": null
    },
    {
      "status": "0x1",
      "cumulativeGasUsed": "0xceed",
      "logs": [
        {
          "address": "0x2bf866da3a8eeb90b288e6d434d319624263a24b",
          "topics": [
            "0x32e0703508c4ea098d1b9450c6834e4dcddff8b234d85df988e711ab1095f0d4",
            "0x0000000000000000000000000d0f9c2e2097e7dc1443bb47e3ff4b8d4c67ade5"
          ],
          "data": "0x0000000000000000000000000000000000000000000000000000000000000001",
          "blockHash": "0x2924406ef6139d39f7fadd57d9ce1486a046f48c000dff22b9f5a2b1f187038a",
          "blockNumber": "0x1726e47",
          "blockTimestamp": "0x696f8f09",
          "transactionHash": "0x0d3cd7ac050f5c884c64ef7a188e56f6711a6d7c7a1d46d5a2e2d83ea7d6ae44",
          "transactionIndex": "0x0",
          "logIndex": "0x0",
          "removed": false
        }
      ],
      "logsBloom": "0x40000000000000000000000000000000000000000000000000000000000000000080000200000000000000000000000000000000000000000000000010000000000000000000000000000000000000000000000000000000000000000002000000000000000000000000000000000000000000000000000000000000000000000000000400000000000000000000000000000000100000000000000000000000000000000000000000000100000000000000000000000000000000000000000000000000000000200000000000000000000000000000000000000000000000000000000000000000000000000000000000000000000000000000000000000000",
      "type": "0x2",
      "transactionHash": "0x0d3cd7ac050f5c884c64ef7a188e56f6711a6d7c7a1d46d5a2e2d83ea7d6ae44",
      "transactionIndex": "0x0",
      "blockHash": "0x2924406ef6139d39f7fadd57d9ce1486a046f48c000dff22b9f5a2b1f187038a",
      "blockNumber": "0x1726e47",
      "gasUsed": "0xceed",
      "effectiveGasPrice": "0x49c9766",
      "blobGasPrice": "0x4b1c308fa6ad4b389767",
      "from": "0xf39fd6e51aad88f6f4ce6ab8827279cfffb92266",
      "to": "0x2bf866da3a8eeb90b288e6d434d319624263a24b",
      "contractAddress": null
    },
    {
      "status": "0x1",
      "cumulativeGasUsed": "0xcf19",
      "logs": [
        {
          "address": "0x2bf866da3a8eeb90b288e6d434d319624263a24b",
          "topics": [
            "0x59a8234668400022511cf16e138a5c22aaa48172d517061c02d974583218c2a5",
            "0x000000000000000000000000a0b86991c6218b36c1d19d4a2e9eb0ce3606eb48"
          ],
          "data": "0x0000000000000000000000000000000000000000000000000000000000000001",
          "blockHash": "0xc853a481a309da2d94ae485d41615cac84b86c655016e06eb3004652e55667b2",
          "blockNumber": "0x1726e48",
          "blockTimestamp": "0x696f8f09",
          "transactionHash": "0x797dda391fcb3c65088c426ff119a93d9288e299a9bb727bf004b98835c96088",
          "transactionIndex": "0x0",
          "logIndex": "0x0",
          "removed": false
        }
      ],
      "logsBloom": "0x00000000000000000000000000000000000000000000000000000000000000000000000000000000000002000000000000000000000000000000000010000000000000000000000000000000000000000000000000000000000000000002000000000000000000000000000400000000000000000000000000000000000000000000000000000000000000000000000200000000100000000000000000000000000000000000000000000000000000000000000000000000000200000000000000000000000000000000000000000004000000000000000000000000000000000000000000000000000000000000000004000000000000000000000000000000",
      "type": "0x2",
      "transactionHash": "0x797dda391fcb3c65088c426ff119a93d9288e299a9bb727bf004b98835c96088",
      "transactionIndex": "0x0",
      "blockHash": "0xc853a481a309da2d94ae485d41615cac84b86c655016e06eb3004652e55667b2",
      "blockNumber": "0x1726e48",
      "gasUsed": "0xcf19",
      "effectiveGasPrice": "0x44af724",
      "blobGasPrice": "0x42c3b9543f92c55f7de3",
      "from": "0xf39fd6e51aad88f6f4ce6ab8827279cfffb92266",
      "to": "0x2bf866da3a8eeb90b288e6d434d319624263a24b",
      "contractAddress": null
    },
    {
      "status": "0x1",
      "cumulativeGasUsed": "0x19e32",
      "logs": [
        {
          "address": "0x2bf866da3a8eeb90b288e6d434d319624263a24b",
          "topics": [
            "0x59a8234668400022511cf16e138a5c22aaa48172d517061c02d974583218c2a5",
            "0x000000000000000000000000dac17f958d2ee523a2206206994597c13d831ec7"
          ],
          "data": "0x0000000000000000000000000000000000000000000000000000000000000001",
          "blockHash": "0xc853a481a309da2d94ae485d41615cac84b86c655016e06eb3004652e55667b2",
          "blockNumber": "0x1726e48",
          "blockTimestamp": "0x696f8f09",
          "transactionHash": "0x4e3a39c2e9ed6c5e40d0021a1ca52ebbad8364e4eaca25b5028494e18b6eb3d7",
          "transactionIndex": "0x1",
          "logIndex": "0x1",
          "removed": false
        }
      ],
      "logsBloom": "0x00000000000000000000000000000000000000000000000000000000000000000000000000000000000000000000000000000000000000000000000010000000000000000000000000000000000000000000000000000000000000000002000000000000000000000000000400000000000000200000000000000000000000000000000000000000000000000000000000000000100000000000000000000000000000000000000000000000000000000000000000000000000200000000004000000000000000000000000000000004000000020000000000000000000000000000000000000000000000000000000000000000000000000000000000000000",
      "type": "0x2",
      "transactionHash": "0x4e3a39c2e9ed6c5e40d0021a1ca52ebbad8364e4eaca25b5028494e18b6eb3d7",
      "transactionIndex": "0x1",
      "blockHash": "0xc853a481a309da2d94ae485d41615cac84b86c655016e06eb3004652e55667b2",
      "blockNumber": "0x1726e48",
      "gasUsed": "0xcf19",
      "effectiveGasPrice": "0x44af724",
      "blobGasPrice": "0x42c3b9543f92c55f7de3",
      "from": "0xf39fd6e51aad88f6f4ce6ab8827279cfffb92266",
      "to": "0x2bf866da3a8eeb90b288e6d434d319624263a24b",
      "contractAddress": null
    },
    {
      "status": "0x1",
      "cumulativeGasUsed": "0x26d4b",
      "logs": [
        {
          "address": "0x2bf866da3a8eeb90b288e6d434d319624263a24b",
          "topics": [
            "0x59a8234668400022511cf16e138a5c22aaa48172d517061c02d974583218c2a5",
            "0x0000000000000000000000006b175474e89094c44da98b954eedeac495271d0f"
          ],
          "data": "0x0000000000000000000000000000000000000000000000000000000000000001",
          "blockHash": "0xc853a481a309da2d94ae485d41615cac84b86c655016e06eb3004652e55667b2",
          "blockNumber": "0x1726e48",
          "blockTimestamp": "0x696f8f09",
          "transactionHash": "0x8fb823fc20c81b269facb97e2cd97000a84b4a4fd6d5d892b377d7fc324216d2",
          "transactionIndex": "0x2",
          "logIndex": "0x2",
          "removed": false
        }
      ],
      "logsBloom": "0x00000000000000000000000000000000000000000000000000000000000000000000000000000000000000000000000000000000000000000000000010000000000000000000000000000000000000000000000000000000000000000002000000000000000000000000000400000000000000000000000000000000000000200000000000000000000000000000000000000000100000000000000400000000000000000000000000000000000000000000000000000000000200000000000000000000000000000000000000000004000000000000000000000000000000000000000000000000000000000000000000000000000000100000000000000000",
      "type": "0x2",
      "transactionHash": "0x8fb823fc20c81b269facb97e2cd97000a84b4a4fd6d5d892b377d7fc324216d2",
      "transactionIndex": "0x2",
      "blockHash": "0xc853a481a309da2d94ae485d41615cac84b86c655016e06eb3004652e55667b2",
      "blockNumber": "0x1726e48",
      "gasUsed": "0xcf19",
      "effectiveGasPrice": "0x44af724",
      "blobGasPrice": "0x42c3b9543f92c55f7de3",
      "from": "0xf39fd6e51aad88f6f4ce6ab8827279cfffb92266",
      "to": "0x2bf866da3a8eeb90b288e6d434d319624263a24b",
      "contractAddress": null
    },
    {
      "status": "0x1",
      "cumulativeGasUsed": "0x33c64",
      "logs": [
        {
          "address": "0x2bf866da3a8eeb90b288e6d434d319624263a24b",
          "topics": [
            "0x59a8234668400022511cf16e138a5c22aaa48172d517061c02d974583218c2a5",
            "0x000000000000000000000000c02aaa39b223fe8d0a0e5c4f27ead9083c756cc2"
          ],
          "data": "0x0000000000000000000000000000000000000000000000000000000000000001",
          "blockHash": "0xc853a481a309da2d94ae485d41615cac84b86c655016e06eb3004652e55667b2",
          "blockNumber": "0x1726e48",
          "blockTimestamp": "0x696f8f09",
          "transactionHash": "0xe27edd66127df0d0c05d878e4ba84d8bfa000bb17d31ecb494f29b62d1ff3f2e",
          "transactionIndex": "0x3",
          "logIndex": "0x3",
          "removed": false
        }
      ],
      "logsBloom": "0x00000000000000000000000000000000000000000000000000000000000000000000000000000000000000000000000000000000000000000000000010000000000000000000000000000000000000800000000000000000000000000002000000000000000000000000000400000000000000000000000000000000000000000000000000000000000000400000000000000000100000000000000000000000000000000000000000000000000000000000000000000000000200000000000000000000000000000000000000080004000000000000000000000000000000000000000000000000000000000000000000000000000000000000000000000000",
      "type": "0x2",
      "transactionHash": "0xe27edd66127df0d0c05d878e4ba84d8bfa000bb17d31ecb494f29b62d1ff3f2e",
      "transactionIndex": "0x3",
      "blockHash": "0xc853a481a309da2d94ae485d41615cac84b86c655016e06eb3004652e55667b2",
      "blockNumber": "0x1726e48",
      "gasUsed": "0xcf19",
      "effectiveGasPrice": "0x44af724",
      "blobGasPrice": "0x42c3b9543f92c55f7de3",
      "from": "0xf39fd6e51aad88f6f4ce6ab8827279cfffb92266",
      "to": "0x2bf866da3a8eeb90b288e6d434d319624263a24b",
      "contractAddress": null
    },
    {
      "status": "0x1",
      "cumulativeGasUsed": "0x40b7d",
      "logs": [
        {
          "address": "0x2bf866da3a8eeb90b288e6d434d319624263a24b",
          "topics": [
            "0x59a8234668400022511cf16e138a5c22aaa48172d517061c02d974583218c2a5",
            "0x000000000000000000000000514910771af9ca656af840dff83e8264ecf986ca"
          ],
          "data": "0x0000000000000000000000000000000000000000000000000000000000000001",
          "blockHash": "0xc853a481a309da2d94ae485d41615cac84b86c655016e06eb3004652e55667b2",
          "blockNumber": "0x1726e48",
          "blockTimestamp": "0x696f8f09",
          "transactionHash": "0x0b0cc3b7573e3d60aa8a9cb4a79b0b832b7f00761a641039a9f43264bdd8729e",
          "transactionIndex": "0x4",
          "logIndex": "0x4",
          "removed": false
        }
      ],
      "logsBloom": "0x00000000000000000000000000000000000000000000000000000000000000000000000000000000000000000000000000000000000000000000000010000000000000000000000000000000000000000000020000000000000000000002000000000000000000000000000400000000000000000000000000000000000000000000000000000000000000000000000000000000100000000000000000000000000000000000000000000000000000000000000000000000000200000000002000000000000000000000000000000004000000000000000000000000000000040000000000000000000000000000000000000000000000000000000000000000",
      "type": "0x2",
      "transactionHash": "0x0b0cc3b7573e3d60aa8a9cb4a79b0b832b7f00761a641039a9f43264bdd8729e",
      "transactionIndex": "0x4",
      "blockHash": "0xc853a481a309da2d94ae485d41615cac84b86c655016e06eb3004652e55667b2",
      "blockNumber": "0x1726e48",
      "gasUsed": "0xcf19",
      "effectiveGasPrice": "0x44af724",
      "blobGasPrice": "0x42c3b9543f92c55f7de3",
      "from": "0xf39fd6e51aad88f6f4ce6ab8827279cfffb92266",
      "to": "0x2bf866da3a8eeb90b288e6d434d319624263a24b",
      "contractAddress": null
    }
  ],
  "libraries": [],
  "pending": [],
  "returns": {},
  "timestamp": 1768918796779,
  "chain": 1,
  "commit": "a5b6bf0"
}