{
  "transactions": [
    {
      "hash": "0x73d08f5aa4a4fcfc9e72b00d2d21e33f557103d342833e07afbafb606a845303",
      "transactionType": "CALL",
      "contractName": null,
      "contractAddress": "0xf69d69eec78b08eaf48deac029bf233c4918331f",
      "function": "approveAdapter(address)",
      "arguments": [
        "0x49Cf40BEe86Ab8bD080eE7918eD1d2D26DCF4c8b"
      ],
      "transaction": {
        "from": "0xf39fd6e51aad88f6f4ce6ab8827279cfffb92266",
        "to": "0xf69d69eec78b08eaf48deac029bf233c4918331f",
        "gas": "0x11dcf",
        "value": "0x0",
        "input": "0xc0e2ffc400000000000000000000000049cf40bee86ab8bd080ee7918ed1d2d26dcf4c8b",
        "nonce": "0x1162",
        "chainId": "0x1"
      },
      "additionalContracts": [],
      "isFixedGasLimit": false
    },
    {
      "hash": "0x8f7fc9a73447814436b4286760c1e0c8df2d0adf59947ef59041eb2a9a959690",
      "transactionType": "CALL",
      "contractName": null,
      "contractAddress": "0xf69d69eec78b08eaf48deac029bf233c4918331f",
      "function": "approveAdapter(address)",
      "arguments": [
        "0x0d0F9C2E2097e7dC1443Bb47e3fF4b8D4c67AdE5"
      ],
      "transaction": {
        "from": "0xf39fd6e51aad88f6f4ce6ab8827279cfffb92266",
        "to": "0xf69d69eec78b08eaf48deac029bf233c4918331f",
        "gas": "0x11dcf",
        "value": "0x0",
        "input": "0xc0e2ffc40000000000000000000000000d0f9c2e2097e7dc1443bb47e3ff4b8d4c67ade5",
        "nonce": "0x1163",
        "chainId": "0x1"
      },
      "additionalContracts": [],
      "isFixedGasLimit": false
    },
    {
      "hash": "0x5d972ce04c155bbef8f123d8b265ccb74d24c26ce994c653daee404c5e1dbdc8",
      "transactionType": "CALL",
      "contractName": null,
      "contractAddress": "0xf69d69eec78b08eaf48deac029bf233c4918331f",
      "function": "approveQuoteToken(address)",
      "arguments": [
        "0xA0b86991c6218b36c1d19D4a2e9Eb0cE3606eB48"
      ],
      "transaction": {
        "from": "0xf39fd6e51aad88f6f4ce6ab8827279cfffb92266",
        "to": "0xf69d69eec78b08eaf48deac029bf233c4918331f",
        "gas": "0x12ee1",
        "value": "0x0",
        "input": "0xc614ee3b000000000000000000000000a0b86991c6218b36c1d19d4a2e9eb0ce3606eb48",
        "nonce": "0x1164",
        "chainId": "0x1"
      },
      "additionalContracts": [],
      "isFixedGasLimit": false
    },
    {
      "hash": "0xff9287017f256c7365464ef6977fae9147d23c5a3df91f871344495e17ad7432",
      "transactionType": "CALL",
      "contractName": null,
      "contractAddress": "0xf69d69eec78b08eaf48deac029bf233c4918331f",
      "function": "approveQuoteToken(address)",
      "arguments": [
        "0xdAC17F958D2ee523a2206206994597C13D831ec7"
      ],
      "transaction": {
        "from": "0xf39fd6e51aad88f6f4ce6ab8827279cfffb92266",
        "to": "0xf69d69eec78b08eaf48deac029bf233c4918331f",
        "gas": "0x12ee1",
        "value": "0x0",
        "input": "0xc614ee3b000000000000000000000000dac17f958d2ee523a2206206994597c13d831ec7",
        "nonce": "0x1165",
        "chainId": "0x1"
      },
      "additionalContracts": [],
      "isFixedGasLimit": false
    },
    {
      "hash": "0x7a75ebc53d7c495a10c23c0aef6dcd8d5f30ac2d4a173ce93cfe1754172945f5",
      "transactionType": "CALL",
      "contractName": null,
      "contractAddress": "0xf69d69eec78b08eaf48deac029bf233c4918331f",
      "function": "approveQuoteToken(address)",
      "arguments": [
        "0x6B175474E89094C44Da98b954EedeAC495271d0F"
      ],
      "transaction": {
        "from": "0xf39fd6e51aad88f6f4ce6ab8827279cfffb92266",
        "to": "0xf69d69eec78b08eaf48deac029bf233c4918331f",
        "gas": "0x12ee1",
        "value": "0x0",
        "input": "0xc614ee3b0000000000000000000000006b175474e89094c44da98b954eedeac495271d0f",
        "nonce": "0x1166",
        "chainId": "0x1"
      },
      "additionalContracts": [],
      "isFixedGasLimit": false
    },
    {
      "hash": "0xc493c2bea0e6ed15d920cbd65f92f4f54406293827f598c0e927a4542db6d917",
      "transactionType": "CALL",
      "contractName": null,
      "contractAddress": "0xf69d69eec78b08eaf48deac029bf233c4918331f",
      "function": "approveQuoteToken(address)",
      "arguments": [
        "0xC02aaA39b223FE8D0A0e5C4F27eAD9083C756Cc2"
      ],
      "transaction": {
        "from": "0xf39fd6e51aad88f6f4ce6ab8827279cfffb92266",
        "to": "0xf69d69eec78b08eaf48deac029bf233c4918331f",
        "gas": "0x12ee1",
        "value": "0x0",
        "input": "0xc614ee3b000000000000000000000000c02aaa39b223fe8d0a0e5c4f27ead9083c756cc2",
        "nonce": "0x1167",
        "chainId": "0x1"
      },
      "additionalContracts": [],
      "isFixedGasLimit": false
    }
  ],
  "receipts": [
    {
      "status": "0x1",
      "cumulativeGasUsed": "0xceed",
      "logs": [
        {
          "address": "0xf69d69eec78b08eaf48deac029bf233c4918331f",
          "topics": [
            "0x32e0703508c4ea098d1b9450c6834e4dcddff8b234d85df988e711ab1095f0d4",
            "0x00000000000000000000000049cf40bee86ab8bd080ee7918ed1d2d26dcf4c8b"
          ],
          "data": "0x0000000000000000000000000000000000000000000000000000000000000001",
          "blockHash": "0x97e3af290a51d2f3f24438bf8076f7a73e3381d8ba1d5c496d30bde064837812",
          "blockNumber": "0x1718d19",
          "blockTimestamp": "0x6964f586",
          "transactionHash": "0x73d08f5aa4a4fcfc9e72b00d2d21e33f557103d342833e07afbafb606a845303",
          "transactionIndex": "0x0",
          "logIndex": "0x0",
          "removed": false
        }
      ],
      "logsBloom": "0x00000000000000000000000000000000000000000000000000000000000001000080000200000000000000000000000000000000000000000000000000000000000000000000000000000000000000800000000000000000000000000000000000000000000000000000000000000000000000000000000000000000000000000000000000000000000408000000000000000000000000000000000000000000000000000000000000000100000000000000000000000000000000000000000000000000000000000000000000000000000000001000000000000000000000000000000000000000000000000000000000000000000000000000000020000000",
      "type": "0x2",
      "transactionHash": "0x73d08f5aa4a4fcfc9e72b00d2d21e33f557103d342833e07afbafb606a845303",
      "transactionIndex": "0x0",
      "blockHash": "0x97e3af290a51d2f3f24438bf8076f7a73e3381d8ba1d5c496d30bde064837812",
      "blockNumber": "0x1718d19",
      "gasUsed": "0xceed",
      "effectiveGasPrice": "0x2fdc7e9",
      "blobGasPrice": "0x7a59269711f22ec181ef",
      "from": "0xf39fd6e51aad88f6f4ce6ab8827279cfffb92266",
      "to": "0xf69d69eec78b08eaf48deac029bf233c4918331f",
      "contractAddress": null
    },
    {
      "status": "0x1",
      "cumulativeGasUsed": "0xceed",
      "logs": [
        {
          "address": "0xf69d69eec78b08eaf48deac029bf233c4918331f",
          "topics": [
            "0x32e0703508c4ea098d1b9450c6834e4dcddff8b234d85df988e711ab1095f0d4",
            "0x0000000000000000000000000d0f9c2e2097e7dc1443bb47e3ff4b8d4c67ade5"
          ],
          "data": "0x0000000000000000000000000000000000000000000000000000000000000001",
          "blockHash": "0x71006496c9edb67869d9c2508aba913ba7cfa7ebc54053fb00eaedfdf124bd32",
          "blockNumber": "0x1718d1a",
          "blockTimestamp": "0x6964f586",
          "transactionHash": "0x8f7fc9a73447814436b4286760c1e0c8df2d0adf59947ef59041eb2a9a959690",
          "transactionIndex": "0x0",
          "logIndex": "0x0",
          "removed": false
        }
      ],
      "logsBloom": "0x40000000000000000000000000000000000000000000000000000000000001000080000200000000000000000000000000000000000000000000000000000000000000000000000000000000000000000000000000000000000000000000000000000000000000000000000000000000000000000000000000000000000000000000000400000000000408000000000000000000000000000000000000000000000000000000000000000100000000000000000000000000000000000000000000000000000000200000000000000000000000000000000000000000000000000000000000000000000000000000000000000000000000000000000000000000",
      "type": "0x2",
      "transactionHash": "0x8f7fc9a73447814436b4286760c1e0c8df2d0adf59947ef59041eb2a9a959690",
      "transactionIndex": "0x0",
      "blockHash": "0x71006496c9edb67869d9c2508aba913ba7cfa7ebc54053fb00eaedfdf124bd32",
      "blockNumber": "0x1718d1a",
      "gasUsed": "0xceed",
      "effectiveGasPrice": "0x29e3aed",
      "blobGasPrice": "0x6cc105c358008bb40728",
      "from": "0xf39fd6e51aad88f6f4ce6ab8827279cfffb92266",
      "to": "0xf69d69eec78b08eaf48deac029bf233c4918331f",
      "contractAddress": null
    },
    {
      "status": "0x1",
      "cumulativeGasUsed": "0xcf19",
      "logs": [
        {
          "address": "0xf69d69eec78b08eaf48deac029bf233c4918331f",
          "topics": [
            "0x59a8234668400022511cf16e138a5c22aaa48172d517061c02d974583218c2a5",
            "0x000000000000000000000000a0b86991c6218b36c1d19d4a2e9eb0ce3606eb48"
          ],
          "data": "0x0000000000000000000000000000000000000000000000000000000000000001",
          "blockHash": "0x0f63b633a1c45b4868eb3987204629172a74fda6c628f1294968665dc6b92d01",
          "blockNumber": "0x1718d1b",
          "blockTimestamp": "0x6964f586",
          "transactionHash": "0x5d972ce04c155bbef8f123d8b265ccb74d24c26ce994c653daee404c5e1dbdc8",
          "transactionIndex": "0x0",
          "logIndex": "0x0",
          "removed": false
        }
      ],
      "logsBloom": "0x00000000000000000000000000000000000000000000000000000000000001000000000000000000000002000000000000000000000000000000000000000000000000000000000000000000000000000000000000000000000000000000000000000000000000000000000400000000000000000000000000000000000000000000000000000000000408000000000200000000000000000000000000000000000000000000000000000000000000000000000000000000000200000000000000000000000000000000000000000004000000000000000000000000000000000000000000000000000000000000000004000000000000000000000000000000",
      "type": "0x2",
      "transactionHash": "0x5d972ce04c155bbef8f123d8b265ccb74d24c26ce994c653daee404c5e1dbdc8",
      "transactionIndex": "0x0",
      "blockHash": "0x0f63b633a1c45b4868eb3987204629172a74fda6c628f1294968665dc6b92d01",
      "blockNumber": "0x1718d1b",
      "gasUsed": "0xcf19",
      "effectiveGasPrice": "0x24a9a2a",
      "blobGasPrice": "0x60ab9342af77e84f58cc",
      "from": "0xf39fd6e51aad88f6f4ce6ab8827279cfffb92266",
      "to": "0xf69d69eec78b08eaf48deac029bf233c4918331f",
      "contractAddress": null
    },
    {
      "status": "0x1",
      "cumulativeGasUsed": "0x19e32",
      "logs": [
        {
          "address": "0xf69d69eec78b08eaf48deac029bf233c4918331f",
          "topics": [
            "0x59a8234668400022511cf16e138a5c22aaa48172d517061c02d974583218c2a5",
            "0x000000000000000000000000dac17f958d2ee523a2206206994597c13d831ec7"
          ],
          "data": "0x0000000000000000000000000000000000000000000000000000000000000001",
          "blockHash": "0x0f63b633a1c45b4868eb3987204629172a74fda6c628f1294968665dc6b92d01",
          "blockNumber": "0x1718d1b",
          "blockTimestamp": "0x6964f586",
          "transactionHash": "0xff9287017f256c7365464ef6977fae9147d23c5a3df91f871344495e17ad7432",
          "transactionIndex": "0x1",
          "logIndex": "0x1",
          "removed": false
        }
      ],
      "logsBloom": "0x00000000000000000000000000000000000000000000000000000000000001000000000000000000000000000000000000000000000000000000000000000000000000000000000000000000000000000000000000000000000000000000000000000000000000000000000400000000000000200000000000000000000000000000000000000000000408000000000000000000000000000000000000000000000000000000000000000000000000000000000000000000000200000000004000000000000000000000000000000004000000020000000000000000000000000000000000000000000000000000000000000000000000000000000000000000",
      "type": "0x2",
      "transactionHash": "0xff9287017f256c7365464ef6977fae9147d23c5a3df91f871344495e17ad7432",
      "transactionIndex": "0x1",
      "blockHash": "0x0f63b633a1c45b4868eb3987204629172a74fda6c628f1294968665dc6b92d01",
      "blockNumber": "0x1718d1b",
      "gasUsed": "0xcf19",
      "effectiveGasPrice": "0x24a9a2a",
      "blobGasPrice": "0x60ab9342af77e84f58cc",
      "from": "0xf39fd6e51aad88f6f4ce6ab8827279cfffb92266",
      "to": "0xf69d69eec78b08eaf48deac029bf233c4918331f",
      "contractAddress": null
    },
    {
      "status": "0x1",
      "cumulativeGasUsed": "0xcf19",
      "logs": [
        {
          "address": "0xf69d69eec78b08eaf48deac029bf233c4918331f",
          "topics": [
            "0x59a8234668400022511cf16e138a5c22aaa48172d517061c02d974583218c2a5",
            "0x0000000000000000000000006b175474e89094c44da98b954eedeac495271d0f"
          ],
          "data": "0x0000000000000000000000000000000000000000000000000000000000000001",
          "blockHash": "0x805a5c479f8f58f786319b199be4ed868c66eab50f2c9e10c567e2925c767ae5",
          "blockNumber": "0x1718d1c",
          "blockTimestamp": "0x6964f586",
          "transactionHash": "0x7a75ebc53d7c495a10c23c0aef6dcd8d5f30ac2d4a173ce93cfe1754172945f5",
          "transactionIndex": "0x0",
          "logIndex": "0x0",
          "removed": false
        }
      ],
      "logsBloom": "0x00000000000000000000000000000000000000000000000000000000000001000000000000000000000000000000000000000000000000000000000000000000000000000000000000000000000000000000000000000000000000000000000000000000000000000000000400000000000000000000000000000000000000200000000000000000000408000000000000000000000000000000000400000000000000000000000000000000000000000000000000000000000200000000000000000000000000000000000000000004000000000000000000000000000000000000000000000000000000000000000000000000000000100000000000000000",
      "type": "0x2",
      "transactionHash": "0x7a75ebc53d7c495a10c23c0aef6dcd8d5f30ac2d4a173ce93cfe1754172945f5",
      "transactionIndex": "0x0",
      "blockHash": "0x805a5c479f8f58f786319b199be4ed868c66eab50f2c9e10c567e2925c767ae5",
      "blockNumber": "0x1718d1c",
      "gasUsed": "0xcf19",
      "effectiveGasPrice": "0x20189f9",
      "blobGasPrice": "0x55edd82800b8c9e2067b",
      "from": "0xf39fd6e51aad88f6f4ce6ab8827279cfffb92266",
      "to": "0xf69d69eec78b08eaf48deac029bf233c4918331f",
      "contractAddress": null
    },
    {
      "status": "0x1",
      "cumulativeGasUsed": "0x19e32",
      "logs": [
        {
          "address": "0xf69d69eec78b08eaf48deac029bf233c4918331f",
          "topics": [
            "0x59a8234668400022511cf16e138a5c22aaa48172d517061c02d974583218c2a5",
            "0x000000000000000000000000c02aaa39b223fe8d0a0e5c4f27ead9083c756cc2"
          ],
          "data": "0x0000000000000000000000000000000000000000000000000000000000000001",
          "blockHash": "0x805a5c479f8f58f786319b199be4ed868c66eab50f2c9e10c567e2925c767ae5",
          "blockNumber": "0x1718d1c",
          "blockTimestamp": "0x6964f586",
          "transactionHash": "0xc493c2bea0e6ed15d920cbd65f92f4f54406293827f598c0e927a4542db6d917",
          "transactionIndex": "0x1",
          "logIndex": "0x1",
          "removed": false
        }
      ],
      "logsBloom": "0x00000000000000000000000000000000000000000000000000000000000001000000000000000000000000000000000000000000000000000000000000000000000000000000000000000000000000800000000000000000000000000000000000000000000000000000000400000000000000000000000000000000000000000000000000000000000408400000000000000000000000000000000000000000000000000000000000000000000000000000000000000000000200000000000000000000000000000000000000080004000000000000000000000000000000000000000000000000000000000000000000000000000000000000000000000000",
      "type": "0x2",
      "transactionHash": "0xc493c2bea0e6ed15d920cbd65f92f4f54406293827f598c0e927a4542db6d917",
      "transactionIndex": "0x1",
      "blockHash": "0x805a5c479f8f58f786319b199be4ed868c66eab50f2c9e10c567e2925c767ae5",
      "blockNumber": "0x1718d1c",
      "gasUsed": "0xcf19",
      "effectiveGasPrice": "0x20189f9",
      "blobGasPrice": "0x55edd82800b8c9e2067b",
      "from": "0xf39fd6e51aad88f6f4ce6ab8827279cfffb92266",
      "to": "0xf69d69eec78b08eaf48deac029bf233c4918331f",
      "contractAddress": null
    }
  ],
  "libraries": [],
  "pending": [],
  "returns": {},
  "timestamp": 1768224146911,
  "chain": 1,
  "commit": "e585832"
}