{
  "transactions": [
    {
      "hash": "0x9e0e5cd04254e23d5cfa286a9b556a19a6ea82012bff2c56c58fc943d9d67a8d",
      "transactionType": "CALL",
      "contractName": null,
      "contractAddress": "0x1265b80001f4c8fcfdaf018198ac350e9410a5c4",
      "function": "approveAdapter(address)",
      "arguments": [
        "0x49Cf40BEe86Ab8bD080eE7918eD1d2D26DCF4c8b"
      ],
      "transaction": {
        "from": "0xf39fd6e51aad88f6f4ce6ab8827279cfffb92266",
        "to": "0x1265b80001f4c8fcfdaf018198ac350e9410a5c4",
        "gas": "0x11dcf",
        "value": "0x0",
        "input": "0xc0e2ffc400000000000000000000000049cf40bee86ab8bd080ee7918ed1d2d26dcf4c8b",
        "nonce": "0x113c",
        "chainId": "0x1"
      },
      "additionalContracts": [],
      "isFixedGasLimit": false
    },
    {
      "hash": "0xb59f02583bcc4e2d2bbe7dc295dd0f75f0a19714f07131c89c831a250597a094",
      "transactionType": "CALL",
      "contractName": null,
      "contractAddress": "0x1265b80001f4c8fcfdaf018198ac350e9410a5c4",
      "function": "approveAdapter(address)",
      "arguments": [
        "0x0d0F9C2E2097e7dC1443Bb47e3fF4b8D4c67AdE5"
      ],
      "transaction": {
        "from": "0xf39fd6e51aad88f6f4ce6ab8827279cfffb92266",
        "to": "0x1265b80001f4c8fcfdaf018198ac350e9410a5c4",
        "gas": "0x11dcf",
        "value": "0x0",
        "input": "0xc0e2ffc40000000000000000000000000d0f9c2e2097e7dc1443bb47e3ff4b8d4c67ade5",
        "nonce": "0x113d",
        "chainId": "0x1"
      },
      "additionalContracts": [],
      "isFixedGasLimit": false
    },
    {
      "hash": "0x8563273afe3171cb72c94a42bff49537a1c11962d86eb72efb044fe190428eda",
      "transactionType": "CALL",
      "contractName": null,
      "contractAddress": "0x1265b80001f4c8fcfdaf018198ac350e9410a5c4",
      "function": "approveQuoteToken(address)",
      "arguments": [
        "0xA0b86991c6218b36c1d19D4a2e9Eb0cE3606eB48"
      ],
      "transaction": {
        "from": "0xf39fd6e51aad88f6f4ce6ab8827279cfffb92266",
        "to": "0x1265b80001f4c8fcfdaf018198ac350e9410a5c4",
        "gas": "0x12ee1",
        "value": "0x0",
        "input": "0xc614ee3b000000000000000000000000a0b86991c6218b36c1d19d4a2e9eb0ce3606eb48",
        "nonce": "0x113e",
        "chainId": "0x1"
      },
      "additionalContracts": [],
      "isFixedGasLimit": false
    },
    {
      "hash": "0xd455dbd8b8f7cb6c45f74e9260ca0eb18f4ce82478d3aa0a1e3a4131967691ca",
      "transactionType": "CALL",
      "contractName": null,
      "contractAddress": "0x1265b80001f4c8fcfdaf018198ac350e9410a5c4",
      "function": "approveQuoteToken(address)",
      "arguments": [
        "0xdAC17F958D2ee523a2206206994597C13D831ec7"
      ],
      "transaction": {
        "from": "0xf39fd6e51aad88f6f4ce6ab8827279cfffb92266",
        "to": "0x1265b80001f4c8fcfdaf018198ac350e9410a5c4",
        "gas": "0x12ee1",
        "value": "0x0",
        "input": "0xc614ee3b000000000000000000000000dac17f958d2ee523a2206206994597c13d831ec7",
        "nonce": "0x113f",
        "chainId": "0x1"
      },
      "additionalContracts": [],
      "isFixedGasLimit": false
    },
    {
      "hash": "0x4310df924547c3d5b0c973040fb2a8ec1f521b94761fff81c05c04b6f51cc72a",
      "transactionType": "CALL",
      "contractName": null,
      "contractAddress": "0x1265b80001f4c8fcfdaf018198ac350e9410a5c4",
      "function": "approveQuoteToken(address)",
      "arguments": [
        "0x6B175474E89094C44Da98b954EedeAC495271d0F"
      ],
      "transaction": {
        "from": "0xf39fd6e51aad88f6f4ce6ab8827279cfffb92266",
        "to": "0x1265b80001f4c8fcfdaf018198ac350e9410a5c4",
        "gas": "0x12ee1",
        "value": "0x0",
        "input": "0xc614ee3b0000000000000000000000006b175474e89094c44da98b954eedeac495271d0f",
        "nonce": "0x1140",
        "chainId": "0x1"
      },
      "additionalContracts": [],
      "isFixedGasLimit": false
    },
    {
      "hash": "0xd405131dc6090fe194349c3bb7634591bd4bf2dc87b6cec0c2b3256209fdce87",
      "transactionType": "CALL",
      "contractName": null,
      "contractAddress": "0x1265b80001f4c8fcfdaf018198ac350e9410a5c4",
      "function": "approveQuoteToken(address)",
      "arguments": [
        "0xC02aaA39b223FE8D0A0e5C4F27eAD9083C756Cc2"
      ],
      "transaction": {
        "from": "0xf39fd6e51aad88f6f4ce6ab8827279cfffb92266",
        "to": "0x1265b80001f4c8fcfdaf018198ac350e9410a5c4",
        "gas": "0x12ee1",
        "value": "0x0",
        "input": "0xc614ee3b000000000000000000000000c02aaa39b223fe8d0a0e5c4f27ead9083c756cc2",
        "nonce": "0x1141",
        "chainId": "0x1"
      },
      "additionalContracts": [],
      "isFixedGasLimit": false
    }
  ],
  "receipts": [
    {
      "status": "0x1",
      "cumulativeGasUsed": "0xceed",
      "logs": [
        {
          "address": "0x1265b80001f4c8fcfdaf018198ac350e9410a5c4",
          "topics": [
            "0x32e0703508c4ea098d1b9450c6834e4dcddff8b234d85df988e711ab1095f0d4",
            "0x00000000000000000000000049cf40bee86ab8bd080ee7918ed1d2d26dcf4c8b"
          ],
          "data": "0x0000000000000000000000000000000000000000000000000000000000000001",
          "blockHash": "0xd0e0c646c6376eaf137da434be89c213b8fa93082c0649689390db07921fb0ac",
          "blockNumber": "0x17155ee",
          "blockTimestamp": "0x69625c79",
          "transactionHash": "0x9e0e5cd04254e23d5cfa286a9b556a19a6ea82012bff2c56c58fc943d9d67a8d",
          "transactionIndex": "0x0",
          "logIndex": "0x0",
          "removed": false
        }
      ],
      "logsBloom": "0x00000000000000000000000000000000000000000000000000000000000000000080000200000000000000000000000000000000000000000000000000000000000000000000000000000000000000800000000000000000000000000000000000000000000000000000000000000000000000000000000000100000000000000000000000000000000000000000000000000000000000000000000000000000000040000000000000000100000000000000000000000000000000000000000000000000000000800000000000000000000000001000000000000000000000000000000000000000000000000000000000000000000000000000000020000000",
      "type": "0x2",
      "transactionHash": "0x9e0e5cd04254e23d5cfa286a9b556a19a6ea82012bff2c56c58fc943d9d67a8d",
      "transactionIndex": "0x0",
      "blockHash": "0xd0e0c646c6376eaf137da434be89c213b8fa93082c0649689390db07921fb0ac",
      "blockNumber": "0x17155ee",
      "gasUsed": "0xceed",
      "effectiveGasPrice": "0xb1a4b0",
      "blobGasPrice": "0x987579508c94e62a39",
      "from": "0xf39fd6e51aad88f6f4ce6ab8827279cfffb92266",
      "to": "0x1265b80001f4c8fcfdaf018198ac350e9410a5c4",
      "contractAddress": null
    },
    {
      "status": "0x1",
      "cumulativeGasUsed": "0xceed",
      "logs": [
        {
          "address": "0x1265b80001f4c8fcfdaf018198ac350e9410a5c4",
          "topics": [
            "0x32e0703508c4ea098d1b9450c6834e4dcddff8b234d85df988e711ab1095f0d4",
            "0x0000000000000000000000000d0f9c2e2097e7dc1443bb47e3ff4b8d4c67ade5"
          ],
          "data": "0x0000000000000000000000000000000000000000000000000000000000000001",
          "blockHash": "0x99355ec5942a62192daae0d809f4e5e54677e56e5855904f6433309902e72255",
          "blockNumber": "0x17155ef",
          "blockTimestamp": "0x69625c79",
          "transactionHash": "0xb59f02583bcc4e2d2bbe7dc295dd0f75f0a19714f07131c89c831a250597a094",
          "transactionIndex": "0x0",
          "logIndex": "0x0",
          "removed": false
        }
      ],
      "logsBloom": "0x40000000000000000000000000000000000000000000000000000000000000000080000200000000000000000000000000000000000000000000000000000000000000000000000000000000000000000000000000000000000000000000000000000000000000000000000000000000000000000000000000100000000000000000000400000000000000000000000000000000000000000000000000000000000040000000000000000100000000000000000000000000000000000000000000000000000000a00000000000000000000000000000000000000000000000000000000000000000000000000000000000000000000000000000000000000000",
      "type": "0x2",
      "transactionHash": "0xb59f02583bcc4e2d2bbe7dc295dd0f75f0a19714f07131c89c831a250597a094",
      "transactionIndex": "0x0",
      "blockHash": "0x99355ec5942a62192daae0d809f4e5e54677e56e5855904f6433309902e72255",
      "blockNumber": "0x17155ef",
      "gasUsed": "0xceed",
      "effectiveGasPrice": "0x9b87de",
      "blobGasPrice": "0x8784dd7ed6d0100f4a",
      "from": "0xf39fd6e51aad88f6f4ce6ab8827279cfffb92266",
      "to": "0x1265b80001f4c8fcfdaf018198ac350e9410a5c4",
      "contractAddress": null
    },
    {
      "status": "0x1",
      "cumulativeGasUsed": "0x19e06",
      "logs": [
        {
          "address": "0x1265b80001f4c8fcfdaf018198ac350e9410a5c4",
          "topics": [
            "0x59a8234668400022511cf16e138a5c22aaa48172d517061c02d974583218c2a5",
            "0x000000000000000000000000a0b86991c6218b36c1d19d4a2e9eb0ce3606eb48"
          ],
          "data": "0x0000000000000000000000000000000000000000000000000000000000000001",
          "blockHash": "0x99355ec5942a62192daae0d809f4e5e54677e56e5855904f6433309902e72255",
          "blockNumber": "0x17155ef",
          "blockTimestamp": "0x69625c79",
          "transactionHash": "0x8563273afe3171cb72c94a42bff49537a1c11962d86eb72efb044fe190428eda",
          "transactionIndex": "0x1",
          "logIndex": "0x1",
          "removed": false
        }
      ],
      "logsBloom": "0x00000000000000000000000000000000000000000000000000000000000000000000000000000000000002000000000000000000000000000000000000000000000000000000000000000000000000000000000000000000000000000000000000000000000000000000000400000000000000000000000000100000000000000000000000000000000000000000000200000000000000000000000000000000000040000000000000000000000000000000000000000000000200000000000000000000000000800000000000000004000000000000000000000000000000000000000000000000000000000000000004000000000000000000000000000000",
      "type": "0x2",
      "transactionHash": "0x8563273afe3171cb72c94a42bff49537a1c11962d86eb72efb044fe190428eda",
      "transactionIndex": "0x1",
      "blockHash": "0x99355ec5942a62192daae0d809f4e5e54677e56e5855904f6433309902e72255",
      "blockNumber": "0x17155ef",
      "gasUsed": "0xcf19",
      "effectiveGasPrice": "0x9b87de",
      "blobGasPrice": "0x8784dd7ed6d0100f4a",
      "from": "0xf39fd6e51aad88f6f4ce6ab8827279cfffb92266",
      "to": "0x1265b80001f4c8fcfdaf018198ac350e9410a5c4",
      "contractAddress": null
    },
    {
      "status": "0x1",
      "cumulativeGasUsed": "0x26d1f",
      "logs": [
        {
          "address": "0x1265b80001f4c8fcfdaf018198ac350e9410a5c4",
          "topics": [
            "0x59a8234668400022511cf16e138a5c22aaa48172d517061c02d974583218c2a5",
            "0x000000000000000000000000dac17f958d2ee523a2206206994597c13d831ec7"
          ],
          "data": "0x0000000000000000000000000000000000000000000000000000000000000001",
          "blockHash": "0x99355ec5942a62192daae0d809f4e5e54677e56e5855904f6433309902e72255",
          "blockNumber": "0x17155ef",
          "blockTimestamp": "0x69625c79",
          "transactionHash": "0xd455dbd8b8f7cb6c45f74e9260ca0eb18f4ce82478d3aa0a1e3a4131967691ca",
          "transactionIndex": "0x2",
          "logIndex": "0x2",
          "removed": false
        }
      ],
      "logsBloom": "0x00000000000000000000000000000000000000000000000000000000000000000000000000000000000000000000000000000000000000000000000000000000000000000000000000000000000000000000000000000000000000000000000000000000000000000000000400000000000000200000000000100000000000000000000000000000000000000000000000000000000000000000000000000000000040000000000000000000000000000000000000000000000200000000004000000000000000800000000000000004000000020000000000000000000000000000000000000000000000000000000000000000000000000000000000000000",
      "type": "0x2",
      "transactionHash": "0xd455dbd8b8f7cb6c45f74e9260ca0eb18f4ce82478d3aa0a1e3a4131967691ca",
      "transactionIndex": "0x2",
      "blockHash": "0x99355ec5942a62192daae0d809f4e5e54677e56e5855904f6433309902e72255",
      "blockNumber": "0x17155ef",
      "gasUsed": "0xcf19",
      "effectiveGasPrice": "0x9b87de",
      "blobGasPrice": "0x8784dd7ed6d0100f4a",
      "from": "0xf39fd6e51aad88f6f4ce6ab8827279cfffb92266",
      "to": "0x1265b80001f4c8fcfdaf018198ac350e9410a5c4",
      "contractAddress": null
    },
    {
      "status": "0x1",
      "cumulativeGasUsed": "0xcf19",
      "logs": [
        {
          "address": "0x1265b80001f4c8fcfdaf018198ac350e9410a5c4",
          "topics": [
            "0x59a8234668400022511cf16e138a5c22aaa48172d517061c02d974583218c2a5",
            "0x0000000000000000000000006b175474e89094c44da98b954eedeac495271d0f"
          ],
          "data": "0x0000000000000000000000000000000000000000000000000000000000000001",
          "blockHash": "0x2343278964bd138647adc2882fdf13843a178d0fdfb72fb3da5f47fa33287247",
          "blockNumber": "0x17155f0",
          "blockTimestamp": "0x69625c79",
          "transactionHash": "0x4310df924547c3d5b0c973040fb2a8ec1f521b94761fff81c05c04b6f51cc72a",
          "transactionIndex": "0x0",
          "logIndex": "0x0",
          "removed": false
        }
      ],
      "logsBloom": "0x00000000000000000000000000000000000000000000000000000000000000000000000000000000000000000000000000000000000000000000000000000000000000000000000000000000000000000000000000000000000000000000000000000000000000000000000400000000000000000000000000100000000000200000000000000000000000000000000000000000000000000000000400000000000040000000000000000000000000000000000000000000000200000000000000000000000000800000000000000004000000000000000000000000000000000000000000000000000000000000000000000000000000100000000000000000",
      "type": "0x2",
      "transactionHash": "0x4310df924547c3d5b0c973040fb2a8ec1f521b94761fff81c05c04b6f51cc72a",
      "transactionIndex": "0x0",
      "blockHash": "0x2343278964bd138647adc2882fdf13843a178d0fdfb72fb3da5f47fa33287247",
      "blockNumber": "0x17155f0",
      "gasUsed": "0xcf19",
      "effectiveGasPrice": "0x883ef5",
      "blobGasPrice": "0x78761a1d0ae972d92e",
      "from": "0xf39fd6e51aad88f6f4ce6ab8827279cfffb92266",
      "to": "0x1265b80001f4c8fcfdaf018198ac350e9410a5c4",
      "contractAddress": null
    },
    {
      "status": "0x1",
      "cumulativeGasUsed": "0x19e32",
      "logs": [
        {
          "address": "0x1265b80001f4c8fcfdaf018198ac350e9410a5c4",
          "topics": [
            "0x59a8234668400022511cf16e138a5c22aaa48172d517061c02d974583218c2a5",
            "0x000000000000000000000000c02aaa39b223fe8d0a0e5c4f27ead9083c756cc2"
          ],
          "data": "0x0000000000000000000000000000000000000000000000000000000000000001",
          "blockHash": "0x2343278964bd138647adc2882fdf13843a178d0fdfb72fb3da5f47fa33287247",
          "blockNumber": "0x17155f0",
          "blockTimestamp": "0x69625c79",
          "transactionHash": "0xd405131dc6090fe194349c3bb7634591bd4bf2dc87b6cec0c2b3256209fdce87",
          "transactionIndex": "0x1",
          "logIndex": "0x1",
          "removed": false
        }
      ],
      "logsBloom": "0x00000000000000000000000000000000000000000000000000000000000000000000000000000000000000000000000000000000000000000000000000000000000000000000000000000000000000800000000000000000000000000000000000000000000000000000000400000000000000000000000000100000000000000000000000000000000000400000000000000000000000000000000000000000000040000000000000000000000000000000000000000000000200000000000000000000000000800000000000080004000000000000000000000000000000000000000000000000000000000000000000000000000000000000000000000000",
      "type": "0x2",
      "transactionHash": "0xd405131dc6090fe194349c3bb7634591bd4bf2dc87b6cec0c2b3256209fdce87",
      "transactionIndex": "0x1",
      "blockHash": "0x2343278964bd138647adc2882fdf13843a178d0fdfb72fb3da5f47fa33287247",
      "blockNumber": "0x17155f0",
      "gasUsed": "0xcf19",
      "effectiveGasPrice": "0x883ef5",
      "blobGasPrice": "0x78761a1d0ae972d92e",
      "from": "0xf39fd6e51aad88f6f4ce6ab8827279cfffb92266",
      "to": "0x1265b80001f4c8fcfdaf018198ac350e9410a5c4",
      "contractAddress": null
    }
  ],
  "libraries": [],
  "pending": [],
  "returns": {},
  "timestamp": 1768053889055,
  "chain": 1,
  "commit": "037a3c7"
}