{
  "transactions": [
    {
      "hash": "0xc839dcfd1720d61a957cbf7764769e68e5900ae3cac944cd81ec2cac9f5c777e",
      "transactionType": "CALL",
      "contractName": null,
      "contractAddress": "0x480ce59387443a9bf266a4657f0e2ae1e6a7b771",
      "function": "approveAdapter(address)",
      "arguments": [
        "0x49Cf40BEe86Ab8bD080eE7918eD1d2D26DCF4c8b"
      ],
      "transaction": {
        "from": "0xf39fd6e51aad88f6f4ce6ab8827279cfffb92266",
        "to": "0x480ce59387443a9bf266a4657f0e2ae1e6a7b771",
        "gas": "0x11dcf",
        "value": "0x0",
        "input": "0xc0e2ffc400000000000000000000000049cf40bee86ab8bd080ee7918ed1d2d26dcf4c8b",
        "nonce": "0x11e7",
        "chainId": "0x1"
      },
      "additionalContracts": [],
      "isFixedGasLimit": false
    },
    {
      "hash": "0x63c542899d6501a6dad882ff0c8be3b3f5c636718a7cdeeb03fb5cd011fb3e55",
      "transactionType": "CALL",
      "contractName": null,
      "contractAddress": "0x480ce59387443a9bf266a4657f0e2ae1e6a7b771",
      "function": "approveAdapter(address)",
      "arguments": [
        "0x0d0F9C2E2097e7dC1443Bb47e3fF4b8D4c67AdE5"
      ],
      "transaction": {
        "from": "0xf39fd6e51aad88f6f4ce6ab8827279cfffb92266",
        "to": "0x480ce59387443a9bf266a4657f0e2ae1e6a7b771",
        "gas": "0x11dcf",
        "value": "0x0",
        "input": "0xc0e2ffc40000000000000000000000000d0f9c2e2097e7dc1443bb47e3ff4b8d4c67ade5",
        "nonce": "0x11e8",
        "chainId": "0x1"
      },
      "additionalContracts": [],
      "isFixedGasLimit": false
    },
    {
      "hash": "0x91640e78af3e76da3dc8edff5bee63b7af3ab5492de1baa8935ee582e4de0490",
      "transactionType": "CALL",
      "contractName": null,
      "contractAddress": "0x480ce59387443a9bf266a4657f0e2ae1e6a7b771",
      "function": "approveQuoteToken(address)",
      "arguments": [
        "0xA0b86991c6218b36c1d19D4a2e9Eb0cE3606eB48"
      ],
      "transaction": {
        "from": "0xf39fd6e51aad88f6f4ce6ab8827279cfffb92266",
        "to": "0x480ce59387443a9bf266a4657f0e2ae1e6a7b771",
        "gas": "0x12ee1",
        "value": "0x0",
        "input": "0xc614ee3b000000000000000000000000a0b86991c6218b36c1d19d4a2e9eb0ce3606eb48",
        "nonce": "0x11e9",
        "chainId": "0x1"
      },
      "additionalContracts": [],
      "isFixedGasLimit": false
    },
    {
      "hash": "0x09ddd632a9d3cf7ca2fea71c10b76c396a4529c9e63c597900c2172a4ab3d13e",
      "transactionType": "CALL",
      "contractName": null,
      "contractAddress": "0x480ce59387443a9bf266a4657f0e2ae1e6a7b771",
      "function": "approveQuoteToken(address)",
      "arguments": [
        "0xdAC17F958D2ee523a2206206994597C13D831ec7"
      ],
      "transaction": {
        "from": "0xf39fd6e51aad88f6f4ce6ab8827279cfffb92266",
        "to": "0x480ce59387443a9bf266a4657f0e2ae1e6a7b771",
        "gas": "0x12ee1",
        "value": "0x0",
        "input": "0xc614ee3b000000000000000000000000dac17f958d2ee523a2206206994597c13d831ec7",
        "nonce": "0x11ea",
        "chainId": "0x1"
      },
      "additionalContracts": [],
      "isFixedGasLimit": false
    },
    {
      "hash": "0xd77ea061ae4412ed2bc3f8792404095ed015de78f683ef7978e46ac13a8be5b0",
      "transactionType": "CALL",
      "contractName": null,
      "contractAddress": "0x480ce59387443a9bf266a4657f0e2ae1e6a7b771",
      "function": "approveQuoteToken(address)",
      "arguments": [
        "0x6B175474E89094C44Da98b954EedeAC495271d0F"
      ],
      "transaction": {
        "from": "0xf39fd6e51aad88f6f4ce6ab8827279cfffb92266",
        "to": "0x480ce59387443a9bf266a4657f0e2ae1e6a7b771",
        "gas": "0x12ee1",
        "value": "0x0",
        "input": "0xc614ee3b0000000000000000000000006b175474e89094c44da98b954eedeac495271d0f",
        "nonce": "0x11eb",
        "chainId": "0x1"
      },
      "additionalContracts": [],
      "isFixedGasLimit": false
    },
    {
      "hash": "0x78b20c1808d69aeb6ea75fe8fae7ff3158b451fbb0dddb4947589cf40a5233f9",
      "transactionType": "CALL",
      "contractName": null,
      "contractAddress": "0x480ce59387443a9bf266a4657f0e2ae1e6a7b771",
      "function": "approveQuoteToken(address)",
      "arguments": [
        "0xC02aaA39b223FE8D0A0e5C4F27eAD9083C756Cc2"
      ],
      "transaction": {
        "from": "0xf39fd6e51aad88f6f4ce6ab8827279cfffb92266",
        "to": "0x480ce59387443a9bf266a4657f0e2ae1e6a7b771",
        "gas": "0x12ee1",
        "value": "0x0",
        "input": "0xc614ee3b000000000000000000000000c02aaa39b223fe8d0a0e5c4f27ead9083c756cc2",
        "nonce": "0x11ec",
        "chainId": "0x1"
      },
      "additionalContracts": [],
      "isFixedGasLimit": false
    },
    {
      "hash": "0xcb7fc244d79c37736eebbbbab0e0b1f18c5f690f0901160f077df2de2380d45d",
      "transactionType": "CALL",
      "contractName": null,
      "contractAddress": "0x480ce59387443a9bf266a4657f0e2ae1e6a7b771",
      "function": "approveQuoteToken(address)",
      "arguments": [
        "0x514910771AF9Ca656af840dff83E8264EcF986CA"
      ],
      "transaction": {
        "from": "0xf39fd6e51aad88f6f4ce6ab8827279cfffb92266",
        "to": "0x480ce59387443a9bf266a4657f0e2ae1e6a7b771",
        "gas": "0x12ee1",
        "value": "0x0",
        "input": "0xc614ee3b000000000000000000000000514910771af9ca656af840dff83e8264ecf986ca",
        "nonce": "0x11ed",
        "chainId": "0x1"
      },
      "additionalContracts": [],
      "isFixedGasLimit": false
    }
  ],
  "receipts": [
    {
      "status": "0x1",
      "cumulativeGasUsed": "0xceed",
      "logs": [
        {
          "address": "0x480ce59387443a9bf266a4657f0e2ae1e6a7b771",
          "topics": [
            "0x32e0703508c4ea098d1b9450c6834e4dcddff8b234d85df988e711ab1095f0d4",
            "0x00000000000000000000000049cf40bee86ab8bd080ee7918ed1d2d26dcf4c8b"
          ],
          "data": "0x0000000000000000000000000000000000000000000000000000000000000001",
          "blockHash": "0x805fcb1864d83347147916cfdd58348b3d48268e39fe3866a1427210ceb21d90",
          "blockNumber": "0x172cdce",
          "blockTimestamp": "0x69740f03",
          "transactionHash": "0xc839dcfd1720d61a957cbf7764769e68e5900ae3cac944cd81ec2cac9f5c777e",
          "transactionIndex": "0x0",
          "logIndex": "0x0",
          "removed": false
        }
      ],
      "logsBloom": "0x00000000000000000000000000400000000000000000000000000000000000000080000200000000000000000000000000000000000000000000000000000000000000020000000000000000000000800000000000000000000000000000000000000000000000000000000000000000000000000000000000000000000000000000000000000000000000000000000000000000000000000000000000000000000000000000000000000100000000000000000000000000000000000000000000000000000000000000000000001000000000001000000000000000000000000000000000000000000000000000000000000000000000000000000020000000",
      "type": "0x2",
      "transactionHash": "0xc839dcfd1720d61a957cbf7764769e68e5900ae3cac944cd81ec2cac9f5c777e",
      "transactionIndex": "0x0",
      "blockHash": "0x805fcb1864d83347147916cfdd58348b3d48268e39fe3866a1427210ceb21d90",
      "blockNumber": "0x172cdce",
      "gasUsed": "0xceed",
      "effectiveGasPrice": "0x100322f",
      "blobGasPrice": "0x470402ecd23cd64c2d6",
      "from": "0xf39fd6e51aad88f6f4ce6ab8827279cfffb92266",
      "to": "0x480ce59387443a9bf266a4657f0e2ae1e6a7b771",
      "contractAddress": null
    },
    {
      "status": "0x1",
      "cumulativeGasUsed": "0xceed",
      "logs": [
        {
          "address": "0x480ce59387443a9bf266a4657f0e2ae1e6a7b771",
          "topics": [
            "0x32e0703508c4ea098d1b9450c6834e4dcddff8b234d85df988e711ab1095f0d4",
            "0x0000000000000000000000000d0f9c2e2097e7dc1443bb47e3ff4b8d4c67ade5"
          ],
          "data": "0x0000000000000000000000000000000000000000000000000000000000000001",
          "blockHash": "0x385b580dcfa5ee579b229bf5cb4fc5eb34740342a08e3f3e4016514ba7b80ac9",
          "blockNumber": "0x172cdcf",
          "blockTimestamp": "0x69740f03",
          "transactionHash": "0x63c542899d6501a6dad882ff0c8be3b3f5c636718a7cdeeb03fb5cd011fb3e55",
          "transactionIndex": "0x0",
          "logIndex": "0x0",
          "removed": false
        }
      ],
      "logsBloom": "0x40000000000000000000000000400000000000000000000000000000000000000080000200000000000000000000000000000000000000000000000000000000000000020000000000000000000000000000000000000000000000000000000000000000000000000000000000000000000000000000000000000000000000000000000400000000000000000000000000000000000000000000000000000000000000000000000000000100000000000000000000000000000000000000000000000000000000200000000000001000000000000000000000000000000000000000000000000000000000000000000000000000000000000000000000000000",
      "type": "0x2",
      "transactionHash": "0x63c542899d6501a6dad882ff0c8be3b3f5c636718a7cdeeb03fb5cd011fb3e55",
      "transactionIndex": "0x0",
      "blockHash": "0x385b580dcfa5ee579b229bf5cb4fc5eb34740342a08e3f3e4016514ba7b80ac9",
      "blockNumber": "0x172cdcf",
      "gasUsed": "0xceed",
      "effectiveGasPrice": "0xe0c73e",
      "blobGasPrice": "0x3f20028b7553d9cb8e4",
      "from": "0xf39fd6e51aad88f6f4ce6ab8827279cfffb92266",
      "to": "0x480ce59387443a9bf266a4657f0e2ae1e6a7b771",
      "contractAddress": null
    },
    {
      "status": "0x1",
      "cumulativeGasUsed": "0xcf19",
      "logs": [
        {
          "address": "0x480ce59387443a9bf266a4657f0e2ae1e6a7b771",
          "topics": [
            "0x59a8234668400022511cf16e138a5c22aaa48172d517061c02d974583218c2a5",
            "0x000000000000000000000000a0b86991c6218b36c1d19d4a2e9eb0ce3606eb48"
          ],
          "data": "0x0000000000000000000000000000000000000000000000000000000000000001",
          "blockHash": "0x8df8e1aed0a03fba232fe1dc4cc9e2474cce9cc11d2931e4c5b31fcacb9e8e07",
          "blockNumber": "0x172cdd0",
          "blockTimestamp": "0x69740f03",
          "transactionHash": "0x91640e78af3e76da3dc8edff5bee63b7af3ab5492de1baa8935ee582e4de0490",
          "transactionIndex": "0x0",
          "logIndex": "0x0",
          "removed": false
        }
      ],
      "logsBloom": "0x00000000000000000000000000400000000000000000000000000000000000000000000000000000000002000000000000000000000000000000000000000000000000020000000000000000000000000000000000000000000000000000000000000000000000000000000400000000000000000000000000000000000000000000000000000000000000000000000200000000000000000000000000000000000000000000000000000000000000000000000000000000000200000000000000000000000000000000000000001004000000000000000000000000000000000000000000000000000000000000000004000000000000000000000000000000",
      "type": "0x2",
      "transactionHash": "0x91640e78af3e76da3dc8edff5bee63b7af3ab5492de1baa8935ee582e4de0490",
      "transactionIndex": "0x0",
      "blockHash": "0x8df8e1aed0a03fba232fe1dc4cc9e2474cce9cc11d2931e4c5b31fcacb9e8e07",
      "blockNumber": "0x172cdd0",
      "gasUsed": "0xcf19",
      "effectiveGasPrice": "0xc547e4",
      "blobGasPrice": "0x381c73fdc776be5d5a6",
      "from": "0xf39fd6e51aad88f6f4ce6ab8827279cfffb92266",
      "to": "0x480ce59387443a9bf266a4657f0e2ae1e6a7b771",
      "contractAddress": null
    },
    {
      "status": "0x1",
      "cumulativeGasUsed": "0x19e32",
      "logs": [
        {
          "address": "0x480ce59387443a9bf266a4657f0e2ae1e6a7b771",
          "topics": [
            "0x59a8234668400022511cf16e138a5c22aaa48172d517061c02d974583218c2a5",
            "0x000000000000000000000000dac17f958d2ee523a2206206994597c13d831ec7"
          ],
          "data": "0x0000000000000000000000000000000000000000000000000000000000000001",
          "blockHash": "0x8df8e1aed0a03fba232fe1dc4cc9e2474cce9cc11d2931e4c5b31fcacb9e8e07",
          "blockNumber": "0x172cdd0",
          "blockTimestamp": "0x69740f03",
          "transactionHash": "0x09ddd632a9d3cf7ca2fea71c10b76c396a4529c9e63c597900c2172a4ab3d13e",
          "transactionIndex": "0x1",
          "logIndex": "0x1",
          "removed": false
        }
      ],
      "logsBloom": "0x00000000000000000000000000400000000000000000000000000000000000000000000000000000000000000000000000000000000000000000000000000000000000020000000000000000000000000000000000000000000000000000000000000000000000000000000400000000000000200000000000000000000000000000000000000000000000000000000000000000000000000000000000000000000000000000000000000000000000000000000000000000000200000000004000000000000000000000000000001004000000020000000000000000000000000000000000000000000000000000000000000000000000000000000000000000",
      "type": "0x2",
      "transactionHash": "0x09ddd632a9d3cf7ca2fea71c10b76c396a4529c9e63c597900c2172a4ab3d13e",
      "transactionIndex": "0x1",
      "blockHash": "0x8df8e1aed0a03fba232fe1dc4cc9e2474cce9cc11d2931e4c5b31fcacb9e8e07",
      "blockNumber": "0x172cdd0",
      "gasUsed": "0xcf19",
      "effectiveGasPrice": "0xc547e4",
      "blobGasPrice": "0x381c73fdc776be5d5a6",
      "from": "0xf39fd6e51aad88f6f4ce6ab8827279cfffb92266",
      "to": "0x480ce59387443a9bf266a4657f0e2ae1e6a7b771",
      "contractAddress": null
    },
    {
      "status": "0x1",
      "cumulativeGasUsed": "0x26d4b",
      "logs": [
        {
          "address": "0x480ce59387443a9bf266a4657f0e2ae1e6a7b771",
          "topics": [
            "0x59a8234668400022511cf16e138a5c22aaa48172d517061c02d974583218c2a5",
            "0x0000000000000000000000006b175474e89094c44da98b954eedeac495271d0f"
          ],
          "data": "0x0000000000000000000000000000000000000000000000000000000000000001",
          "blockHash": "0x8df8e1aed0a03fba232fe1dc4cc9e2474cce9cc11d2931e4c5b31fcacb9e8e07",
          "blockNumber": "0x172cdd0",
          "blockTimestamp": "0x69740f03",
          "transactionHash": "0xd77ea061ae4412ed2bc3f8792404095ed015de78f683ef7978e46ac13a8be5b0",
          "transactionIndex": "0x2",
          "logIndex": "0x2",
          "removed": false
        }
      ],
      "logsBloom": "0x00000000000000000000000000400000000000000000000000000000000000000000000000000000000000000000000000000000000000000000000000000000000000020000000000000000000000000000000000000000000000000000000000000000000000000000000400000000000000000000000000000000000000200000000000000000000000000000000000000000000000000000000400000000000000000000000000000000000000000000000000000000000200000000000000000000000000000000000000001004000000000000000000000000000000000000000000000000000000000000000000000000000000100000000000000000",
      "type": "0x2",
      "transactionHash": "0xd77ea061ae4412ed2bc3f8792404095ed015de78f683ef7978e46ac13a8be5b0",
      "transactionIndex": "0x2",
      "blockHash": "0x8df8e1aed0a03fba232fe1dc4cc9e2474cce9cc11d2931e4c5b31fcacb9e8e07",
      "blockNumber": "0x172cdd0",
      "gasUsed": "0xcf19",
      "effectiveGasPrice": "0xc547e4",
      "blobGasPrice": "0x381c73fdc776be5d5a6",
      "from": "0xf39fd6e51aad88f6f4ce6ab8827279cfffb92266",
      "to": "0x480ce59387443a9bf266a4657f0e2ae1e6a7b771",
      "contractAddress": null
    },
    {
      "status": "0x1",
      "cumulativeGasUsed": "0x33c64",
      "logs": [
        {
          "address": "0x480ce59387443a9bf266a4657f0e2ae1e6a7b771",
          "topics": [
            "0x59a8234668400022511cf16e138a5c22aaa48172d517061c02d974583218c2a5",
            "0x000000000000000000000000c02aaa39b223fe8d0a0e5c4f27ead9083c756cc2"
          ],
          "data": "0x0000000000000000000000000000000000000000000000000000000000000001",
          "blockHash": "0x8df8e1aed0a03fba232fe1dc4cc9e2474cce9cc11d2931e4c5b31fcacb9e8e07",
          "blockNumber": "0x172cdd0",
          "blockTimestamp": "0x69740f03",
          "transactionHash": "0x78b20c1808d69aeb6ea75fe8fae7ff3158b451fbb0dddb4947589cf40a5233f9",
          "transactionIndex": "0x3",
          "logIndex": "0x3",
          "removed": false
        }
      ],
      "logsBloom": "0x00000000000000000000000000400000000000000000000000000000000000000000000000000000000000000000000000000000000000000000000000000000000000020000000000000000000000800000000000000000000000000000000000000000000000000000000400000000000000000000000000000000000000000000000000000000000000400000000000000000000000000000000000000000000000000000000000000000000000000000000000000000000200000000000000000000000000000000000000081004000000000000000000000000000000000000000000000000000000000000000000000000000000000000000000000000",
      "type": "0x2",
      "transactionHash": "0x78b20c1808d69aeb6ea75fe8fae7ff3158b451fbb0dddb4947589cf40a5233f9",
      "transactionIndex": "0x3",
      "blockHash": "0x8df8e1aed0a03fba232fe1dc4cc9e2474cce9cc11d2931e4c5b31fcacb9e8e07",
      "blockNumber": "0x172cdd0",
      "gasUsed": "0xcf19",
      "effectiveGasPrice": "0xc547e4",
      "blobGasPrice": "0x381c73fdc776be5d5a6",
      "from": "0xf39fd6e51aad88f6f4ce6ab8827279cfffb92266",
      "to": "0x480ce59387443a9bf266a4657f0e2ae1e6a7b771",
      "contractAddress": null
    },
    {
      "status": "0x1",
      "cumulativeGasUsed": "0x40b7d",
      "logs": [
        {
          "address": "0x480ce59387443a9bf266a4657f0e2ae1e6a7b771",
          "topics": [
            "0x59a8234668400022511cf16e138a5c22aaa48172d517061c02d974583218c2a5",
            "0x000000000000000000000000514910771af9ca656af840dff83e8264ecf986ca"
          ],
          "data": "0x0000000000000000000000000000000000000000000000000000000000000001",
          "blockHash": "0x8df8e1aed0a03fba232fe1dc4cc9e2474cce9cc11d2931e4c5b31fcacb9e8e07",
          "blockNumber": "0x172cdd0",
          "blockTimestamp": "0x69740f03",
          "transactionHash": "0xcb7fc244d79c37736eebbbbab0e0b1f18c5f690f0901160f077df2de2380d45d",
          "transactionIndex": "0x4",
          "logIndex": "0x4",
          "removed": false
        }
      ],
      "logsBloom": "0x00000000000000000000000000400000000000000000000000000000000000000000000000000000000000000000000000000000000000000000000000000000000000020000000000000000000000000000020000000000000000000000000000000000000000000000000400000000000000000000000000000000000000000000000000000000000000000000000000000000000000000000000000000000000000000000000000000000000000000000000000000000000200000000002000000000000000000000000000001004000000000000000000000000000000040000000000000000000000000000000000000000000000000000000000000000",
      "type": "0x2",
      "transactionHash": "0xcb7fc244d79c37736eebbbbab0e0b1f18c5f690f0901160f077df2de2380d45d",
      "transactionIndex": "0x4",
      "blockHash": "0x8df8e1aed0a03fba232fe1dc4cc9e2474cce9cc11d2931e4c5b31fcacb9e8e07",
      "blockNumber": "0x172cdd0",
      "gasUsed": "0xcf19",
      "effectiveGasPrice": "0xc547e4",
      "blobGasPrice": "0x381c73fdc776be5d5a6",
      "from": "0xf39fd6e51aad88f6f4ce6ab8827279cfffb92266",
      "to": "0x480ce59387443a9bf266a4657f0e2ae1e6a7b771",
      "contractAddress": null
    }
  ],
  "libraries": [],
  "pending": [],
  "returns": {},
  "timestamp": 1769213707967,
  "chain": 1,
  "commit": "d45ebce"
}