{
  "transactions": [
    {
      "hash": "0x9ff6b7d27a1b7fc7151603c8dcb978485a4a236fdd2b54eeae4b30164eb5945d",
      "transactionType": "CALL",
      "contractName": null,
      "contractAddress": "0x2bf866da3a8eeb90b288e6d434d319624263a24b",
      "function": "approveAdapter(address)",
      "arguments": [
        "0x49Cf40BEe86Ab8bD080eE7918eD1d2D26DCF4c8b"
      ],
      "transaction": {
        "from": "0xf39fd6e51aad88f6f4ce6ab8827279cfffb92266",
        "to": "0x2bf866da3a8eeb90b288e6d434d319624263a24b",
        "gas": "0x11dcf",
        "value": "0x0",
        "input": "0xc0e2ffc400000000000000000000000049cf40bee86ab8bd080ee7918ed1d2d26dcf4c8b",
        "nonce": "0x11ad",
        "chainId": "0x1"
      },
      "additionalContracts": [],
      "isFixedGasLimit": false
    },
    {
      "hash": "0x1d00c359100657c530dd05983c7dd83b1834eb2f350068d15aa2a8c1c064039b",
      "transactionType": "CALL",
      "contractName": null,
      "contractAddress": "0x2bf866da3a8eeb90b288e6d434d319624263a24b",
      "function": "approveAdapter(address)",
      "arguments": [
        "0x0d0F9C2E2097e7dC1443Bb47e3fF4b8D4c67AdE5"
      ],
      "transaction": {
        "from": "0xf39fd6e51aad88f6f4ce6ab8827279cfffb92266",
        "to": "0x2bf866da3a8eeb90b288e6d434d319624263a24b",
        "gas": "0x11dcf",
        "value": "0x0",
        "input": "0xc0e2ffc40000000000000000000000000d0f9c2e2097e7dc1443bb47e3ff4b8d4c67ade5",
        "nonce": "0x11ae",
        "chainId": "0x1"
      },
      "additionalContracts": [],
      "isFixedGasLimit": false
    },
    {
      "hash": "0x56b2da5933304720d38222fe63f2385b4dbb42dc4d34ea3b87747cace9120274",
      "transactionType": "CALL",
      "contractName": null,
      "contractAddress": "0x2bf866da3a8eeb90b288e6d434d319624263a24b",
      "function": "approveQuoteToken(address)",
      "arguments": [
        "0xA0b86991c6218b36c1d19D4a2e9Eb0cE3606eB48"
      ],
      "transaction": {
        "from": "0xf39fd6e51aad88f6f4ce6ab8827279cfffb92266",
        "to": "0x2bf866da3a8eeb90b288e6d434d319624263a24b",
        "gas": "0x12ee1",
        "value": "0x0",
        "input": "0xc614ee3b000000000000000000000000a0b86991c6218b36c1d19d4a2e9eb0ce3606eb48",
        "nonce": "0x11af",
        "chainId": "0x1"
      },
      "additionalContracts": [],
      "isFixedGasLimit": false
    },
    {
      "hash": "0x2310a46c43b42a8c8235bbc1fdcb0ef9037b0f2eb75c0199a0a3a52c5f54a4b1",
      "transactionType": "CALL",
      "contractName": null,
      "contractAddress": "0x2bf866da3a8eeb90b288e6d434d319624263a24b",
      "function": "approveQuoteToken(address)",
      "arguments": [
        "0xdAC17F958D2ee523a2206206994597C13D831ec7"
      ],
      "transaction": {
        "from": "0xf39fd6e51aad88f6f4ce6ab8827279cfffb92266",
        "to": "0x2bf866da3a8eeb90b288e6d434d319624263a24b",
        "gas": "0x12ee1",
        "value": "0x0",
        "input": "0xc614ee3b000000000000000000000000dac17f958d2ee523a2206206994597c13d831ec7",
        "nonce": "0x11b0",
        "chainId": "0x1"
      },
      "additionalContracts": [],
      "isFixedGasLimit": false
    },
    {
      "hash": "0x7bd85aa17f8a82a12ad4bc54b1bdc8d4efeaf538d6ffdc2e5d4f0ba1dd3b401e",
      "transactionType": "CALL",
      "contractName": null,
      "contractAddress": "0x2bf866da3a8eeb90b288e6d434d319624263a24b",
      "function": "approveQuoteToken(address)",
      "arguments": [
        "0x6B175474E89094C44Da98b954EedeAC495271d0F"
      ],
      "transaction": {
        "from": "0xf39fd6e51aad88f6f4ce6ab8827279cfffb92266",
        "to": "0x2bf866da3a8eeb90b288e6d434d319624263a24b",
        "gas": "0x12ee1",
        "value": "0x0",
        "input": "0xc614ee3b0000000000000000000000006b175474e89094c44da98b954eedeac495271d0f",
        "nonce": "0x11b1",
        "chainId": "0x1"
      },
      "additionalContracts": [],
      "isFixedGasLimit": false
    },
    {
      "hash": "0x06bd72dbb27c65afeec0f5fa9aa3e0b1ec0b59dab55c244135275c32eead9de4",
      "transactionType": "CALL",
      "contractName": null,
      "contractAddress": "0x2bf866da3a8eeb90b288e6d434d319624263a24b",
      "function": "approveQuoteToken(address)",
      "arguments": [
        "0xC02aaA39b223FE8D0A0e5C4F27eAD9083C756Cc2"
      ],
      "transaction": {
        "from": "0xf39fd6e51aad88f6f4ce6ab8827279cfffb92266",
        "to": "0x2bf866da3a8eeb90b288e6d434d319624263a24b",
        "gas": "0x12ee1",
        "value": "0x0",
        "input": "0xc614ee3b000000000000000000000000c02aaa39b223fe8d0a0e5c4f27ead9083c756cc2",
        "nonce": "0x11b2",
        "chainId": "0x1"
      },
      "additionalContracts": [],
      "isFixedGasLimit": false
    },
    {
      "hash": "0x8885eb96092bdae24d148d71149bdcc845ece6ce3da9b173c8c86302ab29c552",
      "transactionType": "CALL",
      "contractName": null,
      "contractAddress": "0x2bf866da3a8eeb90b288e6d434d319624263a24b",
      "function": "approveQuoteToken(address)",
      "arguments": [
        "0x514910771AF9Ca656af840dff83E8264EcF986CA"
      ],
      "transaction": {
        "from": "0xf39fd6e51aad88f6f4ce6ab8827279cfffb92266",
        "to": "0x2bf866da3a8eeb90b288e6d434d319624263a24b",
        "gas": "0x12ee1",
        "value": "0x0",
        "input": "0xc614ee3b000000000000000000000000514910771af9ca656af840dff83e8264ecf986ca",
        "nonce": "0x11b3",
        "chainId": "0x1"
      },
      "additionalContracts": [],
      "isFixedGasLimit": false
    }
  ],
  "receipts": [
    {
      "status": "0x1",
      "cumulativeGasUsed": "0xceed",
      "logs": [
        {
          "address": "0x2bf866da3a8eeb90b288e6d434d319624263a24b",
          "topics": [
            "0x32e0703508c4ea098d1b9450c6834e4dcddff8b234d85df988e711ab1095f0d4",
            "0x00000000000000000000000049cf40bee86ab8bd080ee7918ed1d2d26dcf4c8b"
          ],
          "data": "0x0000000000000000000000000000000000000000000000000000000000000001",
          "blockHash": "0x7154519d6130a34558e51c3d3c8ffe6440c35696c07a526e961087b24fb39ed1",
          "blockNumber": "0x172790c",
          "blockTimestamp": "0x697010f9",
          "transactionHash": "0x9ff6b7d27a1b7fc7151603c8dcb978485a4a236fdd2b54eeae4b30164eb5945d",
          "transactionIndex": "0x0",
          "logIndex": "0x0",
          "removed": false
        }
      ],
      "logsBloom": "0x00000000000000000000000000000000000000000000000000000000000000000080000200000000000000000000000000000000000000000000000010000000000000000000000000000000000000800000000000000000000000000002000000000000000000000000000000000000000000000000000000000000000000000000000000000000000000000000000000000000100000000000000000000000000000000000000000000100000000000000000000000000000000000000000000000000000000000000000000000000000000001000000000000000000000000000000000000000000000000000000000000000000000000000000020000000",
      "type": "0x2",
      "transactionHash": "0x9ff6b7d27a1b7fc7151603c8dcb978485a4a236fdd2b54eeae4b30164eb5945d",
      "transactionIndex": "0x0",
      "blockHash": "0x7154519d6130a34558e51c3d3c8ffe6440c35696c07a526e961087b24fb39ed1",
      "blockNumber": "0x172790c",
      "gasUsed": "0xceed",
      "effectiveGasPrice": "0x169a081",
      "blobGasPrice": "0x855186f8d7205f5503a",
      "from": "0xf39fd6e51aad88f6f4ce6ab8827279cfffb92266",
      "to": "0x2bf866da3a8eeb90b288e6d434d319624263a24b",
      "contractAddress": null
    },
    {
      "status": "0x1",
      "cumulativeGasUsed": "0xceed",
      "logs": [
        {
          "address": "0x2bf866da3a8eeb90b288e6d434d319624263a24b",
          "topics": [
            "0x32e0703508c4ea098d1b9450c6834e4dcddff8b234d85df988e711ab1095f0d4",
            "0x0000000000000000000000000d0f9c2e2097e7dc1443bb47e3ff4b8d4c67ade5"
          ],
          "data": "0x0000000000000000000000000000000000000000000000000000000000000001",
          "blockHash": "0x6fed133f6ea1e14ba0f2aec8abb68521c4e58dad4bed864a6d810757b68eb207",
          "blockNumber": "0x172790d",
          "blockTimestamp": "0x697010f9",
          "transactionHash": "0x1d00c359100657c530dd05983c7dd83b1834eb2f350068d15aa2a8c1c064039b",
          "transactionIndex": "0x0",
          "logIndex": "0x0",
          "removed": false
        }
      ],
      "logsBloom": "0x40000000000000000000000000000000000000000000000000000000000000000080000200000000000000000000000000000000000000000000000010000000000000000000000000000000000000000000000000000000000000000002000000000000000000000000000000000000000000000000000000000000000000000000000400000000000000000000000000000000100000000000000000000000000000000000000000000100000000000000000000000000000000000000000000000000000000200000000000000000000000000000000000000000000000000000000000000000000000000000000000000000000000000000000000000000",
      "type": "0x2",
      "transactionHash": "0x1d00c359100657c530dd05983c7dd83b1834eb2f350068d15aa2a8c1c064039b",
      "transactionIndex": "0x0",
      "blockHash": "0x6fed133f6ea1e14ba0f2aec8abb68521c4e58dad4bed864a6d810757b68eb207",
      "blockNumber": "0x172790d",
      "gasUsed": "0xceed",
      "effectiveGasPrice": "0x13c80e2",
      "blobGasPrice": "0x76815b6d67ba263b3e8",
      "from": "0xf39fd6e51aad88f6f4ce6ab8827279cfffb92266",
      "to": "0x2bf866da3a8eeb90b288e6d434d319624263a24b",
      "contractAddress": null
    },
    {
      "status": "0x1",
      "cumulativeGasUsed": "0xcf19",
      "logs": [
        {
          "address": "0x2bf866da3a8eeb90b288e6d434d319624263a24b",
          "topics": [
            "0x59a8234668400022511cf16e138a5c22aaa48172d517061c02d974583218c2a5",
            "0x000000000000000000000000a0b86991c6218b36c1d19d4a2e9eb0ce3606eb48"
          ],
          "data": "0x0000000000000000000000000000000000000000000000000000000000000001",
          "blockHash": "0x3d916f50463f9f9aeae9ea0095d3f4f4068ea915018b0365e301d7d4fd89da7d",
          "blockNumber": "0x172790e",
          "blockTimestamp": "0x697010f9",
          "transactionHash": "0x56b2da5933304720d38222fe63f2385b4dbb42dc4d34ea3b87747cace9120274",
          "transactionIndex": "0x0",
          "logIndex": "0x0",
          "removed": false
        }
      ],
      "logsBloom": "0x00000000000000000000000000000000000000000000000000000000000000000000000000000000000002000000000000000000000000000000000010000000000000000000000000000000000000000000000000000000000000000002000000000000000000000000000400000000000000000000000000000000000000000000000000000000000000000000000200000000100000000000000000000000000000000000000000000000000000000000000000000000000200000000000000000000000000000000000000000004000000000000000000000000000000000000000000000000000000000000000004000000000000000000000000000000",
      "type": "0x2",
      "transactionHash": "0x56b2da5933304720d38222fe63f2385b4dbb42dc4d34ea3b87747cace9120274",
      "transactionIndex": "0x0",
      "blockHash": "0x3d916f50463f9f9aeae9ea0095d3f4f4068ea915018b0365e301d7d4fd89da7d",
      "blockNumber": "0x172790e",
      "gasUsed": "0xcf19",
      "effectiveGasPrice": "0x11502aa",
      "blobGasPrice": "0x69568a10c04310b7710",
      "from": "0xf39fd6e51aad88f6f4ce6ab8827279cfffb92266",
      "to": "0x2bf866da3a8eeb90b288e6d434d319624263a24b",
      "contractAddress": null
    },
    {
      "status": "0x1",
      "cumulativeGasUsed": "0x19e32",
      "logs": [
        {
          "address": "0x2bf866da3a8eeb90b288e6d434d319624263a24b",
          "topics": [
            "0x59a8234668400022511cf16e138a5c22aaa48172d517061c02d974583218c2a5",
            "0x000000000000000000000000dac17f958d2ee523a2206206994597c13d831ec7"
          ],
          "data": "0x0000000000000000000000000000000000000000000000000000000000000001",
          "blockHash": "0x3d916f50463f9f9aeae9ea0095d3f4f4068ea915018b0365e301d7d4fd89da7d",
          "blockNumber": "0x172790e",
          "blockTimestamp": "0x697010f9",
          "transactionHash": "0x2310a46c43b42a8c8235bbc1fdcb0ef9037b0f2eb75c0199a0a3a52c5f54a4b1",
          "transactionIndex": "0x1",
          "logIndex": "0x1",
          "removed": false
        }
      ],
      "logsBloom": "0x00000000000000000000000000000000000000000000000000000000000000000000000000000000000000000000000000000000000000000000000010000000000000000000000000000000000000000000000000000000000000000002000000000000000000000000000400000000000000200000000000000000000000000000000000000000000000000000000000000000100000000000000000000000000000000000000000000000000000000000000000000000000200000000004000000000000000000000000000000004000000020000000000000000000000000000000000000000000000000000000000000000000000000000000000000000",
      "type": "0x2",
      "transactionHash": "0x2310a46c43b42a8c8235bbc1fdcb0ef9037b0f2eb75c0199a0a3a52c5f54a4b1",
      "transactionIndex": "0x1",
      "blockHash": "0x3d916f50463f9f9aeae9ea0095d3f4f4068ea915018b0365e301d7d4fd89da7d",
      "blockNumber": "0x172790e",
      "gasUsed": "0xcf19",
      "effectiveGasPrice": "0x11502aa",
      "blobGasPrice": "0x69568a10c04310b7710",
      "from": "0xf39fd6e51aad88f6f4ce6ab8827279cfffb92266",
      "to": "0x2bf866da3a8eeb90b288e6d434d319624263a24b",
      "contractAddress": null
    },
    {
      "status": "0x1",
      "cumulativeGasUsed": "0x26d4b",
      "logs": [
        {
          "address": "0x2bf866da3a8eeb90b288e6d434d319624263a24b",
          "topics": [
            "0x59a8234668400022511cf16e138a5c22aaa48172d517061c02d974583218c2a5",
            "0x0000000000000000000000006b175474e89094c44da98b954eedeac495271d0f"
          ],
          "data": "0x0000000000000000000000000000000000000000000000000000000000000001",
          "blockHash": "0x3d916f50463f9f9aeae9ea0095d3f4f4068ea915018b0365e301d7d4fd89da7d",
          "blockNumber": "0x172790e",
          "blockTimestamp": "0x697010f9",
          "transactionHash": "0x7bd85aa17f8a82a12ad4bc54b1bdc8d4efeaf538d6ffdc2e5d4f0ba1dd3b401e",
          "transactionIndex": "0x2",
          "logIndex": "0x2",
          "removed": false
        }
      ],
      "logsBloom": "0x00000000000000000000000000000000000000000000000000000000000000000000000000000000000000000000000000000000000000000000000010000000000000000000000000000000000000000000000000000000000000000002000000000000000000000000000400000000000000000000000000000000000000200000000000000000000000000000000000000000100000000000000400000000000000000000000000000000000000000000000000000000000200000000000000000000000000000000000000000004000000000000000000000000000000000000000000000000000000000000000000000000000000100000000000000000",
      "type": "0x2",
      "transactionHash": "0x7bd85aa17f8a82a12ad4bc54b1bdc8d4efeaf538d6ffdc2e5d4f0ba1dd3b401e",
      "transactionIndex": "0x2",
      "blockHash": "0x3d916f50463f9f9aeae9ea0095d3f4f4068ea915018b0365e301d7d4fd89da7d",
      "blockNumber": "0x172790e",
      "gasUsed": "0xcf19",
      "effectiveGasPrice": "0x11502aa",
      "blobGasPrice": "0x69568a10c04310b7710",
      "from": "0xf39fd6e51aad88f6f4ce6ab8827279cfffb92266",
      "to": "0x2bf866da3a8eeb90b288e6d434d319624263a24b",
      "contractAddress": null
    },
    {
      "status": "0x1",
      "cumulativeGasUsed": "0xcf19",
      "logs": [
        {
          "address": "0x2bf866da3a8eeb90b288e6d434d319624263a24b",
          "topics": [
            "0x59a8234668400022511cf16e138a5c22aaa48172d517061c02d974583218c2a5",
            "0x000000000000000000000000c02aaa39b223fe8d0a0e5c4f27ead9083c756cc2"
          ],
          "data": "0x0000000000000000000000000000000000000000000000000000000000000001",
          "blockHash": "0xe7168af58f88389ed12eaec15aef5dd45d6c7eda8779f2393eab86e3982c841e",
          "blockNumber": "0x172790f",
          "blockTimestamp": "0x697010f9",
          "transactionHash": "0x06bd72dbb27c65afeec0f5fa9aa3e0b1ec0b59dab55c244135275c32eead9de4",
          "transactionIndex": "0x0",
          "logIndex": "0x0",
          "removed": false
        }
      ],
      "logsBloom": "0x00000000000000000000000000000000000000000000000000000000000000000000000000000000000000000000000000000000000000000000000010000000000000000000000000000000000000800000000000000000000000000002000000000000000000000000000400000000000000000000000000000000000000000000000000000000000000400000000000000000100000000000000000000000000000000000000000000000000000000000000000000000000200000000000000000000000000000000000000080004000000000000000000000000000000000000000000000000000000000000000000000000000000000000000000000000",
      "type": "0x2",
      "transactionHash": "0x06bd72dbb27c65afeec0f5fa9aa3e0b1ec0b59dab55c244135275c32eead9de4",
      "transactionIndex": "0x0",
      "blockHash": "0xe7168af58f88389ed12eaec15aef5dd45d6c7eda8779f2393eab86e3982c841e",
      "blockNumber": "0x172790f",
      "gasUsed": "0xcf19",
      "effectiveGasPrice": "0xf29156",
      "blobGasPrice": "0x5da241c0f8aa1ab499e",
      "from": "0xf39fd6e51aad88f6f4ce6ab8827279cfffb92266",
      "to": "0x2bf866da3a8eeb90b288e6d434d319624263a24b",
      "contractAddress": null
    },
    {
      "status": "0x1",
      "cumulativeGasUsed": "0x19e32",
      "logs": [
        {
          "address": "0x2bf866da3a8eeb90b288e6d434d319624263a24b",
          "topics": [
            "0x59a8234668400022511cf16e138a5c22aaa48172d517061c02d974583218c2a5",
            "0x000000000000000000000000514910771af9ca656af840dff83e8264ecf986ca"
          ],
          "data": "0x0000000000000000000000000000000000000000000000000000000000000001",
          "blockHash": "0xe7168af58f88389ed12eaec15aef5dd45d6c7eda8779f2393eab86e3982c841e",
          "blockNumber": "0x172790f",
          "blockTimestamp": "0x697010f9",
          "transactionHash": "0x8885eb96092bdae24d148d71149bdcc845ece6ce3da9b173c8c86302ab29c552",
          "transactionIndex": "0x1",
          "logIndex": "0x1",
          "removed": false
        }
      ],
      "logsBloom": "0x00000000000000000000000000000000000000000000000000000000000000000000000000000000000000000000000000000000000000000000000010000000000000000000000000000000000000000000020000000000000000000002000000000000000000000000000400000000000000000000000000000000000000000000000000000000000000000000000000000000100000000000000000000000000000000000000000000000000000000000000000000000000200000000002000000000000000000000000000000004000000000000000000000000000000040000000000000000000000000000000000000000000000000000000000000000",
      "type": "0x2",
      "transactionHash": "0x8885eb96092bdae24d148d71149bdcc845ece6ce3da9b173c8c86302ab29c552",
      "transactionIndex": "0x1",
      "blockHash": "0xe7168af58f88389ed12eaec15aef5dd45d6c7eda8779f2393eab86e3982c841e",
      "blockNumber": "0x172790f",
      "gasUsed": "0xcf19",
      "effectiveGasPrice": "0xf29156",
      "blobGasPrice": "0x5da241c0f8aa1ab499e",
      "from": "0xf39fd6e51aad88f6f4ce6ab8827279cfffb92266",
      "to": "0x2bf866da3a8eeb90b288e6d434d319624263a24b",
      "contractAddress": null
    }
  ],
  "libraries": [],
  "pending": [],
  "returns": {},
  "timestamp": 1768952069666,
  "chain": 1,
  "commit": "a5b6bf0"
}