{
  "transactions": [
    {
      "hash": "0xc2c0abba29b1360d8426e9ed0e9963e93fe42a84a6a027b4e238252b54306329",
      "transactionType": "CALL",
      "contractName": null,
      "contractAddress": "0xdaf5f4b3485b781b0416e724286a3d76d0be06b3",
      "function": "approveAdapter(address)",
      "arguments": [
        "0x49Cf40BEe86Ab8bD080eE7918eD1d2D26DCF4c8b"
      ],
      "transaction": {
        "from": "0xf39fd6e51aad88f6f4ce6ab8827279cfffb92266",
        "to": "0xdaf5f4b3485b781b0416e724286a3d76d0be06b3",
        "gas": "0x11dcf",
        "value": "0x0",
        "input": "0xc0e2ffc400000000000000000000000049cf40bee86ab8bd080ee7918ed1d2d26dcf4c8b",
        "nonce": "0x114a",
        "chainId": "0x1"
      },
      "additionalContracts": [],
      "isFixedGasLimit": false
    },
    {
      "hash": "0xa5376736a60c42af9c39aaf9cc94a20fdb396225ad7aecffbf89c70a943343c1",
      "transactionType": "CALL",
      "contractName": null,
      "contractAddress": "0xdaf5f4b3485b781b0416e724286a3d76d0be06b3",
      "function": "approveAdapter(address)",
      "arguments": [
        "0x0d0F9C2E2097e7dC1443Bb47e3fF4b8D4c67AdE5"
      ],
      "transaction": {
        "from": "0xf39fd6e51aad88f6f4ce6ab8827279cfffb92266",
        "to": "0xdaf5f4b3485b781b0416e724286a3d76d0be06b3",
        "gas": "0x11dcf",
        "value": "0x0",
        "input": "0xc0e2ffc40000000000000000000000000d0f9c2e2097e7dc1443bb47e3ff4b8d4c67ade5",
        "nonce": "0x114b",
        "chainId": "0x1"
      },
      "additionalContracts": [],
      "isFixedGasLimit": false
    },
    {
      "hash": "0xc51c2ee2607e8eeeb81c763d469e9bf6e37a7b8c803638fa939a35875bbe2d2b",
      "transactionType": "CALL",
      "contractName": null,
      "contractAddress": "0xdaf5f4b3485b781b0416e724286a3d76d0be06b3",
      "function": "approveQuoteToken(address)",
      "arguments": [
        "0xA0b86991c6218b36c1d19D4a2e9Eb0cE3606eB48"
      ],
      "transaction": {
        "from": "0xf39fd6e51aad88f6f4ce6ab8827279cfffb92266",
        "to": "0xdaf5f4b3485b781b0416e724286a3d76d0be06b3",
        "gas": "0x12ee1",
        "value": "0x0",
        "input": "0xc614ee3b000000000000000000000000a0b86991c6218b36c1d19d4a2e9eb0ce3606eb48",
        "nonce": "0x114c",
        "chainId": "0x1"
      },
      "additionalContracts": [],
      "isFixedGasLimit": false
    },
    {
      "hash": "0x54d7ca9079ad31f2a4e674db127782a4e0e7ed21acc7aa39015bb0b9da40cdd3",
      "transactionType": "CALL",
      "contractName": null,
      "contractAddress": "0xdaf5f4b3485b781b0416e724286a3d76d0be06b3",
      "function": "approveQuoteToken(address)",
      "arguments": [
        "0xdAC17F958D2ee523a2206206994597C13D831ec7"
      ],
      "transaction": {
        "from": "0xf39fd6e51aad88f6f4ce6ab8827279cfffb92266",
        "to": "0xdaf5f4b3485b781b0416e724286a3d76d0be06b3",
        "gas": "0x12ee1",
        "value": "0x0",
        "input": "0xc614ee3b000000000000000000000000dac17f958d2ee523a2206206994597c13d831ec7",
        "nonce": "0x114d",
        "chainId": "0x1"
      },
      "additionalContracts": [],
      "isFixedGasLimit": false
    },
    {
      "hash": "0x3b1f43fb2747873d6d5ab316fddcc77fc35e3e475591a94b4811158ea44dfcf3",
      "transactionType": "CALL",
      "contractName": null,
      "contractAddress": "0xdaf5f4b3485b781b0416e724286a3d76d0be06b3",
      "function": "approveQuoteToken(address)",
      "arguments": [
        "0x6B175474E89094C44Da98b954EedeAC495271d0F"
      ],
      "transaction": {
        "from": "0xf39fd6e51aad88f6f4ce6ab8827279cfffb92266",
        "to": "0xdaf5f4b3485b781b0416e724286a3d76d0be06b3",
        "gas": "0x12ee1",
        "value": "0x0",
        "input": "0xc614ee3b0000000000000000000000006b175474e89094c44da98b954eedeac495271d0f",
        "nonce": "0x114e",
        "chainId": "0x1"
      },
      "additionalContracts": [],
      "isFixedGasLimit": false
    },
    {
      "hash": "0x9f2111a07a3d7193c7ee5e156b8f644371c1158f2d7d42dbbfbf3ff32aecf613",
      "transactionType": "CALL",
      "contractName": null,
      "contractAddress": "0xdaf5f4b3485b781b0416e724286a3d76d0be06b3",
      "function": "approveQuoteToken(address)",
      "arguments": [
        "0xC02aaA39b223FE8D0A0e5C4F27eAD9083C756Cc2"
      ],
      "transaction": {
        "from": "0xf39fd6e51aad88f6f4ce6ab8827279cfffb92266",
        "to": "0xdaf5f4b3485b781b0416e724286a3d76d0be06b3",
        "gas": "0x12ee1",
        "value": "0x0",
        "input": "0xc614ee3b000000000000000000000000c02aaa39b223fe8d0a0e5c4f27ead9083c756cc2",
        "nonce": "0x114f",
        "chainId": "0x1"
      },
      "additionalContracts": [],
      "isFixedGasLimit": false
    }
  ],
  "receipts": [
    {
      "status": "0x1",
      "cumulativeGasUsed": "0xceed",
      "logs": [
        {
          "address": "0xdaf5f4b3485b781b0416e724286a3d76d0be06b3",
          "topics": [
            "0x32e0703508c4ea098d1b9450c6834e4dcddff8b234d85df988e711ab1095f0d4",
            "0x00000000000000000000000049cf40bee86ab8bd080ee7918ed1d2d26dcf4c8b"
          ],
          "data": "0x0000000000000000000000000000000000000000000000000000000000000001",
          "blockHash": "0x9884e510f5249f07060bb4ecc617a064fdb6647599fc8948d7a646d23d396897",
          "blockNumber": "0x1717a2d",
          "blockTimestamp": "0x696410e4",
          "transactionHash": "0xc2c0abba29b1360d8426e9ed0e9963e93fe42a84a6a027b4e238252b54306329",
          "transactionIndex": "0x0",
          "logIndex": "0x0",
          "removed": false
        }
      ],
      "logsBloom": "0x00000000000000000000000000000000000000000000000000000000000000000088000200000000000000000000000000000000000000000000000000000000000000000000000000000001000000800000000000000000000000000000000000000000000000000000000000000000000000000000000000000000000000000000000000000100000000000000000000000000000000000000000000000000000000000000000000000100000000000000000000000000000000000000000000000000000000000000000000000000000000001000000000000000000000000000000000000000000000000000000000000000000000000000000020000000",
      "type": "0x2",
      "transactionHash": "0xc2c0abba29b1360d8426e9ed0e9963e93fe42a84a6a027b4e238252b54306329",
      "transactionIndex": "0x0",
      "blockHash": "0x9884e510f5249f07060bb4ecc617a064fdb6647599fc8948d7a646d23d396897",
      "blockNumber": "0x1717a2d",
      "gasUsed": "0xceed",
      "effectiveGasPrice": "0xb38f59",
      "blobGasPrice": "0xf738112e76907099a8",
      "from": "0xf39fd6e51aad88f6f4ce6ab8827279cfffb92266",
      "to": "0xdaf5f4b3485b781b0416e724286a3d76d0be06b3",
      "contractAddress": null
    },
    {
      "status": "0x1",
      "cumulativeGasUsed": "0xceed",
      "logs": [
        {
          "address": "0xdaf5f4b3485b781b0416e724286a3d76d0be06b3",
          "topics": [
            "0x32e0703508c4ea098d1b9450c6834e4dcddff8b234d85df988e711ab1095f0d4",
            "0x0000000000000000000000000d0f9c2e2097e7dc1443bb47e3ff4b8d4c67ade5"
          ],
          "data": "0x0000000000000000000000000000000000000000000000000000000000000001",
          "blockHash": "0xd634584d9405b759a908465ee90bce0c587c22d9ef66338fb5a76c65bf2e802f",
          "blockNumber": "0x1717a2e",
          "blockTimestamp": "0x696410e4",
          "transactionHash": "0xa5376736a60c42af9c39aaf9cc94a20fdb396225ad7aecffbf89c70a943343c1",
          "transactionIndex": "0x0",
          "logIndex": "0x0",
          "removed": false
        }
      ],
      "logsBloom": "0x40000000000000000000000000000000000000000000000000000000000000000088000200000000000000000000000000000000000000000000000000000000000000000000000000000001000000000000000000000000000000000000000000000000000000000000000000000000000000000000000000000000000000000000000400000100000000000000000000000000000000000000000000000000000000000000000000000100000000000000000000000000000000000000000000000000000000200000000000000000000000000000000000000000000000000000000000000000000000000000000000000000000000000000000000000000",
      "type": "0x2",
      "transactionHash": "0xa5376736a60c42af9c39aaf9cc94a20fdb396225ad7aecffbf89c70a943343c1",
      "transactionIndex": "0x0",
      "blockHash": "0xd634584d9405b759a908465ee90bce0c587c22d9ef66338fb5a76c65bf2e802f",
      "blockNumber": "0x1717a2e",
      "gasUsed": "0xceed",
      "effectiveGasPrice": "0x9d27b7",
      "blobGasPrice": "0xdbc00f14aa9d41f86b",
      "from": "0xf39fd6e51aad88f6f4ce6ab8827279cfffb92266",
      "to": "0xdaf5f4b3485b781b0416e724286a3d76d0be06b3",
      "contractAddress": null
    },
    {
      "status": "0x1",
      "cumulativeGasUsed": "0xcf19",
      "logs": [
        {
          "address": "0xdaf5f4b3485b781b0416e724286a3d76d0be06b3",
          "topics": [
            "0x59a8234668400022511cf16e138a5c22aaa48172d517061c02d974583218c2a5",
            "0x000000000000000000000000a0b86991c6218b36c1d19d4a2e9eb0ce3606eb48"
          ],
          "data": "0x0000000000000000000000000000000000000000000000000000000000000001",
          "blockHash": "0x8d6c24a40ffa8391594d2d4504d57313f0447aeeaca8f044f6250d46e49840d2",
          "blockNumber": "0x1717a2f",
          "blockTimestamp": "0x696410e4",
          "transactionHash": "0xc51c2ee2607e8eeeb81c763d469e9bf6e37a7b8c803638fa939a35875bbe2d2b",
          "transactionIndex": "0x0",
          "logIndex": "0x0",
          "removed": false
        }
      ],
      "logsBloom": "0x00000000000000000000000000000000000000000000000000000000000000000008000000000000000002000000000000000000000000000000000000000000000000000000000000000001000000000000000000000000000000000000000000000000000000000000000400000000000000000000000000000000000000000000000000000100000000000000000200000000000000000000000000000000000000000000000000000000000000000000000000000000000200000000000000000000000000000000000000000004000000000000000000000000000000000000000000000000000000000000000004000000000000000000000000000000",
      "type": "0x2",
      "transactionHash": "0xc51c2ee2607e8eeeb81c763d469e9bf6e37a7b8c803638fa939a35875bbe2d2b",
      "transactionIndex": "0x0",
      "blockHash": "0x8d6c24a40ffa8391594d2d4504d57313f0447aeeaca8f044f6250d46e49840d2",
      "blockNumber": "0x1717a2f",
      "gasUsed": "0xcf19",
      "effectiveGasPrice": "0x898bc5",
      "blobGasPrice": "0xc35562913be8a4feb8",
      "from": "0xf39fd6e51aad88f6f4ce6ab8827279cfffb92266",
      "to": "0xdaf5f4b3485b781b0416e724286a3d76d0be06b3",
      "contractAddress": null
    },
    {
      "status": "0x1",
      "cumulativeGasUsed": "0x19e32",
      "logs": [
        {
          "address": "0xdaf5f4b3485b781b0416e724286a3d76d0be06b3",
          "topics": [
            "0x59a8234668400022511cf16e138a5c22aaa48172d517061c02d974583218c2a5",
            "0x000000000000000000000000dac17f958d2ee523a2206206994597c13d831ec7"
          ],
          "data": "0x0000000000000000000000000000000000000000000000000000000000000001",
          "blockHash": "0x8d6c24a40ffa8391594d2d4504d57313f0447aeeaca8f044f6250d46e49840d2",
          "blockNumber": "0x1717a2f",
          "blockTimestamp": "0x696410e4",
          "transactionHash": "0x54d7ca9079ad31f2a4e674db127782a4e0e7ed21acc7aa39015bb0b9da40cdd3",
          "transactionIndex": "0x1",
          "logIndex": "0x1",
          "removed": false
        }
      ],
      "logsBloom": "0x00000000000000000000000000000000000000000000000000000000000000000008000000000000000000000000000000000000000000000000000000000000000000000000000000000001000000000000000000000000000000000000000000000000000000000000000400000000000000200000000000000000000000000000000000000100000000000000000000000000000000000000000000000000000000000000000000000000000000000000000000000000000200000000004000000000000000000000000000000004000000020000000000000000000000000000000000000000000000000000000000000000000000000000000000000000",
      "type": "0x2",
      "transactionHash": "0x54d7ca9079ad31f2a4e674db127782a4e0e7ed21acc7aa39015bb0b9da40cdd3",
      "transactionIndex": "0x1",
      "blockHash": "0x8d6c24a40ffa8391594d2d4504d57313f0447aeeaca8f044f6250d46e49840d2",
      "blockNumber": "0x1717a2f",
      "gasUsed": "0xcf19",
      "effectiveGasPrice": "0x898bc5",
      "blobGasPrice": "0xc35562913be8a4feb8",
      "from": "0xf39fd6e51aad88f6f4ce6ab8827279cfffb92266",
      "to": "0xdaf5f4b3485b781b0416e724286a3d76d0be06b3",
      "contractAddress": null
    },
    {
      "status": "0x1",
      "cumulativeGasUsed": "0x26d4b",
      "logs": [
        {
          "address": "0xdaf5f4b3485b781b0416e724286a3d76d0be06b3",
          "topics": [
            "0x59a8234668400022511cf16e138a5c22aaa48172d517061c02d974583218c2a5",
            "0x0000000000000000000000006b175474e89094c44da98b954eedeac495271d0f"
          ],
          "data": "0x0000000000000000000000000000000000000000000000000000000000000001",
          "blockHash": "0x8d6c24a40ffa8391594d2d4504d57313f0447aeeaca8f044f6250d46e49840d2",
          "blockNumber": "0x1717a2f",
          "blockTimestamp": "0x696410e4",
          "transactionHash": "0x3b1f43fb2747873d6d5ab316fddcc77fc35e3e475591a94b4811158ea44dfcf3",
          "transactionIndex": "0x2",
          "logIndex": "0x2",
          "removed": false
        }
      ],
      "logsBloom": "0x00000000000000000000000000000000000000000000000000000000000000000008000000000000000000000000000000000000000000000000000000000000000000000000000000000001000000000000000000000000000000000000000000000000000000000000000400000000000000000000000000000000000000200000000000000100000000000000000000000000000000000000000400000000000000000000000000000000000000000000000000000000000200000000000000000000000000000000000000000004000000000000000000000000000000000000000000000000000000000000000000000000000000100000000000000000",
      "type": "0x2",
      "transactionHash": "0x3b1f43fb2747873d6d5ab316fddcc77fc35e3e475591a94b4811158ea44dfcf3",
      "transactionIndex": "0x2",
      "blockHash": "0x8d6c24a40ffa8391594d2d4504d57313f0447aeeaca8f044f6250d46e49840d2",
      "blockNumber": "0x1717a2f",
      "gasUsed": "0xcf19",
      "effectiveGasPrice": "0x898bc5",
      "blobGasPrice": "0xc35562913be8a4feb8",
      "from": "0xf39fd6e51aad88f6f4ce6ab8827279cfffb92266",
      "to": "0xdaf5f4b3485b781b0416e724286a3d76d0be06b3",
      "contractAddress": null
    },
    {
      "status": "0x1",
      "cumulativeGasUsed": "0x33c64",
      "logs": [
        {
          "address": "0xdaf5f4b3485b781b0416e724286a3d76d0be06b3",
          "topics": [
            "0x59a8234668400022511cf16e138a5c22aaa48172d517061c02d974583218c2a5",
            "0x000000000000000000000000c02aaa39b223fe8d0a0e5c4f27ead9083c756cc2"
          ],
          "data": "0x0000000000000000000000000000000000000000000000000000000000000001",
          "blockHash": "0x8d6c24a40ffa8391594d2d4504d57313f0447aeeaca8f044f6250d46e49840d2",
          "blockNumber": "0x1717a2f",
          "blockTimestamp": "0x696410e4",
          "transactionHash": "0x9f2111a07a3d7193c7ee5e156b8f644371c1158f2d7d42dbbfbf3ff32aecf613",
          "transactionIndex": "0x3",
          "logIndex": "0x3",
          "removed": false
        }
      ],
      "logsBloom": "0x00000000000000000000000000000000000000000000000000000000000000000008000000000000000000000000000000000000000000000000000000000000000000000000000000000001000000800000000000000000000000000000000000000000000000000000000400000000000000000000000000000000000000000000000000000100000000400000000000000000000000000000000000000000000000000000000000000000000000000000000000000000000200000000000000000000000000000000000000080004000000000000000000000000000000000000000000000000000000000000000000000000000000000000000000000000",
      "type": "0x2",
      "transactionHash": "0x9f2111a07a3d7193c7ee5e156b8f644371c1158f2d7d42dbbfbf3ff32aecf613",
      "transactionIndex": "0x3",
      "blockHash": "0x8d6c24a40ffa8391594d2d4504d57313f0447aeeaca8f044f6250d46e49840d2",
      "blockNumber": "0x1717a2f",
      "gasUsed": "0xcf19",
      "effectiveGasPrice": "0x898bc5",
      "blobGasPrice": "0xc35562913be8a4feb8",
      "from": "0xf39fd6e51aad88f6f4ce6ab8827279cfffb92266",
      "to": "0xdaf5f4b3485b781b0416e724286a3d76d0be06b3",
      "contractAddress": null
    }
  ],
  "libraries": [],
  "pending": [],
  "returns": {},
  "timestamp": 1768165613858,
  "chain": 1,
  "commit": "e585832"
}