{
  "transactions": [
    {
      "hash": "0xe1dd5aa89b818b01dfdc6111dc5d1841fcd1f721b3bf6034c241adf61b8905c8",
      "transactionType": "CALL",
      "contractName": null,
      "contractAddress": "0x190b7e66447633d1b75204f19c4d953e0b836c1b",
      "function": "approveAdapter(address)",
      "arguments": [
        "0x49Cf40BEe86Ab8bD080eE7918eD1d2D26DCF4c8b"
      ],
      "transaction": {
        "from": "0xf39fd6e51aad88f6f4ce6ab8827279cfffb92266",
        "to": "0x190b7e66447633d1b75204f19c4d953e0b836c1b",
        "gas": "0x11dcf",
        "value": "0x0",
        "input": "0xc0e2ffc400000000000000000000000049cf40bee86ab8bd080ee7918ed1d2d26dcf4c8b",
        "nonce": "0x113a",
        "chainId": "0x1"
      },
      "additionalContracts": [],
      "isFixedGasLimit": false
    },
    {
      "hash": "0x6f8c79ac8f0654f93da59124720748f4c1a4aab9192351ef4c09b7eaa7bf2dc1",
      "transactionType": "CALL",
      "contractName": null,
      "contractAddress": "0x190b7e66447633d1b75204f19c4d953e0b836c1b",
      "function": "approveAdapter(address)",
      "arguments": [
        "0x0d0F9C2E2097e7dC1443Bb47e3fF4b8D4c67AdE5"
      ],
      "transaction": {
        "from": "0xf39fd6e51aad88f6f4ce6ab8827279cfffb92266",
        "to": "0x190b7e66447633d1b75204f19c4d953e0b836c1b",
        "gas": "0x11dcf",
        "value": "0x0",
        "input": "0xc0e2ffc40000000000000000000000000d0f9c2e2097e7dc1443bb47e3ff4b8d4c67ade5",
        "nonce": "0x113b",
        "chainId": "0x1"
      },
      "additionalContracts": [],
      "isFixedGasLimit": false
    },
    {
      "hash": "0x09aabd7c62f5ce5d6226d8627c42719a8f93f80703a41806384d00a4df763a79",
      "transactionType": "CALL",
      "contractName": null,
      "contractAddress": "0x190b7e66447633d1b75204f19c4d953e0b836c1b",
      "function": "approveQuoteToken(address)",
      "arguments": [
        "0xA0b86991c6218b36c1d19D4a2e9Eb0cE3606eB48"
      ],
      "transaction": {
        "from": "0xf39fd6e51aad88f6f4ce6ab8827279cfffb92266",
        "to": "0x190b7e66447633d1b75204f19c4d953e0b836c1b",
        "gas": "0x12ee1",
        "value": "0x0",
        "input": "0xc614ee3b000000000000000000000000a0b86991c6218b36c1d19d4a2e9eb0ce3606eb48",
        "nonce": "0x113c",
        "chainId": "0x1"
      },
      "additionalContracts": [],
      "isFixedGasLimit": false
    },
    {
      "hash": "0xa04c41c1d01cdd92daa07d8324ec20ab971e65f3ffcdbf6be72373ae556fe198",
      "transactionType": "CALL",
      "contractName": null,
      "contractAddress": "0x190b7e66447633d1b75204f19c4d953e0b836c1b",
      "function": "approveQuoteToken(address)",
      "arguments": [
        "0xdAC17F958D2ee523a2206206994597C13D831ec7"
      ],
      "transaction": {
        "from": "0xf39fd6e51aad88f6f4ce6ab8827279cfffb92266",
        "to": "0x190b7e66447633d1b75204f19c4d953e0b836c1b",
        "gas": "0x12ee1",
        "value": "0x0",
        "input": "0xc614ee3b000000000000000000000000dac17f958d2ee523a2206206994597c13d831ec7",
        "nonce": "0x113d",
        "chainId": "0x1"
      },
      "additionalContracts": [],
      "isFixedGasLimit": false
    },
    {
      "hash": "0x2e587ee75ae93a53f5eb623992b658de7c484fd10b733dc24e7e472d8d688e62",
      "transactionType": "CALL",
      "contractName": null,
      "contractAddress": "0x190b7e66447633d1b75204f19c4d953e0b836c1b",
      "function": "approveQuoteToken(address)",
      "arguments": [
        "0x6B175474E89094C44Da98b954EedeAC495271d0F"
      ],
      "transaction": {
        "from": "0xf39fd6e51aad88f6f4ce6ab8827279cfffb92266",
        "to": "0x190b7e66447633d1b75204f19c4d953e0b836c1b",
        "gas": "0x12ee1",
        "value": "0x0",
        "input": "0xc614ee3b0000000000000000000000006b175474e89094c44da98b954eedeac495271d0f",
        "nonce": "0x113e",
        "chainId": "0x1"
      },
      "additionalContracts": [],
      "isFixedGasLimit": false
    },
    {
      "hash": "0x1ff04cf9b32dc7d1f170864522458833357b1082e473d3cf2397ea62f545dcdd",
      "transactionType": "CALL",
      "contractName": null,
      "contractAddress": "0x190b7e66447633d1b75204f19c4d953e0b836c1b",
      "function": "approveQuoteToken(address)",
      "arguments": [
        "0xC02aaA39b223FE8D0A0e5C4F27eAD9083C756Cc2"
      ],
      "transaction": {
        "from": "0xf39fd6e51aad88f6f4ce6ab8827279cfffb92266",
        "to": "0x190b7e66447633d1b75204f19c4d953e0b836c1b",
        "gas": "0x12ee1",
        "value": "0x0",
        "input": "0xc614ee3b000000000000000000000000c02aaa39b223fe8d0a0e5c4f27ead9083c756cc2",
        "nonce": "0x113f",
        "chainId": "0x1"
      },
      "additionalContracts": [],
      "isFixedGasLimit": false
    }
  ],
  "receipts": [
    {
      "status": "0x1",
      "cumulativeGasUsed": "0xceed",
      "logs": [
        {
          "address": "0x190b7e66447633d1b75204f19c4d953e0b836c1b",
          "topics": [
            "0x32e0703508c4ea098d1b9450c6834e4dcddff8b234d85df988e711ab1095f0d4",
            "0x00000000000000000000000049cf40bee86ab8bd080ee7918ed1d2d26dcf4c8b"
          ],
          "data": "0x0000000000000000000000000000000000000000000000000000000000000001",
          "blockHash": "0x581bfda83233187c0bcf378f9d2c49577ed464f57b35a4d51b206dad14639c67",
          "blockNumber": "0x1713b27",
          "blockTimestamp": "0x69611aad",
          "transactionHash": "0xe1dd5aa89b818b01dfdc6111dc5d1841fcd1f721b3bf6034c241adf61b8905c8",
          "transactionIndex": "0x0",
          "logIndex": "0x0",
          "removed": false
        }
      ],
      "logsBloom": "0x00000000000000000000000000000000000000000000000000000000000000100080000200000000000000000000000000000000000000000000000000000000000000000000000000000000000000800000000000000000000000000000000000000000000000000000000000000000000000000000000000000000000000000000000000000000000000002000000000000000000000000000000000000000000000000000000000000100000000000000000000000000000000000000000000000000000000000000000000000000000000001000000000000000000000000000000000000000000000010000000000000000000000000000000020000000",
      "type": "0x2",
      "transactionHash": "0xe1dd5aa89b818b01dfdc6111dc5d1841fcd1f721b3bf6034c241adf61b8905c8",
      "transactionIndex": "0x0",
      "blockHash": "0x581bfda83233187c0bcf378f9d2c49577ed464f57b35a4d51b206dad14639c67",
      "blockNumber": "0x1713b27",
      "gasUsed": "0xceed",
      "effectiveGasPrice": "0x63a2699",
      "blobGasPrice": "0x1a8f5413cb3684a264c75",
      "from": "0xf39fd6e51aad88f6f4ce6ab8827279cfffb92266",
      "to": "0x190b7e66447633d1b75204f19c4d953e0b836c1b",
      "contractAddress": null
    },
    {
      "status": "0x1",
      "cumulativeGasUsed": "0xceed",
      "logs": [
        {
          "address": "0x190b7e66447633d1b75204f19c4d953e0b836c1b",
          "topics": [
            "0x32e0703508c4ea098d1b9450c6834e4dcddff8b234d85df988e711ab1095f0d4",
            "0x0000000000000000000000000d0f9c2e2097e7dc1443bb47e3ff4b8d4c67ade5"
          ],
          "data": "0x0000000000000000000000000000000000000000000000000000000000000001",
          "blockHash": "0x41b53d549a14672680acd539b3e74023afca8f5df5393ae8358739cf78fa0964",
          "blockNumber": "0x1713b28",
          "blockTimestamp": "0x69611aad",
          "transactionHash": "0x6f8c79ac8f0654f93da59124720748f4c1a4aab9192351ef4c09b7eaa7bf2dc1",
          "transactionIndex": "0x0",
          "logIndex": "0x0",
          "removed": false
        }
      ],
      "logsBloom": "0x40000000000000000000000000000000000000000000000000000000000000100080000200000000000000000000000000000000000000000000000000000000000000000000000000000000000000000000000000000000000000000000000000000000000000000000000000000000000000000000000000000000000000000000000400000000000000002000000000000000000000000000000000000000000000000000000000000100000000000000000000000000000000000000000000000000000000200000000000000000000000000000000000000000000000000000000000000000000000010000000000000000000000000000000000000000",
      "type": "0x2",
      "transactionHash": "0x6f8c79ac8f0654f93da59124720748f4c1a4aab9192351ef4c09b7eaa7bf2dc1",
      "transactionIndex": "0x0",
      "blockHash": "0x41b53d549a14672680acd539b3e74023afca8f5df5393ae8358739cf78fa0964",
      "blockNumber": "0x1713b28",
      "gasUsed": "0xceed",
      "effectiveGasPrice": "0x5733cb4",
      "blobGasPrice": "0x179bd8efdb6749c0790f8",
      "from": "0xf39fd6e51aad88f6f4ce6ab8827279cfffb92266",
      "to": "0x190b7e66447633d1b75204f19c4d953e0b836c1b",
      "contractAddress": null
    },
    {
      "status": "0x1",
      "cumulativeGasUsed": "0x19e06",
      "logs": [
        {
          "address": "0x190b7e66447633d1b75204f19c4d953e0b836c1b",
          "topics": [
            "0x59a8234668400022511cf16e138a5c22aaa48172d517061c02d974583218c2a5",
            "0x000000000000000000000000a0b86991c6218b36c1d19d4a2e9eb0ce3606eb48"
          ],
          "data": "0x0000000000000000000000000000000000000000000000000000000000000001",
          "blockHash": "0x41b53d549a14672680acd539b3e74023afca8f5df5393ae8358739cf78fa0964",
          "blockNumber": "0x1713b28",
          "blockTimestamp": "0x69611aad",
          "transactionHash": "0x09aabd7c62f5ce5d6226d8627c42719a8f93f80703a41806384d00a4df763a79",
          "transactionIndex": "0x1",
          "logIndex": "0x1",
          "removed": false
        }
      ],
      "logsBloom": "0x00000000000000000000000000000000000000000000000000000000000000100000000000000000000002000000000000000000000000000000000000000000000000000000000000000000000000000000000000000000000000000000000000000000000000000000000400000000000000000000000000000000000000000000000000000000000000002000000200000000000000000000000000000000000000000000000000000000000000000000000000000000000200000000000000000000000000000000000000000004000000000000000000000000000000000000000000000000000000010000000004000000000000000000000000000000",
      "type": "0x2",
      "transactionHash": "0x09aabd7c62f5ce5d6226d8627c42719a8f93f80703a41806384d00a4df763a79",
      "transactionIndex": "0x1",
      "blockHash": "0x41b53d549a14672680acd539b3e74023afca8f5df5393ae8358739cf78fa0964",
      "blockNumber": "0x1713b28",
      "gasUsed": "0xcf19",
      "effectiveGasPrice": "0x5733cb4",
      "blobGasPrice": "0x179bd8efdb6749c0790f8",
      "from": "0xf39fd6e51aad88f6f4ce6ab8827279cfffb92266",
      "to": "0x190b7e66447633d1b75204f19c4d953e0b836c1b",
      "contractAddress": null
    },
    {
      "status": "0x1",
      "cumulativeGasUsed": "0x26d1f",
      "logs": [
        {
          "address": "0x190b7e66447633d1b75204f19c4d953e0b836c1b",
          "topics": [
            "0x59a8234668400022511cf16e138a5c22aaa48172d517061c02d974583218c2a5",
            "0x000000000000000000000000dac17f958d2ee523a2206206994597c13d831ec7"
          ],
          "data": "0x0000000000000000000000000000000000000000000000000000000000000001",
          "blockHash": "0x41b53d549a14672680acd539b3e74023afca8f5df5393ae8358739cf78fa0964",
          "blockNumber": "0x1713b28",
          "blockTimestamp": "0x69611aad",
          "transactionHash": "0xa04c41c1d01cdd92daa07d8324ec20ab971e65f3ffcdbf6be72373ae556fe198",
          "transactionIndex": "0x2",
          "logIndex": "0x2",
          "removed": false
        }
      ],
      "logsBloom": "0x00000000000000000000000000000000000000000000000000000000000000100000000000000000000000000000000000000000000000000000000000000000000000000000000000000000000000000000000000000000000000000000000000000000000000000000000400000000000000200000000000000000000000000000000000000000000000002000000000000000000000000000000000000000000000000000000000000000000000000000000000000000000200000000004000000000000000000000000000000004000000020000000000000000000000000000000000000000000000010000000000000000000000000000000000000000",
      "type": "0x2",
      "transactionHash": "0xa04c41c1d01cdd92daa07d8324ec20ab971e65f3ffcdbf6be72373ae556fe198",
      "transactionIndex": "0x2",
      "blockHash": "0x41b53d549a14672680acd539b3e74023afca8f5df5393ae8358739cf78fa0964",
      "blockNumber": "0x1713b28",
      "gasUsed": "0xcf19",
      "effectiveGasPrice": "0x5733cb4",
      "blobGasPrice": "0x179bd8efdb6749c0790f8",
      "from": "0xf39fd6e51aad88f6f4ce6ab8827279cfffb92266",
      "to": "0x190b7e66447633d1b75204f19c4d953e0b836c1b",
      "contractAddress": null
    },
    {
      "status": "0x1",
      "cumulativeGasUsed": "0xcf19",
      "logs": [
        {
          "address": "0x190b7e66447633d1b75204f19c4d953e0b836c1b",
          "topics": [
            "0x59a8234668400022511cf16e138a5c22aaa48172d517061c02d974583218c2a5",
            "0x0000000000000000000000006b175474e89094c44da98b954eedeac495271d0f"
          ],
          "data": "0x0000000000000000000000000000000000000000000000000000000000000001",
          "blockHash": "0x93933992135cd5d422c2105679824176c55256f643b793dd2f6f685f76be24d8",
          "blockNumber": "0x1713b29",
          "blockTimestamp": "0x69611aad",
          "transactionHash": "0x2e587ee75ae93a53f5eb623992b658de7c484fd10b733dc24e7e472d8d688e62",
          "transactionIndex": "0x0",
          "logIndex": "0x0",
          "removed": false
        }
      ],
      "logsBloom": "0x00000000000000000000000000000000000000000000000000000000000000100000000000000000000000000000000000000000000000000000000000000000000000000000000000000000000000000000000000000000000000000000000000000000000000000000000400000000000000000000000000000000000000200000000000000000000000002000000000000000000000000000000400000000000000000000000000000000000000000000000000000000000200000000000000000000000000000000000000000004000000000000000000000000000000000000000000000000000000010000000000000000000000100000000000000000",
      "type": "0x2",
      "transactionHash": "0x2e587ee75ae93a53f5eb623992b658de7c484fd10b733dc24e7e472d8d688e62",
      "transactionIndex": "0x0",
      "blockHash": "0x93933992135cd5d422c2105679824176c55256f643b793dd2f6f685f76be24d8",
      "blockNumber": "0x1713b29",
      "gasUsed": "0xcf19",
      "effectiveGasPrice": "0x4c5c29c",
      "blobGasPrice": "0x14fc4f0972c738eca00a1",
      "from": "0xf39fd6e51aad88f6f4ce6ab8827279cfffb92266",
      "to": "0x190b7e66447633d1b75204f19c4d953e0b836c1b",
      "contractAddress": null
    },
    {
      "status": "0x1",
      "cumulativeGasUsed": "0x19e32",
      "logs": [
        {
          "address": "0x190b7e66447633d1b75204f19c4d953e0b836c1b",
          "topics": [
            "0x59a8234668400022511cf16e138a5c22aaa48172d517061c02d974583218c2a5",
            "0x000000000000000000000000c02aaa39b223fe8d0a0e5c4f27ead9083c756cc2"
          ],
          "data": "0x0000000000000000000000000000000000000000000000000000000000000001",
          "blockHash": "0x93933992135cd5d422c2105679824176c55256f643b793dd2f6f685f76be24d8",
          "blockNumber": "0x1713b29",
          "blockTimestamp": "0x69611aad",
          "transactionHash": "0x1ff04cf9b32dc7d1f170864522458833357b1082e473d3cf2397ea62f545dcdd",
          "transactionIndex": "0x1",
          "logIndex": "0x1",
          "removed": false
        }
      ],
      "logsBloom": "0x00000000000000000000000000000000000000000000000000000000000000100000000000000000000000000000000000000000000000000000000000000000000000000000000000000000000000800000000000000000000000000000000000000000000000000000000400000000000000000000000000000000000000000000000000000000000000402000000000000000000000000000000000000000000000000000000000000000000000000000000000000000000200000000000000000000000000000000000000080004000000000000000000000000000000000000000000000000000000010000000000000000000000000000000000000000",
      "type": "0x2",
      "transactionHash": "0x1ff04cf9b32dc7d1f170864522458833357b1082e473d3cf2397ea62f545dcdd",
      "transactionIndex": "0x1",
      "blockHash": "0x93933992135cd5d422c2105679824176c55256f643b793dd2f6f685f76be24d8",
      "blockNumber": "0x1713b29",
      "gasUsed": "0xcf19",
      "effectiveGasPrice": "0x4c5c29c",
      "blobGasPrice": "0x14fc4f0972c738eca00a1",
      "from": "0xf39fd6e51aad88f6f4ce6ab8827279cfffb92266",
      "to": "0x190b7e66447633d1b75204f19c4d953e0b836c1b",
      "contractAddress": null
    }
  ],
  "libraries": [],
  "pending": [],
  "returns": {},
  "timestamp": 1767971512193,
  "chain": 1,
  "commit": "09d5d96"
}