{
  "transactions": [
    {
      "hash": "0xec80c97d871d8e6f141e298944461a0f8ca8d609ed11682fea00888136a2a4e6",
      "transactionType": "CALL",
      "contractName": null,
      "contractAddress": "0x2867579f704bdc9eb4a777b55d10eb7f865dc96d",
      "function": "approveQuoteToken(address)",
      "arguments": [
        "0xaf88d065e77c8cC2239327C5EDb3A432268e5831"
      ],
      "transaction": {
        "from": "0xf39fd6e51aad88f6f4ce6ab8827279cfffb92266",
        "to": "0x2867579f704bdc9eb4a777b55d10eb7f865dc96d",
        "gas": "0x10f39",
        "value": "0x0",
        "input": "0xc614ee3b000000000000000000000000af88d065e77c8cc2239327c5edb3a432268e5831",
        "nonce": "0x37b4",
        "chainId": "0xa4b1"
      },
      "additionalContracts": [],
      "isFixedGasLimit": false
    },
    {
      "hash": "0x2b12e0c0343faaa7ff14b3f62efee7bcf04b3a358861e6b6e2dfa79cd769d62f",
      "transactionType": "CALL",
      "contractName": null,
      "contractAddress": "0x2867579f704bdc9eb4a777b55d10eb7f865dc96d",
      "function": "approveQuoteToken(address)",
      "arguments": [
        "0xFd086bC7CD5C481DCC9C85ebE478A1C0b69FCbb9"
      ],
      "transaction": {
        "from": "0xf39fd6e51aad88f6f4ce6ab8827279cfffb92266",
        "to": "0x2867579f704bdc9eb4a777b55d10eb7f865dc96d",
        "gas": "0x12ee1",
        "value": "0x0",
        "input": "0xc614ee3b000000000000000000000000fd086bc7cd5c481dcc9c85ebe478a1c0b69fcbb9",
        "nonce": "0x37b5",
        "chainId": "0xa4b1"
      },
      "additionalContracts": [],
      "isFixedGasLimit": false
    },
    {
      "hash": "0xa8ecb11175a1c9c61b3c3b67cf87a86e3d5e284ba9c1c9c63c03eab0495ace04",
      "transactionType": "CALL",
      "contractName": null,
      "contractAddress": "0x2867579f704bdc9eb4a777b55d10eb7f865dc96d",
      "function": "approveQuoteToken(address)",
      "arguments": [
        "0x82aF49447D8a07e3bd95BD0d56f35241523fBab1"
      ],
      "transaction": {
        "from": "0xf39fd6e51aad88f6f4ce6ab8827279cfffb92266",
        "to": "0x2867579f704bdc9eb4a777b55d10eb7f865dc96d",
        "gas": "0x12ee1",
        "value": "0x0",
        "input": "0xc614ee3b00000000000000000000000082af49447d8a07e3bd95bd0d56f35241523fbab1",
        "nonce": "0x37b6",
        "chainId": "0xa4b1"
      },
      "additionalContracts": [],
      "isFixedGasLimit": false
    }
  ],
  "receipts": [
    {
      "status": "0x1",
      "cumulativeGasUsed": "0xcf19",
      "logs": [
        {
          "address": "0x2867579f704bdc9eb4a777b55d10eb7f865dc96d",
          "topics": [
            "0x59a8234668400022511cf16e138a5c22aaa48172d517061c02d974583218c2a5",
            "0x000000000000000000000000af88d065e77c8cc2239327c5edb3a432268e5831"
          ],
          "data": "0x0000000000000000000000000000000000000000000000000000000000000001",
          "blockHash": "0x8b022d39fab7c2a76e7644b99cdc84355cbe9ee3fd20202fc233e987e7848279",
          "blockNumber": "0x18f4460c",
          "blockTimestamp": "0x695d9b46",
          "transactionHash": "0xec80c97d871d8e6f141e298944461a0f8ca8d609ed11682fea00888136a2a4e6",
          "transactionIndex": "0x0",
          "logIndex": "0x0",
          "removed": false
        }
      ],
      "logsBloom": "0x00000000000000000000000000000000000000000000000000000000000000000000000000000000100000000000000000000000000000000000000000000000000000000000000000000000000000000000000000000000000000000000000000000000000000000000000c02000000000000000000000000000000000000000000000000000000000000000000000000000000000000000000000000000000000000000004000000000000000000000000000000000000000200000400000000000000000000000000000000000004000000000000000000000000000000000000000000000000000000000000000000000000002000000000000000000000",
      "type": "0x2",
      "transactionHash": "0xec80c97d871d8e6f141e298944461a0f8ca8d609ed11682fea00888136a2a4e6",
      "transactionIndex": "0x0",
      "blockHash": "0x8b022d39fab7c2a76e7644b99cdc84355cbe9ee3fd20202fc233e987e7848279",
      "blockNumber": "0x18f4460c",
      "gasUsed": "0xcf19",
      "effectiveGasPrice": "0x93d8d",
      "blobGasPrice": "0x1",
      "from": "0xf39fd6e51aad88f6f4ce6ab8827279cfffb92266",
      "to": "0x2867579f704bdc9eb4a777b55d10eb7f865dc96d",
      "contractAddress": null
    },
    {
      "status": "0x1",
      "cumulativeGasUsed": "0xcf19",
      "logs": [
        {
          "address": "0x2867579f704bdc9eb4a777b55d10eb7f865dc96d",
          "topics": [
            "0x59a8234668400022511cf16e138a5c22aaa48172d517061c02d974583218c2a5",
            "0x000000000000000000000000fd086bc7cd5c481dcc9c85ebe478a1c0b69fcbb9"
          ],
          "data": "0x0000000000000000000000000000000000000000000000000000000000000001",
          "blockHash": "0xf337f4ea2f758f79a07b99862960f295bd97b345aa17b2cef216713691044d60",
          "blockNumber": "0x18f4460d",
          "blockTimestamp": "0x695d9b46",
          "transactionHash": "0x2b12e0c0343faaa7ff14b3f62efee7bcf04b3a358861e6b6e2dfa79cd769d62f",
          "transactionIndex": "0x0",
          "logIndex": "0x0",
          "removed": false
        }
      ],
      "logsBloom": "0x00000000000000000000000000000000000000000000000000000000000000000000000000000000000000000000000000000000000000000000000000000000000000000000000000000000000000000000000000000000004000000000000000000000000000000000000c02000000000000000000000000000000000000000000000000000000000000000000000000000000000000000000000000000000000000000004000000000000000000000000000000000000000200000000000000000000000000000000000000000004000000000000200000000000000000000000000000000000000000000000000000000000000000000000080000000000",
      "type": "0x2",
      "transactionHash": "0x2b12e0c0343faaa7ff14b3f62efee7bcf04b3a358861e6b6e2dfa79cd769d62f",
      "transactionIndex": "0x0",
      "blockHash": "0xf337f4ea2f758f79a07b99862960f295bd97b345aa17b2cef216713691044d60",
      "blockNumber": "0x18f4460d",
      "gasUsed": "0xcf19",
      "effectiveGasPrice": "0x815dc",
      "blobGasPrice": "0x1",
      "from": "0xf39fd6e51aad88f6f4ce6ab8827279cfffb92266",
      "to": "0x2867579f704bdc9eb4a777b55d10eb7f865dc96d",
      "contractAddress": null
    },
    {
      "status": "0x1",
      "cumulativeGasUsed": "0xcf19",
      "logs": [
        {
          "address": "0x2867579f704bdc9eb4a777b55d10eb7f865dc96d",
          "topics": [
            "0x59a8234668400022511cf16e138a5c22aaa48172d517061c02d974583218c2a5",
            "0x00000000000000000000000082af49447d8a07e3bd95bd0d56f35241523fbab1"
          ],
          "data": "0x0000000000000000000000000000000000000000000000000000000000000001",
          "blockHash": "0xb775820a91e031a2e72750b9db211e1e4f73cf7691404dded13636864b4e828b",
          "blockNumber": "0x18f4460e",
          "blockTimestamp": "0x695d9b46",
          "transactionHash": "0xa8ecb11175a1c9c61b3c3b67cf87a86e3d5e284ba9c1c9c63c03eab0495ace04",
          "transactionIndex": "0x0",
          "logIndex": "0x0",
          "removed": false
        }
      ],
      "logsBloom": "0x00000000000000000000000000000000000000000000000000000000000000000000000000000000000000000000000000000000000000000000000000000000000000000000000000000000000000010000000000000000000000000000000000000000000000000000000c02000000000000000000000000000000000000000000000000000000000000000000000000000000000000000000000000000000000000000004000000000000000000000000000000000000000200000000000000000000000000000000000000000004000000000000000000000000000000000000000000000000020000000000000000000000000000800000000000000000",
      "type": "0x2",
      "transactionHash": "0xa8ecb11175a1c9c61b3c3b67cf87a86e3d5e284ba9c1c9c63c03eab0495ace04",
      "transactionIndex": "0x0",
      "blockHash": "0xb775820a91e031a2e72750b9db211e1e4f73cf7691404dded13636864b4e828b",
      "blockNumber": "0x18f4460e",
      "gasUsed": "0xcf19",
      "effectiveGasPrice": "0x71321",
      "blobGasPrice": "0x1",
      "from": "0xf39fd6e51aad88f6f4ce6ab8827279cfffb92266",
      "to": "0x2867579f704bdc9eb4a777b55d10eb7f865dc96d",
      "contractAddress": null
    }
  ],
  "libraries": [],
  "pending": [],
  "returns": {},
  "timestamp": 1767742278957,
  "chain": 42161,
  "commit": "6e4cde3"
}