{
  "transactions": [
    {
      "hash": "0x9937bd3e36f8845e6032d4698ea1f958379d0e674bd6679bee41e77e86222c28",
      "transactionType": "CALL",
      "contractName": null,
      "contractAddress": "0x2867579f704bdc9eb4a777b55d10eb7f865dc96d",
      "function": "approveAdapter(address)",
      "arguments": [
        "0x0d0F9C2E2097e7dC1443Bb47e3fF4b8D4c67AdE5"
      ],
      "transaction": {
        "from": "0xf39fd6e51aad88f6f4ce6ab8827279cfffb92266",
        "to": "0x2867579f704bdc9eb4a777b55d10eb7f865dc96d",
        "gas": "0x10efe",
        "value": "0x0",
        "input": "0xc0e2ffc40000000000000000000000000d0f9c2e2097e7dc1443bb47e3ff4b8d4c67ade5",
        "nonce": "0x37b2",
        "chainId": "0xa4b1"
      },
      "additionalContracts": [],
      "isFixedGasLimit": false
    },
    {
      "hash": "0x83c5a192d8cd730927fa929e898ad5ff186502b9e8563be6fd76270cf6f7149c",
      "transactionType": "CALL",
      "contractName": null,
      "contractAddress": "0x2867579f704bdc9eb4a777b55d10eb7f865dc96d",
      "function": "approveQuoteToken(address)",
      "arguments": [
        "0xaf88d065e77c8cC2239327C5EDb3A432268e5831"
      ],
      "transaction": {
        "from": "0xf39fd6e51aad88f6f4ce6ab8827279cfffb92266",
        "to": "0x2867579f704bdc9eb4a777b55d10eb7f865dc96d",
        "gas": "0x12ee1",
        "value": "0x0",
        "input": "0xc614ee3b000000000000000000000000af88d065e77c8cc2239327c5edb3a432268e5831",
        "nonce": "0x37b3",
        "chainId": "0xa4b1"
      },
      "additionalContracts": [],
      "isFixedGasLimit": false
    },
    {
      "hash": "0x1881b0b041ba6be41951da114f17ad838f89090517ed0b69a3113089aa2abeb0",
      "transactionType": "CALL",
      "contractName": null,
      "contractAddress": "0x2867579f704bdc9eb4a777b55d10eb7f865dc96d",
      "function": "approveQuoteToken(address)",
      "arguments": [
        "0xFd086bC7CD5C481DCC9C85ebE478A1C0b69FCbb9"
      ],
      "transaction": {
        "from": "0xf39fd6e51aad88f6f4ce6ab8827279cfffb92266",
        "to": "0x2867579f704bdc9eb4a777b55d10eb7f865dc96d",
        "gas": "0x12ee1",
        "value": "0x0",
        "input": "0xc614ee3b000000000000000000000000fd086bc7cd5c481dcc9c85ebe478a1c0b69fcbb9",
        "nonce": "0x37b4",
        "chainId": "0xa4b1"
      },
      "additionalContracts": [],
      "isFixedGasLimit": false
    },
    {
      "hash": "0x9c898eb6444e0a4c640d05a129bd4cb6cc71b6327a5c9ac49f8e715700fa9e38",
      "transactionType": "CALL",
      "contractName": null,
      "contractAddress": "0x2867579f704bdc9eb4a777b55d10eb7f865dc96d",
      "function": "approveQuoteToken(address)",
      "arguments": [
        "0x82aF49447D8a07e3bd95BD0d56f35241523fBab1"
      ],
      "transaction": {
        "from": "0xf39fd6e51aad88f6f4ce6ab8827279cfffb92266",
        "to": "0x2867579f704bdc9eb4a777b55d10eb7f865dc96d",
        "gas": "0x12ee1",
        "value": "0x0",
        "input": "0xc614ee3b00000000000000000000000082af49447d8a07e3bd95bd0d56f35241523fbab1",
        "nonce": "0x37b5",
        "chainId": "0xa4b1"
      },
      "additionalContracts": [],
      "isFixedGasLimit": false
    }
  ],
  "receipts": [
    {
      "status": "0x1",
      "cumulativeGasUsed": "0xceed",
      "logs": [
        {
          "address": "0x2867579f704bdc9eb4a777b55d10eb7f865dc96d",
          "topics": [
            "0x32e0703508c4ea098d1b9450c6834e4dcddff8b234d85df988e711ab1095f0d4",
            "0x0000000000000000000000000d0f9c2e2097e7dc1443bb47e3ff4b8d4c67ade5"
          ],
          "data": "0x0000000000000000000000000000000000000000000000000000000000000001",
          "blockHash": "0x40866d5d1244526e04f1ecbac1d37ea5813b6253e408bb21342e7facf0b30a13",
          "blockNumber": "0x18f7ea0b",
          "blockTimestamp": "0x695e8492",
          "transactionHash": "0x9937bd3e36f8845e6032d4698ea1f958379d0e674bd6679bee41e77e86222c28",
          "transactionIndex": "0x0",
          "logIndex": "0x0",
          "removed": false
        }
      ],
      "logsBloom": "0x40000000000000000000000000000000000000000000000000000000000000000080000200000000000000000000000000000000000000000000000000000000000000000000000000000000000000000000000000000000000000000000000000000000000000000000000802000000000000000000000000000000000000000000000400000000000000000000000000000000000000000000000000000000000000000004000000000100000000000000000000000000000000000000000000000000000000200000000000000000000000000000000000000000000000000000000000000000000000000000000000000000000000000000000000000000",
      "type": "0x2",
      "transactionHash": "0x9937bd3e36f8845e6032d4698ea1f958379d0e674bd6679bee41e77e86222c28",
      "transactionIndex": "0x0",
      "blockHash": "0x40866d5d1244526e04f1ecbac1d37ea5813b6253e408bb21342e7facf0b30a13",
      "blockNumber": "0x18f7ea0b",
      "gasUsed": "0xceed",
      "effectiveGasPrice": "0xc11b2",
      "blobGasPrice": "0x1",
      "from": "0xf39fd6e51aad88f6f4ce6ab8827279cfffb92266",
      "to": "0x2867579f704bdc9eb4a777b55d10eb7f865dc96d",
      "contractAddress": null
    },
    {
      "status": "0x1",
      "cumulativeGasUsed": "0xcf19",
      "logs": [
        {
          "address": "0x2867579f704bdc9eb4a777b55d10eb7f865dc96d",
          "topics": [
            "0x59a8234668400022511cf16e138a5c22aaa48172d517061c02d974583218c2a5",
            "0x000000000000000000000000af88d065e77c8cc2239327c5edb3a432268e5831"
          ],
          "data": "0x0000000000000000000000000000000000000000000000000000000000000001",
          "blockHash": "0x9700e05924986c7170a43e51413791f037796eab1c1056a58206160a82afff7c",
          "blockNumber": "0x18f7ea0c",
          "blockTimestamp": "0x695e8492",
          "transactionHash": "0x83c5a192d8cd730927fa929e898ad5ff186502b9e8563be6fd76270cf6f7149c",
          "transactionIndex": "0x0",
          "logIndex": "0x0",
          "removed": false
        }
      ],
      "logsBloom": "0x00000000000000000000000000000000000000000000000000000000000000000000000000000000100000000000000000000000000000000000000000000000000000000000000000000000000000000000000000000000000000000000000000000000000000000000000c02000000000000000000000000000000000000000000000000000000000000000000000000000000000000000000000000000000000000000004000000000000000000000000000000000000000200000400000000000000000000000000000000000004000000000000000000000000000000000000000000000000000000000000000000000000002000000000000000000000",
      "type": "0x2",
      "transactionHash": "0x83c5a192d8cd730927fa929e898ad5ff186502b9e8563be6fd76270cf6f7149c",
      "transactionIndex": "0x0",
      "blockHash": "0x9700e05924986c7170a43e51413791f037796eab1c1056a58206160a82afff7c",
      "blockNumber": "0x18f7ea0c",
      "gasUsed": "0xcf19",
      "effectiveGasPrice": "0xa8f7c",
      "blobGasPrice": "0x1",
      "from": "0xf39fd6e51aad88f6f4ce6ab8827279cfffb92266",
      "to": "0x2867579f704bdc9eb4a777b55d10eb7f865dc96d",
      "contractAddress": null
    },
    {
      "status": "0x1",
      "cumulativeGasUsed": "0xcf19",
      "logs": [
        {
          "address": "0x2867579f704bdc9eb4a777b55d10eb7f865dc96d",
          "topics": [
            "0x59a8234668400022511cf16e138a5c22aaa48172d517061c02d974583218c2a5",
            "0x000000000000000000000000fd086bc7cd5c481dcc9c85ebe478a1c0b69fcbb9"
          ],
          "data": "0x0000000000000000000000000000000000000000000000000000000000000001",
          "blockHash": "0xfd54452fe79a2e8c5f96d8b5e22434cd8f8665dc8f737f68cd923f20843d0140",
          "blockNumber": "0x18f7ea0d",
          "blockTimestamp": "0x695e8492",
          "transactionHash": "0x1881b0b041ba6be41951da114f17ad838f89090517ed0b69a3113089aa2abeb0",
          "transactionIndex": "0x0",
          "logIndex": "0x0",
          "removed": false
        }
      ],
      "logsBloom": "0x00000000000000000000000000000000000000000000000000000000000000000000000000000000000000000000000000000000000000000000000000000000000000000000000000000000000000000000000000000000004000000000000000000000000000000000000c02000000000000000000000000000000000000000000000000000000000000000000000000000000000000000000000000000000000000000004000000000000000000000000000000000000000200000000000000000000000000000000000000000004000000000000200000000000000000000000000000000000000000000000000000000000000000000000080000000000",
      "type": "0x2",
      "transactionHash": "0x1881b0b041ba6be41951da114f17ad838f89090517ed0b69a3113089aa2abeb0",
      "transactionIndex": "0x0",
      "blockHash": "0xfd54452fe79a2e8c5f96d8b5e22434cd8f8665dc8f737f68cd923f20843d0140",
      "blockNumber": "0x18f7ea0d",
      "gasUsed": "0xcf19",
      "effectiveGasPrice": "0x93d8d",
      "blobGasPrice": "0x1",
      "from": "0xf39fd6e51aad88f6f4ce6ab8827279cfffb92266",
      "to": "0x2867579f704bdc9eb4a777b55d10eb7f865dc96d",
      "contractAddress": null
    },
    {
      "status": "0x1",
      "cumulativeGasUsed": "0xcf19",
      "logs": [
        {
          "address": "0x2867579f704bdc9eb4a777b55d10eb7f865dc96d",
          "topics": [
            "0x59a8234668400022511cf16e138a5c22aaa48172d517061c02d974583218c2a5",
            "0x00000000000000000000000082af49447d8a07e3bd95bd0d56f35241523fbab1"
          ],
          "data": "0x0000000000000000000000000000000000000000000000000000000000000001",
          "blockHash": "0xb666d75b8be382d0beabdd705b30ae040b6710ba0908cc647bb10f6a5e8d9a1b",
          "blockNumber": "0x18f7ea0e",
          "blockTimestamp": "0x695e8492",
          "transactionHash": "0x9c898eb6444e0a4c640d05a129bd4cb6cc71b6327a5c9ac49f8e715700fa9e38",
          "transactionIndex": "0x0",
          "logIndex": "0x0",
          "removed": false
        }
      ],
      "logsBloom": "0x00000000000000000000000000000000000000000000000000000000000000000000000000000000000000000000000000000000000000000000000000000000000000000000000000000000000000010000000000000000000000000000000000000000000000000000000c02000000000000000000000000000000000000000000000000000000000000000000000000000000000000000000000000000000000000000004000000000000000000000000000000000000000200000000000000000000000000000000000000000004000000000000000000000000000000000000000000000000020000000000000000000000000000800000000000000000",
      "type": "0x2",
      "transactionHash": "0x9c898eb6444e0a4c640d05a129bd4cb6cc71b6327a5c9ac49f8e715700fa9e38",
      "transactionIndex": "0x0",
      "blockHash": "0xb666d75b8be382d0beabdd705b30ae040b6710ba0908cc647bb10f6a5e8d9a1b",
      "blockNumber": "0x18f7ea0e",
      "gasUsed": "0xcf19",
      "effectiveGasPrice": "0x815dc",
      "blobGasPrice": "0x1",
      "from": "0xf39fd6e51aad88f6f4ce6ab8827279cfffb92266",
      "to": "0x2867579f704bdc9eb4a777b55d10eb7f865dc96d",
      "contractAddress": null
    }
  ],
  "libraries": [],
  "pending": [],
  "returns": {},
  "timestamp": 1767802003384,
  "chain": 42161,
  "commit": "6e4cde3"
}