{
  "transactions": [
    {
      "hash": "0x153fc4b29c4c36687cb38c5b732f7101e244ad950c248b55d949ce76021a018a",
      "transactionType": "CALL",
      "contractName": null,
      "contractAddress": "0x2867579f704bdc9eb4a777b55d10eb7f865dc96d",
      "function": "approveAdapter(address)",
      "arguments": [
        "0x44d74e79573E5Fa91f9D8ab253e58775f3f29989"
      ],
      "transaction": {
        "from": "0xf39fd6e51aad88f6f4ce6ab8827279cfffb92266",
        "to": "0x2867579f704bdc9eb4a777b55d10eb7f865dc96d",
        "gas": "0x10f1b",
        "value": "0x0",
        "input": "0xc0e2ffc400000000000000000000000044d74e79573e5fa91f9d8ab253e58775f3f29989",
        "nonce": "0x37ae",
        "chainId": "0xa4b1"
      },
      "additionalContracts": [],
      "isFixedGasLimit": false
    },
    {
      "hash": "0x36cd36bfa39061facbeb170817e9dadbd79704341e7e0c7ec95b7bf29d395ee5",
      "transactionType": "CALL",
      "contractName": null,
      "contractAddress": "0x2867579f704bdc9eb4a777b55d10eb7f865dc96d",
      "function": "approveAdapter(address)",
      "arguments": [
        "0x49Cf40BEe86Ab8bD080eE7918eD1d2D26DCF4c8b"
      ],
      "transaction": {
        "from": "0xf39fd6e51aad88f6f4ce6ab8827279cfffb92266",
        "to": "0x2867579f704bdc9eb4a777b55d10eb7f865dc96d",
        "gas": "0x12ec0",
        "value": "0x0",
        "input": "0xc0e2ffc400000000000000000000000049cf40bee86ab8bd080ee7918ed1d2d26dcf4c8b",
        "nonce": "0x37af",
        "chainId": "0xa4b1"
      },
      "additionalContracts": [],
      "isFixedGasLimit": false
    },
    {
      "hash": "0x1317f19aa61f9cb28318291f76831da414ea1781f36dc185ecf74b6dfd870b45",
      "transactionType": "CALL",
      "contractName": null,
      "contractAddress": "0x2867579f704bdc9eb4a777b55d10eb7f865dc96d",
      "function": "approveAdapter(address)",
      "arguments": [
        "0x0d0F9C2E2097e7dC1443Bb47e3fF4b8D4c67AdE5"
      ],
      "transaction": {
        "from": "0xf39fd6e51aad88f6f4ce6ab8827279cfffb92266",
        "to": "0x2867579f704bdc9eb4a777b55d10eb7f865dc96d",
        "gas": "0x12ec0",
        "value": "0x0",
        "input": "0xc0e2ffc40000000000000000000000000d0f9c2e2097e7dc1443bb47e3ff4b8d4c67ade5",
        "nonce": "0x37b0",
        "chainId": "0xa4b1"
      },
      "additionalContracts": [],
      "isFixedGasLimit": false
    },
    {
      "hash": "0x000b2a414d3f36a094fc0c5d948dab54c77b6bfa6d46d16668d590645aef155b",
      "transactionType": "CALL",
      "contractName": null,
      "contractAddress": "0x2867579f704bdc9eb4a777b55d10eb7f865dc96d",
      "function": "approveQuoteToken(address)",
      "arguments": [
        "0xaf88d065e77c8cC2239327C5EDb3A432268e5831"
      ],
      "transaction": {
        "from": "0xf39fd6e51aad88f6f4ce6ab8827279cfffb92266",
        "to": "0x2867579f704bdc9eb4a777b55d10eb7f865dc96d",
        "gas": "0x11e2a",
        "value": "0x0",
        "input": "0xc614ee3b000000000000000000000000af88d065e77c8cc2239327c5edb3a432268e5831",
        "nonce": "0x37b1",
        "chainId": "0xa4b1"
      },
      "additionalContracts": [],
      "isFixedGasLimit": false
    },
    {
      "hash": "0x1728416259ccc163f903999db1c866e70f96c33b3e235f5b83cf4936797d0b0f",
      "transactionType": "CALL",
      "contractName": null,
      "contractAddress": "0x2867579f704bdc9eb4a777b55d10eb7f865dc96d",
      "function": "approveQuoteToken(address)",
      "arguments": [
        "0xFd086bC7CD5C481DCC9C85ebE478A1C0b69FCbb9"
      ],
      "transaction": {
        "from": "0xf39fd6e51aad88f6f4ce6ab8827279cfffb92266",
        "to": "0x2867579f704bdc9eb4a777b55d10eb7f865dc96d",
        "gas": "0x11e2a",
        "value": "0x0",
        "input": "0xc614ee3b000000000000000000000000fd086bc7cd5c481dcc9c85ebe478a1c0b69fcbb9",
        "nonce": "0x37b2",
        "chainId": "0xa4b1"
      },
      "additionalContracts": [],
      "isFixedGasLimit": false
    },
    {
      "hash": "0xbb59546b3955cde9892b522be667554d613475242ab73eb5e5ce785ac880708c",
      "transactionType": "CALL",
      "contractName": null,
      "contractAddress": "0x2867579f704bdc9eb4a777b55d10eb7f865dc96d",
      "function": "approveQuoteToken(address)",
      "arguments": [
        "0x82aF49447D8a07e3bd95BD0d56f35241523fBab1"
      ],
      "transaction": {
        "from": "0xf39fd6e51aad88f6f4ce6ab8827279cfffb92266",
        "to": "0x2867579f704bdc9eb4a777b55d10eb7f865dc96d",
        "gas": "0x11e2a",
        "value": "0x0",
        "input": "0xc614ee3b00000000000000000000000082af49447d8a07e3bd95bd0d56f35241523fbab1",
        "nonce": "0x37b3",
        "chainId": "0xa4b1"
      },
      "additionalContracts": [],
      "isFixedGasLimit": false
    }
  ],
  "receipts": [
    {
      "status": "0x1",
      "cumulativeGasUsed": "0xcf03",
      "logs": [
        {
          "address": "0x2867579f704bdc9eb4a777b55d10eb7f865dc96d",
          "topics": [
            "0x32e0703508c4ea098d1b9450c6834e4dcddff8b234d85df988e711ab1095f0d4",
            "0x00000000000000000000000044d74e79573e5fa91f9d8ab253e58775f3f29989"
          ],
          "data": "0x0000000000000000000000000000000000000000000000000000000000000001",
          "blockHash": "0x2b7b7ddf11caa1e99988c877989d58e62ffab18e42927b60d2c6b514458bb98c",
          "blockNumber": "0x18f3b20e",
          "blockTimestamp": "0x695d768c",
          "transactionHash": "0x153fc4b29c4c36687cb38c5b732f7101e244ad950c248b55d949ce76021a018a",
          "transactionIndex": "0x0",
          "logIndex": "0x0",
          "removed": false
        }
      ],
      "logsBloom": "0x00000000000000000000000000000000000000000000000000000000000000000080004200000000000000000000000000000000000000000000000000000000000000000000000000000000000000000000000000000000000000000000000000000000000000000000000802000000000000000000000000000000000000000000000000000000000000000000000000000000000000000000000000000000008000000004000000000100000000000000000000000000000000000000000000000000000000000000000000000000000000000000100000000000000000000000000000000000000000000000000000000000000000000000000000000000",
      "type": "0x2",
      "transactionHash": "0x153fc4b29c4c36687cb38c5b732f7101e244ad950c248b55d949ce76021a018a",
      "transactionIndex": "0x0",
      "blockHash": "0x2b7b7ddf11caa1e99988c877989d58e62ffab18e42927b60d2c6b514458bb98c",
      "blockNumber": "0x18f3b20e",
      "gasUsed": "0xcf03",
      "effectiveGasPrice": "0x1496df",
      "blobGasPrice": "0x1",
      "from": "0xf39fd6e51aad88f6f4ce6ab8827279cfffb92266",
      "to": "0x2867579f704bdc9eb4a777b55d10eb7f865dc96d",
      "contractAddress": null
    },
    {
      "status": "0x1",
      "cumulativeGasUsed": "0xcf03",
      "logs": [
        {
          "address": "0x2867579f704bdc9eb4a777b55d10eb7f865dc96d",
          "topics": [
            "0x32e0703508c4ea098d1b9450c6834e4dcddff8b234d85df988e711ab1095f0d4",
            "0x00000000000000000000000049cf40bee86ab8bd080ee7918ed1d2d26dcf4c8b"
          ],
          "data": "0x0000000000000000000000000000000000000000000000000000000000000001",
          "blockHash": "0x72b391352f8147a6fc68e620aed305e653a03508495cbf12395279dbd502ff43",
          "blockNumber": "0x18f3b20f",
          "blockTimestamp": "0x695d768c",
          "transactionHash": "0x36cd36bfa39061facbeb170817e9dadbd79704341e7e0c7ec95b7bf29d395ee5",
          "transactionIndex": "0x0",
          "logIndex": "0x0",
          "removed": false
        }
      ],
      "logsBloom": "0x00000000000000000000000000000000000000000000000000000000000000000080000200000000000000000000000000000000000000000000000000000000000000000000000000000000000000800000000000000000000000000000000000000000000000000000000802000000000000000000000000000000000000000000000000000000000000000000000000000000000000000000000000000000000000000004000000000100000000000000000000000000000000000000000000000000000000000000000000000000000000001000000000000000000000000000000000000000000000000000000000000000000000000000000020000000",
      "type": "0x2",
      "transactionHash": "0x36cd36bfa39061facbeb170817e9dadbd79704341e7e0c7ec95b7bf29d395ee5",
      "transactionIndex": "0x0",
      "blockHash": "0x72b391352f8147a6fc68e620aed305e653a03508495cbf12395279dbd502ff43",
      "blockNumber": "0x18f3b20f",
      "gasUsed": "0xcf03",
      "effectiveGasPrice": "0x120404",
      "blobGasPrice": "0x1",
      "from": "0xf39fd6e51aad88f6f4ce6ab8827279cfffb92266",
      "to": "0x2867579f704bdc9eb4a777b55d10eb7f865dc96d",
      "contractAddress": null
    },
    {
      "status": "0x1",
      "cumulativeGasUsed": "0xcf03",
      "logs": [
        {
          "address": "0x2867579f704bdc9eb4a777b55d10eb7f865dc96d",
          "topics": [
            "0x32e0703508c4ea098d1b9450c6834e4dcddff8b234d85df988e711ab1095f0d4",
            "0x0000000000000000000000000d0f9c2e2097e7dc1443bb47e3ff4b8d4c67ade5"
          ],
          "data": "0x0000000000000000000000000000000000000000000000000000000000000001",
          "blockHash": "0x1188abc75eb0eb82c285262bbb00ece829967d62d2e97ff6562f4ee2eb0c8c40",
          "blockNumber": "0x18f3b210",
          "blockTimestamp": "0x695d768c",
          "transactionHash": "0x1317f19aa61f9cb28318291f76831da414ea1781f36dc185ecf74b6dfd870b45",
          "transactionIndex": "0x0",
          "logIndex": "0x0",
          "removed": false
        }
      ],
      "logsBloom": "0x40000000000000000000000000000000000000000000000000000000000000000080000200000000000000000000000000000000000000000000000000000000000000000000000000000000000000000000000000000000000000000000000000000000000000000000000802000000000000000000000000000000000000000000000400000000000000000000000000000000000000000000000000000000000000000004000000000100000000000000000000000000000000000000000000000000000000200000000000000000000000000000000000000000000000000000000000000000000000000000000000000000000000000000000000000000",
      "type": "0x2",
      "transactionHash": "0x1317f19aa61f9cb28318291f76831da414ea1781f36dc185ecf74b6dfd870b45",
      "transactionIndex": "0x0",
      "blockHash": "0x1188abc75eb0eb82c285262bbb00ece829967d62d2e97ff6562f4ee2eb0c8c40",
      "blockNumber": "0x18f3b210",
      "gasUsed": "0xcf03",
      "effectiveGasPrice": "0xfc384",
      "blobGasPrice": "0x1",
      "from": "0xf39fd6e51aad88f6f4ce6ab8827279cfffb92266",
      "to": "0x2867579f704bdc9eb4a777b55d10eb7f865dc96d",
      "contractAddress": null
    },
    {
      "status": "0x1",
      "cumulativeGasUsed": "0xcf2f",
      "logs": [
        {
          "address": "0x2867579f704bdc9eb4a777b55d10eb7f865dc96d",
          "topics": [
            "0x59a8234668400022511cf16e138a5c22aaa48172d517061c02d974583218c2a5",
            "0x000000000000000000000000af88d065e77c8cc2239327c5edb3a432268e5831"
          ],
          "data": "0x0000000000000000000000000000000000000000000000000000000000000001",
          "blockHash": "0x28e81ed6d46231304edbd0f195ebd506f36c09b9b769cb745837955df417f090",
          "blockNumber": "0x18f3b211",
          "blockTimestamp": "0x695d768c",
          "transactionHash": "0x000b2a414d3f36a094fc0c5d948dab54c77b6bfa6d46d16668d590645aef155b",
          "transactionIndex": "0x0",
          "logIndex": "0x0",
          "removed": false
        }
      ],
      "logsBloom": "0x00000000000000000000000000000000000000000000000000000000000000000000000000000000100000000000000000000000000000000000000000000000000000000000000000000000000000000000000000000000000000000000000000000000000000000000000c02000000000000000000000000000000000000000000000000000000000000000000000000000000000000000000000000000000000000000004000000000000000000000000000000000000000200000400000000000000000000000000000000000004000000000000000000000000000000000000000000000000000000000000000000000000002000000000000000000000",
      "type": "0x2",
      "transactionHash": "0x000b2a414d3f36a094fc0c5d948dab54c77b6bfa6d46d16668d590645aef155b",
      "transactionIndex": "0x0",
      "blockHash": "0x28e81ed6d46231304edbd0f195ebd506f36c09b9b769cb745837955df417f090",
      "blockNumber": "0x18f3b211",
      "gasUsed": "0xcf2f",
      "effectiveGasPrice": "0xdcb14",
      "blobGasPrice": "0x1",
      "from": "0xf39fd6e51aad88f6f4ce6ab8827279cfffb92266",
      "to": "0x2867579f704bdc9eb4a777b55d10eb7f865dc96d",
      "contractAddress": null
    },
    {
      "status": "0x1",
      "cumulativeGasUsed": "0xcf2f",
      "logs": [
        {
          "address": "0x2867579f704bdc9eb4a777b55d10eb7f865dc96d",
          "topics": [
            "0x59a8234668400022511cf16e138a5c22aaa48172d517061c02d974583218c2a5",
            "0x000000000000000000000000fd086bc7cd5c481dcc9c85ebe478a1c0b69fcbb9"
          ],
          "data": "0x0000000000000000000000000000000000000000000000000000000000000001",
          "blockHash": "0xa6003e3e82638aa23df874285ca2f65aeaecac1b676103feadf5fa2a8b8fde2a",
          "blockNumber": "0x18f3b212",
          "blockTimestamp": "0x695d768c",
          "transactionHash": "0x1728416259ccc163f903999db1c866e70f96c33b3e235f5b83cf4936797d0b0f",
          "transactionIndex": "0x0",
          "logIndex": "0x0",
          "removed": false
        }
      ],
      "logsBloom": "0x00000000000000000000000000000000000000000000000000000000000000000000000000000000000000000000000000000000000000000000000000000000000000000000000000000000000000000000000000000000004000000000000000000000000000000000000c02000000000000000000000000000000000000000000000000000000000000000000000000000000000000000000000000000000000000000004000000000000000000000000000000000000000200000000000000000000000000000000000000000004000000000000200000000000000000000000000000000000000000000000000000000000000000000000080000000000",
      "type": "0x2",
      "transactionHash": "0x1728416259ccc163f903999db1c866e70f96c33b3e235f5b83cf4936797d0b0f",
      "transactionIndex": "0x0",
      "blockHash": "0xa6003e3e82638aa23df874285ca2f65aeaecac1b676103feadf5fa2a8b8fde2a",
      "blockNumber": "0x18f3b212",
      "gasUsed": "0xcf2f",
      "effectiveGasPrice": "0xc11b2",
      "blobGasPrice": "0x1",
      "from": "0xf39fd6e51aad88f6f4ce6ab8827279cfffb92266",
      "to": "0x2867579f704bdc9eb4a777b55d10eb7f865dc96d",
      "contractAddress": null
    },
    {
      "status": "0x1",
      "cumulativeGasUsed": "0xcf2f",
      "logs": [
        {
          "address": "0x2867579f704bdc9eb4a777b55d10eb7f865dc96d",
          "topics": [
            "0x59a8234668400022511cf16e138a5c22aaa48172d517061c02d974583218c2a5",
            "0x00000000000000000000000082af49447d8a07e3bd95bd0d56f35241523fbab1"
          ],
          "data": "0x0000000000000000000000000000000000000000000000000000000000000001",
          "blockHash": "0xe2f08d5f33429fe769d870c57dd502c77ccd0c28d1d5b4dfe505249428e246b7",
          "blockNumber": "0x18f3b213",
          "blockTimestamp": "0x695d768c",
          "transactionHash": "0xbb59546b3955cde9892b522be667554d613475242ab73eb5e5ce785ac880708c",
          "transactionIndex": "0x0",
          "logIndex": "0x0",
          "removed": false
        }
      ],
      "logsBloom": "0x00000000000000000000000000000000000000000000000000000000000000000000000000000000000000000000000000000000000000000000000000000000000000000000000000000000000000010000000000000000000000000000000000000000000000000000000c02000000000000000000000000000000000000000000000000000000000000000000000000000000000000000000000000000000000000000004000000000000000000000000000000000000000200000000000000000000000000000000000000000004000000000000000000000000000000000000000000000000020000000000000000000000000000800000000000000000",
      "type": "0x2",
      "transactionHash": "0xbb59546b3955cde9892b522be667554d613475242ab73eb5e5ce785ac880708c",
      "transactionIndex": "0x0",
      "blockHash": "0xe2f08d5f33429fe769d870c57dd502c77ccd0c28d1d5b4dfe505249428e246b7",
      "blockNumber": "0x18f3b213",
      "gasUsed": "0xcf2f",
      "effectiveGasPrice": "0xa8f7c",
      "blobGasPrice": "0x1",
      "from": "0xf39fd6e51aad88f6f4ce6ab8827279cfffb92266",
      "to": "0x2867579f704bdc9eb4a777b55d10eb7f865dc96d",
      "contractAddress": null
    }
  ],
  "libraries": [],
  "pending": [],
  "returns": {},
  "timestamp": 1767732877334,
  "chain": 42161,
  "commit": "6e4cde3"
}