{
  "transactions": [
    {
      "hash": "0xa2b44abba4188b88a9465d11efb83d3b91d5a16fa385c28d727f13ae9b4c4ad4",
      "transactionType": "CALL",
      "contractName": null,
      "contractAddress": "0x2867579f704bdc9eb4a777b55d10eb7f865dc96d",
      "function": "registerPool(address,bytes,address)",
      "arguments": [
        "0x44d74e79573E5Fa91f9D8ab253e58775f3f29989",
        "0x0000000000000000000000002f2a2543b76a4166549f7aab2e75bef0aefc5b0f000000000000000000000000fd086bc7cd5c481dcc9c85ebe478a1c0b69fcbb90000000000000000000000000000000000000000000000000000000000000bb8000000000000000000000000000000000000000000000000000000000000003c0000000000000000000000000000000000000000000000000000000000000000",
        "0xFd086bC7CD5C481DCC9C85ebE478A1C0b69FCbb9"
      ],
      "transaction": {
        "from": "0xf39fd6e51aad88f6f4ce6ab8827279cfffb92266",
        "to": "0x2867579f704bdc9eb4a777b55d10eb7f865dc96d",
        "gas": "0x52b3b",
        "value": "0x0",
        "input": "0xe51c076a00000000000000000000000044d74e79573e5fa91f9d8ab253e58775f3f299890000000000000000000000000000000000000000000000000000000000000060000000000000000000000000fd086bc7cd5c481dcc9c85ebe478a1c0b69fcbb900000000000000000000000000000000000000000000000000000000000000a00000000000000000000000002f2a2543b76a4166549f7aab2e75bef0aefc5b0f000000000000000000000000fd086bc7cd5c481dcc9c85ebe478a1c0b69fcbb90000000000000000000000000000000000000000000000000000000000000bb8000000000000000000000000000000000000000000000000000000000000003c0000000000000000000000000000000000000000000000000000000000000000",
        "nonce": "0x37b7",
        "chainId": "0xa4b1"
      },
      "additionalContracts": [],
      "isFixedGasLimit": false
    }
  ],
  "receipts": [
    {
      "status": "0x1",
      "cumulativeGasUsed": "0x3ebd1",
      "logs": [
        {
          "address": "0x2867579f704bdc9eb4a777b55d10eb7f865dc96d",
          "topics": [
            "0x8296a712a8a40412718799ea39d29f1d3484525661a52f3681bdfc6372496b07",
            "0x1c44e0b6787ba4dc0ee45b53a80666ad6ac85f90340a6f4dd661ac992735bf36",
            "0x00000000000000000000000044d74e79573e5fa91f9d8ab253e58775f3f29989"
          ],
          "data": "0x0000000000000000000000002f2a2543b76a4166549f7aab2e75bef0aefc5b0f000000000000000000000000fd086bc7cd5c481dcc9c85ebe478a1c0b69fcbb9000000000000000000000000fd086bc7cd5c481dcc9c85ebe478a1c0b69fcbb9",
          "blockHash": "0x06a13f609b71353ce1fa0ad2f35ba1d9bfa2b3e0fc4fe78ac149c27b09cf9dee",
          "blockNumber": "0x18f4460f",
          "blockTimestamp": "0x695d9cc9",
          "transactionHash": "0xa2b44abba4188b88a9465d11efb83d3b91d5a16fa385c28d727f13ae9b4c4ad4",
          "transactionIndex": "0x0",
          "logIndex": "0x0",
          "removed": false
        }
      ],
      "logsBloom": "0x00000000000000000000000000000000000000000000000000000000000000000000004000000000000000000004000000000000000000000000000000000000000000000000000000000000000000000000000000000000000000000000000004000000000000000000000802000000000000000000000002000000000000000000000000000000000000000000000000000000000000000000000000000000008000000004000000000000000000000002000000000000000000000000000000000000000000000000000000000000100000000000100000000000000000000000000000000000000000000000000000000000000000000000004000000000",
      "type": "0x2",
      "transactionHash": "0xa2b44abba4188b88a9465d11efb83d3b91d5a16fa385c28d727f13ae9b4c4ad4",
      "transactionIndex": "0x0",
      "blockHash": "0x06a13f609b71353ce1fa0ad2f35ba1d9bfa2b3e0fc4fe78ac149c27b09cf9dee",
      "blockNumber": "0x18f4460f",
      "gasUsed": "0x3ebd1",
      "effectiveGasPrice": "0x630be",
      "blobGasPrice": "0x1",
      "from": "0xf39fd6e51aad88f6f4ce6ab8827279cfffb92266",
      "to": "0x2867579f704bdc9eb4a777b55d10eb7f865dc96d",
      "contractAddress": null
    }
  ],
  "libraries": [],
  "pending": [],
  "returns": {},
  "timestamp": 1767742665909,
  "chain": 42161,
  "commit": "6e4cde3"
}