{
  "transactions": [
    {
      "hash": "0xd458e1933128932b81df3b6eef52cb52a85d20e3f243c97aeb71e2ab0c5b901e",
      "transactionType": "CALL",
      "contractName": null,
      "contractAddress": "0x2867579f704bdc9eb4a777b55d10eb7f865dc96d",
      "function": "registerPool(address,bytes,address)",
      "arguments": [
        "0xF279Ad22aC11f3b32c7CA8d1A53136C7beF00388",
        "0x0000000000000000000000002f2a2543b76a4166549f7aab2e75bef0aefc5b0f000000000000000000000000fd086bc7cd5c481dcc9c85ebe478a1c0b69fcbb90000000000000000000000000000000000000000000000000000000000000bb8000000000000000000000000000000000000000000000000000000000000003c0000000000000000000000000000000000000000000000000000000000000000",
        "0xFd086bC7CD5C481DCC9C85ebE478A1C0b69FCbb9"
      ],
      "transaction": {
        "from": "0xf39fd6e51aad88f6f4ce6ab8827279cfffb92266",
        "to": "0x2867579f704bdc9eb4a777b55d10eb7f865dc96d",
        "gas": "0x52b3b",
        "value": "0x0",
        "input": "0xe51c076a000000000000000000000000f279ad22ac11f3b32c7ca8d1a53136c7bef003880000000000000000000000000000000000000000000000000000000000000060000000000000000000000000fd086bc7cd5c481dcc9c85ebe478a1c0b69fcbb900000000000000000000000000000000000000000000000000000000000000a00000000000000000000000002f2a2543b76a4166549f7aab2e75bef0aefc5b0f000000000000000000000000fd086bc7cd5c481dcc9c85ebe478a1c0b69fcbb90000000000000000000000000000000000000000000000000000000000000bb8000000000000000000000000000000000000000000000000000000000000003c0000000000000000000000000000000000000000000000000000000000000000",
        "nonce": "0x37b8",
        "chainId": "0xa4b1"
      },
      "additionalContracts": [],
      "isFixedGasLimit": false
    }
  ],
  "receipts": [
    {
      "status": "0x1",
      "cumulativeGasUsed": "0x3ebd1",
      "logs": [
        {
          "address": "0x2867579f704bdc9eb4a777b55d10eb7f865dc96d",
          "topics": [
            "0x8296a712a8a40412718799ea39d29f1d3484525661a52f3681bdfc6372496b07",
            "0xc7d5e50d547761241afc4625d652692ddbba4a413d272b043ea62bfad3362458",
            "0x000000000000000000000000f279ad22ac11f3b32c7ca8d1a53136c7bef00388"
          ],
          "data": "0x0000000000000000000000002f2a2543b76a4166549f7aab2e75bef0aefc5b0f000000000000000000000000fd086bc7cd5c481dcc9c85ebe478a1c0b69fcbb9000000000000000000000000fd086bc7cd5c481dcc9c85ebe478a1c0b69fcbb9",
          "blockHash": "0x722b575c36c9da67ce305379c2e7fececc03da8c68f35fff474a4baa6ddb57e2",
          "blockNumber": "0x18f7ea11",
          "blockTimestamp": "0x695e85b2",
          "transactionHash": "0xd458e1933128932b81df3b6eef52cb52a85d20e3f243c97aeb71e2ab0c5b901e",
          "transactionIndex": "0x0",
          "logIndex": "0x0",
          "removed": false
        }
      ],
      "logsBloom": "0x00000000100000000000100000000000000000000000000000000000000000000000000000000000000000000000000000800000000000000000000000000000400000000000000000000000000000000000000000000000000000000000000000000000000000000000000802000000000000000000000000000000000000000000000000000000000000000000000000000000000000000000000000000000000000000004000000000000000000000002000000000000000000000000000000000000000000000400000000000000100000000000000000000000000000000000000000000000000000000000000000000000000000000000004800000000",
      "type": "0x2",
      "transactionHash": "0xd458e1933128932b81df3b6eef52cb52a85d20e3f243c97aeb71e2ab0c5b901e",
      "transactionIndex": "0x0",
      "blockHash": "0x722b575c36c9da67ce305379c2e7fececc03da8c68f35fff474a4baa6ddb57e2",
      "blockNumber": "0x18f7ea11",
      "gasUsed": "0x3ebd1",
      "effectiveGasPrice": "0x56aa7",
      "blobGasPrice": "0x1",
      "from": "0xf39fd6e51aad88f6f4ce6ab8827279cfffb92266",
      "to": "0x2867579f704bdc9eb4a777b55d10eb7f865dc96d",
      "contractAddress": null
    }
  ],
  "libraries": [],
  "pending": [],
  "returns": {},
  "timestamp": 1767802291420,
  "chain": 42161,
  "commit": "6e4cde3"
}