{
  "transactions": [
    {
      "hash": "0x801bff9c4a895cf801b871f1508dac2df26edbf1ac898ef30cddc65479620fc4",
      "transactionType": "CALL",
      "contractName": null,
      "contractAddress": "0x2867579f704bdc9eb4a777b55d10eb7f865dc96d",
      "function": "registerPool(address,bytes)",
      "arguments": [
        "0x44d74e79573E5Fa91f9D8ab253e58775f3f29989",
        "0x0000000000000000000000002f2a2543b76a4166549f7aab2e75bef0aefc5b0f000000000000000000000000fd086bc7cd5c481dcc9c85ebe478a1c0b69fcbb90000000000000000000000000000000000000000000000000000000000000bb8000000000000000000000000000000000000000000000000000000000000003c0000000000000000000000000000000000000000000000000000000000000000"
      ],
      "transaction": {
        "from": "0xf39fd6e51aad88f6f4ce6ab8827279cfffb92266",
        "to": "0x2867579f704bdc9eb4a777b55d10eb7f865dc96d",
        "gas": "0x53239",
        "value": "0x0",
        "input": "0x043b8e4400000000000000000000000044d74e79573e5fa91f9d8ab253e58775f3f29989000000000000000000000000000000000000000000000000000000000000004000000000000000000000000000000000000000000000000000000000000000a00000000000000000000000002f2a2543b76a4166549f7aab2e75bef0aefc5b0f000000000000000000000000fd086bc7cd5c481dcc9c85ebe478a1c0b69fcbb90000000000000000000000000000000000000000000000000000000000000bb8000000000000000000000000000000000000000000000000000000000000003c0000000000000000000000000000000000000000000000000000000000000000",
        "nonce": "0x37b7",
        "chainId": "0xa4b1"
      },
      "additionalContracts": [],
      "isFixedGasLimit": false
    }
  ],
  "receipts": [
    {
      "status": "0x1",
      "cumulativeGasUsed": "0x3f117",
      "logs": [
        {
          "address": "0x2867579f704bdc9eb4a777b55d10eb7f865dc96d",
          "topics": [
            "0x01bf263a1db1652580721573296e1a1fa70b3d4c87f61d02a69c4e1109d2d573",
            "0x1c44e0b6787ba4dc0ee45b53a80666ad6ac85f90340a6f4dd661ac992735bf36",
            "0x00000000000000000000000044d74e79573e5fa91f9d8ab253e58775f3f29989"
          ],
          "data": "0x0000000000000000000000002f2a2543b76a4166549f7aab2e75bef0aefc5b0f000000000000000000000000fd086bc7cd5c481dcc9c85ebe478a1c0b69fcbb9",
          "blockHash": "0xbc31dd6e63a08440761af05bb800d9480229a8e1413373c46829f3bb434e4287",
          "blockNumber": "0x18f36140",
          "blockTimestamp": "0x695d7496",
          "transactionHash": "0x801bff9c4a895cf801b871f1508dac2df26edbf1ac898ef30cddc65479620fc4",
          "transactionIndex": "0x0",
          "logIndex": "0x0",
          "removed": false
        }
      ],
      "logsBloom": "0x00000000000000000000000000000000000010000000000000000000000000000000004000000000000000000004000000000000000000000000000000000000000000000000000000000000000000000000000000000000000000000000000004000000000000000000000802000000000000000000000002000000000000000000000000000000000000000000000000000000000000000000000000800000008000000004008000000000000000000000000000000000000000000000000000000000000000000000000000000000000000000000100000000000000000000000000000000000000000000000000000000000000000000000000000000000",
      "type": "0x2",
      "transactionHash": "0x801bff9c4a895cf801b871f1508dac2df26edbf1ac898ef30cddc65479620fc4",
      "transactionIndex": "0x0",
      "blockHash": "0xbc31dd6e63a08440761af05bb800d9480229a8e1413373c46829f3bb434e4287",
      "blockNumber": "0x18f36140",
      "gasUsed": "0x3f117",
      "effectiveGasPrice": "0x630be",
      "blobGasPrice": "0x1",
      "from": "0xf39fd6e51aad88f6f4ce6ab8827279cfffb92266",
      "to": "0x2867579f704bdc9eb4a777b55d10eb7f865dc96d",
      "contractAddress": null
    }
  ],
  "libraries": [],
  "pending": [],
  "returns": {},
  "timestamp": 1767732374584,
  "chain": 42161,
  "commit": "6e4cde3"
}