{
  "transactions": [
    {
      "hash": "0xd407ab33844e73cf1789b6dbefcde45becab030d86b89911b43ae4c280ae12e3",
      "transactionType": "CALL",
      "contractName": null,
      "contractAddress": "0x2867579f704bdc9eb4a777b55d10eb7f865dc96d",
      "function": "registerPool(address,bytes,address)",
      "arguments": [
        "0xc851CbCD1a8e22B0D4D01dea74d3AE0B63A44d90",
        "0x0000000000000000000000002f2a2543b76a4166549f7aab2e75bef0aefc5b0f000000000000000000000000fd086bc7cd5c481dcc9c85ebe478a1c0b69fcbb90000000000000000000000000000000000000000000000000000000000000bb8000000000000000000000000000000000000000000000000000000000000003c0000000000000000000000000000000000000000000000000000000000000000",
        "0xFd086bC7CD5C481DCC9C85ebE478A1C0b69FCbb9"
      ],
      "transaction": {
        "from": "0xf39fd6e51aad88f6f4ce6ab8827279cfffb92266",
        "to": "0x2867579f704bdc9eb4a777b55d10eb7f865dc96d",
        "gas": "0x52cef",
        "value": "0x0",
        "input": "0xe51c076a000000000000000000000000c851cbcd1a8e22b0d4d01dea74d3ae0b63a44d900000000000000000000000000000000000000000000000000000000000000060000000000000000000000000fd086bc7cd5c481dcc9c85ebe478a1c0b69fcbb900000000000000000000000000000000000000000000000000000000000000a00000000000000000000000002f2a2543b76a4166549f7aab2e75bef0aefc5b0f000000000000000000000000fd086bc7cd5c481dcc9c85ebe478a1c0b69fcbb90000000000000000000000000000000000000000000000000000000000000bb8000000000000000000000000000000000000000000000000000000000000003c0000000000000000000000000000000000000000000000000000000000000000",
        "nonce": "0x37b9",
        "chainId": "0xa4b1"
      },
      "additionalContracts": [],
      "isFixedGasLimit": false
    }
  ],
  "receipts": [
    {
      "status": "0x1",
      "cumulativeGasUsed": "0x3ed1b",
      "logs": [
        {
          "address": "0x2867579f704bdc9eb4a777b55d10eb7f865dc96d",
          "topics": [
            "0x8296a712a8a40412718799ea39d29f1d3484525661a52f3681bdfc6372496b07",
            "0x811be1c18a2d0a26a2303bbc2235c66d75d3e23c8ad6139529b032c1943a01a7",
            "0x000000000000000000000000c851cbcd1a8e22b0d4d01dea74d3ae0b63a44d90"
          ],
          "data": "0x0000000000000000000000002f2a2543b76a4166549f7aab2e75bef0aefc5b0f000000000000000000000000fd086bc7cd5c481dcc9c85ebe478a1c0b69fcbb9000000000000000000000000fd086bc7cd5c481dcc9c85ebe478a1c0b69fcbb9",
          "blockHash": "0x72544637d02c1a130902692d5da409aac4a293b6b733331f05e80753a2e836ef",
          "blockNumber": "0x18f9cd42",
          "blockTimestamp": "0x695efd36",
          "transactionHash": "0xd407ab33844e73cf1789b6dbefcde45becab030d86b89911b43ae4c280ae12e3",
          "transactionIndex": "0x0",
          "logIndex": "0x0",
          "removed": false
        }
      ],
      "logsBloom": "0x00000000000000000000000000000000000000000000000000000000000000000000000000000000000000000000000000000000000000000000000000000000000000000000000000000000000000000000000000000000000000000000000000000000200000000000000802000000000000000000000000000000000000000000000000000000000001000000000000000000000000000000000400000000000001000004000000000000000000000002000000000000000000000000000000000000000000000000000000000000100000000000000000000000000000000000000100000000000000000000000000000000000000000000404000000000",
      "type": "0x2",
      "transactionHash": "0xd407ab33844e73cf1789b6dbefcde45becab030d86b89911b43ae4c280ae12e3",
      "transactionIndex": "0x0",
      "blockHash": "0x72544637d02c1a130902692d5da409aac4a293b6b733331f05e80753a2e836ef",
      "blockNumber": "0x18f9cd42",
      "gasUsed": "0x3ed1b",
      "effectiveGasPrice": "0x4bd53",
      "blobGasPrice": "0x1",
      "from": "0xf39fd6e51aad88f6f4ce6ab8827279cfffb92266",
      "to": "0x2867579f704bdc9eb4a777b55d10eb7f865dc96d",
      "contractAddress": null
    }
  ],
  "libraries": [],
  "pending": [],
  "returns": {},
  "timestamp": 1767832887337,
  "chain": 42161,
  "commit": "09d5d96"
}