{
  "transactions": [
    {
      "hash": "0xd74fdec4c9334d4dd357722a624bba21210b25fb3d5a12d278425d472f5e977a",
      "transactionType": "CALL",
      "contractName": null,
      "contractAddress": "0x2867579f704bdc9eb4a777b55d10eb7f865dc96d",
      "function": "registerPool(address,bytes)",
      "arguments": [
        "0x34D316803CAD7f9873c0d3ba5b9B8940B637AA9c",
        "0x0000000000000000000000002f2a2543b76a4166549f7aab2e75bef0aefc5b0f000000000000000000000000fd086bc7cd5c481dcc9c85ebe478a1c0b69fcbb90000000000000000000000000000000000000000000000000000000000000bb8000000000000000000000000000000000000000000000000000000000000003c0000000000000000000000000000000000000000000000000000000000000000"
      ],
      "transaction": {
        "from": "0xf39fd6e51aad88f6f4ce6ab8827279cfffb92266",
        "to": "0x2867579f704bdc9eb4a777b55d10eb7f865dc96d",
        "gas": "0x53239",
        "value": "0x0",
        "input": "0x043b8e4400000000000000000000000034d316803cad7f9873c0d3ba5b9b8940b637aa9c000000000000000000000000000000000000000000000000000000000000004000000000000000000000000000000000000000000000000000000000000000a00000000000000000000000002f2a2543b76a4166549f7aab2e75bef0aefc5b0f000000000000000000000000fd086bc7cd5c481dcc9c85ebe478a1c0b69fcbb90000000000000000000000000000000000000000000000000000000000000bb8000000000000000000000000000000000000000000000000000000000000003c0000000000000000000000000000000000000000000000000000000000000000",
        "nonce": "0x37ba",
        "chainId": "0xa4b1"
      },
      "additionalContracts": [],
      "isFixedGasLimit": false
    }
  ],
  "receipts": [
    {
      "status": "0x1",
      "cumulativeGasUsed": "0x3f117",
      "logs": [
        {
          "address": "0x2867579f704bdc9eb4a777b55d10eb7f865dc96d",
          "topics": [
            "0x01bf263a1db1652580721573296e1a1fa70b3d4c87f61d02a69c4e1109d2d573",
            "0x852aa5f4ed5cc029fc38072f50990790b9c309cb0654b18f55d4788e183db341",
            "0x00000000000000000000000034d316803cad7f9873c0d3ba5b9b8940b637aa9c"
          ],
          "data": "0x0000000000000000000000002f2a2543b76a4166549f7aab2e75bef0aefc5b0f000000000000000000000000fd086bc7cd5c481dcc9c85ebe478a1c0b69fcbb9",
          "blockHash": "0xfba09194e1cdd3433bbfdc78d3d76cec22b3d1e7e23d41a9fe91d1342c755f77",
          "blockNumber": "0x18f3b21a",
          "blockTimestamp": "0x695d78b2",
          "transactionHash": "0xd74fdec4c9334d4dd357722a624bba21210b25fb3d5a12d278425d472f5e977a",
          "transactionIndex": "0x0",
          "logIndex": "0x0",
          "removed": false
        }
      ],
      "logsBloom": "0x00000000000000000000000000000000000010000000000000000000000000000000008000000000000000000000000000000000000000000000000000000000000000000000000800000000000000000000000000000000000000000000000000000000000000000000000802000000000000000000000000000000000000000000000000000000000000000000000000000000000000000000000000800000200000000004008020000000000000000000000000000000000000000000000000000000000000000000000000000000000000000000000400000000020000000000000000000000000000000000000000000000000000000000000000000000",
      "type": "0x2",
      "transactionHash": "0xd74fdec4c9334d4dd357722a624bba21210b25fb3d5a12d278425d472f5e977a",
      "transactionIndex": "0x0",
      "blockHash": "0xfba09194e1cdd3433bbfdc78d3d76cec22b3d1e7e23d41a9fe91d1342c755f77",
      "blockNumber": "0x18f3b21a",
      "gasUsed": "0x3f117",
      "effectiveGasPrice": "0x425a9",
      "blobGasPrice": "0x1",
      "from": "0xf39fd6e51aad88f6f4ce6ab8827279cfffb92266",
      "to": "0x2867579f704bdc9eb4a777b55d10eb7f865dc96d",
      "contractAddress": null
    }
  ],
  "libraries": [],
  "pending": [],
  "returns": {},
  "timestamp": 1767733427474,
  "chain": 42161,
  "commit": "6e4cde3"
}