{
  "transactions": [
    {
      "hash": "0xc939c48b5ce2f83e0642b6360161c5b77490772ffcd07b4bfc0f71a6c20b5f13",
      "transactionType": "CALL",
      "contractName": null,
      "contractAddress": "0x190b7e66447633d1b75204f19c4d953e0b836c1b",
      "function": "registerPool(address,bytes,address)",
      "arguments": [
        "0x38436C81a2e7527ff558c2C5EFE24dC90389772B",
        "0x0000000000000000000000002260fac5e5542a773aa44fbcfedf7c193bc2c599000000000000000000000000dac17f958d2ee523a2206206994597c13d831ec70000000000000000000000000000000000000000000000000000000000000bb8000000000000000000000000000000000000000000000000000000000000003c0000000000000000000000000000000000000000000000000000000000000000",
        "0xdAC17F958D2ee523a2206206994597C13D831ec7"
      ],
      "transaction": {
        "from": "0xf39fd6e51aad88f6f4ce6ab8827279cfffb92266",
        "to": "0x190b7e66447633d1b75204f19c4d953e0b836c1b",
        "gas": "0x5bdf7",
        "value": "0x0",
        "input": "0xe51c076a00000000000000000000000038436c81a2e7527ff558c2c5efe24dc90389772b0000000000000000000000000000000000000000000000000000000000000060000000000000000000000000dac17f958d2ee523a2206206994597c13d831ec700000000000000000000000000000000000000000000000000000000000000a00000000000000000000000002260fac5e5542a773aa44fbcfedf7c193bc2c599000000000000000000000000dac17f958d2ee523a2206206994597c13d831ec70000000000000000000000000000000000000000000000000000000000000bb8000000000000000000000000000000000000000000000000000000000000003c0000000000000000000000000000000000000000000000000000000000000000",
        "nonce": "0x1146",
        "chainId": "0x1"
      },
      "additionalContracts": [],
      "isFixedGasLimit": false
    }
  ],
  "receipts": [
    {
      "status": "0x1",
      "cumulativeGasUsed": "0x3ed1b",
      "logs": [
        {
          "address": "0x190b7e66447633d1b75204f19c4d953e0b836c1b",
          "topics": [
            "0x8296a712a8a40412718799ea39d29f1d3484525661a52f3681bdfc6372496b07",
            "0xa9b46c4390093c1d2914cf7bd9d8f4b8f4ed87d933a79f56c61514122cd47f6e",
            "0x00000000000000000000000038436c81a2e7527ff558c2c5efe24dc90389772b"
          ],
          "data": "0x0000000000000000000000002260fac5e5542a773aa44fbcfedf7c193bc2c599000000000000000000000000dac17f958d2ee523a2206206994597c13d831ec7000000000000000000000000dac17f958d2ee523a2206206994597c13d831ec7",
          "blockHash": "0x6234b136c585ac53e33a4cf7262ee54133bca108bde9a352eb52ebcde2abe38b",
          "blockNumber": "0x1715001",
          "blockTimestamp": "0x6962199e",
          "transactionHash": "0xc939c48b5ce2f83e0642b6360161c5b77490772ffcd07b4bfc0f71a6c20b5f13",
          "transactionIndex": "0x0",
          "logIndex": "0x0",
          "removed": false
        }
      ],
      "logsBloom": "0x00000000000000010000000000000000000000000000000000000000000000180000000000000000000000000000000000000000000000000000000000000000000000000000000000000000000000000000000000000000000000000000000000000000000000000000000000000000000000000000000080000000000000000000000000000000000000002000000000000000000000000000000000000000000000000000000020000000000004000002000000000000000000000000000000000000000000000000000000000000100000000000000000000000000000000000000000000000400000010000000000000000000000000000004000000000",
      "type": "0x2",
      "transactionHash": "0xc939c48b5ce2f83e0642b6360161c5b77490772ffcd07b4bfc0f71a6c20b5f13",
      "transactionIndex": "0x0",
      "blockHash": "0x6234b136c585ac53e33a4cf7262ee54133bca108bde9a352eb52ebcde2abe38b",
      "blockNumber": "0x1715001",
      "gasUsed": "0x3ed1b",
      "effectiveGasPrice": "0x3a1cae",
      "blobGasPrice": "0x40485063b472c89150",
      "from": "0xf39fd6e51aad88f6f4ce6ab8827279cfffb92266",
      "to": "0x190b7e66447633d1b75204f19c4d953e0b836c1b",
      "contractAddress": null
    }
  ],
  "libraries": [],
  "pending": [],
  "returns": {},
  "timestamp": 1768036770477,
  "chain": 1,
  "commit": "09d5d96"
}