{
  "transactions": [
    {
      "hash": "0x1d477f3809bec7fa27bc050e183362c6a7b3c1521382691d379f93d503730745",
      "transactionType": "CALL",
      "contractName": null,
      "contractAddress": "0x2bf866da3a8eeb90b288e6d434d319624263a24b",
      "function": "registerPool(address,bytes,address)",
      "arguments": [
        "0x3b827220209E553a54b16b329fb3501061512F8C",
        "0x0000000000000000000000002260fac5e5542a773aa44fbcfedf7c193bc2c599000000000000000000000000a0b86991c6218b36c1d19d4a2e9eb0ce3606eb480000000000000000000000000000000000000000000000000000000000000bb8000000000000000000000000000000000000000000000000000000000000003c0000000000000000000000000000000000000000000000000000000000000000",
        "0xA0b86991c6218b36c1d19D4a2e9Eb0cE3606eB48"
      ],
      "transaction": {
        "from": "0xf39fd6e51aad88f6f4ce6ab8827279cfffb92266",
        "to": "0x2bf866da3a8eeb90b288e6d434d319624263a24b",
        "gas": "0x5b52e",
        "value": "0x0",
        "input": "0xe51c076a0000000000000000000000003b827220209e553a54b16b329fb3501061512f8c0000000000000000000000000000000000000000000000000000000000000060000000000000000000000000a0b86991c6218b36c1d19d4a2e9eb0ce3606eb4800000000000000000000000000000000000000000000000000000000000000a00000000000000000000000002260fac5e5542a773aa44fbcfedf7c193bc2c599000000000000000000000000a0b86991c6218b36c1d19d4a2e9eb0ce3606eb480000000000000000000000000000000000000000000000000000000000000bb8000000000000000000000000000000000000000000000000000000000000003c0000000000000000000000000000000000000000000000000000000000000000",
        "nonce": "0x11b4",
        "chainId": "0x1"
      },
      "additionalContracts": [],
      "isFixedGasLimit": false
    }
  ],
  "receipts": [
    {
      "status": "0x1",
      "cumulativeGasUsed": "0x421df",
      "logs": [
        {
          "address": "0x2bf866da3a8eeb90b288e6d434d319624263a24b",
          "topics": [
            "0x1780f2852ca420719d547dc1a0b6eb7bd2dbd8e5db5d74fc309b58337c92c28a",
            "0xd2ae60dcc922af73544bf2149df4630d7d03e40ea9ee5f06fd42d2e35bbcc7bf",
            "0x0000000000000000000000003b827220209e553a54b16b329fb3501061512f8c"
          ],
          "data": "0x0000000000000000000000002260fac5e5542a773aa44fbcfedf7c193bc2c599000000000000000000000000a0b86991c6218b36c1d19d4a2e9eb0ce3606eb48000000000000000000000000a0b86991c6218b36c1d19d4a2e9eb0ce3606eb48b98437c7ba28c6590dd4e1cc46aa89eed181f97108e5b6221730d41347bc817f",
          "blockHash": "0x32b1699783558514763808605bb5740809d46cf1e46da23eb36571f179a4235f",
          "blockNumber": "0x1727910",
          "blockTimestamp": "0x69701106",
          "transactionHash": "0x1d477f3809bec7fa27bc050e183362c6a7b3c1521382691d379f93d503730745",
          "transactionIndex": "0x0",
          "logIndex": "0x0",
          "removed": false
        }
      ],
      "logsBloom": "0x00000000000000000000000000000000000000000000200000000000000000000000000000000000000000000000000000000000000000000000000010000000000000000000000000000000000000000000000000000000000000000002000000000400400000000000000000000000000000000000000000000004000000000000000000000000000000000000000000000000100000000000000000000000000000000000001000000000000000000000000000000000000000000000000000000000040000000000000000000000000000000000000000000000000000000000000000000020000000000000000000000000000000000000000000000000",
      "type": "0x2",
      "transactionHash": "0x1d477f3809bec7fa27bc050e183362c6a7b3c1521382691d379f93d503730745",
      "transactionIndex": "0x0",
      "blockHash": "0x32b1699783558514763808605bb5740809d46cf1e46da23eb36571f179a4235f",
      "blockNumber": "0x1727910",
      "gasUsed": "0x421df",
      "effectiveGasPrice": "0xd45a9d",
      "blobGasPrice": "0x533ae50addc48ddc584",
      "from": "0xf39fd6e51aad88f6f4ce6ab8827279cfffb92266",
      "to": "0x2bf866da3a8eeb90b288e6d434d319624263a24b",
      "contractAddress": null
    }
  ],
  "libraries": [],
  "pending": [],
  "returns": {},
  "timestamp": 1768952083014,
  "chain": 1,
  "commit": "a5b6bf0"
}