{
  "transactions": [
    {
      "hash": "0x2483bfc75ec56f3c34239b1cce7ac8584d6c2f6ce8cc981c56b68b5c917864a5",
      "transactionType": "CALL",
      "contractName": null,
      "contractAddress": "0xdaf5f4b3485b781b0416e724286a3d76d0be06b3",
      "function": "registerPool(address,bytes,address)",
      "arguments": [
        "0x283CC7eF308fA2a8eF46c21052CaEe8C054c676C",
        "0x0000000000000000000000002260fac5e5542a773aa44fbcfedf7c193bc2c599000000000000000000000000dac17f958d2ee523a2206206994597c13d831ec70000000000000000000000000000000000000000000000000000000000000bb8000000000000000000000000000000000000000000000000000000000000003c0000000000000000000000000000000000000000000000000000000000000000",
        "0xdAC17F958D2ee523a2206206994597C13D831ec7"
      ],
      "transaction": {
        "from": "0xf39fd6e51aad88f6f4ce6ab8827279cfffb92266",
        "to": "0xdaf5f4b3485b781b0416e724286a3d76d0be06b3",
        "gas": "0x5ddc6",
        "value": "0x0",
        "input": "0xe51c076a000000000000000000000000283cc7ef308fa2a8ef46c21052caee8c054c676c0000000000000000000000000000000000000000000000000000000000000060000000000000000000000000dac17f958d2ee523a2206206994597c13d831ec700000000000000000000000000000000000000000000000000000000000000a00000000000000000000000002260fac5e5542a773aa44fbcfedf7c193bc2c599000000000000000000000000dac17f958d2ee523a2206206994597c13d831ec70000000000000000000000000000000000000000000000000000000000000bb8000000000000000000000000000000000000000000000000000000000000003c0000000000000000000000000000000000000000000000000000000000000000",
        "nonce": "0x1150",
        "chainId": "0x1"
      },
      "additionalContracts": [],
      "isFixedGasLimit": false
    }
  ],
  "receipts": [
    {
      "status": "0x1",
      "cumulativeGasUsed": "0x402db",
      "logs": [
        {
          "address": "0xdaf5f4b3485b781b0416e724286a3d76d0be06b3",
          "topics": [
            "0x8296a712a8a40412718799ea39d29f1d3484525661a52f3681bdfc6372496b07",
            "0x856ec3275f49902c21d43e721856b30aeb2625862343cf8e92e8a5ceb71fe031",
            "0x000000000000000000000000283cc7ef308fa2a8ef46c21052caee8c054c676c"
          ],
          "data": "0x0000000000000000000000002260fac5e5542a773aa44fbcfedf7c193bc2c599000000000000000000000000dac17f958d2ee523a2206206994597c13d831ec7000000000000000000000000dac17f958d2ee523a2206206994597c13d831ec7",
          "blockHash": "0xf188e873460b204b81e748f6c5a55a97c8a1ac1a6c567fa4ef8e469d15b81ca6",
          "blockNumber": "0x17171d0",
          "blockTimestamp": "0x6963ac7f",
          "transactionHash": "0x2483bfc75ec56f3c34239b1cce7ac8584d6c2f6ce8cc981c56b68b5c917864a5",
          "transactionIndex": "0x0",
          "logIndex": "0x0",
          "removed": false
        }
      ],
      "logsBloom": "0x00000000000000002000000000000000000000000000000000000000000000000008000000000000000000000000000000000000000000000000000000000000000000000000000000000001000000000000000000000000000000000000000040000000000000000000000000000000000000000000000000000400000400000000000000000100000000000000000000000000000000000000000000000000000000000000000000000000000000000002000000000000000000000000000000000000000000000000000000000000100000000000000000002000000000000000000000000000000000000000000000000000000000000000004000000040",
      "type": "0x2",
      "transactionHash": "0x2483bfc75ec56f3c34239b1cce7ac8584d6c2f6ce8cc981c56b68b5c917864a5",
      "transactionIndex": "0x0",
      "blockHash": "0xf188e873460b204b81e748f6c5a55a97c8a1ac1a6c567fa4ef8e469d15b81ca6",
      "blockNumber": "0x17171d0",
      "gasUsed": "0x402db",
      "effectiveGasPrice": "0x6476d5",
      "blobGasPrice": "0x3e92a0eb44147c9151",
      "from": "0xf39fd6e51aad88f6f4ce6ab8827279cfffb92266",
      "to": "0xdaf5f4b3485b781b0416e724286a3d76d0be06b3",
      "contractAddress": null
    }
  ],
  "libraries": [],
  "pending": [],
  "returns": {},
  "timestamp": 1768139912910,
  "chain": 1,
  "commit": "fddc043"
}