{
  "transactions": [
    {
      "hash": "0x3d0dfafb77aaf249b089e93ca969cee39d65948456dda4ed8353c9225fc845dd",
      "transactionType": "CALL",
      "contractName": null,
      "contractAddress": "0x2d929838d32ea33a0994d37f82965c2d284e3b4f",
      "function": "registerPool(address,bytes,address)",
      "arguments": [
        "0x9214C484342dDd434dCA9Cf6722A27d8d0ae3084",
        "0x0000000000000000000000002260fac5e5542a773aa44fbcfedf7c193bc2c599000000000000000000000000dac17f958d2ee523a2206206994597c13d831ec70000000000000000000000000000000000000000000000000000000000000bb8000000000000000000000000000000000000000000000000000000000000003c0000000000000000000000000000000000000000000000000000000000000000",
        "0xdAC17F958D2ee523a2206206994597C13D831ec7"
      ],
      "transaction": {
        "from": "0xf39fd6e51aad88f6f4ce6ab8827279cfffb92266",
        "to": "0x2d929838d32ea33a0994d37f82965c2d284e3b4f",
        "gas": "0x58ecc",
        "value": "0x0",
        "input": "0xe51c076a0000000000000000000000009214c484342ddd434dca9cf6722a27d8d0ae30840000000000000000000000000000000000000000000000000000000000000060000000000000000000000000dac17f958d2ee523a2206206994597c13d831ec700000000000000000000000000000000000000000000000000000000000000a00000000000000000000000002260fac5e5542a773aa44fbcfedf7c193bc2c599000000000000000000000000dac17f958d2ee523a2206206994597c13d831ec70000000000000000000000000000000000000000000000000000000000000bb8000000000000000000000000000000000000000000000000000000000000003c0000000000000000000000000000000000000000000000000000000000000000",
        "nonce": "0x117d",
        "chainId": "0x1"
      },
      "additionalContracts": [],
      "isFixedGasLimit": false
    }
  ],
  "receipts": [
    {
      "status": "0x1",
      "cumulativeGasUsed": "0x40615",
      "logs": [
        {
          "address": "0x2d929838d32ea33a0994d37f82965c2d284e3b4f",
          "topics": [
            "0x1780f2852ca420719d547dc1a0b6eb7bd2dbd8e5db5d74fc309b58337c92c28a",
            "0xb5819d5c742f6df90f51f6b9b492e779f7802b86b67759e3640a3d3738b93e7f",
            "0x0000000000000000000000009214c484342ddd434dca9cf6722a27d8d0ae3084"
          ],
          "data": "0x0000000000000000000000002260fac5e5542a773aa44fbcfedf7c193bc2c599000000000000000000000000dac17f958d2ee523a2206206994597c13d831ec7000000000000000000000000dac17f958d2ee523a2206206994597c13d831ec720c3a15e34e5d88aeba004b0753af69e4f6bea80eae2263f7a92e919cd33cc56",
          "blockHash": "0x505503ec985fa299260462cca59ab85d7096514fee21f554026b1d3f008d9405",
          "blockNumber": "0x171ed1d",
          "blockTimestamp": "0x69697bc5",
          "transactionHash": "0x3d0dfafb77aaf249b089e93ca969cee39d65948456dda4ed8353c9225fc845dd",
          "transactionIndex": "0x0",
          "logIndex": "0x0",
          "removed": false
        }
      ],
      "logsBloom": "0x00000000000000000000000000000000000000000000200000000000000000000000000000000000000000000000000000000000000000000000000000000000000000000000000000000000000000000000000000200002000000000000000000000400000000000000000000000000000000000000000000000004000000000000000000000000000000000000000000000000000000000000000000002000000000000000000000000000000000100000080000000000008000000000000000000000000000100000000020000000000000000000000000000100000000000000000000000000000000000000000000000000000000000000000000000000",
      "type": "0x2",
      "transactionHash": "0x3d0dfafb77aaf249b089e93ca969cee39d65948456dda4ed8353c9225fc845dd",
      "transactionIndex": "0x0",
      "blockHash": "0x505503ec985fa299260462cca59ab85d7096514fee21f554026b1d3f008d9405",
      "blockNumber": "0x171ed1d",
      "gasUsed": "0x40615",
      "effectiveGasPrice": "0xab1ca3",
      "blobGasPrice": "0x111f5494751812279ae",
      "from": "0xf39fd6e51aad88f6f4ce6ab8827279cfffb92266",
      "to": "0x2d929838d32ea33a0994d37f82965c2d284e3b4f",
      "contractAddress": null
    }
  ],
  "libraries": [],
  "pending": [],
  "returns": {},
  "timestamp": 1768520654123,
  "chain": 1,
  "commit": "9eaeaf3"
}