{
  "transactions": [
    {
      "hash": "0x279e26bcd7049ba51f4769efb16c604cf5f32805b19927f164c0d025771fa6c3",
      "transactionType": "CALL",
      "contractName": null,
      "contractAddress": "0x480ce59387443a9bf266a4657f0e2ae1e6a7b771",
      "function": "registerPool(address,bytes,address)",
      "arguments": [
        "0x5e73679B61D14516ce7C30c7daC6F1da3C51D626",
        "0x0000000000000000000000002260fac5e5542a773aa44fbcfedf7c193bc2c599000000000000000000000000a0b86991c6218b36c1d19d4a2e9eb0ce3606eb480000000000000000000000000000000000000000000000000000000000000bb8000000000000000000000000000000000000000000000000000000000000003c0000000000000000000000000000000000000000000000000000000000000000",
        "0xA0b86991c6218b36c1d19D4a2e9Eb0cE3606eB48"
      ],
      "transaction": {
        "from": "0xf39fd6e51aad88f6f4ce6ab8827279cfffb92266",
        "to": "0x480ce59387443a9bf266a4657f0e2ae1e6a7b771",
        "gas": "0x5b52e",
        "value": "0x0",
        "input": "0xe51c076a0000000000000000000000005e73679b61d14516ce7c30c7dac6f1da3c51d6260000000000000000000000000000000000000000000000000000000000000060000000000000000000000000a0b86991c6218b36c1d19d4a2e9eb0ce3606eb4800000000000000000000000000000000000000000000000000000000000000a00000000000000000000000002260fac5e5542a773aa44fbcfedf7c193bc2c599000000000000000000000000a0b86991c6218b36c1d19d4a2e9eb0ce3606eb480000000000000000000000000000000000000000000000000000000000000bb8000000000000000000000000000000000000000000000000000000000000003c0000000000000000000000000000000000000000000000000000000000000000",
        "nonce": "0x11ee",
        "chainId": "0x1"
      },
      "additionalContracts": [],
      "isFixedGasLimit": false
    }
  ],
  "receipts": [
    {
      "status": "0x1",
      "cumulativeGasUsed": "0x421df",
      "logs": [
        {
          "address": "0x480ce59387443a9bf266a4657f0e2ae1e6a7b771",
          "topics": [
            "0x1780f2852ca420719d547dc1a0b6eb7bd2dbd8e5db5d74fc309b58337c92c28a",
            "0x6e469896ba9ae3651a8dd7fc72ee4b1b4319ed412d3ea680f468afce3b9a8194",
            "0x0000000000000000000000005e73679b61d14516ce7c30c7dac6f1da3c51d626"
          ],
          "data": "0x0000000000000000000000002260fac5e5542a773aa44fbcfedf7c193bc2c599000000000000000000000000a0b86991c6218b36c1d19d4a2e9eb0ce3606eb48000000000000000000000000a0b86991c6218b36c1d19d4a2e9eb0ce3606eb48b98437c7ba28c6590dd4e1cc46aa89eed181f97108e5b6221730d41347bc817f",
          "blockHash": "0xb3d8f68574f368cd1b3ea583c65f1bcd4da7f2140a8b997f45bf336b14180e16",
          "blockNumber": "0x172cdd1",
          "blockTimestamp": "0x69740f0c",
          "transactionHash": "0x279e26bcd7049ba51f4769efb16c604cf5f32805b19927f164c0d025771fa6c3",
          "transactionIndex": "0x0",
          "logIndex": "0x0",
          "removed": false
        }
      ],
      "logsBloom": "0x000000000000000000000000004000000000000000002000000000000000000000004000000000000004000000000000000000000004000000000000000000000000000a0000000000000000000000000000000000000000000000000000000000000400000000000200000000000000000000000000000000000004000000000000000000000000000000000000000000000000000000000000000000000000000000000000000000000000000000000000000000000000000000000000000008000000000000000000000000001000000000000000000000000000000000000000000000000000000000000000000000000000000000000000000000000000",
      "type": "0x2",
      "transactionHash": "0x279e26bcd7049ba51f4769efb16c604cf5f32805b19927f164c0d025771fa6c3",
      "transactionIndex": "0x0",
      "blockHash": "0xb3d8f68574f368cd1b3ea583c65f1bcd4da7f2140a8b997f45bf336b14180e16",
      "blockNumber": "0x172cdd1",
      "gasUsed": "0x421df",
      "effectiveGasPrice": "0xad628b",
      "blobGasPrice": "0x31e0670f390861e0dc5",
      "from": "0xf39fd6e51aad88f6f4ce6ab8827279cfffb92266",
      "to": "0x480ce59387443a9bf266a4657f0e2ae1e6a7b771",
      "contractAddress": null
    }
  ],
  "libraries": [],
  "pending": [],
  "returns": {},
  "timestamp": 1769213716627,
  "chain": 1,
  "commit": "d45ebce"
}