{
  "transactions": [
    {
      "hash": "0x9a5fc1b7ae2ff8975405d19b01a665bb4084e6168997ca326df48985f529d9f2",
      "transactionType": "CALL",
      "contractName": null,
      "contractAddress": "0x2d929838d32ea33a0994d37f82965c2d284e3b4f",
      "function": "registerPool(address,bytes,address)",
      "arguments": [
        "0x9214C484342dDd434dCA9Cf6722A27d8d0ae3084",
        "0x0000000000000000000000002260fac5e5542a773aa44fbcfedf7c193bc2c599000000000000000000000000a0b86991c6218b36c1d19d4a2e9eb0ce3606eb480000000000000000000000000000000000000000000000000000000000000bb8000000000000000000000000000000000000000000000000000000000000003c0000000000000000000000000000000000000000000000000000000000000000",
        "0xA0b86991c6218b36c1d19D4a2e9Eb0cE3606eB48"
      ],
      "transaction": {
        "from": "0xf39fd6e51aad88f6f4ce6ab8827279cfffb92266",
        "to": "0x2d929838d32ea33a0994d37f82965c2d284e3b4f",
        "gas": "0x60b83",
        "value": "0x0",
        "input": "0xe51c076a0000000000000000000000009214c484342ddd434dca9cf6722a27d8d0ae30840000000000000000000000000000000000000000000000000000000000000060000000000000000000000000a0b86991c6218b36c1d19d4a2e9eb0ce3606eb4800000000000000000000000000000000000000000000000000000000000000a00000000000000000000000002260fac5e5542a773aa44fbcfedf7c193bc2c599000000000000000000000000a0b86991c6218b36c1d19d4a2e9eb0ce3606eb480000000000000000000000000000000000000000000000000000000000000bb8000000000000000000000000000000000000000000000000000000000000003c0000000000000000000000000000000000000000000000000000000000000000",
        "nonce": "0x11c9",
        "chainId": "0x1"
      },
      "additionalContracts": [],
      "isFixedGasLimit": false
    }
  ],
  "receipts": [
    {
      "status": "0x1",
      "cumulativeGasUsed": "0x42221",
      "logs": [
        {
          "address": "0x2d929838d32ea33a0994d37f82965c2d284e3b4f",
          "topics": [
            "0x1780f2852ca420719d547dc1a0b6eb7bd2dbd8e5db5d74fc309b58337c92c28a",
            "0x5906b495bf3daad14baddbb19bd0395005b5589ded8c6482378fc4d2929cebad",
            "0x0000000000000000000000009214c484342ddd434dca9cf6722a27d8d0ae3084"
          ],
          "data": "0x0000000000000000000000002260fac5e5542a773aa44fbcfedf7c193bc2c599000000000000000000000000a0b86991c6218b36c1d19d4a2e9eb0ce3606eb48000000000000000000000000a0b86991c6218b36c1d19d4a2e9eb0ce3606eb48b98437c7ba28c6590dd4e1cc46aa89eed181f97108e5b6221730d41347bc817f",
          "blockHash": "0xd5d8710ac417db7dc52d80186316b4fa45b291326ec04f5c790fa186ae64e960",
          "blockNumber": "0x171ed5f",
          "blockTimestamp": "0x696ab1c8",
          "transactionHash": "0x9a5fc1b7ae2ff8975405d19b01a665bb4084e6168997ca326df48985f529d9f2",
          "transactionIndex": "0x0",
          "logIndex": "0x0",
          "removed": false
        }
      ],
      "logsBloom": "0x00000000000000000000000000000000000000000000200000000000000000000000000000000000000000000000000000000000000000000000000000000000000000000000000000000000000000000000000000200002000000000000000000000400000000000000040000000000000000000000000000000004000000000000000000000000000000000000000000000000000000000000000000000000000000000000000040000000000000108000000000000000000000000000000000000000000000100000000020000000000000000000000000000100000000000000000000000000000000000000000000000000000000000000000000000000",
      "type": "0x2",
      "transactionHash": "0x9a5fc1b7ae2ff8975405d19b01a665bb4084e6168997ca326df48985f529d9f2",
      "transactionIndex": "0x0",
      "blockHash": "0xd5d8710ac417db7dc52d80186316b4fa45b291326ec04f5c790fa186ae64e960",
      "blockNumber": "0x171ed5f",
      "gasUsed": "0x42221",
      "effectiveGasPrice": "0x77359b1b",
      "blobGasPrice": "0x1d809d311a22d279",
      "from": "0xf39fd6e51aad88f6f4ce6ab8827279cfffb92266",
      "to": "0x2d929838d32ea33a0994d37f82965c2d284e3b4f",
      "contractAddress": null
    }
  ],
  "libraries": [],
  "pending": [],
  "returns": {},
  "timestamp": 1768600017092,
  "chain": 1,
  "commit": "27b7a61"
}