{
  "transactions": [
    {
      "hash": "0x161b00a3e63407011215d925ec8436eedd8d3fde60b2e36dd1ed7035035531d6",
      "transactionType": "CALL",
      "contractName": null,
      "contractAddress": "0xa2c07e4c38eac63d3335958a58d1fb2e4a70ba21",
      "function": "registerPool(address,bytes,address)",
      "arguments": [
        "0xeB2325E8967203c1ac2231F069F5cF7fE3cca794",
        "0x0000000000000000000000002260fac5e5542a773aa44fbcfedf7c193bc2c599000000000000000000000000dac17f958d2ee523a2206206994597c13d831ec70000000000000000000000000000000000000000000000000000000000000bb8000000000000000000000000000000000000000000000000000000000000003c0000000000000000000000000000000000000000000000000000000000000000",
        "0xdAC17F958D2ee523a2206206994597C13D831ec7"
      ],
      "transaction": {
        "from": "0xf39fd6e51aad88f6f4ce6ab8827279cfffb92266",
        "to": "0xa2c07e4c38eac63d3335958a58d1fb2e4a70ba21",
        "gas": "0x5e21d",
        "value": "0x0",
        "input": "0xe51c076a000000000000000000000000eb2325e8967203c1ac2231f069f5cf7fe3cca7940000000000000000000000000000000000000000000000000000000000000060000000000000000000000000dac17f958d2ee523a2206206994597c13d831ec700000000000000000000000000000000000000000000000000000000000000a00000000000000000000000002260fac5e5542a773aa44fbcfedf7c193bc2c599000000000000000000000000dac17f958d2ee523a2206206994597c13d831ec70000000000000000000000000000000000000000000000000000000000000bb8000000000000000000000000000000000000000000000000000000000000003c0000000000000000000000000000000000000000000000000000000000000000",
        "nonce": "0x11fd",
        "chainId": "0x1"
      },
      "additionalContracts": [],
      "isFixedGasLimit": false
    }
  ],
  "receipts": [
    {
      "status": "0x1",
      "cumulativeGasUsed": "0x405d3",
      "logs": [
        {
          "address": "0xa2c07e4c38eac63d3335958a58d1fb2e4a70ba21",
          "topics": [
            "0x1780f2852ca420719d547dc1a0b6eb7bd2dbd8e5db5d74fc309b58337c92c28a",
            "0x36e815479c0d6c29efe4eab8d93035dc8ddfca66fa9f46ddf8ddb791baf3e54d",
            "0x000000000000000000000000eb2325e8967203c1ac2231f069f5cf7fe3cca794"
          ],
          "data": "0x0000000000000000000000002260fac5e5542a773aa44fbcfedf7c193bc2c599000000000000000000000000dac17f958d2ee523a2206206994597c13d831ec7000000000000000000000000dac17f958d2ee523a2206206994597c13d831ec720c3a15e34e5d88aeba004b0753af69e4f6bea80eae2263f7a92e919cd33cc56",
          "blockHash": "0x9c09ca4d2aa198088ba3cba850d429b8b5b1bcf3da3ad0adcf5fb4516ee9e2c1",
          "blockNumber": "0x172f891",
          "blockTimestamp": "0x6976123c",
          "transactionHash": "0x161b00a3e63407011215d925ec8436eedd8d3fde60b2e36dd1ed7035035531d6",
          "transactionIndex": "0x0",
          "logIndex": "0x0",
          "removed": false
        }
      ],
      "logsBloom": "0x00000000000000000000000000080000000000000000200000000000000002000000000000000000000000000000000000000000000000000000000000000000000001004000000000000000000000000000000000000000000000000000000000000400000000000000000000400000000000400000000000000004000000000000000000000000000000020000000000000000000000000000000000000000000000000000000000000000000000000000040004000000000000000000000000000000000000000000000000000000000000000000000000000000000000000000000000000000000000000000000000000000000000000000000000000000",
      "type": "0x2",
      "transactionHash": "0x161b00a3e63407011215d925ec8436eedd8d3fde60b2e36dd1ed7035035531d6",
      "transactionIndex": "0x0",
      "blockHash": "0x9c09ca4d2aa198088ba3cba850d429b8b5b1bcf3da3ad0adcf5fb4516ee9e2c1",
      "blockNumber": "0x172f891",
      "gasUsed": "0x405d3",
      "effectiveGasPrice": "0x5d177f",
      "blobGasPrice": "0xda3b7220b9b984fd18",
      "from": "0xf39fd6e51aad88f6f4ce6ab8827279cfffb92266",
      "to": "0xa2c07e4c38eac63d3335958a58d1fb2e4a70ba21",
      "contractAddress": null
    }
  ],
  "libraries": [],
  "pending": [],
  "returns": {},
  "timestamp": 1769345610599,
  "chain": 1,
  "commit": "d45ebce"
}