{
  "transactions": [
    {
      "hash": "0xe7022f95d978b5366dcaf9c753ed05d95ef8d43b90aadfeefc562e7dcaf1a362",
      "transactionType": "CALL",
      "contractName": null,
      "contractAddress": "0xdaf5f4b3485b781b0416e724286a3d76d0be06b3",
      "function": "registerPool(address,bytes,address)",
      "arguments": [
        "0x283CC7eF308fA2a8eF46c21052CaEe8C054c676C",
        "0x0000000000000000000000002260fac5e5542a773aa44fbcfedf7c193bc2c599000000000000000000000000dac17f958d2ee523a2206206994597c13d831ec70000000000000000000000000000000000000000000000000000000000000bb8000000000000000000000000000000000000000000000000000000000000003c0000000000000000000000000000000000000000000000000000000000000000",
        "0xdAC17F958D2ee523a2206206994597C13D831ec7"
      ],
      "transaction": {
        "from": "0xf39fd6e51aad88f6f4ce6ab8827279cfffb92266",
        "to": "0xdaf5f4b3485b781b0416e724286a3d76d0be06b3",
        "gas": "0x5be77",
        "value": "0x0",
        "input": "0xe51c076a000000000000000000000000283cc7ef308fa2a8ef46c21052caee8c054c676c0000000000000000000000000000000000000000000000000000000000000060000000000000000000000000dac17f958d2ee523a2206206994597c13d831ec700000000000000000000000000000000000000000000000000000000000000a00000000000000000000000002260fac5e5542a773aa44fbcfedf7c193bc2c599000000000000000000000000dac17f958d2ee523a2206206994597c13d831ec70000000000000000000000000000000000000000000000000000000000000bb8000000000000000000000000000000000000000000000000000000000000003c0000000000000000000000000000000000000000000000000000000000000000",
        "nonce": "0x1150",
        "chainId": "0x1"
      },
      "additionalContracts": [],
      "isFixedGasLimit": false
    }
  ],
  "receipts": [
    {
      "status": "0x1",
      "cumulativeGasUsed": "0x3ed73",
      "logs": [
        {
          "address": "0xdaf5f4b3485b781b0416e724286a3d76d0be06b3",
          "topics": [
            "0x8296a712a8a40412718799ea39d29f1d3484525661a52f3681bdfc6372496b07",
            "0x856ec3275f49902c21d43e721856b30aeb2625862343cf8e92e8a5ceb71fe031",
            "0x000000000000000000000000283cc7ef308fa2a8ef46c21052caee8c054c676c"
          ],
          "data": "0x0000000000000000000000002260fac5e5542a773aa44fbcfedf7c193bc2c599000000000000000000000000dac17f958d2ee523a2206206994597c13d831ec7000000000000000000000000dac17f958d2ee523a2206206994597c13d831ec7",
          "blockHash": "0x4cd792baff5305f3085be2773f1b4d437a76c07927c5f6a7a58871c7ace9beda",
          "blockNumber": "0x17162c2",
          "blockTimestamp": "0x6962f6ea",
          "transactionHash": "0xe7022f95d978b5366dcaf9c753ed05d95ef8d43b90aadfeefc562e7dcaf1a362",
          "transactionIndex": "0x0",
          "logIndex": "0x0",
          "removed": false
        }
      ],
      "logsBloom": "0x00000000000000002000000000000000000000000000000000000000000000000008000000000000000000000000000000000000000000000000000000000000000000000000000000000001000000000000000000000000000000000000000040000000000000000000000000000000000000000000000000000400000400000000000000000100000000000000000000000000000000000000000000000000000000000000000000000000000000000002000000000000000000000000000000000000000000000000000000000000100000000000000000002000000000000000000000000000000000000000000000000000000000000000004000000040",
      "type": "0x2",
      "transactionHash": "0xe7022f95d978b5366dcaf9c753ed05d95ef8d43b90aadfeefc562e7dcaf1a362",
      "transactionIndex": "0x0",
      "blockHash": "0x4cd792baff5305f3085be2773f1b4d437a76c07927c5f6a7a58871c7ace9beda",
      "blockNumber": "0x17162c2",
      "gasUsed": "0x3ed73",
      "effectiveGasPrice": "0x882ef4",
      "blobGasPrice": "0x966e95ea2fc1b1b9b7",
      "from": "0xf39fd6e51aad88f6f4ce6ab8827279cfffb92266",
      "to": "0xdaf5f4b3485b781b0416e724286a3d76d0be06b3",
      "contractAddress": null
    }
  ],
  "libraries": [],
  "pending": [],
  "returns": {},
  "timestamp": 1768093428469,
  "chain": 1,
  "commit": "6b66417"
}