{
  "transactions": [
    {
      "hash": "0x5c14fd98f5e365ba0fd9a0185f7b22806f31b1edb74f12f68e0767407d348526",
      "transactionType": "CALL",
      "contractName": null,
      "contractAddress": "0x190b7e66447633d1b75204f19c4d953e0b836c1b",
      "function": "registerPool(address,bytes,address)",
      "arguments": [
        "0xa9FA0A0aFaFF6F635485fFF23319A82252cb35e8",
        "0x0000000000000000000000002260fac5e5542a773aa44fbcfedf7c193bc2c599000000000000000000000000dac17f958d2ee523a2206206994597c13d831ec70000000000000000000000000000000000000000000000000000000000000bb8000000000000000000000000000000000000000000000000000000000000003c0000000000000000000000000000000000000000000000000000000000000000",
        "0xdAC17F958D2ee523a2206206994597C13D831ec7"
      ],
      "transaction": {
        "from": "0xf39fd6e51aad88f6f4ce6ab8827279cfffb92266",
        "to": "0x190b7e66447633d1b75204f19c4d953e0b836c1b",
        "gas": "0x5bdf7",
        "value": "0x0",
        "input": "0xe51c076a000000000000000000000000a9fa0a0afaff6f635485fff23319a82252cb35e80000000000000000000000000000000000000000000000000000000000000060000000000000000000000000dac17f958d2ee523a2206206994597c13d831ec700000000000000000000000000000000000000000000000000000000000000a00000000000000000000000002260fac5e5542a773aa44fbcfedf7c193bc2c599000000000000000000000000dac17f958d2ee523a2206206994597c13d831ec70000000000000000000000000000000000000000000000000000000000000bb8000000000000000000000000000000000000000000000000000000000000003c0000000000000000000000000000000000000000000000000000000000000000",
        "nonce": "0x1140",
        "chainId": "0x1"
      },
      "additionalContracts": [],
      "isFixedGasLimit": false
    }
  ],
  "receipts": [
    {
      "status": "0x1",
      "cumulativeGasUsed": "0x3ed1b",
      "logs": [
        {
          "address": "0x190b7e66447633d1b75204f19c4d953e0b836c1b",
          "topics": [
            "0x8296a712a8a40412718799ea39d29f1d3484525661a52f3681bdfc6372496b07",
            "0xbb4dc58a27febea457f491cbe27b0290f8b5fd1285b9e2e80dd0c80f954af767",
            "0x000000000000000000000000a9fa0a0afaff6f635485fff23319a82252cb35e8"
          ],
          "data": "0x0000000000000000000000002260fac5e5542a773aa44fbcfedf7c193bc2c599000000000000000000000000dac17f958d2ee523a2206206994597c13d831ec7000000000000000000000000dac17f958d2ee523a2206206994597c13d831ec7",
          "blockHash": "0x778286a6038ccfe0c561bd6d0a25200f8acd5c6fd0cc73461102e207c431abea",
          "blockNumber": "0x17151ad",
          "blockTimestamp": "0x69622951",
          "transactionHash": "0x5c14fd98f5e365ba0fd9a0185f7b22806f31b1edb74f12f68e0767407d348526",
          "transactionIndex": "0x0",
          "logIndex": "0x0",
          "removed": false
        }
      ],
      "logsBloom": "0x00000000000000000000004000000000000000000000000000000000000000100000000000000000000000000000000800000000000000000000000000000000000000000000000000000004000000000000000000000000000000000000000000000000000000000000000000000000000000000000000000000000000000000000000000002000000040002000000000000000000000000000000000000000000000000000000000000000000000000002000000000000000000000000000000000000000000000004000000000000100000000000000000000000000000000000000000000000000000010000000000000000000000000000004000000000",
      "type": "0x2",
      "transactionHash": "0x5c14fd98f5e365ba0fd9a0185f7b22806f31b1edb74f12f68e0767407d348526",
      "transactionIndex": "0x0",
      "blockHash": "0x778286a6038ccfe0c561bd6d0a25200f8acd5c6fd0cc73461102e207c431abea",
      "blockNumber": "0x17151ad",
      "gasUsed": "0x3ed1b",
      "effectiveGasPrice": "0x8576ba",
      "blobGasPrice": "0xab886b932fddc92d85",
      "from": "0xf39fd6e51aad88f6f4ce6ab8827279cfffb92266",
      "to": "0x190b7e66447633d1b75204f19c4d953e0b836c1b",
      "contractAddress": null
    }
  ],
  "libraries": [],
  "pending": [],
  "returns": {},
  "timestamp": 1768040796096,
  "chain": 1,
  "commit": "037a3c7"
}