{
  "transactions": [
    {
      "hash": "0xce02754564674935bf1706fbe7365ad6fd2a251c4a970fae07b9b9316e08453c",
      "transactionType": "CALL",
      "contractName": null,
      "contractAddress": "0x1265b80001f4c8fcfdaf018198ac350e9410a5c4",
      "function": "registerPool(address,bytes,address)",
      "arguments": [
        "0x3aD763c36AfA76bedBf52796D2C9Ce0C2454cf5A",
        "0x0000000000000000000000002260fac5e5542a773aa44fbcfedf7c193bc2c599000000000000000000000000dac17f958d2ee523a2206206994597c13d831ec70000000000000000000000000000000000000000000000000000000000000bb8000000000000000000000000000000000000000000000000000000000000003c0000000000000000000000000000000000000000000000000000000000000000",
        "0xdAC17F958D2ee523a2206206994597C13D831ec7"
      ],
      "transaction": {
        "from": "0xf39fd6e51aad88f6f4ce6ab8827279cfffb92266",
        "to": "0x1265b80001f4c8fcfdaf018198ac350e9410a5c4",
        "gas": "0x5be77",
        "value": "0x0",
        "input": "0xe51c076a0000000000000000000000003ad763c36afa76bedbf52796d2c9ce0c2454cf5a0000000000000000000000000000000000000000000000000000000000000060000000000000000000000000dac17f958d2ee523a2206206994597c13d831ec700000000000000000000000000000000000000000000000000000000000000a00000000000000000000000002260fac5e5542a773aa44fbcfedf7c193bc2c599000000000000000000000000dac17f958d2ee523a2206206994597c13d831ec70000000000000000000000000000000000000000000000000000000000000bb8000000000000000000000000000000000000000000000000000000000000003c0000000000000000000000000000000000000000000000000000000000000000",
        "nonce": "0x1158",
        "chainId": "0x1"
      },
      "additionalContracts": [],
      "isFixedGasLimit": false
    }
  ],
  "receipts": [
    {
      "status": "0x1",
      "cumulativeGasUsed": "0x3ed73",
      "logs": [
        {
          "address": "0x1265b80001f4c8fcfdaf018198ac350e9410a5c4",
          "topics": [
            "0x8296a712a8a40412718799ea39d29f1d3484525661a52f3681bdfc6372496b07",
            "0xcfb011a14aeb958fef3a573a81a8279afed95445d935914dd28f77dc2338bee4",
            "0x0000000000000000000000003ad763c36afa76bedbf52796d2c9ce0c2454cf5a"
          ],
          "data": "0x0000000000000000000000002260fac5e5542a773aa44fbcfedf7c193bc2c599000000000000000000000000dac17f958d2ee523a2206206994597c13d831ec7000000000000000000000000dac17f958d2ee523a2206206994597c13d831ec7",
          "blockHash": "0x8d932154c78b58a8a3876dc2e15f64f67a830c2789b6135e21f894574c87f932",
          "blockNumber": "0x1715601",
          "blockTimestamp": "0x6962658a",
          "transactionHash": "0xce02754564674935bf1706fbe7365ad6fd2a251c4a970fae07b9b9316e08453c",
          "transactionIndex": "0x0",
          "logIndex": "0x0",
          "removed": false
        }
      ],
      "logsBloom": "0x00000000000000000000000000000000000000000000000000000000000000000000000000000000000000000000000000000000000000000000000040040000000000000000000000000000000000000000000000000000000000000000000000000000000000000000000000000000000000000000000000100000000000000000000000000000000000000000002000000000000000000000000000000000000040000000000000000000000000000002000000000000000000000000000000000000000000800000000000000000100000000000000000000000000000000000040000000400000000000000000000000000100000000000004000000000",
      "type": "0x2",
      "transactionHash": "0xce02754564674935bf1706fbe7365ad6fd2a251c4a970fae07b9b9316e08453c",
      "transactionIndex": "0x0",
      "blockHash": "0x8d932154c78b58a8a3876dc2e15f64f67a830c2789b6135e21f894574c87f932",
      "blockNumber": "0x1715601",
      "gasUsed": "0x3ed73",
      "effectiveGasPrice": "0x3baa2667",
      "blobGasPrice": "0x1043d894af86a135fb",
      "from": "0xf39fd6e51aad88f6f4ce6ab8827279cfffb92266",
      "to": "0x1265b80001f4c8fcfdaf018198ac350e9410a5c4",
      "contractAddress": null
    }
  ],
  "libraries": [],
  "pending": [],
  "returns": {},
  "timestamp": 1768056210193,
  "chain": 1,
  "commit": "037a3c7"
}