{
  "transactions": [
    {
      "hash": "0xd499b3190b72c2608bd7ab6e0940a6218afa7e7d5f177b96721870bae256e709",
      "transactionType": "CALL",
      "contractName": null,
      "contractAddress": "0x2d929838d32ea33a0994d37f82965c2d284e3b4f",
      "function": "registerPool(address,bytes,address)",
      "arguments": [
        "0x9214C484342dDd434dCA9Cf6722A27d8d0ae3084",
        "0x0000000000000000000000002260fac5e5542a773aa44fbcfedf7c193bc2c599000000000000000000000000dac17f958d2ee523a2206206994597c13d831ec70000000000000000000000000000000000000000000000000000000000000bb8000000000000000000000000000000000000000000000000000000000000003c0000000000000000000000000000000000000000000000000000000000000000",
        "0xdAC17F958D2ee523a2206206994597C13D831ec7"
      ],
      "transaction": {
        "from": "0xf39fd6e51aad88f6f4ce6ab8827279cfffb92266",
        "to": "0x2d929838d32ea33a0994d37f82965c2d284e3b4f",
        "gas": "0x5ddc6",
        "value": "0x0",
        "input": "0xe51c076a0000000000000000000000009214c484342ddd434dca9cf6722a27d8d0ae30840000000000000000000000000000000000000000000000000000000000000060000000000000000000000000dac17f958d2ee523a2206206994597c13d831ec700000000000000000000000000000000000000000000000000000000000000a00000000000000000000000002260fac5e5542a773aa44fbcfedf7c193bc2c599000000000000000000000000dac17f958d2ee523a2206206994597c13d831ec70000000000000000000000000000000000000000000000000000000000000bb8000000000000000000000000000000000000000000000000000000000000003c0000000000000000000000000000000000000000000000000000000000000000",
        "nonce": "0x117d",
        "chainId": "0x1"
      },
      "additionalContracts": [],
      "isFixedGasLimit": false
    }
  ],
  "receipts": [
    {
      "status": "0x1",
      "cumulativeGasUsed": "0x402db",
      "logs": [
        {
          "address": "0x2d929838d32ea33a0994d37f82965c2d284e3b4f",
          "topics": [
            "0x8296a712a8a40412718799ea39d29f1d3484525661a52f3681bdfc6372496b07",
            "0xb5819d5c742f6df90f51f6b9b492e779f7802b86b67759e3640a3d3738b93e7f",
            "0x0000000000000000000000009214c484342ddd434dca9cf6722a27d8d0ae3084"
          ],
          "data": "0x0000000000000000000000002260fac5e5542a773aa44fbcfedf7c193bc2c599000000000000000000000000dac17f958d2ee523a2206206994597c13d831ec7000000000000000000000000dac17f958d2ee523a2206206994597c13d831ec7",
          "blockHash": "0xe4003152941cdfc057556f4de9dda7ab7599dc38fdacb12fe411c71a8cb74d40",
          "blockNumber": "0x171cd0c",
          "blockTimestamp": "0x6967f95f",
          "transactionHash": "0xd499b3190b72c2608bd7ab6e0940a6218afa7e7d5f177b96721870bae256e709",
          "transactionIndex": "0x0",
          "logIndex": "0x0",
          "removed": false
        }
      ],
      "logsBloom": "0x00000000000000000000000000000000000000000000000000000000000000000000000000000000000000000000000000000000000000000000000000000000000000000000000000000000000000000000000000200002000000000000000000000000000000000000000000000000000000000000000000000000000000000000000000000000000000000000000000000000000000000000000000002000000000000000000000000000000000100002080000000000008000000000000000000000000000100000000020000000100000000000000000000100000000000000000000000000000000000000000000000000000000000000004000000000",
      "type": "0x2",
      "transactionHash": "0xd499b3190b72c2608bd7ab6e0940a6218afa7e7d5f177b96721870bae256e709",
      "transactionIndex": "0x0",
      "blockHash": "0xe4003152941cdfc057556f4de9dda7ab7599dc38fdacb12fe411c71a8cb74d40",
      "blockNumber": "0x171cd0c",
      "gasUsed": "0x402db",
      "effectiveGasPrice": "0x13ac86e",
      "blobGasPrice": "0x16e3a063c5f6695da2db",
      "from": "0xf39fd6e51aad88f6f4ce6ab8827279cfffb92266",
      "to": "0x2d929838d32ea33a0994d37f82965c2d284e3b4f",
      "contractAddress": null
    }
  ],
  "libraries": [],
  "pending": [],
  "returns": {},
  "timestamp": 1768421735576,
  "chain": 1,
  "commit": "e585832"
}