{
  "transactions": [
    {
      "hash": "0x72c59e88fecac684833643bbf839be9628ad060eab2a0ffffe0fcd5668a1588c",
      "transactionType": "CALL",
      "contractName": null,
      "contractAddress": "0x2d929838d32ea33a0994d37f82965c2d284e3b4f",
      "function": "registerPool(address,bytes,address)",
      "arguments": [
        "0x9214C484342dDd434dCA9Cf6722A27d8d0ae3084",
        "0x0000000000000000000000001f9840a85d5af5bf1d1762f925bdaddc4201f984000000000000000000000000a0b86991c6218b36c1d19d4a2e9eb0ce3606eb480000000000000000000000000000000000000000000000000000000000000bb8000000000000000000000000000000000000000000000000000000000000003c0000000000000000000000000000000000000000000000000000000000000000",
        "0xA0b86991c6218b36c1d19D4a2e9Eb0cE3606eB48"
      ],
      "transaction": {
        "from": "0xf39fd6e51aad88f6f4ce6ab8827279cfffb92266",
        "to": "0x2d929838d32ea33a0994d37f82965c2d284e3b4f",
        "gas": "0x60b83",
        "value": "0x0",
        "input": "0xe51c076a0000000000000000000000009214c484342ddd434dca9cf6722a27d8d0ae30840000000000000000000000000000000000000000000000000000000000000060000000000000000000000000a0b86991c6218b36c1d19d4a2e9eb0ce3606eb4800000000000000000000000000000000000000000000000000000000000000a00000000000000000000000001f9840a85d5af5bf1d1762f925bdaddc4201f984000000000000000000000000a0b86991c6218b36c1d19d4a2e9eb0ce3606eb480000000000000000000000000000000000000000000000000000000000000bb8000000000000000000000000000000000000000000000000000000000000003c0000000000000000000000000000000000000000000000000000000000000000",
        "nonce": "0x11c2",
        "chainId": "0x1"
      },
      "additionalContracts": [],
      "isFixedGasLimit": false
    }
  ],
  "receipts": [
    {
      "status": "0x1",
      "cumulativeGasUsed": "0x42221",
      "logs": [
        {
          "address": "0x2d929838d32ea33a0994d37f82965c2d284e3b4f",
          "topics": [
            "0x1780f2852ca420719d547dc1a0b6eb7bd2dbd8e5db5d74fc309b58337c92c28a",
            "0x1c8833375e44254a089ca9a43cff4c33292fe673a0af81de9dbe366fc3703c81",
            "0x0000000000000000000000009214c484342ddd434dca9cf6722a27d8d0ae3084"
          ],
          "data": "0x0000000000000000000000001f9840a85d5af5bf1d1762f925bdaddc4201f984000000000000000000000000a0b86991c6218b36c1d19d4a2e9eb0ce3606eb48000000000000000000000000a0b86991c6218b36c1d19d4a2e9eb0ce3606eb489a5c1d2f4a7a7962a63259de6fcc1afb1d0aa1abdf5d19c23d22fd78953c5167",
          "blockHash": "0xc8a9c7c19fc3e4282e691a0be84e0c3472b1bbf73895e73fa87c061b28023ec1",
          "blockNumber": "0x171ed58",
          "blockTimestamp": "0x696aaf86",
          "transactionHash": "0x72c59e88fecac684833643bbf839be9628ad060eab2a0ffffe0fcd5668a1588c",
          "transactionIndex": "0x0",
          "logIndex": "0x0",
          "removed": false
        }
      ],
      "logsBloom": "0x00000000000000000000000000000000000000000000200000000000000400000002000000000000000000000000000000000000000000000000000000000000000000000000000000000000000000000000100000200002000000000000000000000400000000000000000000000000000000000000000000000004000000000000000000000000000000000000000000000000000000000000000000000000000000000000000000000000000000100000000000000000000000000000000000000000000000100000000020000000000000000000000000000100000000000000000000000000000000000000000000000000000000000000000000000000",
      "type": "0x2",
      "transactionHash": "0x72c59e88fecac684833643bbf839be9628ad060eab2a0ffffe0fcd5668a1588c",
      "transactionIndex": "0x0",
      "blockHash": "0xc8a9c7c19fc3e4282e691a0be84e0c3472b1bbf73895e73fa87c061b28023ec1",
      "blockNumber": "0x171ed58",
      "gasUsed": "0x42221",
      "effectiveGasPrice": "0x7735a589",
      "blobGasPrice": "0x43493a775b308da4",
      "from": "0xf39fd6e51aad88f6f4ce6ab8827279cfffb92266",
      "to": "0x2d929838d32ea33a0994d37f82965c2d284e3b4f",
      "contractAddress": null
    }
  ],
  "libraries": [],
  "pending": [],
  "returns": {},
  "timestamp": 1768599439401,
  "chain": 1,
  "commit": "27b7a61"
}