{
  "transactions": [
    {
      "hash": "0xad02765238429491c2ac48c9a3fa0e8b739f8a16c91e40040a6a78f865441673",
      "transactionType": "CALL",
      "contractName": null,
      "contractAddress": "0x1265b80001f4c8fcfdaf018198ac350e9410a5c4",
      "function": "registerPool(address,bytes,address)",
      "arguments": [
        "0xc63C3EA966E0E6a1F8C45f638D0447da06A9F287",
        "0x0000000000000000000000002260fac5e5542a773aa44fbcfedf7c193bc2c599000000000000000000000000dac17f958d2ee523a2206206994597c13d831ec70000000000000000000000000000000000000000000000000000000000000bb8000000000000000000000000000000000000000000000000000000000000003c0000000000000000000000000000000000000000000000000000000000000000",
        "0xdAC17F958D2ee523a2206206994597C13D831ec7"
      ],
      "transaction": {
        "from": "0xf39fd6e51aad88f6f4ce6ab8827279cfffb92266",
        "to": "0x1265b80001f4c8fcfdaf018198ac350e9410a5c4",
        "gas": "0x5bdf7",
        "value": "0x0",
        "input": "0xe51c076a000000000000000000000000c63c3ea966e0e6a1f8c45f638d0447da06a9f2870000000000000000000000000000000000000000000000000000000000000060000000000000000000000000dac17f958d2ee523a2206206994597c13d831ec700000000000000000000000000000000000000000000000000000000000000a00000000000000000000000002260fac5e5542a773aa44fbcfedf7c193bc2c599000000000000000000000000dac17f958d2ee523a2206206994597c13d831ec70000000000000000000000000000000000000000000000000000000000000bb8000000000000000000000000000000000000000000000000000000000000003c0000000000000000000000000000000000000000000000000000000000000000",
        "nonce": "0x1142",
        "chainId": "0x1"
      },
      "additionalContracts": [],
      "isFixedGasLimit": false
    }
  ],
  "receipts": [
    {
      "status": "0x1",
      "cumulativeGasUsed": "0x3ed1b",
      "logs": [
        {
          "address": "0x1265b80001f4c8fcfdaf018198ac350e9410a5c4",
          "topics": [
            "0x8296a712a8a40412718799ea39d29f1d3484525661a52f3681bdfc6372496b07",
            "0x6c1e5f7580f8657571c57b7b07ec714324e1c66c8d4dfc402b15714aeed488e6",
            "0x000000000000000000000000c63c3ea966e0e6a1f8c45f638d0447da06a9f287"
          ],
          "data": "0x0000000000000000000000002260fac5e5542a773aa44fbcfedf7c193bc2c599000000000000000000000000dac17f958d2ee523a2206206994597c13d831ec7000000000000000000000000dac17f958d2ee523a2206206994597c13d831ec7",
          "blockHash": "0x96e20385f7849a36fce7fc619f1ac0dc7658fa9ec2280b7fb1b6cddf4a901773",
          "blockNumber": "0x17155f1",
          "blockTimestamp": "0x69625cad",
          "transactionHash": "0xad02765238429491c2ac48c9a3fa0e8b739f8a16c91e40040a6a78f865441673",
          "transactionIndex": "0x0",
          "logIndex": "0x0",
          "removed": false
        }
      ],
      "logsBloom": "0x00000000000000000000000000000000000000000000000000008000000000000000000000000000000000000000000000000000000000000000000000000000000000000000000002000000000000000000000001000000000000000000000000000000000000000000000000000000000000000004000000100000000000000000000000000000000000000000000000000000000000000000000000000000000040000000000000000000000000000002000000000000000000000000000000000000000000a00000000000000000100000000000000000000000000000080000000000000000000000000000000000000000000000000000004000000000",
      "type": "0x2",
      "transactionHash": "0xad02765238429491c2ac48c9a3fa0e8b739f8a16c91e40040a6a78f865441673",
      "transactionIndex": "0x0",
      "blockHash": "0x96e20385f7849a36fce7fc619f1ac0dc7658fa9ec2280b7fb1b6cddf4a901773",
      "blockNumber": "0x17155f1",
      "gasUsed": "0x3ed1b",
      "effectiveGasPrice": "0x775434",
      "blobGasPrice": "0x6b13a5573a2756fe89",
      "from": "0xf39fd6e51aad88f6f4ce6ab8827279cfffb92266",
      "to": "0x1265b80001f4c8fcfdaf018198ac350e9410a5c4",
      "contractAddress": null
    }
  ],
  "libraries": [],
  "pending": [],
  "returns": {},
  "timestamp": 1768053941661,
  "chain": 1,
  "commit": "037a3c7"
}