{
  "transactions": [
    {
      "hash": "0x8866eccb36760e83cd28c9959cc661693aabef6890d2eca43ce1adbea97fd782",
      "transactionType": "CALL",
      "contractName": null,
      "contractAddress": "0xf69d69eec78b08eaf48deac029bf233c4918331f",
      "function": "registerPool(address,bytes,address)",
      "arguments": [
        "0xf24078B040406e5FC3DC3E21f0CdF475e5A42c49",
        "0x0000000000000000000000002260fac5e5542a773aa44fbcfedf7c193bc2c599000000000000000000000000dac17f958d2ee523a2206206994597c13d831ec70000000000000000000000000000000000000000000000000000000000000bb8000000000000000000000000000000000000000000000000000000000000003c0000000000000000000000000000000000000000000000000000000000000000",
        "0xdAC17F958D2ee523a2206206994597C13D831ec7"
      ],
      "transaction": {
        "from": "0xf39fd6e51aad88f6f4ce6ab8827279cfffb92266",
        "to": "0xf69d69eec78b08eaf48deac029bf233c4918331f",
        "gas": "0x5ddc6",
        "value": "0x0",
        "input": "0xe51c076a000000000000000000000000f24078b040406e5fc3dc3e21f0cdf475e5a42c490000000000000000000000000000000000000000000000000000000000000060000000000000000000000000dac17f958d2ee523a2206206994597c13d831ec700000000000000000000000000000000000000000000000000000000000000a00000000000000000000000002260fac5e5542a773aa44fbcfedf7c193bc2c599000000000000000000000000dac17f958d2ee523a2206206994597c13d831ec70000000000000000000000000000000000000000000000000000000000000bb8000000000000000000000000000000000000000000000000000000000000003c0000000000000000000000000000000000000000000000000000000000000000",
        "nonce": "0x1168",
        "chainId": "0x1"
      },
      "additionalContracts": [],
      "isFixedGasLimit": false
    }
  ],
  "receipts": [
    {
      "status": "0x1",
      "cumulativeGasUsed": "0x402db",
      "logs": [
        {
          "address": "0xf69d69eec78b08eaf48deac029bf233c4918331f",
          "topics": [
            "0x8296a712a8a40412718799ea39d29f1d3484525661a52f3681bdfc6372496b07",
            "0xfc14f4f785fdc5daaf7d8ba24e9eabf8e41a53a0988f1aa0d6dc3126b16ed82f",
            "0x000000000000000000000000f24078b040406e5fc3dc3e21f0cdf475e5a42c49"
          ],
          "data": "0x0000000000000000000000002260fac5e5542a773aa44fbcfedf7c193bc2c599000000000000000000000000dac17f958d2ee523a2206206994597c13d831ec7000000000000000000000000dac17f958d2ee523a2206206994597c13d831ec7",
          "blockHash": "0x2638a5f47e041ee390047b000280a309502c02ac70eb6466ac6d933d3632f10a",
          "blockNumber": "0x1718d1d",
          "blockTimestamp": "0x6964f59b",
          "transactionHash": "0x8866eccb36760e83cd28c9959cc661693aabef6890d2eca43ce1adbea97fd782",
          "transactionIndex": "0x0",
          "logIndex": "0x0",
          "removed": false
        }
      ],
      "logsBloom": "0x00000000000000000000000000000000000000000000000000000000000001000000000000000000000000000000000000000040000000000000000000000000000000000000000100000000000000000000000000000000000000000000000000000000000000000000000000000000000000000000000000000000000000000000020000000000000408000000000000000000000000000000000000000000000000000000000000000000000000010002000000000000020000000000000000000000000000800000000000000000100000000000000000000000000000000000000000000000000000000000000000000000000000000000004000000000",
      "type": "0x2",
      "transactionHash": "0x8866eccb36760e83cd28c9959cc661693aabef6890d2eca43ce1adbea97fd782",
      "transactionIndex": "0x0",
      "blockHash": "0x2638a5f47e041ee390047b000280a309502c02ac70eb6466ac6d933d3632f10a",
      "blockNumber": "0x1718d1d",
      "gasUsed": "0x402db",
      "effectiveGasPrice": "0x1c1938a",
      "blobGasPrice": "0x4c61a3a0dc79d24ee0d0",
      "from": "0xf39fd6e51aad88f6f4ce6ab8827279cfffb92266",
      "to": "0xf69d69eec78b08eaf48deac029bf233c4918331f",
      "contractAddress": null
    }
  ],
  "libraries": [],
  "pending": [],
  "returns": {},
  "timestamp": 1768224167121,
  "chain": 1,
  "commit": "e585832"
}